{
  "_format": "hh-sol-artifact-1",
  "contractName": "ManageProjects",
  "sourceName": "src/contracts/ManageProjects.sol",
  "abi": [
    {
      "anonymous": false,
      "inputs": [
        {
          "indexed": false,
          "internalType": "uint256",
          "name": "id",
          "type": "uint256"
        },
        {
          "indexed": false,
          "internalType": "string",
          "name": "actionType",
          "type": "string"
        },
        {
          "indexed": true,
          "internalType": "address",
          "name": "executor",
          "type": "address"
        },
        {
          "indexed": false,
          "internalType": "uint256",
          "name": "timestamp",
          "type": "uint256"
        }
      ],
      "name": "Action",
      "type": "event"
    },
    {
      "inputs": [],
      "name": "balance",
      "outputs": [
        {
          "internalType": "uint256",
          "name": "",
          "type": "uint256"
        }
      ],
      "stateMutability": "view",
      "type": "function"
    },
    {
      "inputs": [
        {
          "internalType": "uint256",
          "name": "_taxPercentage",
          "type": "uint256"
        }
      ],
      "name": "changeTax",
      "outputs": [],
      "stateMutability": "nonpayable",
      "type": "function"
    },
    {
      "inputs": [
        {
          "internalType": "string",
          "name": "title",
          "type": "string"
        },
        {
          "internalType": "string",
          "name": "description",
          "type": "string"
        },
        {
          "internalType": "string",
          "name": "imageURL",
          "type": "string"
        },
        {
          "internalType": "uint256",
          "name": "cost",
          "type": "uint256"
        },
        {
          "internalType": "uint256",
          "name": "expiresAt",
          "type": "uint256"
        }
      ],
      "name": "createProject",
      "outputs": [
        {
          "internalType": "bool",
          "name": "",
          "type": "bool"
        }
      ],
      "stateMutability": "nonpayable",
      "type": "function"
    },
    {
      "inputs": [
        {
          "internalType": "uint256",
          "name": "id",
          "type": "uint256"
        }
      ],
      "name": "deleteProject",
      "outputs": [
        {
          "internalType": "bool",
          "name": "",
          "type": "bool"
        }
      ],
      "stateMutability": "nonpayable",
      "type": "function"
    },
    {
      "inputs": [
        {
          "internalType": "uint256",
          "name": "id",
          "type": "uint256"
        }
      ],
      "name": "getProject",
      "outputs": [
        {
          "components": [
            {
              "internalType": "uint256",
              "name": "id",
              "type": "uint256"
            },
            {
              "internalType": "address",
              "name": "owner",
              "type": "address"
            },
            {
              "internalType": "string",
              "name": "title",
              "type": "string"
            },
            {
              "internalType": "string",
              "name": "description",
              "type": "string"
            },
            {
              "internalType": "string",
              "name": "imageURL",
              "type": "string"
            },
            {
              "internalType": "uint256",
              "name": "cost",
              "type": "uint256"
            },
            {
              "internalType": "uint256",
              "name": "raised",
              "type": "uint256"
            },
            {
              "internalType": "uint256",
              "name": "timestamp",
              "type": "uint256"
            },
            {
              "internalType": "uint256",
              "name": "expiresAt",
              "type": "uint256"
            },
            {
              "internalType": "uint256",
              "name": "supporters",
              "type": "uint256"
            },
            {
              "internalType": "enum DataTypes.Status",
              "name": "status",
              "type": "uint8"
            }
          ],
          "internalType": "struct DataTypes.Project",
          "name": "",
          "type": "tuple"
        }
      ],
      "stateMutability": "view",
      "type": "function"
    },
    {
      "inputs": [
        {
          "internalType": "uint256",
          "name": "id",
          "type": "uint256"
        }
      ],
      "name": "getProjectStatus",
      "outputs": [
        {
          "internalType": "uint256",
          "name": "",
          "type": "uint256"
        }
      ],
      "stateMutability": "view",
      "type": "function"
    },
    {
      "inputs": [],
      "name": "getProjects",
      "outputs": [
        {
          "components": [
            {
              "internalType": "uint256",
              "name": "id",
              "type": "uint256"
            },
            {
              "internalType": "address",
              "name": "owner",
              "type": "address"
            },
            {
              "internalType": "string",
              "name": "title",
              "type": "string"
            },
            {
              "internalType": "string",
              "name": "description",
              "type": "string"
            },
            {
              "internalType": "string",
              "name": "imageURL",
              "type": "string"
            },
            {
              "internalType": "uint256",
              "name": "cost",
              "type": "uint256"
            },
            {
              "internalType": "uint256",
              "name": "raised",
              "type": "uint256"
            },
            {
              "internalType": "uint256",
              "name": "timestamp",
              "type": "uint256"
            },
            {
              "internalType": "uint256",
              "name": "expiresAt",
              "type": "uint256"
            },
            {
              "internalType": "uint256",
              "name": "supporters",
              "type": "uint256"
            },
            {
              "internalType": "enum DataTypes.Status",
              "name": "status",
              "type": "uint8"
            }
          ],
          "internalType": "struct DataTypes.Project[]",
          "name": "",
          "type": "tuple[]"
        }
      ],
      "stateMutability": "view",
      "type": "function"
    },
    {
      "inputs": [
        {
          "internalType": "address",
          "name": "projectOwner",
          "type": "address"
        }
      ],
      "name": "getProjectsOf",
      "outputs": [
        {
          "components": [
            {
              "internalType": "uint256",
              "name": "id",
              "type": "uint256"
            },
            {
              "internalType": "address",
              "name": "owner",
              "type": "address"
            },
            {
              "internalType": "string",
              "name": "title",
              "type": "string"
            },
            {
              "internalType": "string",
              "name": "description",
              "type": "string"
            },
            {
              "internalType": "string",
              "name": "imageURL",
              "type": "string"
            },
            {
              "internalType": "uint256",
              "name": "cost",
              "type": "uint256"
            },
            {
              "internalType": "uint256",
              "name": "raised",
              "type": "uint256"
            },
            {
              "internalType": "uint256",
              "name": "timestamp",
              "type": "uint256"
            },
            {
              "internalType": "uint256",
              "name": "expiresAt",
              "type": "uint256"
            },
            {
              "internalType": "uint256",
              "name": "supporters",
              "type": "uint256"
            },
            {
              "internalType": "enum DataTypes.Status",
              "name": "status",
              "type": "uint8"
            }
          ],
          "internalType": "struct DataTypes.Project[]",
          "name": "",
          "type": "tuple[]"
        }
      ],
      "stateMutability": "view",
      "type": "function"
    },
    {
      "inputs": [],
      "name": "owner",
      "outputs": [
        {
          "internalType": "address",
          "name": "",
          "type": "address"
        }
      ],
      "stateMutability": "view",
      "type": "function"
    },
    {
      "inputs": [],
      "name": "projectCount",
      "outputs": [
        {
          "internalType": "uint256",
          "name": "",
          "type": "uint256"
        }
      ],
      "stateMutability": "view",
      "type": "function"
    },
    {
      "inputs": [
        {
          "internalType": "uint256",
          "name": "",
          "type": "uint256"
        }
      ],
      "name": "projectExist",
      "outputs": [
        {
          "internalType": "bool",
          "name": "",
          "type": "bool"
        }
      ],
      "stateMutability": "view",
      "type": "function"
    },
    {
      "inputs": [],
      "name": "projectTax",
      "outputs": [
        {
          "internalType": "uint256",
          "name": "",
          "type": "uint256"
        }
      ],
      "stateMutability": "view",
      "type": "function"
    },
    {
      "inputs": [
        {
          "internalType": "uint256",
          "name": "",
          "type": "uint256"
        }
      ],
      "name": "projects",
      "outputs": [
        {
          "internalType": "uint256",
          "name": "id",
          "type": "uint256"
        },
        {
          "internalType": "address",
          "name": "owner",
          "type": "address"
        },
        {
          "internalType": "string",
          "name": "title",
          "type": "string"
        },
        {
          "internalType": "string",
          "name": "description",
          "type": "string"
        },
        {
          "internalType": "string",
          "name": "imageURL",
          "type": "string"
        },
        {
          "internalType": "uint256",
          "name": "cost",
          "type": "uint256"
        },
        {
          "internalType": "uint256",
          "name": "raised",
          "type": "uint256"
        },
        {
          "internalType": "uint256",
          "name": "timestamp",
          "type": "uint256"
        },
        {
          "internalType": "uint256",
          "name": "expiresAt",
          "type": "uint256"
        },
        {
          "internalType": "uint256",
          "name": "supporters",
          "type": "uint256"
        },
        {
          "internalType": "enum DataTypes.Status",
          "name": "status",
          "type": "uint8"
        }
      ],
      "stateMutability": "view",
      "type": "function"
    },
    {
      "inputs": [],
      "name": "stats",
      "outputs": [
        {
          "internalType": "uint256",
          "name": "totalProjects",
          "type": "uint256"
        },
        {
          "internalType": "uint256",
          "name": "totalSupporters",
          "type": "uint256"
        },
        {
          "internalType": "uint256",
          "name": "totalDonations",
          "type": "uint256"
        }
      ],
      "stateMutability": "view",
      "type": "function"
    },
    {
      "inputs": [
        {
          "internalType": "uint256",
          "name": "id",
          "type": "uint256"
        },
        {
          "internalType": "string",
          "name": "title",
          "type": "string"
        },
        {
          "internalType": "string",
          "name": "description",
          "type": "string"
        },
        {
          "internalType": "string",
          "name": "imageURL",
          "type": "string"
        },
        {
          "internalType": "uint256",
          "name": "expiresAt",
          "type": "uint256"
        }
      ],
      "name": "updateProject",
      "outputs": [
        {
          "internalType": "bool",
          "name": "",
          "type": "bool"
        }
      ],
      "stateMutability": "nonpayable",
      "type": "function"
    },
    {
      "inputs": [
        {
          "internalType": "uint256",
          "name": "amount",
          "type": "uint256"
        }
      ],
      "name": "withdrawFunds",
      "outputs": [],
      "stateMutability": "nonpayable",
      "type": "function"
    }
  ],
  "bytecode": "0x608060405234801561001057600080fd5b5061202b806100206000396000f3fe608060405234801561001057600080fd5b50600436106101005760003560e01c80638da5cb5b11610097578063d24cd3ec11610066578063d24cd3ec14610246578063d80528ae1461024f578063dcc601281461027c578063f0f3f2c81461028457600080fd5b80638da5cb5b146101ec5780639675c009146102175780639a3fa8c71461022a578063b69ef8a81461023d57600080fd5b806336fbad26116100d357806336fbad261461018c5780633e45c8af146101a35780634cd0cb28146101b65780638593054b146101c957600080fd5b8063056c29ee14610105578063107046bd1461012d578063155dd5ee146101575780631996c2df1461016c575b600080fd5b610118610113366004611b05565b6102a4565b60405190151581526020015b60405180910390f35b61014061013b366004611b9f565b610722565b6040516101249b9a99989796959493929190611c3d565b61016a610165366004611b9f565b610931565b005b61017f61017a366004611cd1565b6109d4565b6040516101249190611dc6565b61019560025481565b604051908152602001610124565b61016a6101b1366004611b9f565b610c85565b6101186101c4366004611b9f565b610cf9565b6101186101d7366004611b9f565b600a6020526000908152604090205460ff1681565b6000546101ff906001600160a01b031681565b6040516001600160a01b039091168152602001610124565b610195610225366004611b9f565b610ee0565b610118610238366004611e28565b610f4f565b61019560035481565b61019560015481565b60045460055460065461026192919083565b60408051938452602084019290925290820152606001610124565b61017f61122c565b610297610292366004611b9f565b6114c7565b6040516101249190611ec2565b6000808651116102f45760405162461bcd60e51b81526020600482015260166024820152755469746c652063616e6e6f7420626520656d7074792160501b60448201526064015b60405180910390fd5b60008551116103455760405162461bcd60e51b815260206004820152601c60248201527f4465736372697074696f6e2063616e6e6f7420626520656d707479210000000060448201526064016102eb565b60008451116103925760405162461bcd60e51b8152602060048201526019602482015278496d61676555524c2063616e6e6f7420626520656d7074792160381b60448201526064016102eb565b600083116103d95760405162461bcd60e51b8152602060048201526014602482015273436f73742063616e6e6f74206265207a65726f2160601b60448201526064016102eb565b6103e1611956565b600254815233602080830191825260408301898152606084018990526080840188905260a084018790524260e085015261010084018690526007805460018101825560009190915284517fa66cc928b5edb82af9bd49922954155ab7b0942694bea4ce44661d9a8736c688600b90920291820190815593517fa66cc928b5edb82af9bd49922954155ab7b0942694bea4ce44661d9a8736c689820180546001600160a01b0319166001600160a01b03909216919091179055905180518594936104ce937fa66cc928b5edb82af9bd49922954155ab7b0942694bea4ce44661d9a8736c68a019201906119c9565b50606082015180516104ea9160038401916020909101906119c9565b50608082015180516105069160048401916020909101906119c9565b5060a0820151600582015560c0820151600682015560e0820151600782015561010082015160088201556101208201516009820155610140820151600a8201805460ff1916600183600481111561055f5761055f611c05565b021790555050600280546000908152600a602090815260408083208054600160ff1990911681179091553384526008835281842080548083018255908552938390208751600b909502019384558683015190840180546001600160a01b0319166001600160a01b03909216919091179055850151805186955092936105ec939085019291909101906119c9565b50606082015180516106089160038401916020909101906119c9565b50608082015180516106249160048401916020909101906119c9565b5060a0820151600582015560c0820151600682015560e0820151600782015561010082015160088201556101208201516009820155610140820151600a8201805460ff1916600183600481111561067d5761067d611c05565b0217905550505060016004600001600082825461069a9190611eeb565b90915550506002805433917faee8e5d3bbb2f71a951b5632cee20f7ac487b9f8ab4f66a236f7694b13af7c6a919060006106d383611f03565b9091555060408051918252606060208301819052600f908301526e141493d29150d517d0d49150551151608a1b6080830152429082015260a00160405180910390a25060019695505050505050565b6007818154811061073257600080fd5b60009182526020909120600b90910201805460018201546002830180549294506001600160a01b03909116929161076890611f1e565b80601f016020809104026020016040519081016040528092919081815260200182805461079490611f1e565b80156107e15780601f106107b6576101008083540402835291602001916107e1565b820191906000526020600020905b8154815290600101906020018083116107c457829003601f168201915b5050505050908060030180546107f690611f1e565b80601f016020809104026020016040519081016040528092919081815260200182805461082290611f1e565b801561086f5780601f106108445761010080835404028352916020019161086f565b820191906000526020600020905b81548152906001019060200180831161085257829003601f168201915b50505050509080600401805461088490611f1e565b80601f01602080910402602001604051908101604052809291908181526020018280546108b090611f1e565b80156108fd5780601f106108d2576101008083540402835291602001916108fd565b820191906000526020600020905b8154815290600101906020018083116108e057829003601f168201915b50505060058401546006850154600786015460088701546009880154600a9098015496979396929550909350919060ff168b565b6000546001600160a01b0316331461095b5760405162461bcd60e51b81526004016102eb90611f59565b6003548111156109a45760405162461bcd60e51b8152602060048201526014602482015273496e73756666696369656e742062616c616e636560601b60448201526064016102eb565b80600360008282546109b69190611f9d565b90915550506000546109d1906001600160a01b031682611783565b50565b6001600160a01b0381166000908152600860209081526040808320805482518185028101850190935280835260609492939192909184015b82821015610c7a5760008481526020908190206040805161016081018252600b86029092018054835260018101546001600160a01b03169383019390935260028301805492939291840191610a6090611f1e565b80601f0160208091040260200160405190810160405280929190818152602001828054610a8c90611f1e565b8015610ad95780601f10610aae57610100808354040283529160200191610ad9565b820191906000526020600020905b815481529060010190602001808311610abc57829003601f168201915b50505050508152602001600382018054610af290611f1e565b80601f0160208091040260200160405190810160405280929190818152602001828054610b1e90611f1e565b8015610b6b5780601f10610b4057610100808354040283529160200191610b6b565b820191906000526020600020905b815481529060010190602001808311610b4e57829003601f168201915b50505050508152602001600482018054610b8490611f1e565b80601f0160208091040260200160405190810160405280929190818152602001828054610bb090611f1e565b8015610bfd5780601f10610bd257610100808354040283529160200191610bfd565b820191906000526020600020905b815481529060010190602001808311610be057829003601f168201915b505050918352505060058201546020820152600682015460408201526007820154606082015260088201546080820152600982015460a0820152600a82015460c09091019060ff166004811115610c5657610c56611c05565b6004811115610c6757610c67611c05565b8152505081526020019060010190610a0c565b505050509050919050565b6000546001600160a01b03163314610caf5760405162461bcd60e51b81526004016102eb90611f59565b6064811115610cf45760405162461bcd60e51b8152602060048201526011602482015270496e76616c6964207461782076616c756560781b60448201526064016102eb565b600155565b60008060078381548110610d0f57610d0f611fb4565b60009182526020909120600a600b90920201015460ff166004811115610d3757610d37611c05565b14610d845760405162461bcd60e51b815260206004820152601960248201527f50726f6a656374206e6f206c6f6e676572206f70656e6564210000000000000060448201526064016102eb565b60078281548110610d9757610d97611fb4565b60009182526020909120600b90910201600101546001600160a01b03163314610df85760405162461bcd60e51b8152602060048201526013602482015272556e617574686f72697a656420456e7469747960681b60448201526064016102eb565b6000828152600a602052604090205460ff16610e265760405162461bcd60e51b81526004016102eb90611fca565b600360078381548110610e3b57610e3b611fb4565b60009182526020909120600a600b9092020101805460ff19166001836004811115610e6857610e68611c05565b0217905550610e76826117e8565b60408051838152606060208201819052600f908201526e141493d29150d517d1115311551151608a1b60808201524281830152905133917faee8e5d3bbb2f71a951b5632cee20f7ac487b9f8ab4f66a236f7694b13af7c6a919081900360a00190a2506001919050565b6000818152600a602052604081205460ff16610f0e5760405162461bcd60e51b81526004016102eb90611fca565b60078281548110610f2157610f21611fb4565b60009182526020909120600a600b90920201015460ff166004811115610f4957610f49611c05565b92915050565b6000858152600a602052604081205460ff16610f7d5760405162461bcd60e51b81526004016102eb90611fca565b60078681548110610f9057610f90611fb4565b60009182526020909120600b90910201600101546001600160a01b03163314610ff15760405162461bcd60e51b8152602060048201526013602482015272556e617574686f72697a656420456e7469747960681b60448201526064016102eb565b600085511161103b5760405162461bcd60e51b81526020600482015260166024820152755469746c652063616e6e6f7420626520656d7074792160501b60448201526064016102eb565b600084511161108c5760405162461bcd60e51b815260206004820152601c60248201527f4465736372697074696f6e2063616e6e6f7420626520656d707479210000000060448201526064016102eb565b60008351116110d95760405162461bcd60e51b8152602060048201526019602482015278496d61676555524c2063616e6e6f7420626520656d7074792160381b60448201526064016102eb565b84600787815481106110ed576110ed611fb4565b90600052602060002090600b020160020190805190602001906111119291906119c9565b50836007878154811061112657611126611fb4565b90600052602060002090600b0201600301908051906020019061114a9291906119c9565b50826007878154811061115f5761115f611fb4565b90600052602060002090600b020160040190805190602001906111839291906119c9565b50816007878154811061119857611198611fb4565b90600052602060002090600b020160080181905550336001600160a01b03167faee8e5d3bbb2f71a951b5632cee20f7ac487b9f8ab4f66a236f7694b13af7c6a8742604051611218929190918252606060208301819052600f908301526e141493d29150d517d5541110551151608a1b6080830152604082015260a00190565b60405180910390a250600195945050505050565b60606007805480602002602001604051908101604052809291908181526020016000905b828210156114be5760008481526020908190206040805161016081018252600b86029092018054835260018101546001600160a01b031693830193909352600283018054929392918401916112a490611f1e565b80601f01602080910402602001604051908101604052809291908181526020018280546112d090611f1e565b801561131d5780601f106112f25761010080835404028352916020019161131d565b820191906000526020600020905b81548152906001019060200180831161130057829003601f168201915b5050505050815260200160038201805461133690611f1e565b80601f016020809104026020016040519081016040528092919081815260200182805461136290611f1e565b80156113af5780601f10611384576101008083540402835291602001916113af565b820191906000526020600020905b81548152906001019060200180831161139257829003601f168201915b505050505081526020016004820180546113c890611f1e565b80601f01602080910402602001604051908101604052809291908181526020018280546113f490611f1e565b80156114415780601f1061141657610100808354040283529160200191611441565b820191906000526020600020905b81548152906001019060200180831161142457829003601f168201915b505050918352505060058201546020820152600682015460408201526007820154606082015260088201546080820152600982015460a0820152600a82015460c09091019060ff16600481111561149a5761149a611c05565b60048111156114ab576114ab611c05565b8152505081526020019060010190611250565b50505050905090565b6114cf611956565b6000828152600a602052604090205460ff166114fd5760405162461bcd60e51b81526004016102eb90611fca565b6007828154811061151057611510611fb4565b90600052602060002090600b020160405180610160016040529081600082015481526020016001820160009054906101000a90046001600160a01b03166001600160a01b03166001600160a01b0316815260200160028201805461157390611f1e565b80601f016020809104026020016040519081016040528092919081815260200182805461159f90611f1e565b80156115ec5780601f106115c1576101008083540402835291602001916115ec565b820191906000526020600020905b8154815290600101906020018083116115cf57829003601f168201915b5050505050815260200160038201805461160590611f1e565b80601f016020809104026020016040519081016040528092919081815260200182805461163190611f1e565b801561167e5780601f106116535761010080835404028352916020019161167e565b820191906000526020600020905b81548152906001019060200180831161166157829003601f168201915b5050505050815260200160048201805461169790611f1e565b80601f01602080910402602001604051908101604052809291908181526020018280546116c390611f1e565b80156117105780601f106116e557610100808354040283529160200191611710565b820191906000526020600020905b8154815290600101906020018083116116f357829003601f168201915b505050918352505060058201546020820152600682015460408201526007820154606082015260088201546080820152600982015460a0820152600a82015460c09091019060ff16600481111561176957611769611c05565b600481111561177a5761177a611c05565b90525092915050565b6000826001600160a01b03168260405160006040518083038185875af1925050503d80600081146117d0576040519150601f19603f3d011682016040523d82523d6000602084013e6117d5565b606091505b50509050806117e357600080fd5b505050565b60005b60008281526009602052604090205481101561195257600082815260096020526040812080548390811061182157611821611fb4565b6000918252602080832060049092029091015485835260099091526040822080546001600160a01b039092169350908490811061186057611860611fb4565b9060005260206000209060040201600101549050600160096000868152602001908152602001600020848154811061189a5761189a611fb4565b906000526020600020906004020160030160006101000a81548160ff021916908315150217905550426009600086815260200190815260200160002084815481106118e7576118e7611fb4565b9060005260206000209060040201600201819055506119068282611783565b60016004600101600082825461191c9190611f9d565b909155505060068054829190600090611936908490611f9d565b925050819055505050808061194a90611f03565b9150506117eb565b5050565b6040518061016001604052806000815260200160006001600160a01b031681526020016060815260200160608152602001606081526020016000815260200160008152602001600081526020016000815260200160008152602001600060048111156119c4576119c4611c05565b905290565b8280546119d590611f1e565b90600052602060002090601f0160209004810192826119f75760008555611a3d565b82601f10611a1057805160ff1916838001178555611a3d565b82800160010185558215611a3d579182015b82811115611a3d578251825591602001919060010190611a22565b50611a49929150611a4d565b5090565b5b80821115611a495760008155600101611a4e565b634e487b7160e01b600052604160045260246000fd5b600082601f830112611a8957600080fd5b813567ffffffffffffffff80821115611aa457611aa4611a62565b604051601f8301601f19908116603f01168101908282118183101715611acc57611acc611a62565b81604052838152866020858801011115611ae557600080fd5b836020870160208301376000602085830101528094505050505092915050565b600080600080600060a08688031215611b1d57600080fd5b853567ffffffffffffffff80821115611b3557600080fd5b611b4189838a01611a78565b96506020880135915080821115611b5757600080fd5b611b6389838a01611a78565b95506040880135915080821115611b7957600080fd5b50611b8688828901611a78565b9598949750949560608101359550608001359392505050565b600060208284031215611bb157600080fd5b5035919050565b6000815180845260005b81811015611bde57602081850181015186830182015201611bc2565b81811115611bf0576000602083870101525b50601f01601f19169290920160200192915050565b634e487b7160e01b600052602160045260246000fd5b60058110611c3957634e487b7160e01b600052602160045260246000fd5b9052565b8b81526001600160a01b038b16602082015261016060408201819052600090611c688382018d611bb8565b90508281036060840152611c7c818c611bb8565b90508281036080840152611c90818b611bb8565b9150508760a08301528660c08301528560e08301528461010083015283610120830152611cc1610140830184611c1b565b9c9b505050505050505050505050565b600060208284031215611ce357600080fd5b81356001600160a01b0381168114611cfa57600080fd5b9392505050565b6000610160825184526020830151611d2460208601826001600160a01b03169052565b506040830151816040860152611d3c82860182611bb8565b91505060608301518482036060860152611d568282611bb8565b91505060808301518482036080860152611d708282611bb8565b91505060a083015160a085015260c083015160c085015260e083015160e085015261010080840151818601525061012080840151818601525061014080840151611dbc82870182611c1b565b5090949350505050565b6000602080830181845280855180835260408601915060408160051b870101925083870160005b82811015611e1b57603f19888603018452611e09858351611d01565b94509285019290850190600101611ded565b5092979650505050505050565b600080600080600060a08688031215611e4057600080fd5b85359450602086013567ffffffffffffffff80821115611e5f57600080fd5b611e6b89838a01611a78565b95506040880135915080821115611e8157600080fd5b611e8d89838a01611a78565b94506060880135915080821115611ea357600080fd5b50611eb088828901611a78565b95989497509295608001359392505050565b602081526000611cfa6020830184611d01565b634e487b7160e01b600052601160045260246000fd5b60008219821115611efe57611efe611ed5565b500190565b6000600019821415611f1757611f17611ed5565b5060010190565b600181811c90821680611f3257607f821691505b60208210811415611f5357634e487b7160e01b600052602260045260246000fd5b50919050565b60208082526024908201527f4f7065726174696f6e20616c6c6f776564206f6e6c7920666f7220746865206f6040820152633bb732b960e11b606082015260800190565b600082821015611faf57611faf611ed5565b500390565b634e487b7160e01b600052603260045260246000fd5b602080825260119082015270141c9bda9958dd081b9bdd08199bdd5b99607a1b60408201526060019056fea264697066735822122090e9d424339fc7ade197a7cb5ae69d7dacade3cec26ded52e7b17bc2fd6dea2264736f6c634300080b0033",
  "linkReferences": {},
  "deployedLinkReferences": {}
}