{
  "_format": "hh-sol-artifact-1",
  "contractName": "ManageProjects",
  "sourceName": "src/contracts/ManageProjects.sol",
  "abi": [
    {
      "anonymous": false,
      "inputs": [
        {
          "indexed": false,
          "internalType": "uint256",
          "name": "id",
          "type": "uint256"
        },
        {
          "indexed": false,
          "internalType": "string",
          "name": "actionType",
          "type": "string"
        },
        {
          "indexed": true,
          "internalType": "address",
          "name": "executor",
          "type": "address"
        },
        {
          "indexed": false,
          "internalType": "uint256",
          "name": "timestamp",
          "type": "uint256"
        }
      ],
      "name": "Action",
      "type": "event"
    },
    {
      "inputs": [],
      "name": "balance",
      "outputs": [
        {
          "internalType": "uint256",
          "name": "",
          "type": "uint256"
        }
      ],
      "stateMutability": "view",
      "type": "function"
    },
    {
      "inputs": [
        {
          "internalType": "uint256",
          "name": "_taxPercentage",
          "type": "uint256"
        }
      ],
      "name": "changeTax",
      "outputs": [],
      "stateMutability": "nonpayable",
      "type": "function"
    },
    {
      "inputs": [
        {
          "internalType": "string",
          "name": "title",
          "type": "string"
        },
        {
          "internalType": "string",
          "name": "description",
          "type": "string"
        },
        {
          "internalType": "string",
          "name": "imageURL",
          "type": "string"
        },
        {
          "internalType": "uint256",
          "name": "cost",
          "type": "uint256"
        },
        {
          "internalType": "uint256",
          "name": "expiresAt",
          "type": "uint256"
        }
      ],
      "name": "createProject",
      "outputs": [
        {
          "internalType": "bool",
          "name": "",
          "type": "bool"
        }
      ],
      "stateMutability": "nonpayable",
      "type": "function"
    },
    {
      "inputs": [
        {
          "internalType": "uint256",
          "name": "id",
          "type": "uint256"
        }
      ],
      "name": "deleteProject",
      "outputs": [
        {
          "internalType": "bool",
          "name": "",
          "type": "bool"
        }
      ],
      "stateMutability": "nonpayable",
      "type": "function"
    },
    {
      "inputs": [
        {
          "internalType": "uint256",
          "name": "id",
          "type": "uint256"
        }
      ],
      "name": "getProject",
      "outputs": [
        {
          "components": [
            {
              "internalType": "uint256",
              "name": "id",
              "type": "uint256"
            },
            {
              "internalType": "address",
              "name": "owner",
              "type": "address"
            },
            {
              "internalType": "string",
              "name": "title",
              "type": "string"
            },
            {
              "internalType": "string",
              "name": "description",
              "type": "string"
            },
            {
              "internalType": "string",
              "name": "imageURL",
              "type": "string"
            },
            {
              "internalType": "uint256",
              "name": "cost",
              "type": "uint256"
            },
            {
              "internalType": "uint256",
              "name": "raised",
              "type": "uint256"
            },
            {
              "internalType": "uint256",
              "name": "timestamp",
              "type": "uint256"
            },
            {
              "internalType": "uint256",
              "name": "expiresAt",
              "type": "uint256"
            },
            {
              "internalType": "uint256",
              "name": "supporters",
              "type": "uint256"
            },
            {
              "internalType": "enum DataTypes.Status",
              "name": "status",
              "type": "uint8"
            }
          ],
          "internalType": "struct DataTypes.Project",
          "name": "",
          "type": "tuple"
        }
      ],
      "stateMutability": "view",
      "type": "function"
    },
    {
      "inputs": [
        {
          "internalType": "uint256",
          "name": "id",
          "type": "uint256"
        }
      ],
      "name": "getProjectStatus",
      "outputs": [
        {
          "internalType": "uint256",
          "name": "",
          "type": "uint256"
        }
      ],
      "stateMutability": "view",
      "type": "function"
    },
    {
      "inputs": [],
      "name": "getProjects",
      "outputs": [
        {
          "components": [
            {
              "internalType": "uint256",
              "name": "id",
              "type": "uint256"
            },
            {
              "internalType": "address",
              "name": "owner",
              "type": "address"
            },
            {
              "internalType": "string",
              "name": "title",
              "type": "string"
            },
            {
              "internalType": "string",
              "name": "description",
              "type": "string"
            },
            {
              "internalType": "string",
              "name": "imageURL",
              "type": "string"
            },
            {
              "internalType": "uint256",
              "name": "cost",
              "type": "uint256"
            },
            {
              "internalType": "uint256",
              "name": "raised",
              "type": "uint256"
            },
            {
              "internalType": "uint256",
              "name": "timestamp",
              "type": "uint256"
            },
            {
              "internalType": "uint256",
              "name": "expiresAt",
              "type": "uint256"
            },
            {
              "internalType": "uint256",
              "name": "supporters",
              "type": "uint256"
            },
            {
              "internalType": "enum DataTypes.Status",
              "name": "status",
              "type": "uint8"
            }
          ],
          "internalType": "struct DataTypes.Project[]",
          "name": "",
          "type": "tuple[]"
        }
      ],
      "stateMutability": "view",
      "type": "function"
    },
    {
      "inputs": [
        {
          "internalType": "address",
          "name": "projectOwner",
          "type": "address"
        }
      ],
      "name": "getProjectsOf",
      "outputs": [
        {
          "components": [
            {
              "internalType": "uint256",
              "name": "id",
              "type": "uint256"
            },
            {
              "internalType": "address",
              "name": "owner",
              "type": "address"
            },
            {
              "internalType": "string",
              "name": "title",
              "type": "string"
            },
            {
              "internalType": "string",
              "name": "description",
              "type": "string"
            },
            {
              "internalType": "string",
              "name": "imageURL",
              "type": "string"
            },
            {
              "internalType": "uint256",
              "name": "cost",
              "type": "uint256"
            },
            {
              "internalType": "uint256",
              "name": "raised",
              "type": "uint256"
            },
            {
              "internalType": "uint256",
              "name": "timestamp",
              "type": "uint256"
            },
            {
              "internalType": "uint256",
              "name": "expiresAt",
              "type": "uint256"
            },
            {
              "internalType": "uint256",
              "name": "supporters",
              "type": "uint256"
            },
            {
              "internalType": "enum DataTypes.Status",
              "name": "status",
              "type": "uint8"
            }
          ],
          "internalType": "struct DataTypes.Project[]",
          "name": "",
          "type": "tuple[]"
        }
      ],
      "stateMutability": "view",
      "type": "function"
    },
    {
      "inputs": [],
      "name": "owner",
      "outputs": [
        {
          "internalType": "address",
          "name": "",
          "type": "address"
        }
      ],
      "stateMutability": "view",
      "type": "function"
    },
    {
      "inputs": [],
      "name": "projectCount",
      "outputs": [
        {
          "internalType": "uint256",
          "name": "",
          "type": "uint256"
        }
      ],
      "stateMutability": "view",
      "type": "function"
    },
    {
      "inputs": [
        {
          "internalType": "uint256",
          "name": "",
          "type": "uint256"
        }
      ],
      "name": "projectExist",
      "outputs": [
        {
          "internalType": "bool",
          "name": "",
          "type": "bool"
        }
      ],
      "stateMutability": "view",
      "type": "function"
    },
    {
      "inputs": [],
      "name": "projectTax",
      "outputs": [
        {
          "internalType": "uint256",
          "name": "",
          "type": "uint256"
        }
      ],
      "stateMutability": "view",
      "type": "function"
    },
    {
      "inputs": [
        {
          "internalType": "uint256",
          "name": "",
          "type": "uint256"
        }
      ],
      "name": "projects",
      "outputs": [
        {
          "internalType": "uint256",
          "name": "id",
          "type": "uint256"
        },
        {
          "internalType": "address",
          "name": "owner",
          "type": "address"
        },
        {
          "internalType": "string",
          "name": "title",
          "type": "string"
        },
        {
          "internalType": "string",
          "name": "description",
          "type": "string"
        },
        {
          "internalType": "string",
          "name": "imageURL",
          "type": "string"
        },
        {
          "internalType": "uint256",
          "name": "cost",
          "type": "uint256"
        },
        {
          "internalType": "uint256",
          "name": "raised",
          "type": "uint256"
        },
        {
          "internalType": "uint256",
          "name": "timestamp",
          "type": "uint256"
        },
        {
          "internalType": "uint256",
          "name": "expiresAt",
          "type": "uint256"
        },
        {
          "internalType": "uint256",
          "name": "supporters",
          "type": "uint256"
        },
        {
          "internalType": "enum DataTypes.Status",
          "name": "status",
          "type": "uint8"
        }
      ],
      "stateMutability": "view",
      "type": "function"
    },
    {
      "inputs": [],
      "name": "stats",
      "outputs": [
        {
          "internalType": "uint256",
          "name": "totalProjects",
          "type": "uint256"
        },
        {
          "internalType": "uint256",
          "name": "totalSupporters",
          "type": "uint256"
        },
        {
          "internalType": "uint256",
          "name": "totalDonations",
          "type": "uint256"
        }
      ],
      "stateMutability": "view",
      "type": "function"
    },
    {
      "inputs": [
        {
          "internalType": "uint256",
          "name": "id",
          "type": "uint256"
        },
        {
          "internalType": "string",
          "name": "title",
          "type": "string"
        },
        {
          "internalType": "string",
          "name": "description",
          "type": "string"
        },
        {
          "internalType": "string",
          "name": "imageURL",
          "type": "string"
        },
        {
          "internalType": "uint256",
          "name": "expiresAt",
          "type": "uint256"
        }
      ],
      "name": "updateProject",
      "outputs": [
        {
          "internalType": "bool",
          "name": "",
          "type": "bool"
        }
      ],
      "stateMutability": "nonpayable",
      "type": "function"
    },
    {
      "inputs": [
        {
          "internalType": "uint256",
          "name": "amount",
          "type": "uint256"
        }
      ],
      "name": "withdrawFunds",
      "outputs": [],
      "stateMutability": "nonpayable",
      "type": "function"
    },
    {
      "inputs": [],
      "name": "withdrawFunds",
      "outputs": [],
      "stateMutability": "nonpayable",
      "type": "function"
    },
    {
      "inputs": [
        {
          "internalType": "address",
          "name": "",
          "type": "address"
        }
      ],
      "name": "withdrawals",
      "outputs": [
        {
          "internalType": "uint256",
          "name": "",
          "type": "uint256"
        }
      ],
      "stateMutability": "view",
      "type": "function"
    }
  ],
  "bytecode": "0x608060405234801561001057600080fd5b506001600c5561225c806100256000396000f3fe608060405234801561001057600080fd5b50600436106101165760003560e01c80638593054b116100a2578063b69ef8a811610071578063b69ef8a81461027b578063d24cd3ec14610284578063d80528ae1461028d578063dcc60128146102ba578063f0f3f2c8146102c257600080fd5b80638593054b146102075780638da5cb5b1461022a5780639675c009146102555780639a3fa8c71461026857600080fd5b806324600fc3116100e957806324600fc3146101a257806336fbad26146101aa5780633e45c8af146101c15780634cd0cb28146101d45780637a9262a2146101e757600080fd5b8063056c29ee1461011b578063107046bd14610143578063155dd5ee1461016d5780631996c2df14610182575b600080fd5b61012e610129366004611c3b565b6102e2565b60405190151581526020015b60405180910390f35b610156610151366004611cd5565b61073b565b60405161013a9b9a99989796959493929190611d6c565b61018061017b366004611cd5565b61094a565b005b610195610190366004611e00565b6109ed565b60405161013a9190611ef5565b610180610c9e565b6101b360025481565b60405190815260200161013a565b6101806101cf366004611cd5565b610d9a565b61012e6101e2366004611cd5565b610e0e565b6101b36101f5366004611e00565b60086020526000908152604090205481565b61012e610215366004611cd5565b600b6020526000908152604090205460ff1681565b60005461023d906001600160a01b031681565b6040516001600160a01b03909116815260200161013a565b6101b3610263366004611cd5565b610ff5565b61012e610276366004611f57565b611064565b6101b360035481565b6101b360015481565b60045460055460065461029f92919083565b6040805193845260208401929092529082015260600161013a565b61019561132c565b6102d56102d0366004611cd5565b6115c7565b60405161013a9190611ff1565b6000808651116103325760405162461bcd60e51b81526020600482015260166024820152755469746c652063616e6e6f7420626520656d7074792160501b60448201526064015b60405180910390fd5b60008551116103835760405162461bcd60e51b815260206004820152601c60248201527f4465736372697074696f6e2063616e6e6f7420626520656d70747921000000006044820152606401610329565b60008451116103d05760405162461bcd60e51b8152602060048201526019602482015278496d61676555524c2063616e6e6f7420626520656d7074792160381b6044820152606401610329565b600083116104175760405162461bcd60e51b8152602060048201526014602482015273436f73742063616e6e6f74206265207a65726f2160601b6044820152606401610329565b61041f611b25565b6002548152336020820190815260408201888152606083018890526080830187905260a083018690524260e084015261010083018590526007805460018101825560009190915283517fa66cc928b5edb82af9bd49922954155ab7b0942694bea4ce44661d9a8736c688600b90920291820190815592517fa66cc928b5edb82af9bd49922954155ab7b0942694bea4ce44661d9a8736c689820180546001600160a01b0319166001600160a01b0390921691909117905590518392917fa66cc928b5edb82af9bd49922954155ab7b0942694bea4ce44661d9a8736c68a0190610508908261208c565b506060820151600382019061051d908261208c565b5060808201516004820190610532908261208c565b5060a0820151600582015560c0820151600682015560e0820151600782015561010082015160088201556101208201516009820155610140820151600a8201805460ff1916600183600481111561058b5761058b611d34565b021790555050600280546000908152600b602081815260408084208054600160ff1990911681179091553385526009835281852080548083018255908652948390208851959094029093019384559086015191830180546001600160a01b0319166001600160a01b03909316929092179091558401518493509091820190610613908261208c565b5060608201516003820190610628908261208c565b506080820151600482019061063d908261208c565b5060a0820151600582015560c0820151600682015560e0820151600782015561010082015160088201556101208201516009820155610140820151600a8201805460ff1916600183600481111561069657610696611d34565b021790555050506001600460000160008282546106b39190612162565b90915550506002805433917faee8e5d3bbb2f71a951b5632cee20f7ac487b9f8ab4f66a236f7694b13af7c6a919060006106ec83612175565b9091555060408051918252606060208301819052600f908301526e141493d29150d517d0d49150551151608a1b6080830152429082015260a00160405180910390a25060019695505050505050565b6007818154811061074b57600080fd5b60009182526020909120600b90910201805460018201546002830180549294506001600160a01b03909116929161078190612004565b80601f01602080910402602001604051908101604052809291908181526020018280546107ad90612004565b80156107fa5780601f106107cf576101008083540402835291602001916107fa565b820191906000526020600020905b8154815290600101906020018083116107dd57829003601f168201915b50505050509080600301805461080f90612004565b80601f016020809104026020016040519081016040528092919081815260200182805461083b90612004565b80156108885780601f1061085d57610100808354040283529160200191610888565b820191906000526020600020905b81548152906001019060200180831161086b57829003601f168201915b50505050509080600401805461089d90612004565b80601f01602080910402602001604051908101604052809291908181526020018280546108c990612004565b80156109165780601f106108eb57610100808354040283529160200191610916565b820191906000526020600020905b8154815290600101906020018083116108f957829003601f168201915b50505060058401546006850154600786015460088701546009880154600a9098015496979396929550909350919060ff168b565b6000546001600160a01b031633146109745760405162461bcd60e51b81526004016103299061218e565b6003548111156109bd5760405162461bcd60e51b8152602060048201526014602482015273496e73756666696369656e742062616c616e636560601b6044820152606401610329565b80600360008282546109cf91906121d2565b90915550506000546109ea906001600160a01b031682611883565b50565b6001600160a01b0381166000908152600960209081526040808320805482518185028101850190935280835260609492939192909184015b82821015610c935760008481526020908190206040805161016081018252600b86029092018054835260018101546001600160a01b03169383019390935260028301805492939291840191610a7990612004565b80601f0160208091040260200160405190810160405280929190818152602001828054610aa590612004565b8015610af25780601f10610ac757610100808354040283529160200191610af2565b820191906000526020600020905b815481529060010190602001808311610ad557829003601f168201915b50505050508152602001600382018054610b0b90612004565b80601f0160208091040260200160405190810160405280929190818152602001828054610b3790612004565b8015610b845780601f10610b5957610100808354040283529160200191610b84565b820191906000526020600020905b815481529060010190602001808311610b6757829003601f168201915b50505050508152602001600482018054610b9d90612004565b80601f0160208091040260200160405190810160405280929190818152602001828054610bc990612004565b8015610c165780601f10610beb57610100808354040283529160200191610c16565b820191906000526020600020905b815481529060010190602001808311610bf957829003601f168201915b505050918352505060058201546020820152600682015460408201526007820154606082015260088201546080820152600982015460a0820152600a82015460c09091019060ff166004811115610c6f57610c6f611d34565b6004811115610c8057610c80611d34565b8152505081526020019060010190610a25565b505050509050919050565b3360009081526008602052604090205480610cfb5760405162461bcd60e51b815260206004820152601e60248201527f4e6f2066756e647320617661696c61626c6520746f20776974686472617700006044820152606401610329565b336000818152600860205260408082208290555190919083908381818185875af1925050503d8060008114610d4c576040519150601f19603f3d011682016040523d82523d6000602084013e610d51565b606091505b5050905080610d965760405162461bcd60e51b815260206004820152601160248201527015da5d1a191c985dd85b0819985a5b1959607a1b6044820152606401610329565b5050565b6000546001600160a01b03163314610dc45760405162461bcd60e51b81526004016103299061218e565b6064811115610e095760405162461bcd60e51b8152602060048201526011602482015270496e76616c6964207461782076616c756560781b6044820152606401610329565b600155565b60008060078381548110610e2457610e246121e5565b60009182526020909120600a600b90920201015460ff166004811115610e4c57610e4c611d34565b14610e995760405162461bcd60e51b815260206004820152601960248201527f50726f6a656374206e6f206c6f6e676572206f70656e656421000000000000006044820152606401610329565b60078281548110610eac57610eac6121e5565b60009182526020909120600b90910201600101546001600160a01b03163314610f0d5760405162461bcd60e51b8152602060048201526013602482015272556e617574686f72697a656420456e7469747960681b6044820152606401610329565b6000828152600b602052604090205460ff16610f3b5760405162461bcd60e51b8152600401610329906121fb565b600360078381548110610f5057610f506121e5565b60009182526020909120600a600b9092020101805460ff19166001836004811115610f7d57610f7d611d34565b0217905550610f8b826118e8565b60408051838152606060208201819052600f908201526e141493d29150d517d1115311551151608a1b60808201524281830152905133917faee8e5d3bbb2f71a951b5632cee20f7ac487b9f8ab4f66a236f7694b13af7c6a919081900360a00190a2506001919050565b6000818152600b602052604081205460ff166110235760405162461bcd60e51b8152600401610329906121fb565b60078281548110611036576110366121e5565b60009182526020909120600a600b90920201015460ff16600481111561105e5761105e611d34565b92915050565b6000858152600b602052604081205460ff166110925760405162461bcd60e51b8152600401610329906121fb565b600786815481106110a5576110a56121e5565b60009182526020909120600b90910201600101546001600160a01b031633146111065760405162461bcd60e51b8152602060048201526013602482015272556e617574686f72697a656420456e7469747960681b6044820152606401610329565b60008551116111505760405162461bcd60e51b81526020600482015260166024820152755469746c652063616e6e6f7420626520656d7074792160501b6044820152606401610329565b60008451116111a15760405162461bcd60e51b815260206004820152601c60248201527f4465736372697074696f6e2063616e6e6f7420626520656d70747921000000006044820152606401610329565b60008351116111ee5760405162461bcd60e51b8152602060048201526019602482015278496d61676555524c2063616e6e6f7420626520656d7074792160381b6044820152606401610329565b8460078781548110611202576112026121e5565b90600052602060002090600b0201600201908161121f919061208c565b508360078781548110611234576112346121e5565b90600052602060002090600b02016003019081611251919061208c565b508260078781548110611266576112666121e5565b90600052602060002090600b02016004019081611283919061208c565b508160078781548110611298576112986121e5565b90600052602060002090600b020160080181905550336001600160a01b03167faee8e5d3bbb2f71a951b5632cee20f7ac487b9f8ab4f66a236f7694b13af7c6a8742604051611318929190918252606060208301819052600f908301526e141493d29150d517d5541110551151608a1b6080830152604082015260a00190565b60405180910390a250600195945050505050565b60606007805480602002602001604051908101604052809291908181526020016000905b828210156115be5760008481526020908190206040805161016081018252600b86029092018054835260018101546001600160a01b031693830193909352600283018054929392918401916113a490612004565b80601f01602080910402602001604051908101604052809291908181526020018280546113d090612004565b801561141d5780601f106113f25761010080835404028352916020019161141d565b820191906000526020600020905b81548152906001019060200180831161140057829003601f168201915b5050505050815260200160038201805461143690612004565b80601f016020809104026020016040519081016040528092919081815260200182805461146290612004565b80156114af5780601f10611484576101008083540402835291602001916114af565b820191906000526020600020905b81548152906001019060200180831161149257829003601f168201915b505050505081526020016004820180546114c890612004565b80601f01602080910402602001604051908101604052809291908181526020018280546114f490612004565b80156115415780601f1061151657610100808354040283529160200191611541565b820191906000526020600020905b81548152906001019060200180831161152457829003601f168201915b505050918352505060058201546020820152600682015460408201526007820154606082015260088201546080820152600982015460a0820152600a82015460c09091019060ff16600481111561159a5761159a611d34565b60048111156115ab576115ab611d34565b8152505081526020019060010190611350565b50505050905090565b6115cf611b25565b6000828152600b602052604090205460ff166115fd5760405162461bcd60e51b8152600401610329906121fb565b60078281548110611610576116106121e5565b90600052602060002090600b020160405180610160016040529081600082015481526020016001820160009054906101000a90046001600160a01b03166001600160a01b03166001600160a01b0316815260200160028201805461167390612004565b80601f016020809104026020016040519081016040528092919081815260200182805461169f90612004565b80156116ec5780601f106116c1576101008083540402835291602001916116ec565b820191906000526020600020905b8154815290600101906020018083116116cf57829003601f168201915b5050505050815260200160038201805461170590612004565b80601f016020809104026020016040519081016040528092919081815260200182805461173190612004565b801561177e5780601f106117535761010080835404028352916020019161177e565b820191906000526020600020905b81548152906001019060200180831161176157829003601f168201915b5050505050815260200160048201805461179790612004565b80601f01602080910402602001604051908101604052809291908181526020018280546117c390612004565b80156118105780601f106117e557610100808354040283529160200191611810565b820191906000526020600020905b8154815290600101906020018083116117f357829003601f168201915b505050918352505060058201546020820152600682015460408201526007820154606082015260088201546080820152600982015460a0820152600a82015460c09091019060ff16600481111561186957611869611d34565b600481111561187a5761187a611d34565b90525092915050565b6000826001600160a01b03168260405160006040518083038185875af1925050503d80600081146118d0576040519150601f19603f3d011682016040523d82523d6000602084013e6118d5565b606091505b50509050806118e357600080fd5b505050565b6118f0611acc565b60005b6000828152600a6020526040902054811015611ac1576000828152600a60205260409020805482908110611929576119296121e5565b600091825260209091206003600490920201015460ff16611aaf576000828152600a60205260408120805483908110611964576119646121e5565b60009182526020808320600490920290910154858352600a9091526040822080546001600160a01b03909216935090849081106119a3576119a36121e5565b90600052602060002090600402016001015490508060086000846001600160a01b03166001600160a01b0316815260200190815260200160002060008282546119ec9190612162565b90915550506000848152600a6020526040902080546001919085908110611a1557611a156121e5565b906000526020600020906004020160030160006101000a81548160ff02191690831515021790555042600a60008681526020019081526020016000208481548110611a6257611a626121e5565b906000526020600020906004020160020181905550600160046001016000828254611a8d91906121d2565b909155505060068054829190600090611aa79084906121d2565b909155505050505b80611ab981612175565b9150506118f3565b506109ea6001600c55565b6002600c5403611b1e5760405162461bcd60e51b815260206004820152601f60248201527f5265656e7472616e637947756172643a207265656e7472616e742063616c6c006044820152606401610329565b6002600c55565b6040518061016001604052806000815260200160006001600160a01b03168152602001606081526020016060815260200160608152602001600081526020016000815260200160008152602001600081526020016000815260200160006004811115611b9357611b93611d34565b905290565b634e487b7160e01b600052604160045260246000fd5b600082601f830112611bbf57600080fd5b813567ffffffffffffffff80821115611bda57611bda611b98565b604051601f8301601f19908116603f01168101908282118183101715611c0257611c02611b98565b81604052838152866020858801011115611c1b57600080fd5b836020870160208301376000602085830101528094505050505092915050565b600080600080600060a08688031215611c5357600080fd5b853567ffffffffffffffff80821115611c6b57600080fd5b611c7789838a01611bae565b96506020880135915080821115611c8d57600080fd5b611c9989838a01611bae565b95506040880135915080821115611caf57600080fd5b50611cbc88828901611bae565b9598949750949560608101359550608001359392505050565b600060208284031215611ce757600080fd5b5035919050565b6000815180845260005b81811015611d1457602081850181015186830182015201611cf8565b506000602082860101526020601f19601f83011685010191505092915050565b634e487b7160e01b600052602160045260246000fd5b60058110611d6857634e487b7160e01b600052602160045260246000fd5b9052565b8b81526001600160a01b038b16602082015261016060408201819052600090611d978382018d611cee565b90508281036060840152611dab818c611cee565b90508281036080840152611dbf818b611cee565b9150508760a08301528660c08301528560e08301528461010083015283610120830152611df0610140830184611d4a565b9c9b505050505050505050505050565b600060208284031215611e1257600080fd5b81356001600160a01b0381168114611e2957600080fd5b9392505050565b6000610160825184526020830151611e5360208601826001600160a01b03169052565b506040830151816040860152611e6b82860182611cee565b91505060608301518482036060860152611e858282611cee565b91505060808301518482036080860152611e9f8282611cee565b91505060a083015160a085015260c083015160c085015260e083015160e085015261010080840151818601525061012080840151818601525061014080840151611eeb82870182611d4a565b5090949350505050565b6000602080830181845280855180835260408601915060408160051b870101925083870160005b82811015611f4a57603f19888603018452611f38858351611e30565b94509285019290850190600101611f1c565b5092979650505050505050565b600080600080600060a08688031215611f6f57600080fd5b85359450602086013567ffffffffffffffff80821115611f8e57600080fd5b611f9a89838a01611bae565b95506040880135915080821115611fb057600080fd5b611fbc89838a01611bae565b94506060880135915080821115611fd257600080fd5b50611fdf88828901611bae565b95989497509295608001359392505050565b602081526000611e296020830184611e30565b600181811c9082168061201857607f821691505b60208210810361203857634e487b7160e01b600052602260045260246000fd5b50919050565b601f8211156118e357600081815260208120601f850160051c810160208610156120655750805b601f850160051c820191505b8181101561208457828155600101612071565b505050505050565b815167ffffffffffffffff8111156120a6576120a6611b98565b6120ba816120b48454612004565b8461203e565b602080601f8311600181146120ef57600084156120d75750858301515b600019600386901b1c1916600185901b178555612084565b600085815260208120601f198616915b8281101561211e578886015182559484019460019091019084016120ff565b508582101561213c5787850151600019600388901b60f8161c191681555b5050505050600190811b01905550565b634e487b7160e01b600052601160045260246000fd5b8082018082111561105e5761105e61214c565b6000600182016121875761218761214c565b5060010190565b60208082526024908201527f4f7065726174696f6e20616c6c6f776564206f6e6c7920666f7220746865206f6040820152633bb732b960e11b606082015260800190565b8181038181111561105e5761105e61214c565b634e487b7160e01b600052603260045260246000fd5b602080825260119082015270141c9bda9958dd081b9bdd08199bdd5b99607a1b60408201526060019056fea2646970667358221220b96ab6e4a0c1b0be383dbee8d27f072bef16bba141e97ec5428d69c6dcbb548164736f6c63430008130033",
  "linkReferences": {},
  "deployedLinkReferences": {}
}