{"src/contracts/DCharity.sol":{"DCharity":{"abi":[{"inputs":[{"internalType":"uint256","name":"_projectTax","type":"uint256"}],"stateMutability":"nonpayable","type":"constructor"},{"anonymous":false,"inputs":[{"indexed":false,"internalType":"uint256","name":"id","type":"uint256"},{"indexed":false,"internalType":"string","name":"actionType","type":"string"},{"indexed":true,"internalType":"address","name":"executor","type":"address"},{"indexed":false,"internalType":"uint256","name":"timestamp","type":"uint256"}],"name":"Action","type":"event"},{"inputs":[],"name":"balance","outputs":[{"internalType":"uint256","name":"","type":"uint256"}],"stateMutability":"view","type":"function"},{"inputs":[{"internalType":"uint256","name":"_taxPercentage","type":"uint256"}],"name":"changeTax","outputs":[],"stateMutability":"nonpayable","type":"function"},{"inputs":[{"internalType":"string","name":"title","type":"string"},{"internalType":"string","name":"description","type":"string"},{"internalType":"string","name":"imageURL","type":"string"},{"internalType":"uint256","name":"cost","type":"uint256"},{"internalType":"uint256","name":"expiresAt","type":"uint256"}],"name":"createProject","outputs":[{"internalType":"bool","name":"","type":"bool"}],"stateMutability":"nonpayable","type":"function"},{"inputs":[{"internalType":"uint256","name":"id","type":"uint256"}],"name":"deleteProject","outputs":[{"internalType":"bool","name":"","type":"bool"}],"stateMutability":"nonpayable","type":"function"},{"inputs":[],"name":"getAllSupporters","outputs":[{"components":[{"internalType":"address","name":"owner","type":"address"},{"internalType":"uint256","name":"contribution","type":"uint256"},{"internalType":"uint256","name":"timestamp","type":"uint256"},{"internalType":"bool","name":"refunded","type":"bool"}],"internalType":"struct DataTypes.Supporter[]","name":"","type":"tuple[]"}],"stateMutability":"view","type":"function"},{"inputs":[{"internalType":"uint256","name":"id","type":"uint256"}],"name":"getProject","outputs":[{"components":[{"internalType":"uint256","name":"id","type":"uint256"},{"internalType":"address","name":"owner","type":"address"},{"internalType":"string","name":"title","type":"string"},{"internalType":"string","name":"description","type":"string"},{"internalType":"string","name":"imageURL","type":"string"},{"internalType":"uint256","name":"cost","type":"uint256"},{"internalType":"uint256","name":"raised","type":"uint256"},{"internalType":"uint256","name":"timestamp","type":"uint256"},{"internalType":"uint256","name":"expiresAt","type":"uint256"},{"internalType":"uint256","name":"supporters","type":"uint256"},{"internalType":"enum DataTypes.Status","name":"status","type":"uint8"}],"internalType":"struct DataTypes.Project","name":"","type":"tuple"}],"stateMutability":"view","type":"function"},{"inputs":[{"internalType":"uint256","name":"id","type":"uint256"}],"name":"getProjectStatus","outputs":[{"internalType":"uint256","name":"","type":"uint256"}],"stateMutability":"view","type":"function"},{"inputs":[],"name":"getProjects","outputs":[{"components":[{"internalType":"uint256","name":"id","type":"uint256"},{"internalType":"address","name":"owner","type":"address"},{"internalType":"string","name":"title","type":"string"},{"internalType":"string","name":"description","type":"string"},{"internalType":"string","name":"imageURL","type":"string"},{"internalType":"uint256","name":"cost","type":"uint256"},{"internalType":"uint256","name":"raised","type":"uint256"},{"internalType":"uint256","name":"timestamp","type":"uint256"},{"internalType":"uint256","name":"expiresAt","type":"uint256"},{"internalType":"uint256","name":"supporters","type":"uint256"},{"internalType":"enum DataTypes.Status","name":"status","type":"uint8"}],"internalType":"struct DataTypes.Project[]","name":"","type":"tuple[]"}],"stateMutability":"view","type":"function"},{"inputs":[{"internalType":"address","name":"projectOwner","type":"address"}],"name":"getProjectsOf","outputs":[{"components":[{"internalType":"uint256","name":"id","type":"uint256"},{"internalType":"address","name":"owner","type":"address"},{"internalType":"string","name":"title","type":"string"},{"internalType":"string","name":"description","type":"string"},{"internalType":"string","name":"imageURL","type":"string"},{"internalType":"uint256","name":"cost","type":"uint256"},{"internalType":"uint256","name":"raised","type":"uint256"},{"internalType":"uint256","name":"timestamp","type":"uint256"},{"internalType":"uint256","name":"expiresAt","type":"uint256"},{"internalType":"uint256","name":"supporters","type":"uint256"},{"internalType":"enum DataTypes.Status","name":"status","type":"uint8"}],"internalType":"struct DataTypes.Project[]","name":"","type":"tuple[]"}],"stateMutability":"view","type":"function"},{"inputs":[{"internalType":"uint256","name":"id","type":"uint256"}],"name":"getSupporters","outputs":[{"components":[{"internalType":"address","name":"owner","type":"address"},{"internalType":"uint256","name":"contribution","type":"uint256"},{"internalType":"uint256","name":"timestamp","type":"uint256"},{"internalType":"bool","name":"refunded","type":"bool"}],"internalType":"struct DataTypes.Supporter[]","name":"","type":"tuple[]"}],"stateMutability":"view","type":"function"},{"inputs":[],"name":"getTotalDonationsCount","outputs":[{"internalType":"uint256","name":"","type":"uint256"}],"stateMutability":"view","type":"function"},{"inputs":[],"name":"getTotalSupportersCount","outputs":[{"internalType":"uint256","name":"","type":"uint256"}],"stateMutability":"view","type":"function"},{"inputs":[],"name":"owner","outputs":[{"internalType":"address","name":"","type":"address"}],"stateMutability":"view","type":"function"},{"inputs":[{"internalType":"uint256","name":"id","type":"uint256"}],"name":"payOutProject","outputs":[{"internalType":"bool","name":"","type":"bool"}],"stateMutability":"nonpayable","type":"function"},{"inputs":[],"name":"projectCount","outputs":[{"internalType":"uint256","name":"","type":"uint256"}],"stateMutability":"view","type":"function"},{"inputs":[{"internalType":"uint256","name":"","type":"uint256"}],"name":"projectExist","outputs":[{"internalType":"bool","name":"","type":"bool"}],"stateMutability":"view","type":"function"},{"inputs":[],"name":"projectTax","outputs":[{"internalType":"uint256","name":"","type":"uint256"}],"stateMutability":"view","type":"function"},{"inputs":[{"internalType":"uint256","name":"","type":"uint256"}],"name":"projects","outputs":[{"internalType":"uint256","name":"id","type":"uint256"},{"internalType":"address","name":"owner","type":"address"},{"internalType":"string","name":"title","type":"string"},{"internalType":"string","name":"description","type":"string"},{"internalType":"string","name":"imageURL","type":"string"},{"internalType":"uint256","name":"cost","type":"uint256"},{"internalType":"uint256","name":"raised","type":"uint256"},{"internalType":"uint256","name":"timestamp","type":"uint256"},{"internalType":"uint256","name":"expiresAt","type":"uint256"},{"internalType":"uint256","name":"supporters","type":"uint256"},{"internalType":"enum DataTypes.Status","name":"status","type":"uint8"}],"stateMutability":"view","type":"function"},{"inputs":[{"internalType":"uint256","name":"id","type":"uint256"}],"name":"requestRefund","outputs":[{"internalType":"bool","name":"","type":"bool"}],"stateMutability":"nonpayable","type":"function"},{"inputs":[],"name":"stats","outputs":[{"internalType":"uint256","name":"totalProjects","type":"uint256"},{"internalType":"uint256","name":"totalSupporters","type":"uint256"},{"internalType":"uint256","name":"totalDonations","type":"uint256"}],"stateMutability":"view","type":"function"},{"inputs":[{"internalType":"uint256","name":"id","type":"uint256"}],"name":"supportProject","outputs":[{"internalType":"bool","name":"","type":"bool"}],"stateMutability":"payable","type":"function"},{"inputs":[{"internalType":"uint256","name":"id","type":"uint256"},{"internalType":"string","name":"title","type":"string"},{"internalType":"string","name":"description","type":"string"},{"internalType":"string","name":"imageURL","type":"string"},{"internalType":"uint256","name":"expiresAt","type":"uint256"}],"name":"updateProject","outputs":[{"internalType":"bool","name":"","type":"bool"}],"stateMutability":"nonpayable","type":"function"},{"inputs":[{"internalType":"uint256","name":"amount","type":"uint256"}],"name":"withdrawFunds","outputs":[],"stateMutability":"nonpayable","type":"function"}],"evm":{"bytecode":{"linkReferences":{},"object":"60806040523480156200001157600080fd5b50604051620031dd380380620031dd83398101604081905262000034916200004f565b600080546001600160a01b0319163317905560015562000069565b6000602082840312156200006257600080fd5b5051919050565b61316480620000796000396000f3fe6080604052600436106101405760003560e01c80638593054b116100b6578063b69ef8a81161006f578063b69ef8a8146103b6578063bb14b2e4146103cc578063d24cd3ec146103e1578063d80528ae146103f7578063dcc6012814610431578063f0f3f2c81461044657600080fd5b80638593054b146102ce5780638da5cb5b146102fe5780639675c009146103365780639a3fa8c714610356578063a4b2409e14610376578063b531dcba1461039657600080fd5b806336fbad261161010857806336fbad261461021357806338d58384146102375780633e45c8af1461024c57806348cefbda1461026c5780634cd0cb28146102815780634f63829c146102a157600080fd5b8063056c29ee14610145578063107046bd1461017a578063155dd5ee146101b15780631996c2df146101d3578063329b0f9b14610200575b600080fd5b34801561015157600080fd5b50610165610160366004612b41565b610473565b60405190151581526020015b60405180910390f35b34801561018657600080fd5b5061019a610195366004612bdb565b6108df565b6040516101719b9a99989796959493929190612c79565b3480156101bd57600080fd5b506101d16101cc366004612bdb565b610aee565b005b3480156101df57600080fd5b506101f36101ee366004612d0d565b610b91565b6040516101719190612e02565b61016561020e366004612bdb565b610e42565b34801561021f57600080fd5b5061022960025481565b604051908152602001610171565b34801561024357600080fd5b50600554610229565b34801561025857600080fd5b506101d1610267366004612bdb565b6116f5565b34801561027857600080fd5b50600654610229565b34801561028d57600080fd5b5061016561029c366004612bdb565b611769565b3480156102ad57600080fd5b506102c16102bc366004612bdb565b611918565b6040516101719190612e64565b3480156102da57600080fd5b506101656102e9366004612bdb565b600a6020526000908152604090205460ff1681565b34801561030a57600080fd5b5060005461031e906001600160a01b031681565b6040516001600160a01b039091168152602001610171565b34801561034257600080fd5b50610229610351366004612bdb565b6119d4565b34801561036257600080fd5b50610165610371366004612ed3565b611a43565b34801561038257600080fd5b50610165610391366004612bdb565b611ce8565b3480156103a257600080fd5b506101656103b1366004612bdb565b611e0e565b3480156103c257600080fd5b5061022960035481565b3480156103d857600080fd5b506102c1611f2a565b3480156103ed57600080fd5b5061022960015481565b34801561040357600080fd5b5060045460055460065461041692919083565b60408051938452602084019290925290820152606001610171565b34801561043d57600080fd5b506101f36120f1565b34801561045257600080fd5b50610466610461366004612bdb565b61238c565b6040516101719190612f6d565b6000808651116104c35760405162461bcd60e51b81526020600482015260166024820152755469746c652063616e6e6f7420626520656d7074792160501b60448201526064015b60405180910390fd5b60008551116105145760405162461bcd60e51b815260206004820152601c60248201527f4465736372697074696f6e2063616e6e6f7420626520656d707479210000000060448201526064016104ba565b60008451116105615760405162461bcd60e51b8152602060048201526019602482015278496d61676555524c2063616e6e6f7420626520656d7074792160381b60448201526064016104ba565b600083116105a85760405162461bcd60e51b8152602060048201526014602482015273436f73742063616e6e6f74206265207a65726f2160601b60448201526064016104ba565b6105b0612992565b600254815233602080830191825260408301898152606084018990526080840188905260a084018790524260e085015261010084018690526007805460018101825560009190915284517fa66cc928b5edb82af9bd49922954155ab7b0942694bea4ce44661d9a8736c688600b90920291820190815593517fa66cc928b5edb82af9bd49922954155ab7b0942694bea4ce44661d9a8736c689820180546001600160a01b0319166001600160a01b039092169190911790559051805185949361069d937fa66cc928b5edb82af9bd49922954155ab7b0942694bea4ce44661d9a8736c68a01920190612a05565b50606082015180516106b9916003840191602090910190612a05565b50608082015180516106d5916004840191602090910190612a05565b5060a0820151600582015560c0820151600682015560e0820151600782015561010082015160088201556101208201516009820155610140820151600a8201805460ff1916600183600481111561072e5761072e612c41565b021790555050600280546000908152600a602090815260408083208054600160ff1990911681179091553384526008835281842080548083018255908552938390208751600b909502019384558683015190840180546001600160a01b0319166001600160a01b03909216919091179055850151805186955092936107bb93908501929190910190612a05565b50606082015180516107d7916003840191602090910190612a05565b50608082015180516107f3916004840191602090910190612a05565b5060a0820151600582015560c0820151600682015560e0820151600782015561010082015160088201556101208201516009820155610140820151600a8201805460ff1916600183600481111561084c5761084c612c41565b021790555050506001600460000160008282546108699190612f96565b909155505060028054339160008051602061310f8339815191529190600061089083612fae565b9091555060408051918252606060208301819052600f908301526e141493d29150d517d0d49150551151608a1b6080830152429082015260a00160405180910390a25060019695505050505050565b600781815481106108ef57600080fd5b60009182526020909120600b90910201805460018201546002830180549294506001600160a01b03909116929161092590612fc9565b80601f016020809104026020016040519081016040528092919081815260200182805461095190612fc9565b801561099e5780601f106109735761010080835404028352916020019161099e565b820191906000526020600020905b81548152906001019060200180831161098157829003601f168201915b5050505050908060030180546109b390612fc9565b80601f01602080910402602001604051908101604052809291908181526020018280546109df90612fc9565b8015610a2c5780601f10610a0157610100808354040283529160200191610a2c565b820191906000526020600020905b815481529060010190602001808311610a0f57829003601f168201915b505050505090806004018054610a4190612fc9565b80601f0160208091040260200160405190810160405280929190818152602001828054610a6d90612fc9565b8015610aba5780601f10610a8f57610100808354040283529160200191610aba565b820191906000526020600020905b815481529060010190602001808311610a9d57829003601f168201915b50505060058401546006850154600786015460088701546009880154600a9098015496979396929550909350919060ff168b565b6000546001600160a01b03163314610b185760405162461bcd60e51b81526004016104ba90613004565b600354811115610b615760405162461bcd60e51b8152602060048201526014602482015273496e73756666696369656e742062616c616e636560601b60448201526064016104ba565b8060036000828254610b739190613048565b9091555050600054610b8e906001600160a01b031682612648565b50565b6001600160a01b0381166000908152600860209081526040808320805482518185028101850190935280835260609492939192909184015b82821015610e375760008481526020908190206040805161016081018252600b86029092018054835260018101546001600160a01b03169383019390935260028301805492939291840191610c1d90612fc9565b80601f0160208091040260200160405190810160405280929190818152602001828054610c4990612fc9565b8015610c965780601f10610c6b57610100808354040283529160200191610c96565b820191906000526020600020905b815481529060010190602001808311610c7957829003601f168201915b50505050508152602001600382018054610caf90612fc9565b80601f0160208091040260200160405190810160405280929190818152602001828054610cdb90612fc9565b8015610d285780601f10610cfd57610100808354040283529160200191610d28565b820191906000526020600020905b815481529060010190602001808311610d0b57829003601f168201915b50505050508152602001600482018054610d4190612fc9565b80601f0160208091040260200160405190810160405280929190818152602001828054610d6d90612fc9565b8015610dba5780601f10610d8f57610100808354040283529160200191610dba565b820191906000526020600020905b815481529060010190602001808311610d9d57829003601f168201915b505050918352505060058201546020820152600682015460408201526007820154606082015260088201546080820152600982015460a0820152600a82015460c09091019060ff166004811115610e1357610e13612c41565b6004811115610e2457610e24612c41565b8152505081526020019060010190610bc9565b505050509050919050565b6000803411610ea25760405162461bcd60e51b815260206004820152602660248201527f457468657220616d6f756e74206d7573742062652067726561746572207468616044820152656e207a65726f60d01b60648201526084016104ba565b6000828152600a602052604090205460ff16610ed05760405162461bcd60e51b81526004016104ba9061305f565b600060078381548110610ee557610ee561308a565b60009182526020909120600a600b90920201015460ff166004811115610f0d57610f0d612c41565b14610f5a5760405162461bcd60e51b815260206004820152601860248201527f50726f6a656374206e6f206c6f6e676572206f70656e6564000000000000000060448201526064016104ba565b600160046001016000828254610f709190612f96565b909155505060068054349190600090610f8a908490612f96565b925050819055503460078381548110610fa557610fa561308a565b90600052602060002090600b02016006016000828254610fc59190612f96565b92505081905550600160078381548110610fe157610fe161308a565b90600052602060002090600b020160090160008282546110019190612f96565b9091555050600082815260096020908152604080832081516080808201845233808352348387019081524284870181815260608087018b8152885460018082018b55998d529b8b902097516004909c0290970180546001600160a01b0319166001600160a01b03909c169b909b178b559251968a01969096559451600289015592516003909701805460ff1916971515979097179096558351888152948501829052600e918501919091526d141493d29150d517d09050d2d15160921b908401529082015260008051602061310f8339815191529060a00160405180910390a2611374600783815481106110f7576110f761308a565b90600052602060002090600b020160405180610160016040529081600082015481526020016001820160009054906101000a90046001600160a01b03166001600160a01b03166001600160a01b0316815260200160028201805461115a90612fc9565b80601f016020809104026020016040519081016040528092919081815260200182805461118690612fc9565b80156111d35780601f106111a8576101008083540402835291602001916111d3565b820191906000526020600020905b8154815290600101906020018083116111b657829003601f168201915b505050505081526020016003820180546111ec90612fc9565b80601f016020809104026020016040519081016040528092919081815260200182805461121890612fc9565b80156112655780601f1061123a57610100808354040283529160200191611265565b820191906000526020600020905b81548152906001019060200180831161124857829003601f168201915b5050505050815260200160048201805461127e90612fc9565b80601f01602080910402602001604051908101604052809291908181526020018280546112aa90612fc9565b80156112f75780601f106112cc576101008083540402835291602001916112f7565b820191906000526020600020905b8154815290600101906020018083116112da57829003601f168201915b505050918352505060058201546020820152600682015460408201526007820154606082015260088201546080820152600982015460a0820152600a82015460c09091019060ff16600481111561135057611350612c41565b600481111561136157611361612c41565b90525060a081015160c090910151101590565b1561140a5760016007838154811061138e5761138e61308a565b60009182526020909120600a600b9092020101805460ff191660018360048111156113bb576113bb612c41565b0217905550600782815481106113d3576113d361308a565b90600052602060002090600b020160060154600360008282546113f69190612f96565b909155506114059050826126ad565b6116ed565b611698600783815481106114205761142061308a565b90600052602060002090600b020160405180610160016040529081600082015481526020016001820160009054906101000a90046001600160a01b03166001600160a01b03166001600160a01b0316815260200160028201805461148390612fc9565b80601f01602080910402602001604051908101604052809291908181526020018280546114af90612fc9565b80156114fc5780601f106114d1576101008083540402835291602001916114fc565b820191906000526020600020905b8154815290600101906020018083116114df57829003601f168201915b5050505050815260200160038201805461151590612fc9565b80601f016020809104026020016040519081016040528092919081815260200182805461154190612fc9565b801561158e5780601f106115635761010080835404028352916020019161158e565b820191906000526020600020905b81548152906001019060200180831161157157829003601f168201915b505050505081526020016004820180546115a790612fc9565b80601f01602080910402602001604051908101604052809291908181526020018280546115d390612fc9565b80156116205780601f106115f557610100808354040283529160200191611620565b820191906000526020600020905b81548152906001019060200180831161160357829003601f168201915b505050918352505060058201546020820152600682015460408201526007820154606082015260088201546080820152600982015460a0820152600a82015460c09091019060ff16600481111561167957611679612c41565b600481111561168a5761168a612c41565b905250610100015142101590565b156116ed576002600783815481106116b2576116b261308a565b60009182526020909120600a600b9092020101805460ff191660018360048111156116df576116df612c41565b02179055506116ed82612824565b506001919050565b6000546001600160a01b0316331461171f5760405162461bcd60e51b81526004016104ba90613004565b60648111156117645760405162461bcd60e51b8152602060048201526011602482015270496e76616c6964207461782076616c756560781b60448201526064016104ba565b600155565b6000806007838154811061177f5761177f61308a565b60009182526020909120600a600b90920201015460ff1660048111156117a7576117a7612c41565b146117f45760405162461bcd60e51b815260206004820152601960248201527f50726f6a656374206e6f206c6f6e676572206f70656e6564210000000000000060448201526064016104ba565b600782815481106118075761180761308a565b60009182526020909120600b90910201600101546001600160a01b031633146118425760405162461bcd60e51b81526004016104ba906130a0565b6000828152600a602052604090205460ff166118705760405162461bcd60e51b81526004016104ba9061305f565b6003600783815481106118855761188561308a565b60009182526020909120600a600b9092020101805460ff191660018360048111156118b2576118b2612c41565b02179055506118c082612824565b60408051838152606060208201819052600f908201526e141493d29150d517d1115311551151608a1b608082015242818301529051339160008051602061310f833981519152919081900360a00190a2506001919050565b6000818152600a602052604090205460609060ff166119495760405162461bcd60e51b81526004016104ba9061305f565b600082815260096020908152604080832080548251818502810185019093528083529193909284015b82821015610e37576000848152602090819020604080516080810182526004860290920180546001600160a01b03168352600180820154848601526002820154928401929092526003015460ff16151560608301529083529092019101611972565b6000818152600a602052604081205460ff16611a025760405162461bcd60e51b81526004016104ba9061305f565b60078281548110611a1557611a1561308a565b60009182526020909120600a600b90920201015460ff166004811115611a3d57611a3d612c41565b92915050565b6000858152600a602052604081205460ff16611a715760405162461bcd60e51b81526004016104ba9061305f565b60078681548110611a8457611a8461308a565b60009182526020909120600b90910201600101546001600160a01b03163314611abf5760405162461bcd60e51b81526004016104ba906130a0565b6000855111611b095760405162461bcd60e51b81526020600482015260166024820152755469746c652063616e6e6f7420626520656d7074792160501b60448201526064016104ba565b6000845111611b5a5760405162461bcd60e51b815260206004820152601c60248201527f4465736372697074696f6e2063616e6e6f7420626520656d707479210000000060448201526064016104ba565b6000835111611ba75760405162461bcd60e51b8152602060048201526019602482015278496d61676555524c2063616e6e6f7420626520656d7074792160381b60448201526064016104ba565b8460078781548110611bbb57611bbb61308a565b90600052602060002090600b02016002019080519060200190611bdf929190612a05565b508360078781548110611bf457611bf461308a565b90600052602060002090600b02016003019080519060200190611c18929190612a05565b508260078781548110611c2d57611c2d61308a565b90600052602060002090600b02016004019080519060200190611c51929190612a05565b508160078781548110611c6657611c6661308a565b90600052602060002090600b020160080181905550336001600160a01b031660008051602061310f8339815191528742604051611cd4929190918252606060208301819052600f908301526e141493d29150d517d5541110551151608a1b6080830152604082015260a00190565b60405180910390a250600195945050505050565b6000818152600a602052604081205460ff16611d165760405162461bcd60e51b81526004016104ba9061305f565b600260078381548110611d2b57611d2b61308a565b60009182526020909120600a600b90920201015460ff166004811115611d5357611d53612c41565b141580611d9b5750600360078381548110611d7057611d7061308a565b60009182526020909120600a600b90920201015460ff166004811115611d9857611d98612c41565b14155b611df95760405162461bcd60e51b815260206004820152602960248201527f50726f6a656374206e6f74206d61726b6564206173207265766572746564206f6044820152681c8819195b195d195960ba1b60648201526084016104ba565b6002600783815481106116b2576116b261308a565b6000818152600a602052604081205460ff16611e3c5760405162461bcd60e51b81526004016104ba9061305f565b600160078381548110611e5157611e5161308a565b60009182526020909120600a600b90920201015460ff166004811115611e7957611e79612c41565b14611ebe5760405162461bcd60e51b815260206004820152601560248201527450726f6a656374206e6f7420417070726f7665642160581b60448201526064016104ba565b60078281548110611ed157611ed161308a565b60009182526020909120600b90910201600101546001600160a01b0316331480611f0557506000546001600160a01b031633145b611f215760405162461bcd60e51b81526004016104ba906130a0565b6116ed826126ad565b60055460609060008167ffffffffffffffff811115611f4b57611f4b612a9e565b604051908082528060200260200182016040528015611f9d57816020015b604080516080810182526000808252602080830182905292820181905260608201528252600019909201910181611f695790505b5090506000805b6007548110156120e85760006009600060078481548110611fc757611fc761308a565b90600052602060002090600b0201600001548152602001908152602001600020805480602002602001604051908101604052809291908181526020016000905b82821015612069576000848152602090819020604080516080810182526004860290920180546001600160a01b03168352600180820154848601526002820154928401929092526003015460ff16151560608301529083529092019101612007565b50505050905060005b81518110156120d35781818151811061208d5761208d61308a565b60200260200101518585815181106120a7576120a761308a565b602002602001018190525083806120bd90612fae565b94505080806120cb90612fae565b915050612072565b505080806120e090612fae565b915050611fa4565b50909392505050565b60606007805480602002602001604051908101604052809291908181526020016000905b828210156123835760008481526020908190206040805161016081018252600b86029092018054835260018101546001600160a01b0316938301939093526002830180549293929184019161216990612fc9565b80601f016020809104026020016040519081016040528092919081815260200182805461219590612fc9565b80156121e25780601f106121b7576101008083540402835291602001916121e2565b820191906000526020600020905b8154815290600101906020018083116121c557829003601f168201915b505050505081526020016003820180546121fb90612fc9565b80601f016020809104026020016040519081016040528092919081815260200182805461222790612fc9565b80156122745780601f1061224957610100808354040283529160200191612274565b820191906000526020600020905b81548152906001019060200180831161225757829003601f168201915b5050505050815260200160048201805461228d90612fc9565b80601f01602080910402602001604051908101604052809291908181526020018280546122b990612fc9565b80156123065780601f106122db57610100808354040283529160200191612306565b820191906000526020600020905b8154815290600101906020018083116122e957829003601f168201915b505050918352505060058201546020820152600682015460408201526007820154606082015260088201546080820152600982015460a0820152600a82015460c09091019060ff16600481111561235f5761235f612c41565b600481111561237057612370612c41565b8152505081526020019060010190612115565b50505050905090565b612394612992565b6000828152600a602052604090205460ff166123c25760405162461bcd60e51b81526004016104ba9061305f565b600782815481106123d5576123d561308a565b90600052602060002090600b020160405180610160016040529081600082015481526020016001820160009054906101000a90046001600160a01b03166001600160a01b03166001600160a01b0316815260200160028201805461243890612fc9565b80601f016020809104026020016040519081016040528092919081815260200182805461246490612fc9565b80156124b15780601f10612486576101008083540402835291602001916124b1565b820191906000526020600020905b81548152906001019060200180831161249457829003601f168201915b505050505081526020016003820180546124ca90612fc9565b80601f01602080910402602001604051908101604052809291908181526020018280546124f690612fc9565b80156125435780601f1061251857610100808354040283529160200191612543565b820191906000526020600020905b81548152906001019060200180831161252657829003601f168201915b5050505050815260200160048201805461255c90612fc9565b80601f016020809104026020016040519081016040528092919081815260200182805461258890612fc9565b80156125d55780601f106125aa576101008083540402835291602001916125d5565b820191906000526020600020905b8154815290600101906020018083116125b857829003601f168201915b505050918352505060058201546020820152600682015460408201526007820154606082015260088201546080820152600982015460a0820152600a82015460c09091019060ff16600481111561262e5761262e612c41565b600481111561263f5761263f612c41565b90525092915050565b6000826001600160a01b03168260405160006040518083038185875af1925050503d8060008114612695576040519150601f19603f3d011682016040523d82523d6000602084013e61269a565b606091505b50509050806126a857600080fd5b505050565b6000600782815481106126c2576126c261308a565b90600052602060002090600b020160060154905060006064600154836126e891906130cd565b6126f291906130ec565b90506004600784815481106127095761270961308a565b60009182526020909120600a600b9092020101805460ff1916600183600481111561273657612736612c41565b021790555061277d600784815481106127515761275161308a565b600091825260209091206001600b9092020101546001600160a01b03166127788385613048565b612648565b600054612793906001600160a01b031682612648565b600783815481106127a6576127a661308a565b90600052602060002090600b020160060154600360008282546127c99190613048565b9091555050604080518481526060602082018190526010908201526f141493d29150d517d410525117d3d55560821b608082015242818301529051339160008051602061310f833981519152919081900360a00190a2505050565b60005b60008281526009602052604090205481101561298e57600082815260096020526040812080548390811061285d5761285d61308a565b6000918252602080832060049092029091015485835260099091526040822080546001600160a01b039092169350908490811061289c5761289c61308a565b906000526020600020906004020160010154905060016009600086815260200190815260200160002084815481106128d6576128d661308a565b906000526020600020906004020160030160006101000a81548160ff021916908315150217905550426009600086815260200190815260200160002084815481106129235761292361308a565b9060005260206000209060040201600201819055506129428282612648565b6001600460010160008282546129589190613048565b909155505060068054829190600090612972908490613048565b925050819055505050808061298690612fae565b915050612827565b5050565b6040518061016001604052806000815260200160006001600160a01b03168152602001606081526020016060815260200160608152602001600081526020016000815260200160008152602001600081526020016000815260200160006004811115612a0057612a00612c41565b905290565b828054612a1190612fc9565b90600052602060002090601f016020900481019282612a335760008555612a79565b82601f10612a4c57805160ff1916838001178555612a79565b82800160010185558215612a79579182015b82811115612a79578251825591602001919060010190612a5e565b50612a85929150612a89565b5090565b5b80821115612a855760008155600101612a8a565b634e487b7160e01b600052604160045260246000fd5b600082601f830112612ac557600080fd5b813567ffffffffffffffff80821115612ae057612ae0612a9e565b604051601f8301601f19908116603f01168101908282118183101715612b0857612b08612a9e565b81604052838152866020858801011115612b2157600080fd5b836020870160208301376000602085830101528094505050505092915050565b600080600080600060a08688031215612b5957600080fd5b853567ffffffffffffffff80821115612b7157600080fd5b612b7d89838a01612ab4565b96506020880135915080821115612b9357600080fd5b612b9f89838a01612ab4565b95506040880135915080821115612bb557600080fd5b50612bc288828901612ab4565b9598949750949560608101359550608001359392505050565b600060208284031215612bed57600080fd5b5035919050565b6000815180845260005b81811015612c1a57602081850181015186830182015201612bfe565b81811115612c2c576000602083870101525b50601f01601f19169290920160200192915050565b634e487b7160e01b600052602160045260246000fd5b60058110612c7557634e487b7160e01b600052602160045260246000fd5b9052565b8b81526001600160a01b038b16602082015261016060408201819052600090612ca48382018d612bf4565b90508281036060840152612cb8818c612bf4565b90508281036080840152612ccc818b612bf4565b9150508760a08301528660c08301528560e08301528461010083015283610120830152612cfd610140830184612c57565b9c9b505050505050505050505050565b600060208284031215612d1f57600080fd5b81356001600160a01b0381168114612d3657600080fd5b9392505050565b6000610160825184526020830151612d6060208601826001600160a01b03169052565b506040830151816040860152612d7882860182612bf4565b91505060608301518482036060860152612d928282612bf4565b91505060808301518482036080860152612dac8282612bf4565b91505060a083015160a085015260c083015160c085015260e083015160e085015261010080840151818601525061012080840151818601525061014080840151612df882870182612c57565b5090949350505050565b6000602080830181845280855180835260408601915060408160051b870101925083870160005b82811015612e5757603f19888603018452612e45858351612d3d565b94509285019290850190600101612e29565b5092979650505050505050565b602080825282518282018190526000919060409081850190868401855b82811015612ec657815180516001600160a01b031685528681015187860152858101518686015260609081015115159085015260809093019290850190600101612e81565b5091979650505050505050565b600080600080600060a08688031215612eeb57600080fd5b85359450602086013567ffffffffffffffff80821115612f0a57600080fd5b612f1689838a01612ab4565b95506040880135915080821115612f2c57600080fd5b612f3889838a01612ab4565b94506060880135915080821115612f4e57600080fd5b50612f5b88828901612ab4565b95989497509295608001359392505050565b602081526000612d366020830184612d3d565b634e487b7160e01b600052601160045260246000fd5b60008219821115612fa957612fa9612f80565b500190565b6000600019821415612fc257612fc2612f80565b5060010190565b600181811c90821680612fdd57607f821691505b60208210811415612ffe57634e487b7160e01b600052602260045260246000fd5b50919050565b60208082526024908201527f4f7065726174696f6e20616c6c6f776564206f6e6c7920666f7220746865206f6040820152633bb732b960e11b606082015260800190565b60008282101561305a5761305a612f80565b500390565b602080825260119082015270141c9bda9958dd081b9bdd08199bdd5b99607a1b604082015260600190565b634e487b7160e01b600052603260045260246000fd5b602080825260139082015272556e617574686f72697a656420456e7469747960681b604082015260600190565b60008160001904831182151516156130e7576130e7612f80565b500290565b60008261310957634e487b7160e01b600052601260045260246000fd5b50049056feaee8e5d3bbb2f71a951b5632cee20f7ac487b9f8ab4f66a236f7694b13af7c6aa2646970667358221220f87c2dc8e970346f764807b3f11c4d514b1279b4df8281f587db816e44aeacab64736f6c634300080b0033","opcodes":"PUSH1 0x80 PUSH1 0x40 MSTORE CALLVALUE DUP1 ISZERO PUSH3 0x11 JUMPI PUSH1 0x0 DUP1 REVERT JUMPDEST POP PUSH1 0x40 MLOAD PUSH3 0x31DD CODESIZE SUB DUP1 PUSH3 0x31DD DUP4 CODECOPY DUP2 ADD PUSH1 0x40 DUP2 SWAP1 MSTORE PUSH3 0x34 SWAP2 PUSH3 0x4F JUMP JUMPDEST PUSH1 0x0 DUP1 SLOAD PUSH1 0x1 PUSH1 0x1 PUSH1 0xA0 SHL SUB NOT AND CALLER OR SWAP1 SSTORE PUSH1 0x1 SSTORE PUSH3 0x69 JUMP JUMPDEST PUSH1 0x0 PUSH1 0x20 DUP3 DUP5 SUB SLT ISZERO PUSH3 0x62 JUMPI PUSH1 0x0 DUP1 REVERT JUMPDEST POP MLOAD SWAP2 SWAP1 POP JUMP JUMPDEST PUSH2 0x3164 DUP1 PUSH3 0x79 PUSH1 0x0 CODECOPY PUSH1 0x0 RETURN INVALID PUSH1 0x80 PUSH1 0x40 MSTORE PUSH1 0x4 CALLDATASIZE LT PUSH2 0x140 JUMPI PUSH1 0x0 CALLDATALOAD PUSH1 0xE0 SHR DUP1 PUSH4 0x8593054B GT PUSH2 0xB6 JUMPI DUP1 PUSH4 0xB69EF8A8 GT PUSH2 0x6F JUMPI DUP1 PUSH4 0xB69EF8A8 EQ PUSH2 0x3B6 JUMPI DUP1 PUSH4 0xBB14B2E4 EQ PUSH2 0x3CC JUMPI DUP1 PUSH4 0xD24CD3EC EQ PUSH2 0x3E1 JUMPI DUP1 PUSH4 0xD80528AE EQ PUSH2 0x3F7 JUMPI DUP1 PUSH4 0xDCC60128 EQ PUSH2 0x431 JUMPI DUP1 PUSH4 0xF0F3F2C8 EQ PUSH2 0x446 JUMPI PUSH1 0x0 DUP1 REVERT JUMPDEST DUP1 PUSH4 0x8593054B EQ PUSH2 0x2CE JUMPI DUP1 PUSH4 0x8DA5CB5B EQ PUSH2 0x2FE JUMPI DUP1 PUSH4 0x9675C009 EQ PUSH2 0x336 JUMPI DUP1 PUSH4 0x9A3FA8C7 EQ PUSH2 0x356 JUMPI DUP1 PUSH4 0xA4B2409E EQ PUSH2 0x376 JUMPI DUP1 PUSH4 0xB531DCBA EQ PUSH2 0x396 JUMPI PUSH1 0x0 DUP1 REVERT JUMPDEST DUP1 PUSH4 0x36FBAD26 GT PUSH2 0x108 JUMPI DUP1 PUSH4 0x36FBAD26 EQ PUSH2 0x213 JUMPI DUP1 PUSH4 0x38D58384 EQ PUSH2 0x237 JUMPI DUP1 PUSH4 0x3E45C8AF EQ PUSH2 0x24C JUMPI DUP1 PUSH4 0x48CEFBDA EQ PUSH2 0x26C JUMPI DUP1 PUSH4 0x4CD0CB28 EQ PUSH2 0x281 JUMPI DUP1 PUSH4 0x4F63829C EQ PUSH2 0x2A1 JUMPI PUSH1 0x0 DUP1 REVERT JUMPDEST DUP1 PUSH4 0x56C29EE EQ PUSH2 0x145 JUMPI DUP1 PUSH4 0x107046BD EQ PUSH2 0x17A JUMPI DUP1 PUSH4 0x155DD5EE EQ PUSH2 0x1B1 JUMPI DUP1 PUSH4 0x1996C2DF EQ PUSH2 0x1D3 JUMPI DUP1 PUSH4 0x329B0F9B EQ PUSH2 0x200 JUMPI JUMPDEST PUSH1 0x0 DUP1 REVERT JUMPDEST CALLVALUE DUP1 ISZERO PUSH2 0x151 JUMPI PUSH1 0x0 DUP1 REVERT JUMPDEST POP PUSH2 0x165 PUSH2 0x160 CALLDATASIZE PUSH1 0x4 PUSH2 0x2B41 JUMP JUMPDEST PUSH2 0x473 JUMP JUMPDEST PUSH1 0x40 MLOAD SWAP1 ISZERO ISZERO DUP2 MSTORE PUSH1 0x20 ADD JUMPDEST PUSH1 0x40 MLOAD DUP1 SWAP2 SUB SWAP1 RETURN JUMPDEST CALLVALUE DUP1 ISZERO PUSH2 0x186 JUMPI PUSH1 0x0 DUP1 REVERT JUMPDEST POP PUSH2 0x19A PUSH2 0x195 CALLDATASIZE PUSH1 0x4 PUSH2 0x2BDB JUMP JUMPDEST PUSH2 0x8DF JUMP JUMPDEST PUSH1 0x40 MLOAD PUSH2 0x171 SWAP12 SWAP11 SWAP10 SWAP9 SWAP8 SWAP7 SWAP6 SWAP5 SWAP4 SWAP3 SWAP2 SWAP1 PUSH2 0x2C79 JUMP JUMPDEST CALLVALUE DUP1 ISZERO PUSH2 0x1BD JUMPI PUSH1 0x0 DUP1 REVERT JUMPDEST POP PUSH2 0x1D1 PUSH2 0x1CC CALLDATASIZE PUSH1 0x4 PUSH2 0x2BDB JUMP JUMPDEST PUSH2 0xAEE JUMP JUMPDEST STOP JUMPDEST CALLVALUE DUP1 ISZERO PUSH2 0x1DF JUMPI PUSH1 0x0 DUP1 REVERT JUMPDEST POP PUSH2 0x1F3 PUSH2 0x1EE CALLDATASIZE PUSH1 0x4 PUSH2 0x2D0D JUMP JUMPDEST PUSH2 0xB91 JUMP JUMPDEST PUSH1 0x40 MLOAD PUSH2 0x171 SWAP2 SWAP1 PUSH2 0x2E02 JUMP JUMPDEST PUSH2 0x165 PUSH2 0x20E CALLDATASIZE PUSH1 0x4 PUSH2 0x2BDB JUMP JUMPDEST PUSH2 0xE42 JUMP JUMPDEST CALLVALUE DUP1 ISZERO PUSH2 0x21F JUMPI PUSH1 0x0 DUP1 REVERT JUMPDEST POP PUSH2 0x229 PUSH1 0x2 SLOAD DUP2 JUMP JUMPDEST PUSH1 0x40 MLOAD SWAP1 DUP2 MSTORE PUSH1 0x20 ADD PUSH2 0x171 JUMP JUMPDEST CALLVALUE DUP1 ISZERO PUSH2 0x243 JUMPI PUSH1 0x0 DUP1 REVERT JUMPDEST POP PUSH1 0x5 SLOAD PUSH2 0x229 JUMP JUMPDEST CALLVALUE DUP1 ISZERO PUSH2 0x258 JUMPI PUSH1 0x0 DUP1 REVERT JUMPDEST POP PUSH2 0x1D1 PUSH2 0x267 CALLDATASIZE PUSH1 0x4 PUSH2 0x2BDB JUMP JUMPDEST PUSH2 0x16F5 JUMP JUMPDEST CALLVALUE DUP1 ISZERO PUSH2 0x278 JUMPI PUSH1 0x0 DUP1 REVERT JUMPDEST POP PUSH1 0x6 SLOAD PUSH2 0x229 JUMP JUMPDEST CALLVALUE DUP1 ISZERO PUSH2 0x28D JUMPI PUSH1 0x0 DUP1 REVERT JUMPDEST POP PUSH2 0x165 PUSH2 0x29C CALLDATASIZE PUSH1 0x4 PUSH2 0x2BDB JUMP JUMPDEST PUSH2 0x1769 JUMP JUMPDEST CALLVALUE DUP1 ISZERO PUSH2 0x2AD JUMPI PUSH1 0x0 DUP1 REVERT JUMPDEST POP PUSH2 0x2C1 PUSH2 0x2BC CALLDATASIZE PUSH1 0x4 PUSH2 0x2BDB JUMP JUMPDEST PUSH2 0x1918 JUMP JUMPDEST PUSH1 0x40 MLOAD PUSH2 0x171 SWAP2 SWAP1 PUSH2 0x2E64 JUMP JUMPDEST CALLVALUE DUP1 ISZERO PUSH2 0x2DA JUMPI PUSH1 0x0 DUP1 REVERT JUMPDEST POP PUSH2 0x165 PUSH2 0x2E9 CALLDATASIZE PUSH1 0x4 PUSH2 0x2BDB JUMP JUMPDEST PUSH1 0xA PUSH1 0x20 MSTORE PUSH1 0x0 SWAP1 DUP2 MSTORE PUSH1 0x40 SWAP1 KECCAK256 SLOAD PUSH1 0xFF AND DUP2 JUMP JUMPDEST CALLVALUE DUP1 ISZERO PUSH2 0x30A JUMPI PUSH1 0x0 DUP1 REVERT JUMPDEST POP PUSH1 0x0 SLOAD PUSH2 0x31E SWAP1 PUSH1 0x1 PUSH1 0x1 PUSH1 0xA0 SHL SUB AND DUP2 JUMP JUMPDEST PUSH1 0x40 MLOAD PUSH1 0x1 PUSH1 0x1 PUSH1 0xA0 SHL SUB SWAP1 SWAP2 AND DUP2 MSTORE PUSH1 0x20 ADD PUSH2 0x171 JUMP JUMPDEST CALLVALUE DUP1 ISZERO PUSH2 0x342 JUMPI PUSH1 0x0 DUP1 REVERT JUMPDEST POP PUSH2 0x229 PUSH2 0x351 CALLDATASIZE PUSH1 0x4 PUSH2 0x2BDB JUMP JUMPDEST PUSH2 0x19D4 JUMP JUMPDEST CALLVALUE DUP1 ISZERO PUSH2 0x362 JUMPI PUSH1 0x0 DUP1 REVERT JUMPDEST POP PUSH2 0x165 PUSH2 0x371 CALLDATASIZE PUSH1 0x4 PUSH2 0x2ED3 JUMP JUMPDEST PUSH2 0x1A43 JUMP JUMPDEST CALLVALUE DUP1 ISZERO PUSH2 0x382 JUMPI PUSH1 0x0 DUP1 REVERT JUMPDEST POP PUSH2 0x165 PUSH2 0x391 CALLDATASIZE PUSH1 0x4 PUSH2 0x2BDB JUMP JUMPDEST PUSH2 0x1CE8 JUMP JUMPDEST CALLVALUE DUP1 ISZERO PUSH2 0x3A2 JUMPI PUSH1 0x0 DUP1 REVERT JUMPDEST POP PUSH2 0x165 PUSH2 0x3B1 CALLDATASIZE PUSH1 0x4 PUSH2 0x2BDB JUMP JUMPDEST PUSH2 0x1E0E JUMP JUMPDEST CALLVALUE DUP1 ISZERO PUSH2 0x3C2 JUMPI PUSH1 0x0 DUP1 REVERT JUMPDEST POP PUSH2 0x229 PUSH1 0x3 SLOAD DUP2 JUMP JUMPDEST CALLVALUE DUP1 ISZERO PUSH2 0x3D8 JUMPI PUSH1 0x0 DUP1 REVERT JUMPDEST POP PUSH2 0x2C1 PUSH2 0x1F2A JUMP JUMPDEST CALLVALUE DUP1 ISZERO PUSH2 0x3ED JUMPI PUSH1 0x0 DUP1 REVERT JUMPDEST POP PUSH2 0x229 PUSH1 0x1 SLOAD DUP2 JUMP JUMPDEST CALLVALUE DUP1 ISZERO PUSH2 0x403 JUMPI PUSH1 0x0 DUP1 REVERT JUMPDEST POP PUSH1 0x4 SLOAD PUSH1 0x5 SLOAD PUSH1 0x6 SLOAD PUSH2 0x416 SWAP3 SWAP2 SWAP1 DUP4 JUMP JUMPDEST PUSH1 0x40 DUP1 MLOAD SWAP4 DUP5 MSTORE PUSH1 0x20 DUP5 ADD SWAP3 SWAP1 SWAP3 MSTORE SWAP1 DUP3 ADD MSTORE PUSH1 0x60 ADD PUSH2 0x171 JUMP JUMPDEST CALLVALUE DUP1 ISZERO PUSH2 0x43D JUMPI PUSH1 0x0 DUP1 REVERT JUMPDEST POP PUSH2 0x1F3 PUSH2 0x20F1 JUMP JUMPDEST CALLVALUE DUP1 ISZERO PUSH2 0x452 JUMPI PUSH1 0x0 DUP1 REVERT JUMPDEST POP PUSH2 0x466 PUSH2 0x461 CALLDATASIZE PUSH1 0x4 PUSH2 0x2BDB JUMP JUMPDEST PUSH2 0x238C JUMP JUMPDEST PUSH1 0x40 MLOAD PUSH2 0x171 SWAP2 SWAP1 PUSH2 0x2F6D JUMP JUMPDEST PUSH1 0x0 DUP1 DUP7 MLOAD GT PUSH2 0x4C3 JUMPI PUSH1 0x40 MLOAD PUSH3 0x461BCD PUSH1 0xE5 SHL DUP2 MSTORE PUSH1 0x20 PUSH1 0x4 DUP3 ADD MSTORE PUSH1 0x16 PUSH1 0x24 DUP3 ADD MSTORE PUSH22 0x5469746C652063616E6E6F7420626520656D70747921 PUSH1 0x50 SHL PUSH1 0x44 DUP3 ADD MSTORE PUSH1 0x64 ADD JUMPDEST PUSH1 0x40 MLOAD DUP1 SWAP2 SUB SWAP1 REVERT JUMPDEST PUSH1 0x0 DUP6 MLOAD GT PUSH2 0x514 JUMPI PUSH1 0x40 MLOAD PUSH3 0x461BCD PUSH1 0xE5 SHL DUP2 MSTORE PUSH1 0x20 PUSH1 0x4 DUP3 ADD MSTORE PUSH1 0x1C PUSH1 0x24 DUP3 ADD MSTORE PUSH32 0x4465736372697074696F6E2063616E6E6F7420626520656D7074792100000000 PUSH1 0x44 DUP3 ADD MSTORE PUSH1 0x64 ADD PUSH2 0x4BA JUMP JUMPDEST PUSH1 0x0 DUP5 MLOAD GT PUSH2 0x561 JUMPI PUSH1 0x40 MLOAD PUSH3 0x461BCD PUSH1 0xE5 SHL DUP2 MSTORE PUSH1 0x20 PUSH1 0x4 DUP3 ADD MSTORE PUSH1 0x19 PUSH1 0x24 DUP3 ADD MSTORE PUSH25 0x496D61676555524C2063616E6E6F7420626520656D70747921 PUSH1 0x38 SHL PUSH1 0x44 DUP3 ADD MSTORE PUSH1 0x64 ADD PUSH2 0x4BA JUMP JUMPDEST PUSH1 0x0 DUP4 GT PUSH2 0x5A8 JUMPI PUSH1 0x40 MLOAD PUSH3 0x461BCD PUSH1 0xE5 SHL DUP2 MSTORE PUSH1 0x20 PUSH1 0x4 DUP3 ADD MSTORE PUSH1 0x14 PUSH1 0x24 DUP3 ADD MSTORE PUSH20 0x436F73742063616E6E6F74206265207A65726F21 PUSH1 0x60 SHL PUSH1 0x44 DUP3 ADD MSTORE PUSH1 0x64 ADD PUSH2 0x4BA JUMP JUMPDEST PUSH2 0x5B0 PUSH2 0x2992 JUMP JUMPDEST PUSH1 0x2 SLOAD DUP2 MSTORE CALLER PUSH1 0x20 DUP1 DUP4 ADD SWAP2 DUP3 MSTORE PUSH1 0x40 DUP4 ADD DUP10 DUP2 MSTORE PUSH1 0x60 DUP5 ADD DUP10 SWAP1 MSTORE PUSH1 0x80 DUP5 ADD DUP9 SWAP1 MSTORE PUSH1 0xA0 DUP5 ADD DUP8 SWAP1 MSTORE TIMESTAMP PUSH1 0xE0 DUP6 ADD MSTORE PUSH2 0x100 DUP5 ADD DUP7 SWAP1 MSTORE PUSH1 0x7 DUP1 SLOAD PUSH1 0x1 DUP2 ADD DUP3 SSTORE PUSH1 0x0 SWAP2 SWAP1 SWAP2 MSTORE DUP5 MLOAD PUSH32 0xA66CC928B5EDB82AF9BD49922954155AB7B0942694BEA4CE44661D9A8736C688 PUSH1 0xB SWAP1 SWAP3 MUL SWAP2 DUP3 ADD SWAP1 DUP2 SSTORE SWAP4 MLOAD PUSH32 0xA66CC928B5EDB82AF9BD49922954155AB7B0942694BEA4CE44661D9A8736C689 DUP3 ADD DUP1 SLOAD PUSH1 0x1 PUSH1 0x1 PUSH1 0xA0 SHL SUB NOT AND PUSH1 0x1 PUSH1 0x1 PUSH1 0xA0 SHL SUB SWAP1 SWAP3 AND SWAP2 SWAP1 SWAP2 OR SWAP1 SSTORE SWAP1 MLOAD DUP1 MLOAD DUP6 SWAP5 SWAP4 PUSH2 0x69D SWAP4 PUSH32 0xA66CC928B5EDB82AF9BD49922954155AB7B0942694BEA4CE44661D9A8736C68A ADD SWAP3 ADD SWAP1 PUSH2 0x2A05 JUMP JUMPDEST POP PUSH1 0x60 DUP3 ADD MLOAD DUP1 MLOAD PUSH2 0x6B9 SWAP2 PUSH1 0x3 DUP5 ADD SWAP2 PUSH1 0x20 SWAP1 SWAP2 ADD SWAP1 PUSH2 0x2A05 JUMP JUMPDEST POP PUSH1 0x80 DUP3 ADD MLOAD DUP1 MLOAD PUSH2 0x6D5 SWAP2 PUSH1 0x4 DUP5 ADD SWAP2 PUSH1 0x20 SWAP1 SWAP2 ADD SWAP1 PUSH2 0x2A05 JUMP JUMPDEST POP PUSH1 0xA0 DUP3 ADD MLOAD PUSH1 0x5 DUP3 ADD SSTORE PUSH1 0xC0 DUP3 ADD MLOAD PUSH1 0x6 DUP3 ADD SSTORE PUSH1 0xE0 DUP3 ADD MLOAD PUSH1 0x7 DUP3 ADD SSTORE PUSH2 0x100 DUP3 ADD MLOAD PUSH1 0x8 DUP3 ADD SSTORE PUSH2 0x120 DUP3 ADD MLOAD PUSH1 0x9 DUP3 ADD SSTORE PUSH2 0x140 DUP3 ADD MLOAD PUSH1 0xA DUP3 ADD DUP1 SLOAD PUSH1 0xFF NOT AND PUSH1 0x1 DUP4 PUSH1 0x4 DUP2 GT ISZERO PUSH2 0x72E JUMPI PUSH2 0x72E PUSH2 0x2C41 JUMP JUMPDEST MUL OR SWAP1 SSTORE POP POP PUSH1 0x2 DUP1 SLOAD PUSH1 0x0 SWAP1 DUP2 MSTORE PUSH1 0xA PUSH1 0x20 SWAP1 DUP2 MSTORE PUSH1 0x40 DUP1 DUP4 KECCAK256 DUP1 SLOAD PUSH1 0x1 PUSH1 0xFF NOT SWAP1 SWAP2 AND DUP2 OR SWAP1 SWAP2 SSTORE CALLER DUP5 MSTORE PUSH1 0x8 DUP4 MSTORE DUP2 DUP5 KECCAK256 DUP1 SLOAD DUP1 DUP4 ADD DUP3 SSTORE SWAP1 DUP6 MSTORE SWAP4 DUP4 SWAP1 KECCAK256 DUP8 MLOAD PUSH1 0xB SWAP1 SWAP6 MUL ADD SWAP4 DUP5 SSTORE DUP7 DUP4 ADD MLOAD SWAP1 DUP5 ADD DUP1 SLOAD PUSH1 0x1 PUSH1 0x1 PUSH1 0xA0 SHL SUB NOT AND PUSH1 0x1 PUSH1 0x1 PUSH1 0xA0 SHL SUB SWAP1 SWAP3 AND SWAP2 SWAP1 SWAP2 OR SWAP1 SSTORE DUP6 ADD MLOAD DUP1 MLOAD DUP7 SWAP6 POP SWAP3 SWAP4 PUSH2 0x7BB SWAP4 SWAP1 DUP6 ADD SWAP3 SWAP2 SWAP1 SWAP2 ADD SWAP1 PUSH2 0x2A05 JUMP JUMPDEST POP PUSH1 0x60 DUP3 ADD MLOAD DUP1 MLOAD PUSH2 0x7D7 SWAP2 PUSH1 0x3 DUP5 ADD SWAP2 PUSH1 0x20 SWAP1 SWAP2 ADD SWAP1 PUSH2 0x2A05 JUMP JUMPDEST POP PUSH1 0x80 DUP3 ADD MLOAD DUP1 MLOAD PUSH2 0x7F3 SWAP2 PUSH1 0x4 DUP5 ADD SWAP2 PUSH1 0x20 SWAP1 SWAP2 ADD SWAP1 PUSH2 0x2A05 JUMP JUMPDEST POP PUSH1 0xA0 DUP3 ADD MLOAD PUSH1 0x5 DUP3 ADD SSTORE PUSH1 0xC0 DUP3 ADD MLOAD PUSH1 0x6 DUP3 ADD SSTORE PUSH1 0xE0 DUP3 ADD MLOAD PUSH1 0x7 DUP3 ADD SSTORE PUSH2 0x100 DUP3 ADD MLOAD PUSH1 0x8 DUP3 ADD SSTORE PUSH2 0x120 DUP3 ADD MLOAD PUSH1 0x9 DUP3 ADD SSTORE PUSH2 0x140 DUP3 ADD MLOAD PUSH1 0xA DUP3 ADD DUP1 SLOAD PUSH1 0xFF NOT AND PUSH1 0x1 DUP4 PUSH1 0x4 DUP2 GT ISZERO PUSH2 0x84C JUMPI PUSH2 0x84C PUSH2 0x2C41 JUMP JUMPDEST MUL OR SWAP1 SSTORE POP POP POP PUSH1 0x1 PUSH1 0x4 PUSH1 0x0 ADD PUSH1 0x0 DUP3 DUP3 SLOAD PUSH2 0x869 SWAP2 SWAP1 PUSH2 0x2F96 JUMP JUMPDEST SWAP1 SWAP2 SSTORE POP POP PUSH1 0x2 DUP1 SLOAD CALLER SWAP2 PUSH1 0x0 DUP1 MLOAD PUSH1 0x20 PUSH2 0x310F DUP4 CODECOPY DUP2 MLOAD SWAP2 MSTORE SWAP2 SWAP1 PUSH1 0x0 PUSH2 0x890 DUP4 PUSH2 0x2FAE JUMP JUMPDEST SWAP1 SWAP2 SSTORE POP PUSH1 0x40 DUP1 MLOAD SWAP2 DUP3 MSTORE PUSH1 0x60 PUSH1 0x20 DUP4 ADD DUP2 SWAP1 MSTORE PUSH1 0xF SWAP1 DUP4 ADD MSTORE PUSH15 0x141493D29150D517D0D49150551151 PUSH1 0x8A SHL PUSH1 0x80 DUP4 ADD MSTORE TIMESTAMP SWAP1 DUP3 ADD MSTORE PUSH1 0xA0 ADD PUSH1 0x40 MLOAD DUP1 SWAP2 SUB SWAP1 LOG2 POP PUSH1 0x1 SWAP7 SWAP6 POP POP POP POP POP POP JUMP JUMPDEST PUSH1 0x7 DUP2 DUP2 SLOAD DUP2 LT PUSH2 0x8EF JUMPI PUSH1 0x0 DUP1 REVERT JUMPDEST PUSH1 0x0 SWAP2 DUP3 MSTORE PUSH1 0x20 SWAP1 SWAP2 KECCAK256 PUSH1 0xB SWAP1 SWAP2 MUL ADD DUP1 SLOAD PUSH1 0x1 DUP3 ADD SLOAD PUSH1 0x2 DUP4 ADD DUP1 SLOAD SWAP3 SWAP5 POP PUSH1 0x1 PUSH1 0x1 PUSH1 0xA0 SHL SUB SWAP1 SWAP2 AND SWAP3 SWAP2 PUSH2 0x925 SWAP1 PUSH2 0x2FC9 JUMP JUMPDEST DUP1 PUSH1 0x1F ADD PUSH1 0x20 DUP1 SWAP2 DIV MUL PUSH1 0x20 ADD PUSH1 0x40 MLOAD SWAP1 DUP2 ADD PUSH1 0x40 MSTORE DUP1 SWAP3 SWAP2 SWAP1 DUP2 DUP2 MSTORE PUSH1 0x20 ADD DUP3 DUP1 SLOAD PUSH2 0x951 SWAP1 PUSH2 0x2FC9 JUMP JUMPDEST DUP1 ISZERO PUSH2 0x99E JUMPI DUP1 PUSH1 0x1F LT PUSH2 0x973 JUMPI PUSH2 0x100 DUP1 DUP4 SLOAD DIV MUL DUP4 MSTORE SWAP2 PUSH1 0x20 ADD SWAP2 PUSH2 0x99E JUMP JUMPDEST DUP3 ADD SWAP2 SWAP1 PUSH1 0x0 MSTORE PUSH1 0x20 PUSH1 0x0 KECCAK256 SWAP1 JUMPDEST DUP2 SLOAD DUP2 MSTORE SWAP1 PUSH1 0x1 ADD SWAP1 PUSH1 0x20 ADD DUP1 DUP4 GT PUSH2 0x981 JUMPI DUP3 SWAP1 SUB PUSH1 0x1F AND DUP3 ADD SWAP2 JUMPDEST POP POP POP POP POP SWAP1 DUP1 PUSH1 0x3 ADD DUP1 SLOAD PUSH2 0x9B3 SWAP1 PUSH2 0x2FC9 JUMP JUMPDEST DUP1 PUSH1 0x1F ADD PUSH1 0x20 DUP1 SWAP2 DIV MUL PUSH1 0x20 ADD PUSH1 0x40 MLOAD SWAP1 DUP2 ADD PUSH1 0x40 MSTORE DUP1 SWAP3 SWAP2 SWAP1 DUP2 DUP2 MSTORE PUSH1 0x20 ADD DUP3 DUP1 SLOAD PUSH2 0x9DF SWAP1 PUSH2 0x2FC9 JUMP JUMPDEST DUP1 ISZERO PUSH2 0xA2C JUMPI DUP1 PUSH1 0x1F LT PUSH2 0xA01 JUMPI PUSH2 0x100 DUP1 DUP4 SLOAD DIV MUL DUP4 MSTORE SWAP2 PUSH1 0x20 ADD SWAP2 PUSH2 0xA2C JUMP JUMPDEST DUP3 ADD SWAP2 SWAP1 PUSH1 0x0 MSTORE PUSH1 0x20 PUSH1 0x0 KECCAK256 SWAP1 JUMPDEST DUP2 SLOAD DUP2 MSTORE SWAP1 PUSH1 0x1 ADD SWAP1 PUSH1 0x20 ADD DUP1 DUP4 GT PUSH2 0xA0F JUMPI DUP3 SWAP1 SUB PUSH1 0x1F AND DUP3 ADD SWAP2 JUMPDEST POP POP POP POP POP SWAP1 DUP1 PUSH1 0x4 ADD DUP1 SLOAD PUSH2 0xA41 SWAP1 PUSH2 0x2FC9 JUMP JUMPDEST DUP1 PUSH1 0x1F ADD PUSH1 0x20 DUP1 SWAP2 DIV MUL PUSH1 0x20 ADD PUSH1 0x40 MLOAD SWAP1 DUP2 ADD PUSH1 0x40 MSTORE DUP1 SWAP3 SWAP2 SWAP1 DUP2 DUP2 MSTORE PUSH1 0x20 ADD DUP3 DUP1 SLOAD PUSH2 0xA6D SWAP1 PUSH2 0x2FC9 JUMP JUMPDEST DUP1 ISZERO PUSH2 0xABA JUMPI DUP1 PUSH1 0x1F LT PUSH2 0xA8F JUMPI PUSH2 0x100 DUP1 DUP4 SLOAD DIV MUL DUP4 MSTORE SWAP2 PUSH1 0x20 ADD SWAP2 PUSH2 0xABA JUMP JUMPDEST DUP3 ADD SWAP2 SWAP1 PUSH1 0x0 MSTORE PUSH1 0x20 PUSH1 0x0 KECCAK256 SWAP1 JUMPDEST DUP2 SLOAD DUP2 MSTORE SWAP1 PUSH1 0x1 ADD SWAP1 PUSH1 0x20 ADD DUP1 DUP4 GT PUSH2 0xA9D JUMPI DUP3 SWAP1 SUB PUSH1 0x1F AND DUP3 ADD SWAP2 JUMPDEST POP POP POP PUSH1 0x5 DUP5 ADD SLOAD PUSH1 0x6 DUP6 ADD SLOAD PUSH1 0x7 DUP7 ADD SLOAD PUSH1 0x8 DUP8 ADD SLOAD PUSH1 0x9 DUP9 ADD SLOAD PUSH1 0xA SWAP1 SWAP9 ADD SLOAD SWAP7 SWAP8 SWAP4 SWAP7 SWAP3 SWAP6 POP SWAP1 SWAP4 POP SWAP2 SWAP1 PUSH1 0xFF AND DUP12 JUMP JUMPDEST PUSH1 0x0 SLOAD PUSH1 0x1 PUSH1 0x1 PUSH1 0xA0 SHL SUB AND CALLER EQ PUSH2 0xB18 JUMPI PUSH1 0x40 MLOAD PUSH3 0x461BCD PUSH1 0xE5 SHL DUP2 MSTORE PUSH1 0x4 ADD PUSH2 0x4BA SWAP1 PUSH2 0x3004 JUMP JUMPDEST PUSH1 0x3 SLOAD DUP2 GT ISZERO PUSH2 0xB61 JUMPI PUSH1 0x40 MLOAD PUSH3 0x461BCD PUSH1 0xE5 SHL DUP2 MSTORE PUSH1 0x20 PUSH1 0x4 DUP3 ADD MSTORE PUSH1 0x14 PUSH1 0x24 DUP3 ADD MSTORE PUSH20 0x496E73756666696369656E742062616C616E6365 PUSH1 0x60 SHL PUSH1 0x44 DUP3 ADD MSTORE PUSH1 0x64 ADD PUSH2 0x4BA JUMP JUMPDEST DUP1 PUSH1 0x3 PUSH1 0x0 DUP3 DUP3 SLOAD PUSH2 0xB73 SWAP2 SWAP1 PUSH2 0x3048 JUMP JUMPDEST SWAP1 SWAP2 SSTORE POP POP PUSH1 0x0 SLOAD PUSH2 0xB8E SWAP1 PUSH1 0x1 PUSH1 0x1 PUSH1 0xA0 SHL SUB AND DUP3 PUSH2 0x2648 JUMP JUMPDEST POP JUMP JUMPDEST PUSH1 0x1 PUSH1 0x1 PUSH1 0xA0 SHL SUB DUP2 AND PUSH1 0x0 SWAP1 DUP2 MSTORE PUSH1 0x8 PUSH1 0x20 SWAP1 DUP2 MSTORE PUSH1 0x40 DUP1 DUP4 KECCAK256 DUP1 SLOAD DUP3 MLOAD DUP2 DUP6 MUL DUP2 ADD DUP6 ADD SWAP1 SWAP4 MSTORE DUP1 DUP4 MSTORE PUSH1 0x60 SWAP5 SWAP3 SWAP4 SWAP2 SWAP3 SWAP1 SWAP2 DUP5 ADD JUMPDEST DUP3 DUP3 LT ISZERO PUSH2 0xE37 JUMPI PUSH1 0x0 DUP5 DUP2 MSTORE PUSH1 0x20 SWAP1 DUP2 SWAP1 KECCAK256 PUSH1 0x40 DUP1 MLOAD PUSH2 0x160 DUP2 ADD DUP3 MSTORE PUSH1 0xB DUP7 MUL SWAP1 SWAP3 ADD DUP1 SLOAD DUP4 MSTORE PUSH1 0x1 DUP2 ADD SLOAD PUSH1 0x1 PUSH1 0x1 PUSH1 0xA0 SHL SUB AND SWAP4 DUP4 ADD SWAP4 SWAP1 SWAP4 MSTORE PUSH1 0x2 DUP4 ADD DUP1 SLOAD SWAP3 SWAP4 SWAP3 SWAP2 DUP5 ADD SWAP2 PUSH2 0xC1D SWAP1 PUSH2 0x2FC9 JUMP JUMPDEST DUP1 PUSH1 0x1F ADD PUSH1 0x20 DUP1 SWAP2 DIV MUL PUSH1 0x20 ADD PUSH1 0x40 MLOAD SWAP1 DUP2 ADD PUSH1 0x40 MSTORE DUP1 SWAP3 SWAP2 SWAP1 DUP2 DUP2 MSTORE PUSH1 0x20 ADD DUP3 DUP1 SLOAD PUSH2 0xC49 SWAP1 PUSH2 0x2FC9 JUMP JUMPDEST DUP1 ISZERO PUSH2 0xC96 JUMPI DUP1 PUSH1 0x1F LT PUSH2 0xC6B JUMPI PUSH2 0x100 DUP1 DUP4 SLOAD DIV MUL DUP4 MSTORE SWAP2 PUSH1 0x20 ADD SWAP2 PUSH2 0xC96 JUMP JUMPDEST DUP3 ADD SWAP2 SWAP1 PUSH1 0x0 MSTORE PUSH1 0x20 PUSH1 0x0 KECCAK256 SWAP1 JUMPDEST DUP2 SLOAD DUP2 MSTORE SWAP1 PUSH1 0x1 ADD SWAP1 PUSH1 0x20 ADD DUP1 DUP4 GT PUSH2 0xC79 JUMPI DUP3 SWAP1 SUB PUSH1 0x1F AND DUP3 ADD SWAP2 JUMPDEST POP POP POP POP POP DUP2 MSTORE PUSH1 0x20 ADD PUSH1 0x3 DUP3 ADD DUP1 SLOAD PUSH2 0xCAF SWAP1 PUSH2 0x2FC9 JUMP JUMPDEST DUP1 PUSH1 0x1F ADD PUSH1 0x20 DUP1 SWAP2 DIV MUL PUSH1 0x20 ADD PUSH1 0x40 MLOAD SWAP1 DUP2 ADD PUSH1 0x40 MSTORE DUP1 SWAP3 SWAP2 SWAP1 DUP2 DUP2 MSTORE PUSH1 0x20 ADD DUP3 DUP1 SLOAD PUSH2 0xCDB SWAP1 PUSH2 0x2FC9 JUMP JUMPDEST DUP1 ISZERO PUSH2 0xD28 JUMPI DUP1 PUSH1 0x1F LT PUSH2 0xCFD JUMPI PUSH2 0x100 DUP1 DUP4 SLOAD DIV MUL DUP4 MSTORE SWAP2 PUSH1 0x20 ADD SWAP2 PUSH2 0xD28 JUMP JUMPDEST DUP3 ADD SWAP2 SWAP1 PUSH1 0x0 MSTORE PUSH1 0x20 PUSH1 0x0 KECCAK256 SWAP1 JUMPDEST DUP2 SLOAD DUP2 MSTORE SWAP1 PUSH1 0x1 ADD SWAP1 PUSH1 0x20 ADD DUP1 DUP4 GT PUSH2 0xD0B JUMPI DUP3 SWAP1 SUB PUSH1 0x1F AND DUP3 ADD SWAP2 JUMPDEST POP POP POP POP POP DUP2 MSTORE PUSH1 0x20 ADD PUSH1 0x4 DUP3 ADD DUP1 SLOAD PUSH2 0xD41 SWAP1 PUSH2 0x2FC9 JUMP JUMPDEST DUP1 PUSH1 0x1F ADD PUSH1 0x20 DUP1 SWAP2 DIV MUL PUSH1 0x20 ADD PUSH1 0x40 MLOAD SWAP1 DUP2 ADD PUSH1 0x40 MSTORE DUP1 SWAP3 SWAP2 SWAP1 DUP2 DUP2 MSTORE PUSH1 0x20 ADD DUP3 DUP1 SLOAD PUSH2 0xD6D SWAP1 PUSH2 0x2FC9 JUMP JUMPDEST DUP1 ISZERO PUSH2 0xDBA JUMPI DUP1 PUSH1 0x1F LT PUSH2 0xD8F JUMPI PUSH2 0x100 DUP1 DUP4 SLOAD DIV MUL DUP4 MSTORE SWAP2 PUSH1 0x20 ADD SWAP2 PUSH2 0xDBA JUMP JUMPDEST DUP3 ADD SWAP2 SWAP1 PUSH1 0x0 MSTORE PUSH1 0x20 PUSH1 0x0 KECCAK256 SWAP1 JUMPDEST DUP2 SLOAD DUP2 MSTORE SWAP1 PUSH1 0x1 ADD SWAP1 PUSH1 0x20 ADD DUP1 DUP4 GT PUSH2 0xD9D JUMPI DUP3 SWAP1 SUB PUSH1 0x1F AND DUP3 ADD SWAP2 JUMPDEST POP POP POP SWAP2 DUP4 MSTORE POP POP PUSH1 0x5 DUP3 ADD SLOAD PUSH1 0x20 DUP3 ADD MSTORE PUSH1 0x6 DUP3 ADD SLOAD PUSH1 0x40 DUP3 ADD MSTORE PUSH1 0x7 DUP3 ADD SLOAD PUSH1 0x60 DUP3 ADD MSTORE PUSH1 0x8 DUP3 ADD SLOAD PUSH1 0x80 DUP3 ADD MSTORE PUSH1 0x9 DUP3 ADD SLOAD PUSH1 0xA0 DUP3 ADD MSTORE PUSH1 0xA DUP3 ADD SLOAD PUSH1 0xC0 SWAP1 SWAP2 ADD SWAP1 PUSH1 0xFF AND PUSH1 0x4 DUP2 GT ISZERO PUSH2 0xE13 JUMPI PUSH2 0xE13 PUSH2 0x2C41 JUMP JUMPDEST PUSH1 0x4 DUP2 GT ISZERO PUSH2 0xE24 JUMPI PUSH2 0xE24 PUSH2 0x2C41 JUMP JUMPDEST DUP2 MSTORE POP POP DUP2 MSTORE PUSH1 0x20 ADD SWAP1 PUSH1 0x1 ADD SWAP1 PUSH2 0xBC9 JUMP JUMPDEST POP POP POP POP SWAP1 POP SWAP2 SWAP1 POP JUMP JUMPDEST PUSH1 0x0 DUP1 CALLVALUE GT PUSH2 0xEA2 JUMPI PUSH1 0x40 MLOAD PUSH3 0x461BCD PUSH1 0xE5 SHL DUP2 MSTORE PUSH1 0x20 PUSH1 0x4 DUP3 ADD MSTORE PUSH1 0x26 PUSH1 0x24 DUP3 ADD MSTORE PUSH32 0x457468657220616D6F756E74206D757374206265206772656174657220746861 PUSH1 0x44 DUP3 ADD MSTORE PUSH6 0x6E207A65726F PUSH1 0xD0 SHL PUSH1 0x64 DUP3 ADD MSTORE PUSH1 0x84 ADD PUSH2 0x4BA JUMP JUMPDEST PUSH1 0x0 DUP3 DUP2 MSTORE PUSH1 0xA PUSH1 0x20 MSTORE PUSH1 0x40 SWAP1 KECCAK256 SLOAD PUSH1 0xFF AND PUSH2 0xED0 JUMPI PUSH1 0x40 MLOAD PUSH3 0x461BCD PUSH1 0xE5 SHL DUP2 MSTORE PUSH1 0x4 ADD PUSH2 0x4BA SWAP1 PUSH2 0x305F JUMP JUMPDEST PUSH1 0x0 PUSH1 0x7 DUP4 DUP2 SLOAD DUP2 LT PUSH2 0xEE5 JUMPI PUSH2 0xEE5 PUSH2 0x308A JUMP JUMPDEST PUSH1 0x0 SWAP2 DUP3 MSTORE PUSH1 0x20 SWAP1 SWAP2 KECCAK256 PUSH1 0xA PUSH1 0xB SWAP1 SWAP3 MUL ADD ADD SLOAD PUSH1 0xFF AND PUSH1 0x4 DUP2 GT ISZERO PUSH2 0xF0D JUMPI PUSH2 0xF0D PUSH2 0x2C41 JUMP JUMPDEST EQ PUSH2 0xF5A JUMPI PUSH1 0x40 MLOAD PUSH3 0x461BCD PUSH1 0xE5 SHL DUP2 MSTORE PUSH1 0x20 PUSH1 0x4 DUP3 ADD MSTORE PUSH1 0x18 PUSH1 0x24 DUP3 ADD MSTORE PUSH32 0x50726F6A656374206E6F206C6F6E676572206F70656E65640000000000000000 PUSH1 0x44 DUP3 ADD MSTORE PUSH1 0x64 ADD PUSH2 0x4BA JUMP JUMPDEST PUSH1 0x1 PUSH1 0x4 PUSH1 0x1 ADD PUSH1 0x0 DUP3 DUP3 SLOAD PUSH2 0xF70 SWAP2 SWAP1 PUSH2 0x2F96 JUMP JUMPDEST SWAP1 SWAP2 SSTORE POP POP PUSH1 0x6 DUP1 SLOAD CALLVALUE SWAP2 SWAP1 PUSH1 0x0 SWAP1 PUSH2 0xF8A SWAP1 DUP5 SWAP1 PUSH2 0x2F96 JUMP JUMPDEST SWAP3 POP POP DUP2 SWAP1 SSTORE POP CALLVALUE PUSH1 0x7 DUP4 DUP2 SLOAD DUP2 LT PUSH2 0xFA5 JUMPI PUSH2 0xFA5 PUSH2 0x308A JUMP JUMPDEST SWAP1 PUSH1 0x0 MSTORE PUSH1 0x20 PUSH1 0x0 KECCAK256 SWAP1 PUSH1 0xB MUL ADD PUSH1 0x6 ADD PUSH1 0x0 DUP3 DUP3 SLOAD PUSH2 0xFC5 SWAP2 SWAP1 PUSH2 0x2F96 JUMP JUMPDEST SWAP3 POP POP DUP2 SWAP1 SSTORE POP PUSH1 0x1 PUSH1 0x7 DUP4 DUP2 SLOAD DUP2 LT PUSH2 0xFE1 JUMPI PUSH2 0xFE1 PUSH2 0x308A JUMP JUMPDEST SWAP1 PUSH1 0x0 MSTORE PUSH1 0x20 PUSH1 0x0 KECCAK256 SWAP1 PUSH1 0xB MUL ADD PUSH1 0x9 ADD PUSH1 0x0 DUP3 DUP3 SLOAD PUSH2 0x1001 SWAP2 SWAP1 PUSH2 0x2F96 JUMP JUMPDEST SWAP1 SWAP2 SSTORE POP POP PUSH1 0x0 DUP3 DUP2 MSTORE PUSH1 0x9 PUSH1 0x20 SWAP1 DUP2 MSTORE PUSH1 0x40 DUP1 DUP4 KECCAK256 DUP2 MLOAD PUSH1 0x80 DUP1 DUP3 ADD DUP5 MSTORE CALLER DUP1 DUP4 MSTORE CALLVALUE DUP4 DUP8 ADD SWAP1 DUP2 MSTORE TIMESTAMP DUP5 DUP8 ADD DUP2 DUP2 MSTORE PUSH1 0x60 DUP1 DUP8 ADD DUP12 DUP2 MSTORE DUP9 SLOAD PUSH1 0x1 DUP1 DUP3 ADD DUP12 SSTORE SWAP10 DUP14 MSTORE SWAP12 DUP12 SWAP1 KECCAK256 SWAP8 MLOAD PUSH1 0x4 SWAP1 SWAP13 MUL SWAP1 SWAP8 ADD DUP1 SLOAD PUSH1 0x1 PUSH1 0x1 PUSH1 0xA0 SHL SUB NOT AND PUSH1 0x1 PUSH1 0x1 PUSH1 0xA0 SHL SUB SWAP1 SWAP13 AND SWAP12 SWAP1 SWAP12 OR DUP12 SSTORE SWAP3 MLOAD SWAP7 DUP11 ADD SWAP7 SWAP1 SWAP7 SSTORE SWAP5 MLOAD PUSH1 0x2 DUP10 ADD SSTORE SWAP3 MLOAD PUSH1 0x3 SWAP1 SWAP8 ADD DUP1 SLOAD PUSH1 0xFF NOT AND SWAP8 ISZERO ISZERO SWAP8 SWAP1 SWAP8 OR SWAP1 SWAP7 SSTORE DUP4 MLOAD DUP9 DUP2 MSTORE SWAP5 DUP6 ADD DUP3 SWAP1 MSTORE PUSH1 0xE SWAP2 DUP6 ADD SWAP2 SWAP1 SWAP2 MSTORE PUSH14 0x141493D29150D517D09050D2D151 PUSH1 0x92 SHL SWAP1 DUP5 ADD MSTORE SWAP1 DUP3 ADD MSTORE PUSH1 0x0 DUP1 MLOAD PUSH1 0x20 PUSH2 0x310F DUP4 CODECOPY DUP2 MLOAD SWAP2 MSTORE SWAP1 PUSH1 0xA0 ADD PUSH1 0x40 MLOAD DUP1 SWAP2 SUB SWAP1 LOG2 PUSH2 0x1374 PUSH1 0x7 DUP4 DUP2 SLOAD DUP2 LT PUSH2 0x10F7 JUMPI PUSH2 0x10F7 PUSH2 0x308A JUMP JUMPDEST SWAP1 PUSH1 0x0 MSTORE PUSH1 0x20 PUSH1 0x0 KECCAK256 SWAP1 PUSH1 0xB MUL ADD PUSH1 0x40 MLOAD DUP1 PUSH2 0x160 ADD PUSH1 0x40 MSTORE SWAP1 DUP2 PUSH1 0x0 DUP3 ADD SLOAD DUP2 MSTORE PUSH1 0x20 ADD PUSH1 0x1 DUP3 ADD PUSH1 0x0 SWAP1 SLOAD SWAP1 PUSH2 0x100 EXP SWAP1 DIV PUSH1 0x1 PUSH1 0x1 PUSH1 0xA0 SHL SUB AND PUSH1 0x1 PUSH1 0x1 PUSH1 0xA0 SHL SUB AND PUSH1 0x1 PUSH1 0x1 PUSH1 0xA0 SHL SUB AND DUP2 MSTORE PUSH1 0x20 ADD PUSH1 0x2 DUP3 ADD DUP1 SLOAD PUSH2 0x115A SWAP1 PUSH2 0x2FC9 JUMP JUMPDEST DUP1 PUSH1 0x1F ADD PUSH1 0x20 DUP1 SWAP2 DIV MUL PUSH1 0x20 ADD PUSH1 0x40 MLOAD SWAP1 DUP2 ADD PUSH1 0x40 MSTORE DUP1 SWAP3 SWAP2 SWAP1 DUP2 DUP2 MSTORE PUSH1 0x20 ADD DUP3 DUP1 SLOAD PUSH2 0x1186 SWAP1 PUSH2 0x2FC9 JUMP JUMPDEST DUP1 ISZERO PUSH2 0x11D3 JUMPI DUP1 PUSH1 0x1F LT PUSH2 0x11A8 JUMPI PUSH2 0x100 DUP1 DUP4 SLOAD DIV MUL DUP4 MSTORE SWAP2 PUSH1 0x20 ADD SWAP2 PUSH2 0x11D3 JUMP JUMPDEST DUP3 ADD SWAP2 SWAP1 PUSH1 0x0 MSTORE PUSH1 0x20 PUSH1 0x0 KECCAK256 SWAP1 JUMPDEST DUP2 SLOAD DUP2 MSTORE SWAP1 PUSH1 0x1 ADD SWAP1 PUSH1 0x20 ADD DUP1 DUP4 GT PUSH2 0x11B6 JUMPI DUP3 SWAP1 SUB PUSH1 0x1F AND DUP3 ADD SWAP2 JUMPDEST POP POP POP POP POP DUP2 MSTORE PUSH1 0x20 ADD PUSH1 0x3 DUP3 ADD DUP1 SLOAD PUSH2 0x11EC SWAP1 PUSH2 0x2FC9 JUMP JUMPDEST DUP1 PUSH1 0x1F ADD PUSH1 0x20 DUP1 SWAP2 DIV MUL PUSH1 0x20 ADD PUSH1 0x40 MLOAD SWAP1 DUP2 ADD PUSH1 0x40 MSTORE DUP1 SWAP3 SWAP2 SWAP1 DUP2 DUP2 MSTORE PUSH1 0x20 ADD DUP3 DUP1 SLOAD PUSH2 0x1218 SWAP1 PUSH2 0x2FC9 JUMP JUMPDEST DUP1 ISZERO PUSH2 0x1265 JUMPI DUP1 PUSH1 0x1F LT PUSH2 0x123A JUMPI PUSH2 0x100 DUP1 DUP4 SLOAD DIV MUL DUP4 MSTORE SWAP2 PUSH1 0x20 ADD SWAP2 PUSH2 0x1265 JUMP JUMPDEST DUP3 ADD SWAP2 SWAP1 PUSH1 0x0 MSTORE PUSH1 0x20 PUSH1 0x0 KECCAK256 SWAP1 JUMPDEST DUP2 SLOAD DUP2 MSTORE SWAP1 PUSH1 0x1 ADD SWAP1 PUSH1 0x20 ADD DUP1 DUP4 GT PUSH2 0x1248 JUMPI DUP3 SWAP1 SUB PUSH1 0x1F AND DUP3 ADD SWAP2 JUMPDEST POP POP POP POP POP DUP2 MSTORE PUSH1 0x20 ADD PUSH1 0x4 DUP3 ADD DUP1 SLOAD PUSH2 0x127E SWAP1 PUSH2 0x2FC9 JUMP JUMPDEST DUP1 PUSH1 0x1F ADD PUSH1 0x20 DUP1 SWAP2 DIV MUL PUSH1 0x20 ADD PUSH1 0x40 MLOAD SWAP1 DUP2 ADD PUSH1 0x40 MSTORE DUP1 SWAP3 SWAP2 SWAP1 DUP2 DUP2 MSTORE PUSH1 0x20 ADD DUP3 DUP1 SLOAD PUSH2 0x12AA SWAP1 PUSH2 0x2FC9 JUMP JUMPDEST DUP1 ISZERO PUSH2 0x12F7 JUMPI DUP1 PUSH1 0x1F LT PUSH2 0x12CC JUMPI PUSH2 0x100 DUP1 DUP4 SLOAD DIV MUL DUP4 MSTORE SWAP2 PUSH1 0x20 ADD SWAP2 PUSH2 0x12F7 JUMP JUMPDEST DUP3 ADD SWAP2 SWAP1 PUSH1 0x0 MSTORE PUSH1 0x20 PUSH1 0x0 KECCAK256 SWAP1 JUMPDEST DUP2 SLOAD DUP2 MSTORE SWAP1 PUSH1 0x1 ADD SWAP1 PUSH1 0x20 ADD DUP1 DUP4 GT PUSH2 0x12DA JUMPI DUP3 SWAP1 SUB PUSH1 0x1F AND DUP3 ADD SWAP2 JUMPDEST POP POP POP SWAP2 DUP4 MSTORE POP POP PUSH1 0x5 DUP3 ADD SLOAD PUSH1 0x20 DUP3 ADD MSTORE PUSH1 0x6 DUP3 ADD SLOAD PUSH1 0x40 DUP3 ADD MSTORE PUSH1 0x7 DUP3 ADD SLOAD PUSH1 0x60 DUP3 ADD MSTORE PUSH1 0x8 DUP3 ADD SLOAD PUSH1 0x80 DUP3 ADD MSTORE PUSH1 0x9 DUP3 ADD SLOAD PUSH1 0xA0 DUP3 ADD MSTORE PUSH1 0xA DUP3 ADD SLOAD PUSH1 0xC0 SWAP1 SWAP2 ADD SWAP1 PUSH1 0xFF AND PUSH1 0x4 DUP2 GT ISZERO PUSH2 0x1350 JUMPI PUSH2 0x1350 PUSH2 0x2C41 JUMP JUMPDEST PUSH1 0x4 DUP2 GT ISZERO PUSH2 0x1361 JUMPI PUSH2 0x1361 PUSH2 0x2C41 JUMP JUMPDEST SWAP1 MSTORE POP PUSH1 0xA0 DUP2 ADD MLOAD PUSH1 0xC0 SWAP1 SWAP2 ADD MLOAD LT ISZERO SWAP1 JUMP JUMPDEST ISZERO PUSH2 0x140A JUMPI PUSH1 0x1 PUSH1 0x7 DUP4 DUP2 SLOAD DUP2 LT PUSH2 0x138E JUMPI PUSH2 0x138E PUSH2 0x308A JUMP JUMPDEST PUSH1 0x0 SWAP2 DUP3 MSTORE PUSH1 0x20 SWAP1 SWAP2 KECCAK256 PUSH1 0xA PUSH1 0xB SWAP1 SWAP3 MUL ADD ADD DUP1 SLOAD PUSH1 0xFF NOT AND PUSH1 0x1 DUP4 PUSH1 0x4 DUP2 GT ISZERO PUSH2 0x13BB JUMPI PUSH2 0x13BB PUSH2 0x2C41 JUMP JUMPDEST MUL OR SWAP1 SSTORE POP PUSH1 0x7 DUP3 DUP2 SLOAD DUP2 LT PUSH2 0x13D3 JUMPI PUSH2 0x13D3 PUSH2 0x308A JUMP JUMPDEST SWAP1 PUSH1 0x0 MSTORE PUSH1 0x20 PUSH1 0x0 KECCAK256 SWAP1 PUSH1 0xB MUL ADD PUSH1 0x6 ADD SLOAD PUSH1 0x3 PUSH1 0x0 DUP3 DUP3 SLOAD PUSH2 0x13F6 SWAP2 SWAP1 PUSH2 0x2F96 JUMP JUMPDEST SWAP1 SWAP2 SSTORE POP PUSH2 0x1405 SWAP1 POP DUP3 PUSH2 0x26AD JUMP JUMPDEST PUSH2 0x16ED JUMP JUMPDEST PUSH2 0x1698 PUSH1 0x7 DUP4 DUP2 SLOAD DUP2 LT PUSH2 0x1420 JUMPI PUSH2 0x1420 PUSH2 0x308A JUMP JUMPDEST SWAP1 PUSH1 0x0 MSTORE PUSH1 0x20 PUSH1 0x0 KECCAK256 SWAP1 PUSH1 0xB MUL ADD PUSH1 0x40 MLOAD DUP1 PUSH2 0x160 ADD PUSH1 0x40 MSTORE SWAP1 DUP2 PUSH1 0x0 DUP3 ADD SLOAD DUP2 MSTORE PUSH1 0x20 ADD PUSH1 0x1 DUP3 ADD PUSH1 0x0 SWAP1 SLOAD SWAP1 PUSH2 0x100 EXP SWAP1 DIV PUSH1 0x1 PUSH1 0x1 PUSH1 0xA0 SHL SUB AND PUSH1 0x1 PUSH1 0x1 PUSH1 0xA0 SHL SUB AND PUSH1 0x1 PUSH1 0x1 PUSH1 0xA0 SHL SUB AND DUP2 MSTORE PUSH1 0x20 ADD PUSH1 0x2 DUP3 ADD DUP1 SLOAD PUSH2 0x1483 SWAP1 PUSH2 0x2FC9 JUMP JUMPDEST DUP1 PUSH1 0x1F ADD PUSH1 0x20 DUP1 SWAP2 DIV MUL PUSH1 0x20 ADD PUSH1 0x40 MLOAD SWAP1 DUP2 ADD PUSH1 0x40 MSTORE DUP1 SWAP3 SWAP2 SWAP1 DUP2 DUP2 MSTORE PUSH1 0x20 ADD DUP3 DUP1 SLOAD PUSH2 0x14AF SWAP1 PUSH2 0x2FC9 JUMP JUMPDEST DUP1 ISZERO PUSH2 0x14FC JUMPI DUP1 PUSH1 0x1F LT PUSH2 0x14D1 JUMPI PUSH2 0x100 DUP1 DUP4 SLOAD DIV MUL DUP4 MSTORE SWAP2 PUSH1 0x20 ADD SWAP2 PUSH2 0x14FC JUMP JUMPDEST DUP3 ADD SWAP2 SWAP1 PUSH1 0x0 MSTORE PUSH1 0x20 PUSH1 0x0 KECCAK256 SWAP1 JUMPDEST DUP2 SLOAD DUP2 MSTORE SWAP1 PUSH1 0x1 ADD SWAP1 PUSH1 0x20 ADD DUP1 DUP4 GT PUSH2 0x14DF JUMPI DUP3 SWAP1 SUB PUSH1 0x1F AND DUP3 ADD SWAP2 JUMPDEST POP POP POP POP POP DUP2 MSTORE PUSH1 0x20 ADD PUSH1 0x3 DUP3 ADD DUP1 SLOAD PUSH2 0x1515 SWAP1 PUSH2 0x2FC9 JUMP JUMPDEST DUP1 PUSH1 0x1F ADD PUSH1 0x20 DUP1 SWAP2 DIV MUL PUSH1 0x20 ADD PUSH1 0x40 MLOAD SWAP1 DUP2 ADD PUSH1 0x40 MSTORE DUP1 SWAP3 SWAP2 SWAP1 DUP2 DUP2 MSTORE PUSH1 0x20 ADD DUP3 DUP1 SLOAD PUSH2 0x1541 SWAP1 PUSH2 0x2FC9 JUMP JUMPDEST DUP1 ISZERO PUSH2 0x158E JUMPI DUP1 PUSH1 0x1F LT PUSH2 0x1563 JUMPI PUSH2 0x100 DUP1 DUP4 SLOAD DIV MUL DUP4 MSTORE SWAP2 PUSH1 0x20 ADD SWAP2 PUSH2 0x158E JUMP JUMPDEST DUP3 ADD SWAP2 SWAP1 PUSH1 0x0 MSTORE PUSH1 0x20 PUSH1 0x0 KECCAK256 SWAP1 JUMPDEST DUP2 SLOAD DUP2 MSTORE SWAP1 PUSH1 0x1 ADD SWAP1 PUSH1 0x20 ADD DUP1 DUP4 GT PUSH2 0x1571 JUMPI DUP3 SWAP1 SUB PUSH1 0x1F AND DUP3 ADD SWAP2 JUMPDEST POP POP POP POP POP DUP2 MSTORE PUSH1 0x20 ADD PUSH1 0x4 DUP3 ADD DUP1 SLOAD PUSH2 0x15A7 SWAP1 PUSH2 0x2FC9 JUMP JUMPDEST DUP1 PUSH1 0x1F ADD PUSH1 0x20 DUP1 SWAP2 DIV MUL PUSH1 0x20 ADD PUSH1 0x40 MLOAD SWAP1 DUP2 ADD PUSH1 0x40 MSTORE DUP1 SWAP3 SWAP2 SWAP1 DUP2 DUP2 MSTORE PUSH1 0x20 ADD DUP3 DUP1 SLOAD PUSH2 0x15D3 SWAP1 PUSH2 0x2FC9 JUMP JUMPDEST DUP1 ISZERO PUSH2 0x1620 JUMPI DUP1 PUSH1 0x1F LT PUSH2 0x15F5 JUMPI PUSH2 0x100 DUP1 DUP4 SLOAD DIV MUL DUP4 MSTORE SWAP2 PUSH1 0x20 ADD SWAP2 PUSH2 0x1620 JUMP JUMPDEST DUP3 ADD SWAP2 SWAP1 PUSH1 0x0 MSTORE PUSH1 0x20 PUSH1 0x0 KECCAK256 SWAP1 JUMPDEST DUP2 SLOAD DUP2 MSTORE SWAP1 PUSH1 0x1 ADD SWAP1 PUSH1 0x20 ADD DUP1 DUP4 GT PUSH2 0x1603 JUMPI DUP3 SWAP1 SUB PUSH1 0x1F AND DUP3 ADD SWAP2 JUMPDEST POP POP POP SWAP2 DUP4 MSTORE POP POP PUSH1 0x5 DUP3 ADD SLOAD PUSH1 0x20 DUP3 ADD MSTORE PUSH1 0x6 DUP3 ADD SLOAD PUSH1 0x40 DUP3 ADD MSTORE PUSH1 0x7 DUP3 ADD SLOAD PUSH1 0x60 DUP3 ADD MSTORE PUSH1 0x8 DUP3 ADD SLOAD PUSH1 0x80 DUP3 ADD MSTORE PUSH1 0x9 DUP3 ADD SLOAD PUSH1 0xA0 DUP3 ADD MSTORE PUSH1 0xA DUP3 ADD SLOAD PUSH1 0xC0 SWAP1 SWAP2 ADD SWAP1 PUSH1 0xFF AND PUSH1 0x4 DUP2 GT ISZERO PUSH2 0x1679 JUMPI PUSH2 0x1679 PUSH2 0x2C41 JUMP JUMPDEST PUSH1 0x4 DUP2 GT ISZERO PUSH2 0x168A JUMPI PUSH2 0x168A PUSH2 0x2C41 JUMP JUMPDEST SWAP1 MSTORE POP PUSH2 0x100 ADD MLOAD TIMESTAMP LT ISZERO SWAP1 JUMP JUMPDEST ISZERO PUSH2 0x16ED JUMPI PUSH1 0x2 PUSH1 0x7 DUP4 DUP2 SLOAD DUP2 LT PUSH2 0x16B2 JUMPI PUSH2 0x16B2 PUSH2 0x308A JUMP JUMPDEST PUSH1 0x0 SWAP2 DUP3 MSTORE PUSH1 0x20 SWAP1 SWAP2 KECCAK256 PUSH1 0xA PUSH1 0xB SWAP1 SWAP3 MUL ADD ADD DUP1 SLOAD PUSH1 0xFF NOT AND PUSH1 0x1 DUP4 PUSH1 0x4 DUP2 GT ISZERO PUSH2 0x16DF JUMPI PUSH2 0x16DF PUSH2 0x2C41 JUMP JUMPDEST MUL OR SWAP1 SSTORE POP PUSH2 0x16ED DUP3 PUSH2 0x2824 JUMP JUMPDEST POP PUSH1 0x1 SWAP2 SWAP1 POP JUMP JUMPDEST PUSH1 0x0 SLOAD PUSH1 0x1 PUSH1 0x1 PUSH1 0xA0 SHL SUB AND CALLER EQ PUSH2 0x171F JUMPI PUSH1 0x40 MLOAD PUSH3 0x461BCD PUSH1 0xE5 SHL DUP2 MSTORE PUSH1 0x4 ADD PUSH2 0x4BA SWAP1 PUSH2 0x3004 JUMP JUMPDEST PUSH1 0x64 DUP2 GT ISZERO PUSH2 0x1764 JUMPI PUSH1 0x40 MLOAD PUSH3 0x461BCD PUSH1 0xE5 SHL DUP2 MSTORE PUSH1 0x20 PUSH1 0x4 DUP3 ADD MSTORE PUSH1 0x11 PUSH1 0x24 DUP3 ADD MSTORE PUSH17 0x496E76616C6964207461782076616C7565 PUSH1 0x78 SHL PUSH1 0x44 DUP3 ADD MSTORE PUSH1 0x64 ADD PUSH2 0x4BA JUMP JUMPDEST PUSH1 0x1 SSTORE JUMP JUMPDEST PUSH1 0x0 DUP1 PUSH1 0x7 DUP4 DUP2 SLOAD DUP2 LT PUSH2 0x177F JUMPI PUSH2 0x177F PUSH2 0x308A JUMP JUMPDEST PUSH1 0x0 SWAP2 DUP3 MSTORE PUSH1 0x20 SWAP1 SWAP2 KECCAK256 PUSH1 0xA PUSH1 0xB SWAP1 SWAP3 MUL ADD ADD SLOAD PUSH1 0xFF AND PUSH1 0x4 DUP2 GT ISZERO PUSH2 0x17A7 JUMPI PUSH2 0x17A7 PUSH2 0x2C41 JUMP JUMPDEST EQ PUSH2 0x17F4 JUMPI PUSH1 0x40 MLOAD PUSH3 0x461BCD PUSH1 0xE5 SHL DUP2 MSTORE PUSH1 0x20 PUSH1 0x4 DUP3 ADD MSTORE PUSH1 0x19 PUSH1 0x24 DUP3 ADD MSTORE PUSH32 0x50726F6A656374206E6F206C6F6E676572206F70656E65642100000000000000 PUSH1 0x44 DUP3 ADD MSTORE PUSH1 0x64 ADD PUSH2 0x4BA JUMP JUMPDEST PUSH1 0x7 DUP3 DUP2 SLOAD DUP2 LT PUSH2 0x1807 JUMPI PUSH2 0x1807 PUSH2 0x308A JUMP JUMPDEST PUSH1 0x0 SWAP2 DUP3 MSTORE PUSH1 0x20 SWAP1 SWAP2 KECCAK256 PUSH1 0xB SWAP1 SWAP2 MUL ADD PUSH1 0x1 ADD SLOAD PUSH1 0x1 PUSH1 0x1 PUSH1 0xA0 SHL SUB AND CALLER EQ PUSH2 0x1842 JUMPI PUSH1 0x40 MLOAD PUSH3 0x461BCD PUSH1 0xE5 SHL DUP2 MSTORE PUSH1 0x4 ADD PUSH2 0x4BA SWAP1 PUSH2 0x30A0 JUMP JUMPDEST PUSH1 0x0 DUP3 DUP2 MSTORE PUSH1 0xA PUSH1 0x20 MSTORE PUSH1 0x40 SWAP1 KECCAK256 SLOAD PUSH1 0xFF AND PUSH2 0x1870 JUMPI PUSH1 0x40 MLOAD PUSH3 0x461BCD PUSH1 0xE5 SHL DUP2 MSTORE PUSH1 0x4 ADD PUSH2 0x4BA SWAP1 PUSH2 0x305F JUMP JUMPDEST PUSH1 0x3 PUSH1 0x7 DUP4 DUP2 SLOAD DUP2 LT PUSH2 0x1885 JUMPI PUSH2 0x1885 PUSH2 0x308A JUMP JUMPDEST PUSH1 0x0 SWAP2 DUP3 MSTORE PUSH1 0x20 SWAP1 SWAP2 KECCAK256 PUSH1 0xA PUSH1 0xB SWAP1 SWAP3 MUL ADD ADD DUP1 SLOAD PUSH1 0xFF NOT AND PUSH1 0x1 DUP4 PUSH1 0x4 DUP2 GT ISZERO PUSH2 0x18B2 JUMPI PUSH2 0x18B2 PUSH2 0x2C41 JUMP JUMPDEST MUL OR SWAP1 SSTORE POP PUSH2 0x18C0 DUP3 PUSH2 0x2824 JUMP JUMPDEST PUSH1 0x40 DUP1 MLOAD DUP4 DUP2 MSTORE PUSH1 0x60 PUSH1 0x20 DUP3 ADD DUP2 SWAP1 MSTORE PUSH1 0xF SWAP1 DUP3 ADD MSTORE PUSH15 0x141493D29150D517D1115311551151 PUSH1 0x8A SHL PUSH1 0x80 DUP3 ADD MSTORE TIMESTAMP DUP2 DUP4 ADD MSTORE SWAP1 MLOAD CALLER SWAP2 PUSH1 0x0 DUP1 MLOAD PUSH1 0x20 PUSH2 0x310F DUP4 CODECOPY DUP2 MLOAD SWAP2 MSTORE SWAP2 SWAP1 DUP2 SWAP1 SUB PUSH1 0xA0 ADD SWAP1 LOG2 POP PUSH1 0x1 SWAP2 SWAP1 POP JUMP JUMPDEST PUSH1 0x0 DUP2 DUP2 MSTORE PUSH1 0xA PUSH1 0x20 MSTORE PUSH1 0x40 SWAP1 KECCAK256 SLOAD PUSH1 0x60 SWAP1 PUSH1 0xFF AND PUSH2 0x1949 JUMPI PUSH1 0x40 MLOAD PUSH3 0x461BCD PUSH1 0xE5 SHL DUP2 MSTORE PUSH1 0x4 ADD PUSH2 0x4BA SWAP1 PUSH2 0x305F JUMP JUMPDEST PUSH1 0x0 DUP3 DUP2 MSTORE PUSH1 0x9 PUSH1 0x20 SWAP1 DUP2 MSTORE PUSH1 0x40 DUP1 DUP4 KECCAK256 DUP1 SLOAD DUP3 MLOAD DUP2 DUP6 MUL DUP2 ADD DUP6 ADD SWAP1 SWAP4 MSTORE DUP1 DUP4 MSTORE SWAP2 SWAP4 SWAP1 SWAP3 DUP5 ADD JUMPDEST DUP3 DUP3 LT ISZERO PUSH2 0xE37 JUMPI PUSH1 0x0 DUP5 DUP2 MSTORE PUSH1 0x20 SWAP1 DUP2 SWAP1 KECCAK256 PUSH1 0x40 DUP1 MLOAD PUSH1 0x80 DUP2 ADD DUP3 MSTORE PUSH1 0x4 DUP7 MUL SWAP1 SWAP3 ADD DUP1 SLOAD PUSH1 0x1 PUSH1 0x1 PUSH1 0xA0 SHL SUB AND DUP4 MSTORE PUSH1 0x1 DUP1 DUP3 ADD SLOAD DUP5 DUP7 ADD MSTORE PUSH1 0x2 DUP3 ADD SLOAD SWAP3 DUP5 ADD SWAP3 SWAP1 SWAP3 MSTORE PUSH1 0x3 ADD SLOAD PUSH1 0xFF AND ISZERO ISZERO PUSH1 0x60 DUP4 ADD MSTORE SWAP1 DUP4 MSTORE SWAP1 SWAP3 ADD SWAP2 ADD PUSH2 0x1972 JUMP JUMPDEST PUSH1 0x0 DUP2 DUP2 MSTORE PUSH1 0xA PUSH1 0x20 MSTORE PUSH1 0x40 DUP2 KECCAK256 SLOAD PUSH1 0xFF AND PUSH2 0x1A02 JUMPI PUSH1 0x40 MLOAD PUSH3 0x461BCD PUSH1 0xE5 SHL DUP2 MSTORE PUSH1 0x4 ADD PUSH2 0x4BA SWAP1 PUSH2 0x305F JUMP JUMPDEST PUSH1 0x7 DUP3 DUP2 SLOAD DUP2 LT PUSH2 0x1A15 JUMPI PUSH2 0x1A15 PUSH2 0x308A JUMP JUMPDEST PUSH1 0x0 SWAP2 DUP3 MSTORE PUSH1 0x20 SWAP1 SWAP2 KECCAK256 PUSH1 0xA PUSH1 0xB SWAP1 SWAP3 MUL ADD ADD SLOAD PUSH1 0xFF AND PUSH1 0x4 DUP2 GT ISZERO PUSH2 0x1A3D JUMPI PUSH2 0x1A3D PUSH2 0x2C41 JUMP JUMPDEST SWAP3 SWAP2 POP POP JUMP JUMPDEST PUSH1 0x0 DUP6 DUP2 MSTORE PUSH1 0xA PUSH1 0x20 MSTORE PUSH1 0x40 DUP2 KECCAK256 SLOAD PUSH1 0xFF AND PUSH2 0x1A71 JUMPI PUSH1 0x40 MLOAD PUSH3 0x461BCD PUSH1 0xE5 SHL DUP2 MSTORE PUSH1 0x4 ADD PUSH2 0x4BA SWAP1 PUSH2 0x305F JUMP JUMPDEST PUSH1 0x7 DUP7 DUP2 SLOAD DUP2 LT PUSH2 0x1A84 JUMPI PUSH2 0x1A84 PUSH2 0x308A JUMP JUMPDEST PUSH1 0x0 SWAP2 DUP3 MSTORE PUSH1 0x20 SWAP1 SWAP2 KECCAK256 PUSH1 0xB SWAP1 SWAP2 MUL ADD PUSH1 0x1 ADD SLOAD PUSH1 0x1 PUSH1 0x1 PUSH1 0xA0 SHL SUB AND CALLER EQ PUSH2 0x1ABF JUMPI PUSH1 0x40 MLOAD PUSH3 0x461BCD PUSH1 0xE5 SHL DUP2 MSTORE PUSH1 0x4 ADD PUSH2 0x4BA SWAP1 PUSH2 0x30A0 JUMP JUMPDEST PUSH1 0x0 DUP6 MLOAD GT PUSH2 0x1B09 JUMPI PUSH1 0x40 MLOAD PUSH3 0x461BCD PUSH1 0xE5 SHL DUP2 MSTORE PUSH1 0x20 PUSH1 0x4 DUP3 ADD MSTORE PUSH1 0x16 PUSH1 0x24 DUP3 ADD MSTORE PUSH22 0x5469746C652063616E6E6F7420626520656D70747921 PUSH1 0x50 SHL PUSH1 0x44 DUP3 ADD MSTORE PUSH1 0x64 ADD PUSH2 0x4BA JUMP JUMPDEST PUSH1 0x0 DUP5 MLOAD GT PUSH2 0x1B5A JUMPI PUSH1 0x40 MLOAD PUSH3 0x461BCD PUSH1 0xE5 SHL DUP2 MSTORE PUSH1 0x20 PUSH1 0x4 DUP3 ADD MSTORE PUSH1 0x1C PUSH1 0x24 DUP3 ADD MSTORE PUSH32 0x4465736372697074696F6E2063616E6E6F7420626520656D7074792100000000 PUSH1 0x44 DUP3 ADD MSTORE PUSH1 0x64 ADD PUSH2 0x4BA JUMP JUMPDEST PUSH1 0x0 DUP4 MLOAD GT PUSH2 0x1BA7 JUMPI PUSH1 0x40 MLOAD PUSH3 0x461BCD PUSH1 0xE5 SHL DUP2 MSTORE PUSH1 0x20 PUSH1 0x4 DUP3 ADD MSTORE PUSH1 0x19 PUSH1 0x24 DUP3 ADD MSTORE PUSH25 0x496D61676555524C2063616E6E6F7420626520656D70747921 PUSH1 0x38 SHL PUSH1 0x44 DUP3 ADD MSTORE PUSH1 0x64 ADD PUSH2 0x4BA JUMP JUMPDEST DUP5 PUSH1 0x7 DUP8 DUP2 SLOAD DUP2 LT PUSH2 0x1BBB JUMPI PUSH2 0x1BBB PUSH2 0x308A JUMP JUMPDEST SWAP1 PUSH1 0x0 MSTORE PUSH1 0x20 PUSH1 0x0 KECCAK256 SWAP1 PUSH1 0xB MUL ADD PUSH1 0x2 ADD SWAP1 DUP1 MLOAD SWAP1 PUSH1 0x20 ADD SWAP1 PUSH2 0x1BDF SWAP3 SWAP2 SWAP1 PUSH2 0x2A05 JUMP JUMPDEST POP DUP4 PUSH1 0x7 DUP8 DUP2 SLOAD DUP2 LT PUSH2 0x1BF4 JUMPI PUSH2 0x1BF4 PUSH2 0x308A JUMP JUMPDEST SWAP1 PUSH1 0x0 MSTORE PUSH1 0x20 PUSH1 0x0 KECCAK256 SWAP1 PUSH1 0xB MUL ADD PUSH1 0x3 ADD SWAP1 DUP1 MLOAD SWAP1 PUSH1 0x20 ADD SWAP1 PUSH2 0x1C18 SWAP3 SWAP2 SWAP1 PUSH2 0x2A05 JUMP JUMPDEST POP DUP3 PUSH1 0x7 DUP8 DUP2 SLOAD DUP2 LT PUSH2 0x1C2D JUMPI PUSH2 0x1C2D PUSH2 0x308A JUMP JUMPDEST SWAP1 PUSH1 0x0 MSTORE PUSH1 0x20 PUSH1 0x0 KECCAK256 SWAP1 PUSH1 0xB MUL ADD PUSH1 0x4 ADD SWAP1 DUP1 MLOAD SWAP1 PUSH1 0x20 ADD SWAP1 PUSH2 0x1C51 SWAP3 SWAP2 SWAP1 PUSH2 0x2A05 JUMP JUMPDEST POP DUP2 PUSH1 0x7 DUP8 DUP2 SLOAD DUP2 LT PUSH2 0x1C66 JUMPI PUSH2 0x1C66 PUSH2 0x308A JUMP JUMPDEST SWAP1 PUSH1 0x0 MSTORE PUSH1 0x20 PUSH1 0x0 KECCAK256 SWAP1 PUSH1 0xB MUL ADD PUSH1 0x8 ADD DUP2 SWAP1 SSTORE POP CALLER PUSH1 0x1 PUSH1 0x1 PUSH1 0xA0 SHL SUB AND PUSH1 0x0 DUP1 MLOAD PUSH1 0x20 PUSH2 0x310F DUP4 CODECOPY DUP2 MLOAD SWAP2 MSTORE DUP8 TIMESTAMP PUSH1 0x40 MLOAD PUSH2 0x1CD4 SWAP3 SWAP2 SWAP1 SWAP2 DUP3 MSTORE PUSH1 0x60 PUSH1 0x20 DUP4 ADD DUP2 SWAP1 MSTORE PUSH1 0xF SWAP1 DUP4 ADD MSTORE PUSH15 0x141493D29150D517D5541110551151 PUSH1 0x8A SHL PUSH1 0x80 DUP4 ADD MSTORE PUSH1 0x40 DUP3 ADD MSTORE PUSH1 0xA0 ADD SWAP1 JUMP JUMPDEST PUSH1 0x40 MLOAD DUP1 SWAP2 SUB SWAP1 LOG2 POP PUSH1 0x1 SWAP6 SWAP5 POP POP POP POP POP JUMP JUMPDEST PUSH1 0x0 DUP2 DUP2 MSTORE PUSH1 0xA PUSH1 0x20 MSTORE PUSH1 0x40 DUP2 KECCAK256 SLOAD PUSH1 0xFF AND PUSH2 0x1D16 JUMPI PUSH1 0x40 MLOAD PUSH3 0x461BCD PUSH1 0xE5 SHL DUP2 MSTORE PUSH1 0x4 ADD PUSH2 0x4BA SWAP1 PUSH2 0x305F JUMP JUMPDEST PUSH1 0x2 PUSH1 0x7 DUP4 DUP2 SLOAD DUP2 LT PUSH2 0x1D2B JUMPI PUSH2 0x1D2B PUSH2 0x308A JUMP JUMPDEST PUSH1 0x0 SWAP2 DUP3 MSTORE PUSH1 0x20 SWAP1 SWAP2 KECCAK256 PUSH1 0xA PUSH1 0xB SWAP1 SWAP3 MUL ADD ADD SLOAD PUSH1 0xFF AND PUSH1 0x4 DUP2 GT ISZERO PUSH2 0x1D53 JUMPI PUSH2 0x1D53 PUSH2 0x2C41 JUMP JUMPDEST EQ ISZERO DUP1 PUSH2 0x1D9B JUMPI POP PUSH1 0x3 PUSH1 0x7 DUP4 DUP2 SLOAD DUP2 LT PUSH2 0x1D70 JUMPI PUSH2 0x1D70 PUSH2 0x308A JUMP JUMPDEST PUSH1 0x0 SWAP2 DUP3 MSTORE PUSH1 0x20 SWAP1 SWAP2 KECCAK256 PUSH1 0xA PUSH1 0xB SWAP1 SWAP3 MUL ADD ADD SLOAD PUSH1 0xFF AND PUSH1 0x4 DUP2 GT ISZERO PUSH2 0x1D98 JUMPI PUSH2 0x1D98 PUSH2 0x2C41 JUMP JUMPDEST EQ ISZERO JUMPDEST PUSH2 0x1DF9 JUMPI PUSH1 0x40 MLOAD PUSH3 0x461BCD PUSH1 0xE5 SHL DUP2 MSTORE PUSH1 0x20 PUSH1 0x4 DUP3 ADD MSTORE PUSH1 0x29 PUSH1 0x24 DUP3 ADD MSTORE PUSH32 0x50726F6A656374206E6F74206D61726B6564206173207265766572746564206F PUSH1 0x44 DUP3 ADD MSTORE PUSH9 0x1C8819195B195D1959 PUSH1 0xBA SHL PUSH1 0x64 DUP3 ADD MSTORE PUSH1 0x84 ADD PUSH2 0x4BA JUMP JUMPDEST PUSH1 0x2 PUSH1 0x7 DUP4 DUP2 SLOAD DUP2 LT PUSH2 0x16B2 JUMPI PUSH2 0x16B2 PUSH2 0x308A JUMP JUMPDEST PUSH1 0x0 DUP2 DUP2 MSTORE PUSH1 0xA PUSH1 0x20 MSTORE PUSH1 0x40 DUP2 KECCAK256 SLOAD PUSH1 0xFF AND PUSH2 0x1E3C JUMPI PUSH1 0x40 MLOAD PUSH3 0x461BCD PUSH1 0xE5 SHL DUP2 MSTORE PUSH1 0x4 ADD PUSH2 0x4BA SWAP1 PUSH2 0x305F JUMP JUMPDEST PUSH1 0x1 PUSH1 0x7 DUP4 DUP2 SLOAD DUP2 LT PUSH2 0x1E51 JUMPI PUSH2 0x1E51 PUSH2 0x308A JUMP JUMPDEST PUSH1 0x0 SWAP2 DUP3 MSTORE PUSH1 0x20 SWAP1 SWAP2 KECCAK256 PUSH1 0xA PUSH1 0xB SWAP1 SWAP3 MUL ADD ADD SLOAD PUSH1 0xFF AND PUSH1 0x4 DUP2 GT ISZERO PUSH2 0x1E79 JUMPI PUSH2 0x1E79 PUSH2 0x2C41 JUMP JUMPDEST EQ PUSH2 0x1EBE JUMPI PUSH1 0x40 MLOAD PUSH3 0x461BCD PUSH1 0xE5 SHL DUP2 MSTORE PUSH1 0x20 PUSH1 0x4 DUP3 ADD MSTORE PUSH1 0x15 PUSH1 0x24 DUP3 ADD MSTORE PUSH21 0x50726F6A656374206E6F7420417070726F76656421 PUSH1 0x58 SHL PUSH1 0x44 DUP3 ADD MSTORE PUSH1 0x64 ADD PUSH2 0x4BA JUMP JUMPDEST PUSH1 0x7 DUP3 DUP2 SLOAD DUP2 LT PUSH2 0x1ED1 JUMPI PUSH2 0x1ED1 PUSH2 0x308A JUMP JUMPDEST PUSH1 0x0 SWAP2 DUP3 MSTORE PUSH1 0x20 SWAP1 SWAP2 KECCAK256 PUSH1 0xB SWAP1 SWAP2 MUL ADD PUSH1 0x1 ADD SLOAD PUSH1 0x1 PUSH1 0x1 PUSH1 0xA0 SHL SUB AND CALLER EQ DUP1 PUSH2 0x1F05 JUMPI POP PUSH1 0x0 SLOAD PUSH1 0x1 PUSH1 0x1 PUSH1 0xA0 SHL SUB AND CALLER EQ JUMPDEST PUSH2 0x1F21 JUMPI PUSH1 0x40 MLOAD PUSH3 0x461BCD PUSH1 0xE5 SHL DUP2 MSTORE PUSH1 0x4 ADD PUSH2 0x4BA SWAP1 PUSH2 0x30A0 JUMP JUMPDEST PUSH2 0x16ED DUP3 PUSH2 0x26AD JUMP JUMPDEST PUSH1 0x5 SLOAD PUSH1 0x60 SWAP1 PUSH1 0x0 DUP2 PUSH8 0xFFFFFFFFFFFFFFFF DUP2 GT ISZERO PUSH2 0x1F4B JUMPI PUSH2 0x1F4B PUSH2 0x2A9E JUMP JUMPDEST PUSH1 0x40 MLOAD SWAP1 DUP1 DUP3 MSTORE DUP1 PUSH1 0x20 MUL PUSH1 0x20 ADD DUP3 ADD PUSH1 0x40 MSTORE DUP1 ISZERO PUSH2 0x1F9D JUMPI DUP2 PUSH1 0x20 ADD JUMPDEST PUSH1 0x40 DUP1 MLOAD PUSH1 0x80 DUP2 ADD DUP3 MSTORE PUSH1 0x0 DUP1 DUP3 MSTORE PUSH1 0x20 DUP1 DUP4 ADD DUP3 SWAP1 MSTORE SWAP3 DUP3 ADD DUP2 SWAP1 MSTORE PUSH1 0x60 DUP3 ADD MSTORE DUP3 MSTORE PUSH1 0x0 NOT SWAP1 SWAP3 ADD SWAP2 ADD DUP2 PUSH2 0x1F69 JUMPI SWAP1 POP JUMPDEST POP SWAP1 POP PUSH1 0x0 DUP1 JUMPDEST PUSH1 0x7 SLOAD DUP2 LT ISZERO PUSH2 0x20E8 JUMPI PUSH1 0x0 PUSH1 0x9 PUSH1 0x0 PUSH1 0x7 DUP5 DUP2 SLOAD DUP2 LT PUSH2 0x1FC7 JUMPI PUSH2 0x1FC7 PUSH2 0x308A JUMP JUMPDEST SWAP1 PUSH1 0x0 MSTORE PUSH1 0x20 PUSH1 0x0 KECCAK256 SWAP1 PUSH1 0xB MUL ADD PUSH1 0x0 ADD SLOAD DUP2 MSTORE PUSH1 0x20 ADD SWAP1 DUP2 MSTORE PUSH1 0x20 ADD PUSH1 0x0 KECCAK256 DUP1 SLOAD DUP1 PUSH1 0x20 MUL PUSH1 0x20 ADD PUSH1 0x40 MLOAD SWAP1 DUP2 ADD PUSH1 0x40 MSTORE DUP1 SWAP3 SWAP2 SWAP1 DUP2 DUP2 MSTORE PUSH1 0x20 ADD PUSH1 0x0 SWAP1 JUMPDEST DUP3 DUP3 LT ISZERO PUSH2 0x2069 JUMPI PUSH1 0x0 DUP5 DUP2 MSTORE PUSH1 0x20 SWAP1 DUP2 SWAP1 KECCAK256 PUSH1 0x40 DUP1 MLOAD PUSH1 0x80 DUP2 ADD DUP3 MSTORE PUSH1 0x4 DUP7 MUL SWAP1 SWAP3 ADD DUP1 SLOAD PUSH1 0x1 PUSH1 0x1 PUSH1 0xA0 SHL SUB AND DUP4 MSTORE PUSH1 0x1 DUP1 DUP3 ADD SLOAD DUP5 DUP7 ADD MSTORE PUSH1 0x2 DUP3 ADD SLOAD SWAP3 DUP5 ADD SWAP3 SWAP1 SWAP3 MSTORE PUSH1 0x3 ADD SLOAD PUSH1 0xFF AND ISZERO ISZERO PUSH1 0x60 DUP4 ADD MSTORE SWAP1 DUP4 MSTORE SWAP1 SWAP3 ADD SWAP2 ADD PUSH2 0x2007 JUMP JUMPDEST POP POP POP POP SWAP1 POP PUSH1 0x0 JUMPDEST DUP2 MLOAD DUP2 LT ISZERO PUSH2 0x20D3 JUMPI DUP2 DUP2 DUP2 MLOAD DUP2 LT PUSH2 0x208D JUMPI PUSH2 0x208D PUSH2 0x308A JUMP JUMPDEST PUSH1 0x20 MUL PUSH1 0x20 ADD ADD MLOAD DUP6 DUP6 DUP2 MLOAD DUP2 LT PUSH2 0x20A7 JUMPI PUSH2 0x20A7 PUSH2 0x308A JUMP JUMPDEST PUSH1 0x20 MUL PUSH1 0x20 ADD ADD DUP2 SWAP1 MSTORE POP DUP4 DUP1 PUSH2 0x20BD SWAP1 PUSH2 0x2FAE JUMP JUMPDEST SWAP5 POP POP DUP1 DUP1 PUSH2 0x20CB SWAP1 PUSH2 0x2FAE JUMP JUMPDEST SWAP2 POP POP PUSH2 0x2072 JUMP JUMPDEST POP POP DUP1 DUP1 PUSH2 0x20E0 SWAP1 PUSH2 0x2FAE JUMP JUMPDEST SWAP2 POP POP PUSH2 0x1FA4 JUMP JUMPDEST POP SWAP1 SWAP4 SWAP3 POP POP POP JUMP JUMPDEST PUSH1 0x60 PUSH1 0x7 DUP1 SLOAD DUP1 PUSH1 0x20 MUL PUSH1 0x20 ADD PUSH1 0x40 MLOAD SWAP1 DUP2 ADD PUSH1 0x40 MSTORE DUP1 SWAP3 SWAP2 SWAP1 DUP2 DUP2 MSTORE PUSH1 0x20 ADD PUSH1 0x0 SWAP1 JUMPDEST DUP3 DUP3 LT ISZERO PUSH2 0x2383 JUMPI PUSH1 0x0 DUP5 DUP2 MSTORE PUSH1 0x20 SWAP1 DUP2 SWAP1 KECCAK256 PUSH1 0x40 DUP1 MLOAD PUSH2 0x160 DUP2 ADD DUP3 MSTORE PUSH1 0xB DUP7 MUL SWAP1 SWAP3 ADD DUP1 SLOAD DUP4 MSTORE PUSH1 0x1 DUP2 ADD SLOAD PUSH1 0x1 PUSH1 0x1 PUSH1 0xA0 SHL SUB AND SWAP4 DUP4 ADD SWAP4 SWAP1 SWAP4 MSTORE PUSH1 0x2 DUP4 ADD DUP1 SLOAD SWAP3 SWAP4 SWAP3 SWAP2 DUP5 ADD SWAP2 PUSH2 0x2169 SWAP1 PUSH2 0x2FC9 JUMP JUMPDEST DUP1 PUSH1 0x1F ADD PUSH1 0x20 DUP1 SWAP2 DIV MUL PUSH1 0x20 ADD PUSH1 0x40 MLOAD SWAP1 DUP2 ADD PUSH1 0x40 MSTORE DUP1 SWAP3 SWAP2 SWAP1 DUP2 DUP2 MSTORE PUSH1 0x20 ADD DUP3 DUP1 SLOAD PUSH2 0x2195 SWAP1 PUSH2 0x2FC9 JUMP JUMPDEST DUP1 ISZERO PUSH2 0x21E2 JUMPI DUP1 PUSH1 0x1F LT PUSH2 0x21B7 JUMPI PUSH2 0x100 DUP1 DUP4 SLOAD DIV MUL DUP4 MSTORE SWAP2 PUSH1 0x20 ADD SWAP2 PUSH2 0x21E2 JUMP JUMPDEST DUP3 ADD SWAP2 SWAP1 PUSH1 0x0 MSTORE PUSH1 0x20 PUSH1 0x0 KECCAK256 SWAP1 JUMPDEST DUP2 SLOAD DUP2 MSTORE SWAP1 PUSH1 0x1 ADD SWAP1 PUSH1 0x20 ADD DUP1 DUP4 GT PUSH2 0x21C5 JUMPI DUP3 SWAP1 SUB PUSH1 0x1F AND DUP3 ADD SWAP2 JUMPDEST POP POP POP POP POP DUP2 MSTORE PUSH1 0x20 ADD PUSH1 0x3 DUP3 ADD DUP1 SLOAD PUSH2 0x21FB SWAP1 PUSH2 0x2FC9 JUMP JUMPDEST DUP1 PUSH1 0x1F ADD PUSH1 0x20 DUP1 SWAP2 DIV MUL PUSH1 0x20 ADD PUSH1 0x40 MLOAD SWAP1 DUP2 ADD PUSH1 0x40 MSTORE DUP1 SWAP3 SWAP2 SWAP1 DUP2 DUP2 MSTORE PUSH1 0x20 ADD DUP3 DUP1 SLOAD PUSH2 0x2227 SWAP1 PUSH2 0x2FC9 JUMP JUMPDEST DUP1 ISZERO PUSH2 0x2274 JUMPI DUP1 PUSH1 0x1F LT PUSH2 0x2249 JUMPI PUSH2 0x100 DUP1 DUP4 SLOAD DIV MUL DUP4 MSTORE SWAP2 PUSH1 0x20 ADD SWAP2 PUSH2 0x2274 JUMP JUMPDEST DUP3 ADD SWAP2 SWAP1 PUSH1 0x0 MSTORE PUSH1 0x20 PUSH1 0x0 KECCAK256 SWAP1 JUMPDEST DUP2 SLOAD DUP2 MSTORE SWAP1 PUSH1 0x1 ADD SWAP1 PUSH1 0x20 ADD DUP1 DUP4 GT PUSH2 0x2257 JUMPI DUP3 SWAP1 SUB PUSH1 0x1F AND DUP3 ADD SWAP2 JUMPDEST POP POP POP POP POP DUP2 MSTORE PUSH1 0x20 ADD PUSH1 0x4 DUP3 ADD DUP1 SLOAD PUSH2 0x228D SWAP1 PUSH2 0x2FC9 JUMP JUMPDEST DUP1 PUSH1 0x1F ADD PUSH1 0x20 DUP1 SWAP2 DIV MUL PUSH1 0x20 ADD PUSH1 0x40 MLOAD SWAP1 DUP2 ADD PUSH1 0x40 MSTORE DUP1 SWAP3 SWAP2 SWAP1 DUP2 DUP2 MSTORE PUSH1 0x20 ADD DUP3 DUP1 SLOAD PUSH2 0x22B9 SWAP1 PUSH2 0x2FC9 JUMP JUMPDEST DUP1 ISZERO PUSH2 0x2306 JUMPI DUP1 PUSH1 0x1F LT PUSH2 0x22DB JUMPI PUSH2 0x100 DUP1 DUP4 SLOAD DIV MUL DUP4 MSTORE SWAP2 PUSH1 0x20 ADD SWAP2 PUSH2 0x2306 JUMP JUMPDEST DUP3 ADD SWAP2 SWAP1 PUSH1 0x0 MSTORE PUSH1 0x20 PUSH1 0x0 KECCAK256 SWAP1 JUMPDEST DUP2 SLOAD DUP2 MSTORE SWAP1 PUSH1 0x1 ADD SWAP1 PUSH1 0x20 ADD DUP1 DUP4 GT PUSH2 0x22E9 JUMPI DUP3 SWAP1 SUB PUSH1 0x1F AND DUP3 ADD SWAP2 JUMPDEST POP POP POP SWAP2 DUP4 MSTORE POP POP PUSH1 0x5 DUP3 ADD SLOAD PUSH1 0x20 DUP3 ADD MSTORE PUSH1 0x6 DUP3 ADD SLOAD PUSH1 0x40 DUP3 ADD MSTORE PUSH1 0x7 DUP3 ADD SLOAD PUSH1 0x60 DUP3 ADD MSTORE PUSH1 0x8 DUP3 ADD SLOAD PUSH1 0x80 DUP3 ADD MSTORE PUSH1 0x9 DUP3 ADD SLOAD PUSH1 0xA0 DUP3 ADD MSTORE PUSH1 0xA DUP3 ADD SLOAD PUSH1 0xC0 SWAP1 SWAP2 ADD SWAP1 PUSH1 0xFF AND PUSH1 0x4 DUP2 GT ISZERO PUSH2 0x235F JUMPI PUSH2 0x235F PUSH2 0x2C41 JUMP JUMPDEST PUSH1 0x4 DUP2 GT ISZERO PUSH2 0x2370 JUMPI PUSH2 0x2370 PUSH2 0x2C41 JUMP JUMPDEST DUP2 MSTORE POP POP DUP2 MSTORE PUSH1 0x20 ADD SWAP1 PUSH1 0x1 ADD SWAP1 PUSH2 0x2115 JUMP JUMPDEST POP POP POP POP SWAP1 POP SWAP1 JUMP JUMPDEST PUSH2 0x2394 PUSH2 0x2992 JUMP JUMPDEST PUSH1 0x0 DUP3 DUP2 MSTORE PUSH1 0xA PUSH1 0x20 MSTORE PUSH1 0x40 SWAP1 KECCAK256 SLOAD PUSH1 0xFF AND PUSH2 0x23C2 JUMPI PUSH1 0x40 MLOAD PUSH3 0x461BCD PUSH1 0xE5 SHL DUP2 MSTORE PUSH1 0x4 ADD PUSH2 0x4BA SWAP1 PUSH2 0x305F JUMP JUMPDEST PUSH1 0x7 DUP3 DUP2 SLOAD DUP2 LT PUSH2 0x23D5 JUMPI PUSH2 0x23D5 PUSH2 0x308A JUMP JUMPDEST SWAP1 PUSH1 0x0 MSTORE PUSH1 0x20 PUSH1 0x0 KECCAK256 SWAP1 PUSH1 0xB MUL ADD PUSH1 0x40 MLOAD DUP1 PUSH2 0x160 ADD PUSH1 0x40 MSTORE SWAP1 DUP2 PUSH1 0x0 DUP3 ADD SLOAD DUP2 MSTORE PUSH1 0x20 ADD PUSH1 0x1 DUP3 ADD PUSH1 0x0 SWAP1 SLOAD SWAP1 PUSH2 0x100 EXP SWAP1 DIV PUSH1 0x1 PUSH1 0x1 PUSH1 0xA0 SHL SUB AND PUSH1 0x1 PUSH1 0x1 PUSH1 0xA0 SHL SUB AND PUSH1 0x1 PUSH1 0x1 PUSH1 0xA0 SHL SUB AND DUP2 MSTORE PUSH1 0x20 ADD PUSH1 0x2 DUP3 ADD DUP1 SLOAD PUSH2 0x2438 SWAP1 PUSH2 0x2FC9 JUMP JUMPDEST DUP1 PUSH1 0x1F ADD PUSH1 0x20 DUP1 SWAP2 DIV MUL PUSH1 0x20 ADD PUSH1 0x40 MLOAD SWAP1 DUP2 ADD PUSH1 0x40 MSTORE DUP1 SWAP3 SWAP2 SWAP1 DUP2 DUP2 MSTORE PUSH1 0x20 ADD DUP3 DUP1 SLOAD PUSH2 0x2464 SWAP1 PUSH2 0x2FC9 JUMP JUMPDEST DUP1 ISZERO PUSH2 0x24B1 JUMPI DUP1 PUSH1 0x1F LT PUSH2 0x2486 JUMPI PUSH2 0x100 DUP1 DUP4 SLOAD DIV MUL DUP4 MSTORE SWAP2 PUSH1 0x20 ADD SWAP2 PUSH2 0x24B1 JUMP JUMPDEST DUP3 ADD SWAP2 SWAP1 PUSH1 0x0 MSTORE PUSH1 0x20 PUSH1 0x0 KECCAK256 SWAP1 JUMPDEST DUP2 SLOAD DUP2 MSTORE SWAP1 PUSH1 0x1 ADD SWAP1 PUSH1 0x20 ADD DUP1 DUP4 GT PUSH2 0x2494 JUMPI DUP3 SWAP1 SUB PUSH1 0x1F AND DUP3 ADD SWAP2 JUMPDEST POP POP POP POP POP DUP2 MSTORE PUSH1 0x20 ADD PUSH1 0x3 DUP3 ADD DUP1 SLOAD PUSH2 0x24CA SWAP1 PUSH2 0x2FC9 JUMP JUMPDEST DUP1 PUSH1 0x1F ADD PUSH1 0x20 DUP1 SWAP2 DIV MUL PUSH1 0x20 ADD PUSH1 0x40 MLOAD SWAP1 DUP2 ADD PUSH1 0x40 MSTORE DUP1 SWAP3 SWAP2 SWAP1 DUP2 DUP2 MSTORE PUSH1 0x20 ADD DUP3 DUP1 SLOAD PUSH2 0x24F6 SWAP1 PUSH2 0x2FC9 JUMP JUMPDEST DUP1 ISZERO PUSH2 0x2543 JUMPI DUP1 PUSH1 0x1F LT PUSH2 0x2518 JUMPI PUSH2 0x100 DUP1 DUP4 SLOAD DIV MUL DUP4 MSTORE SWAP2 PUSH1 0x20 ADD SWAP2 PUSH2 0x2543 JUMP JUMPDEST DUP3 ADD SWAP2 SWAP1 PUSH1 0x0 MSTORE PUSH1 0x20 PUSH1 0x0 KECCAK256 SWAP1 JUMPDEST DUP2 SLOAD DUP2 MSTORE SWAP1 PUSH1 0x1 ADD SWAP1 PUSH1 0x20 ADD DUP1 DUP4 GT PUSH2 0x2526 JUMPI DUP3 SWAP1 SUB PUSH1 0x1F AND DUP3 ADD SWAP2 JUMPDEST POP POP POP POP POP DUP2 MSTORE PUSH1 0x20 ADD PUSH1 0x4 DUP3 ADD DUP1 SLOAD PUSH2 0x255C SWAP1 PUSH2 0x2FC9 JUMP JUMPDEST DUP1 PUSH1 0x1F ADD PUSH1 0x20 DUP1 SWAP2 DIV MUL PUSH1 0x20 ADD PUSH1 0x40 MLOAD SWAP1 DUP2 ADD PUSH1 0x40 MSTORE DUP1 SWAP3 SWAP2 SWAP1 DUP2 DUP2 MSTORE PUSH1 0x20 ADD DUP3 DUP1 SLOAD PUSH2 0x2588 SWAP1 PUSH2 0x2FC9 JUMP JUMPDEST DUP1 ISZERO PUSH2 0x25D5 JUMPI DUP1 PUSH1 0x1F LT PUSH2 0x25AA JUMPI PUSH2 0x100 DUP1 DUP4 SLOAD DIV MUL DUP4 MSTORE SWAP2 PUSH1 0x20 ADD SWAP2 PUSH2 0x25D5 JUMP JUMPDEST DUP3 ADD SWAP2 SWAP1 PUSH1 0x0 MSTORE PUSH1 0x20 PUSH1 0x0 KECCAK256 SWAP1 JUMPDEST DUP2 SLOAD DUP2 MSTORE SWAP1 PUSH1 0x1 ADD SWAP1 PUSH1 0x20 ADD DUP1 DUP4 GT PUSH2 0x25B8 JUMPI DUP3 SWAP1 SUB PUSH1 0x1F AND DUP3 ADD SWAP2 JUMPDEST POP POP POP SWAP2 DUP4 MSTORE POP POP PUSH1 0x5 DUP3 ADD SLOAD PUSH1 0x20 DUP3 ADD MSTORE PUSH1 0x6 DUP3 ADD SLOAD PUSH1 0x40 DUP3 ADD MSTORE PUSH1 0x7 DUP3 ADD SLOAD PUSH1 0x60 DUP3 ADD MSTORE PUSH1 0x8 DUP3 ADD SLOAD PUSH1 0x80 DUP3 ADD MSTORE PUSH1 0x9 DUP3 ADD SLOAD PUSH1 0xA0 DUP3 ADD MSTORE PUSH1 0xA DUP3 ADD SLOAD PUSH1 0xC0 SWAP1 SWAP2 ADD SWAP1 PUSH1 0xFF AND PUSH1 0x4 DUP2 GT ISZERO PUSH2 0x262E JUMPI PUSH2 0x262E PUSH2 0x2C41 JUMP JUMPDEST PUSH1 0x4 DUP2 GT ISZERO PUSH2 0x263F JUMPI PUSH2 0x263F PUSH2 0x2C41 JUMP JUMPDEST SWAP1 MSTORE POP SWAP3 SWAP2 POP POP JUMP JUMPDEST PUSH1 0x0 DUP3 PUSH1 0x1 PUSH1 0x1 PUSH1 0xA0 SHL SUB AND DUP3 PUSH1 0x40 MLOAD PUSH1 0x0 PUSH1 0x40 MLOAD DUP1 DUP4 SUB DUP2 DUP6 DUP8 GAS CALL SWAP3 POP POP POP RETURNDATASIZE DUP1 PUSH1 0x0 DUP2 EQ PUSH2 0x2695 JUMPI PUSH1 0x40 MLOAD SWAP2 POP PUSH1 0x1F NOT PUSH1 0x3F RETURNDATASIZE ADD AND DUP3 ADD PUSH1 0x40 MSTORE RETURNDATASIZE DUP3 MSTORE RETURNDATASIZE PUSH1 0x0 PUSH1 0x20 DUP5 ADD RETURNDATACOPY PUSH2 0x269A JUMP JUMPDEST PUSH1 0x60 SWAP2 POP JUMPDEST POP POP SWAP1 POP DUP1 PUSH2 0x26A8 JUMPI PUSH1 0x0 DUP1 REVERT JUMPDEST POP POP POP JUMP JUMPDEST PUSH1 0x0 PUSH1 0x7 DUP3 DUP2 SLOAD DUP2 LT PUSH2 0x26C2 JUMPI PUSH2 0x26C2 PUSH2 0x308A JUMP JUMPDEST SWAP1 PUSH1 0x0 MSTORE PUSH1 0x20 PUSH1 0x0 KECCAK256 SWAP1 PUSH1 0xB MUL ADD PUSH1 0x6 ADD SLOAD SWAP1 POP PUSH1 0x0 PUSH1 0x64 PUSH1 0x1 SLOAD DUP4 PUSH2 0x26E8 SWAP2 SWAP1 PUSH2 0x30CD JUMP JUMPDEST PUSH2 0x26F2 SWAP2 SWAP1 PUSH2 0x30EC JUMP JUMPDEST SWAP1 POP PUSH1 0x4 PUSH1 0x7 DUP5 DUP2 SLOAD DUP2 LT PUSH2 0x2709 JUMPI PUSH2 0x2709 PUSH2 0x308A JUMP JUMPDEST PUSH1 0x0 SWAP2 DUP3 MSTORE PUSH1 0x20 SWAP1 SWAP2 KECCAK256 PUSH1 0xA PUSH1 0xB SWAP1 SWAP3 MUL ADD ADD DUP1 SLOAD PUSH1 0xFF NOT AND PUSH1 0x1 DUP4 PUSH1 0x4 DUP2 GT ISZERO PUSH2 0x2736 JUMPI PUSH2 0x2736 PUSH2 0x2C41 JUMP JUMPDEST MUL OR SWAP1 SSTORE POP PUSH2 0x277D PUSH1 0x7 DUP5 DUP2 SLOAD DUP2 LT PUSH2 0x2751 JUMPI PUSH2 0x2751 PUSH2 0x308A JUMP JUMPDEST PUSH1 0x0 SWAP2 DUP3 MSTORE PUSH1 0x20 SWAP1 SWAP2 KECCAK256 PUSH1 0x1 PUSH1 0xB SWAP1 SWAP3 MUL ADD ADD SLOAD PUSH1 0x1 PUSH1 0x1 PUSH1 0xA0 SHL SUB AND PUSH2 0x2778 DUP4 DUP6 PUSH2 0x3048 JUMP JUMPDEST PUSH2 0x2648 JUMP JUMPDEST PUSH1 0x0 SLOAD PUSH2 0x2793 SWAP1 PUSH1 0x1 PUSH1 0x1 PUSH1 0xA0 SHL SUB AND DUP3 PUSH2 0x2648 JUMP JUMPDEST PUSH1 0x7 DUP4 DUP2 SLOAD DUP2 LT PUSH2 0x27A6 JUMPI PUSH2 0x27A6 PUSH2 0x308A JUMP JUMPDEST SWAP1 PUSH1 0x0 MSTORE PUSH1 0x20 PUSH1 0x0 KECCAK256 SWAP1 PUSH1 0xB MUL ADD PUSH1 0x6 ADD SLOAD PUSH1 0x3 PUSH1 0x0 DUP3 DUP3 SLOAD PUSH2 0x27C9 SWAP2 SWAP1 PUSH2 0x3048 JUMP JUMPDEST SWAP1 SWAP2 SSTORE POP POP PUSH1 0x40 DUP1 MLOAD DUP5 DUP2 MSTORE PUSH1 0x60 PUSH1 0x20 DUP3 ADD DUP2 SWAP1 MSTORE PUSH1 0x10 SWAP1 DUP3 ADD MSTORE PUSH16 0x141493D29150D517D410525117D3D555 PUSH1 0x82 SHL PUSH1 0x80 DUP3 ADD MSTORE TIMESTAMP DUP2 DUP4 ADD MSTORE SWAP1 MLOAD CALLER SWAP2 PUSH1 0x0 DUP1 MLOAD PUSH1 0x20 PUSH2 0x310F DUP4 CODECOPY DUP2 MLOAD SWAP2 MSTORE SWAP2 SWAP1 DUP2 SWAP1 SUB PUSH1 0xA0 ADD SWAP1 LOG2 POP POP POP JUMP JUMPDEST PUSH1 0x0 JUMPDEST PUSH1 0x0 DUP3 DUP2 MSTORE PUSH1 0x9 PUSH1 0x20 MSTORE PUSH1 0x40 SWAP1 KECCAK256 SLOAD DUP2 LT ISZERO PUSH2 0x298E JUMPI PUSH1 0x0 DUP3 DUP2 MSTORE PUSH1 0x9 PUSH1 0x20 MSTORE PUSH1 0x40 DUP2 KECCAK256 DUP1 SLOAD DUP4 SWAP1 DUP2 LT PUSH2 0x285D JUMPI PUSH2 0x285D PUSH2 0x308A JUMP JUMPDEST PUSH1 0x0 SWAP2 DUP3 MSTORE PUSH1 0x20 DUP1 DUP4 KECCAK256 PUSH1 0x4 SWAP1 SWAP3 MUL SWAP1 SWAP2 ADD SLOAD DUP6 DUP4 MSTORE PUSH1 0x9 SWAP1 SWAP2 MSTORE PUSH1 0x40 DUP3 KECCAK256 DUP1 SLOAD PUSH1 0x1 PUSH1 0x1 PUSH1 0xA0 SHL SUB SWAP1 SWAP3 AND SWAP4 POP SWAP1 DUP5 SWAP1 DUP2 LT PUSH2 0x289C JUMPI PUSH2 0x289C PUSH2 0x308A JUMP JUMPDEST SWAP1 PUSH1 0x0 MSTORE PUSH1 0x20 PUSH1 0x0 KECCAK256 SWAP1 PUSH1 0x4 MUL ADD PUSH1 0x1 ADD SLOAD SWAP1 POP PUSH1 0x1 PUSH1 0x9 PUSH1 0x0 DUP7 DUP2 MSTORE PUSH1 0x20 ADD SWAP1 DUP2 MSTORE PUSH1 0x20 ADD PUSH1 0x0 KECCAK256 DUP5 DUP2 SLOAD DUP2 LT PUSH2 0x28D6 JUMPI PUSH2 0x28D6 PUSH2 0x308A JUMP JUMPDEST SWAP1 PUSH1 0x0 MSTORE PUSH1 0x20 PUSH1 0x0 KECCAK256 SWAP1 PUSH1 0x4 MUL ADD PUSH1 0x3 ADD PUSH1 0x0 PUSH2 0x100 EXP DUP2 SLOAD DUP2 PUSH1 0xFF MUL NOT AND SWAP1 DUP4 ISZERO ISZERO MUL OR SWAP1 SSTORE POP TIMESTAMP PUSH1 0x9 PUSH1 0x0 DUP7 DUP2 MSTORE PUSH1 0x20 ADD SWAP1 DUP2 MSTORE PUSH1 0x20 ADD PUSH1 0x0 KECCAK256 DUP5 DUP2 SLOAD DUP2 LT PUSH2 0x2923 JUMPI PUSH2 0x2923 PUSH2 0x308A JUMP JUMPDEST SWAP1 PUSH1 0x0 MSTORE PUSH1 0x20 PUSH1 0x0 KECCAK256 SWAP1 PUSH1 0x4 MUL ADD PUSH1 0x2 ADD DUP2 SWAP1 SSTORE POP PUSH2 0x2942 DUP3 DUP3 PUSH2 0x2648 JUMP JUMPDEST PUSH1 0x1 PUSH1 0x4 PUSH1 0x1 ADD PUSH1 0x0 DUP3 DUP3 SLOAD PUSH2 0x2958 SWAP2 SWAP1 PUSH2 0x3048 JUMP JUMPDEST SWAP1 SWAP2 SSTORE POP POP PUSH1 0x6 DUP1 SLOAD DUP3 SWAP2 SWAP1 PUSH1 0x0 SWAP1 PUSH2 0x2972 SWAP1 DUP5 SWAP1 PUSH2 0x3048 JUMP JUMPDEST SWAP3 POP POP DUP2 SWAP1 SSTORE POP POP POP DUP1 DUP1 PUSH2 0x2986 SWAP1 PUSH2 0x2FAE JUMP JUMPDEST SWAP2 POP POP PUSH2 0x2827 JUMP JUMPDEST POP POP JUMP JUMPDEST PUSH1 0x40 MLOAD DUP1 PUSH2 0x160 ADD PUSH1 0x40 MSTORE DUP1 PUSH1 0x0 DUP2 MSTORE PUSH1 0x20 ADD PUSH1 0x0 PUSH1 0x1 PUSH1 0x1 PUSH1 0xA0 SHL SUB AND DUP2 MSTORE PUSH1 0x20 ADD PUSH1 0x60 DUP2 MSTORE PUSH1 0x20 ADD PUSH1 0x60 DUP2 MSTORE PUSH1 0x20 ADD PUSH1 0x60 DUP2 MSTORE PUSH1 0x20 ADD PUSH1 0x0 DUP2 MSTORE PUSH1 0x20 ADD PUSH1 0x0 DUP2 MSTORE PUSH1 0x20 ADD PUSH1 0x0 DUP2 MSTORE PUSH1 0x20 ADD PUSH1 0x0 DUP2 MSTORE PUSH1 0x20 ADD PUSH1 0x0 DUP2 MSTORE PUSH1 0x20 ADD PUSH1 0x0 PUSH1 0x4 DUP2 GT ISZERO PUSH2 0x2A00 JUMPI PUSH2 0x2A00 PUSH2 0x2C41 JUMP JUMPDEST SWAP1 MSTORE SWAP1 JUMP JUMPDEST DUP3 DUP1 SLOAD PUSH2 0x2A11 SWAP1 PUSH2 0x2FC9 JUMP JUMPDEST SWAP1 PUSH1 0x0 MSTORE PUSH1 0x20 PUSH1 0x0 KECCAK256 SWAP1 PUSH1 0x1F ADD PUSH1 0x20 SWAP1 DIV DUP2 ADD SWAP3 DUP3 PUSH2 0x2A33 JUMPI PUSH1 0x0 DUP6 SSTORE PUSH2 0x2A79 JUMP JUMPDEST DUP3 PUSH1 0x1F LT PUSH2 0x2A4C JUMPI DUP1 MLOAD PUSH1 0xFF NOT AND DUP4 DUP1 ADD OR DUP6 SSTORE PUSH2 0x2A79 JUMP JUMPDEST DUP3 DUP1 ADD PUSH1 0x1 ADD DUP6 SSTORE DUP3 ISZERO PUSH2 0x2A79 JUMPI SWAP2 DUP3 ADD JUMPDEST DUP3 DUP2 GT ISZERO PUSH2 0x2A79 JUMPI DUP3 MLOAD DUP3 SSTORE SWAP2 PUSH1 0x20 ADD SWAP2 SWAP1 PUSH1 0x1 ADD SWAP1 PUSH2 0x2A5E JUMP JUMPDEST POP PUSH2 0x2A85 SWAP3 SWAP2 POP PUSH2 0x2A89 JUMP JUMPDEST POP SWAP1 JUMP JUMPDEST JUMPDEST DUP1 DUP3 GT ISZERO PUSH2 0x2A85 JUMPI PUSH1 0x0 DUP2 SSTORE PUSH1 0x1 ADD PUSH2 0x2A8A JUMP JUMPDEST PUSH4 0x4E487B71 PUSH1 0xE0 SHL PUSH1 0x0 MSTORE PUSH1 0x41 PUSH1 0x4 MSTORE PUSH1 0x24 PUSH1 0x0 REVERT JUMPDEST PUSH1 0x0 DUP3 PUSH1 0x1F DUP4 ADD SLT PUSH2 0x2AC5 JUMPI PUSH1 0x0 DUP1 REVERT JUMPDEST DUP2 CALLDATALOAD PUSH8 0xFFFFFFFFFFFFFFFF DUP1 DUP3 GT ISZERO PUSH2 0x2AE0 JUMPI PUSH2 0x2AE0 PUSH2 0x2A9E JUMP JUMPDEST PUSH1 0x40 MLOAD PUSH1 0x1F DUP4 ADD PUSH1 0x1F NOT SWAP1 DUP2 AND PUSH1 0x3F ADD AND DUP2 ADD SWAP1 DUP3 DUP3 GT DUP2 DUP4 LT OR ISZERO PUSH2 0x2B08 JUMPI PUSH2 0x2B08 PUSH2 0x2A9E JUMP JUMPDEST DUP2 PUSH1 0x40 MSTORE DUP4 DUP2 MSTORE DUP7 PUSH1 0x20 DUP6 DUP9 ADD ADD GT ISZERO PUSH2 0x2B21 JUMPI PUSH1 0x0 DUP1 REVERT JUMPDEST DUP4 PUSH1 0x20 DUP8 ADD PUSH1 0x20 DUP4 ADD CALLDATACOPY PUSH1 0x0 PUSH1 0x20 DUP6 DUP4 ADD ADD MSTORE DUP1 SWAP5 POP POP POP POP POP SWAP3 SWAP2 POP POP JUMP JUMPDEST PUSH1 0x0 DUP1 PUSH1 0x0 DUP1 PUSH1 0x0 PUSH1 0xA0 DUP7 DUP9 SUB SLT ISZERO PUSH2 0x2B59 JUMPI PUSH1 0x0 DUP1 REVERT JUMPDEST DUP6 CALLDATALOAD PUSH8 0xFFFFFFFFFFFFFFFF DUP1 DUP3 GT ISZERO PUSH2 0x2B71 JUMPI PUSH1 0x0 DUP1 REVERT JUMPDEST PUSH2 0x2B7D DUP10 DUP4 DUP11 ADD PUSH2 0x2AB4 JUMP JUMPDEST SWAP7 POP PUSH1 0x20 DUP9 ADD CALLDATALOAD SWAP2 POP DUP1 DUP3 GT ISZERO PUSH2 0x2B93 JUMPI PUSH1 0x0 DUP1 REVERT JUMPDEST PUSH2 0x2B9F DUP10 DUP4 DUP11 ADD PUSH2 0x2AB4 JUMP JUMPDEST SWAP6 POP PUSH1 0x40 DUP9 ADD CALLDATALOAD SWAP2 POP DUP1 DUP3 GT ISZERO PUSH2 0x2BB5 JUMPI PUSH1 0x0 DUP1 REVERT JUMPDEST POP PUSH2 0x2BC2 DUP9 DUP3 DUP10 ADD PUSH2 0x2AB4 JUMP JUMPDEST SWAP6 SWAP9 SWAP5 SWAP8 POP SWAP5 SWAP6 PUSH1 0x60 DUP2 ADD CALLDATALOAD SWAP6 POP PUSH1 0x80 ADD CALLDATALOAD SWAP4 SWAP3 POP POP POP JUMP JUMPDEST PUSH1 0x0 PUSH1 0x20 DUP3 DUP5 SUB SLT ISZERO PUSH2 0x2BED JUMPI PUSH1 0x0 DUP1 REVERT JUMPDEST POP CALLDATALOAD SWAP2 SWAP1 POP JUMP JUMPDEST PUSH1 0x0 DUP2 MLOAD DUP1 DUP5 MSTORE PUSH1 0x0 JUMPDEST DUP2 DUP2 LT ISZERO PUSH2 0x2C1A JUMPI PUSH1 0x20 DUP2 DUP6 ADD DUP2 ADD MLOAD DUP7 DUP4 ADD DUP3 ADD MSTORE ADD PUSH2 0x2BFE JUMP JUMPDEST DUP2 DUP2 GT ISZERO PUSH2 0x2C2C JUMPI PUSH1 0x0 PUSH1 0x20 DUP4 DUP8 ADD ADD MSTORE JUMPDEST POP PUSH1 0x1F ADD PUSH1 0x1F NOT AND SWAP3 SWAP1 SWAP3 ADD PUSH1 0x20 ADD SWAP3 SWAP2 POP POP JUMP JUMPDEST PUSH4 0x4E487B71 PUSH1 0xE0 SHL PUSH1 0x0 MSTORE PUSH1 0x21 PUSH1 0x4 MSTORE PUSH1 0x24 PUSH1 0x0 REVERT JUMPDEST PUSH1 0x5 DUP2 LT PUSH2 0x2C75 JUMPI PUSH4 0x4E487B71 PUSH1 0xE0 SHL PUSH1 0x0 MSTORE PUSH1 0x21 PUSH1 0x4 MSTORE PUSH1 0x24 PUSH1 0x0 REVERT JUMPDEST SWAP1 MSTORE JUMP JUMPDEST DUP12 DUP2 MSTORE PUSH1 0x1 PUSH1 0x1 PUSH1 0xA0 SHL SUB DUP12 AND PUSH1 0x20 DUP3 ADD MSTORE PUSH2 0x160 PUSH1 0x40 DUP3 ADD DUP2 SWAP1 MSTORE PUSH1 0x0 SWAP1 PUSH2 0x2CA4 DUP4 DUP3 ADD DUP14 PUSH2 0x2BF4 JUMP JUMPDEST SWAP1 POP DUP3 DUP2 SUB PUSH1 0x60 DUP5 ADD MSTORE PUSH2 0x2CB8 DUP2 DUP13 PUSH2 0x2BF4 JUMP JUMPDEST SWAP1 POP DUP3 DUP2 SUB PUSH1 0x80 DUP5 ADD MSTORE PUSH2 0x2CCC DUP2 DUP12 PUSH2 0x2BF4 JUMP JUMPDEST SWAP2 POP POP DUP8 PUSH1 0xA0 DUP4 ADD MSTORE DUP7 PUSH1 0xC0 DUP4 ADD MSTORE DUP6 PUSH1 0xE0 DUP4 ADD MSTORE DUP5 PUSH2 0x100 DUP4 ADD MSTORE DUP4 PUSH2 0x120 DUP4 ADD MSTORE PUSH2 0x2CFD PUSH2 0x140 DUP4 ADD DUP5 PUSH2 0x2C57 JUMP JUMPDEST SWAP13 SWAP12 POP POP POP POP POP POP POP POP POP POP POP POP JUMP JUMPDEST PUSH1 0x0 PUSH1 0x20 DUP3 DUP5 SUB SLT ISZERO PUSH2 0x2D1F JUMPI PUSH1 0x0 DUP1 REVERT JUMPDEST DUP2 CALLDATALOAD PUSH1 0x1 PUSH1 0x1 PUSH1 0xA0 SHL SUB DUP2 AND DUP2 EQ PUSH2 0x2D36 JUMPI PUSH1 0x0 DUP1 REVERT JUMPDEST SWAP4 SWAP3 POP POP POP JUMP JUMPDEST PUSH1 0x0 PUSH2 0x160 DUP3 MLOAD DUP5 MSTORE PUSH1 0x20 DUP4 ADD MLOAD PUSH2 0x2D60 PUSH1 0x20 DUP7 ADD DUP3 PUSH1 0x1 PUSH1 0x1 PUSH1 0xA0 SHL SUB AND SWAP1 MSTORE JUMP JUMPDEST POP PUSH1 0x40 DUP4 ADD MLOAD DUP2 PUSH1 0x40 DUP7 ADD MSTORE PUSH2 0x2D78 DUP3 DUP7 ADD DUP3 PUSH2 0x2BF4 JUMP JUMPDEST SWAP2 POP POP PUSH1 0x60 DUP4 ADD MLOAD DUP5 DUP3 SUB PUSH1 0x60 DUP7 ADD MSTORE PUSH2 0x2D92 DUP3 DUP3 PUSH2 0x2BF4 JUMP JUMPDEST SWAP2 POP POP PUSH1 0x80 DUP4 ADD MLOAD DUP5 DUP3 SUB PUSH1 0x80 DUP7 ADD MSTORE PUSH2 0x2DAC DUP3 DUP3 PUSH2 0x2BF4 JUMP JUMPDEST SWAP2 POP POP PUSH1 0xA0 DUP4 ADD MLOAD PUSH1 0xA0 DUP6 ADD MSTORE PUSH1 0xC0 DUP4 ADD MLOAD PUSH1 0xC0 DUP6 ADD MSTORE PUSH1 0xE0 DUP4 ADD MLOAD PUSH1 0xE0 DUP6 ADD MSTORE PUSH2 0x100 DUP1 DUP5 ADD MLOAD DUP2 DUP7 ADD MSTORE POP PUSH2 0x120 DUP1 DUP5 ADD MLOAD DUP2 DUP7 ADD MSTORE POP PUSH2 0x140 DUP1 DUP5 ADD MLOAD PUSH2 0x2DF8 DUP3 DUP8 ADD DUP3 PUSH2 0x2C57 JUMP JUMPDEST POP SWAP1 SWAP5 SWAP4 POP POP POP POP JUMP JUMPDEST PUSH1 0x0 PUSH1 0x20 DUP1 DUP4 ADD DUP2 DUP5 MSTORE DUP1 DUP6 MLOAD DUP1 DUP4 MSTORE PUSH1 0x40 DUP7 ADD SWAP2 POP PUSH1 0x40 DUP2 PUSH1 0x5 SHL DUP8 ADD ADD SWAP3 POP DUP4 DUP8 ADD PUSH1 0x0 JUMPDEST DUP3 DUP2 LT ISZERO PUSH2 0x2E57 JUMPI PUSH1 0x3F NOT DUP9 DUP7 SUB ADD DUP5 MSTORE PUSH2 0x2E45 DUP6 DUP4 MLOAD PUSH2 0x2D3D JUMP JUMPDEST SWAP5 POP SWAP3 DUP6 ADD SWAP3 SWAP1 DUP6 ADD SWAP1 PUSH1 0x1 ADD PUSH2 0x2E29 JUMP JUMPDEST POP SWAP3 SWAP8 SWAP7 POP POP POP POP POP POP POP JUMP JUMPDEST PUSH1 0x20 DUP1 DUP3 MSTORE DUP3 MLOAD DUP3 DUP3 ADD DUP2 SWAP1 MSTORE PUSH1 0x0 SWAP2 SWAP1 PUSH1 0x40 SWAP1 DUP2 DUP6 ADD SWAP1 DUP7 DUP5 ADD DUP6 JUMPDEST DUP3 DUP2 LT ISZERO PUSH2 0x2EC6 JUMPI DUP2 MLOAD DUP1 MLOAD PUSH1 0x1 PUSH1 0x1 PUSH1 0xA0 SHL SUB AND DUP6 MSTORE DUP7 DUP2 ADD MLOAD DUP8 DUP7 ADD MSTORE DUP6 DUP2 ADD MLOAD DUP7 DUP7 ADD MSTORE PUSH1 0x60 SWAP1 DUP2 ADD MLOAD ISZERO ISZERO SWAP1 DUP6 ADD MSTORE PUSH1 0x80 SWAP1 SWAP4 ADD SWAP3 SWAP1 DUP6 ADD SWAP1 PUSH1 0x1 ADD PUSH2 0x2E81 JUMP JUMPDEST POP SWAP2 SWAP8 SWAP7 POP POP POP POP POP POP POP JUMP JUMPDEST PUSH1 0x0 DUP1 PUSH1 0x0 DUP1 PUSH1 0x0 PUSH1 0xA0 DUP7 DUP9 SUB SLT ISZERO PUSH2 0x2EEB JUMPI PUSH1 0x0 DUP1 REVERT JUMPDEST DUP6 CALLDATALOAD SWAP5 POP PUSH1 0x20 DUP7 ADD CALLDATALOAD PUSH8 0xFFFFFFFFFFFFFFFF DUP1 DUP3 GT ISZERO PUSH2 0x2F0A JUMPI PUSH1 0x0 DUP1 REVERT JUMPDEST PUSH2 0x2F16 DUP10 DUP4 DUP11 ADD PUSH2 0x2AB4 JUMP JUMPDEST SWAP6 POP PUSH1 0x40 DUP9 ADD CALLDATALOAD SWAP2 POP DUP1 DUP3 GT ISZERO PUSH2 0x2F2C JUMPI PUSH1 0x0 DUP1 REVERT JUMPDEST PUSH2 0x2F38 DUP10 DUP4 DUP11 ADD PUSH2 0x2AB4 JUMP JUMPDEST SWAP5 POP PUSH1 0x60 DUP9 ADD CALLDATALOAD SWAP2 POP DUP1 DUP3 GT ISZERO PUSH2 0x2F4E JUMPI PUSH1 0x0 DUP1 REVERT JUMPDEST POP PUSH2 0x2F5B DUP9 DUP3 DUP10 ADD PUSH2 0x2AB4 JUMP JUMPDEST SWAP6 SWAP9 SWAP5 SWAP8 POP SWAP3 SWAP6 PUSH1 0x80 ADD CALLDATALOAD SWAP4 SWAP3 POP POP POP JUMP JUMPDEST PUSH1 0x20 DUP2 MSTORE PUSH1 0x0 PUSH2 0x2D36 PUSH1 0x20 DUP4 ADD DUP5 PUSH2 0x2D3D JUMP JUMPDEST PUSH4 0x4E487B71 PUSH1 0xE0 SHL PUSH1 0x0 MSTORE PUSH1 0x11 PUSH1 0x4 MSTORE PUSH1 0x24 PUSH1 0x0 REVERT JUMPDEST PUSH1 0x0 DUP3 NOT DUP3 GT ISZERO PUSH2 0x2FA9 JUMPI PUSH2 0x2FA9 PUSH2 0x2F80 JUMP JUMPDEST POP ADD SWAP1 JUMP JUMPDEST PUSH1 0x0 PUSH1 0x0 NOT DUP3 EQ ISZERO PUSH2 0x2FC2 JUMPI PUSH2 0x2FC2 PUSH2 0x2F80 JUMP JUMPDEST POP PUSH1 0x1 ADD SWAP1 JUMP JUMPDEST PUSH1 0x1 DUP2 DUP2 SHR SWAP1 DUP3 AND DUP1 PUSH2 0x2FDD JUMPI PUSH1 0x7F DUP3 AND SWAP2 POP JUMPDEST PUSH1 0x20 DUP3 LT DUP2 EQ ISZERO PUSH2 0x2FFE JUMPI PUSH4 0x4E487B71 PUSH1 0xE0 SHL PUSH1 0x0 MSTORE PUSH1 0x22 PUSH1 0x4 MSTORE PUSH1 0x24 PUSH1 0x0 REVERT JUMPDEST POP SWAP2 SWAP1 POP JUMP JUMPDEST PUSH1 0x20 DUP1 DUP3 MSTORE PUSH1 0x24 SWAP1 DUP3 ADD MSTORE PUSH32 0x4F7065726174696F6E20616C6C6F776564206F6E6C7920666F7220746865206F PUSH1 0x40 DUP3 ADD MSTORE PUSH4 0x3BB732B9 PUSH1 0xE1 SHL PUSH1 0x60 DUP3 ADD MSTORE PUSH1 0x80 ADD SWAP1 JUMP JUMPDEST PUSH1 0x0 DUP3 DUP3 LT ISZERO PUSH2 0x305A JUMPI PUSH2 0x305A PUSH2 0x2F80 JUMP JUMPDEST POP SUB SWAP1 JUMP JUMPDEST PUSH1 0x20 DUP1 DUP3 MSTORE PUSH1 0x11 SWAP1 DUP3 ADD MSTORE PUSH17 0x141C9BDA9958DD081B9BDD08199BDD5B99 PUSH1 0x7A SHL PUSH1 0x40 DUP3 ADD MSTORE PUSH1 0x60 ADD SWAP1 JUMP JUMPDEST PUSH4 0x4E487B71 PUSH1 0xE0 SHL PUSH1 0x0 MSTORE PUSH1 0x32 PUSH1 0x4 MSTORE PUSH1 0x24 PUSH1 0x0 REVERT JUMPDEST PUSH1 0x20 DUP1 DUP3 MSTORE PUSH1 0x13 SWAP1 DUP3 ADD MSTORE PUSH19 0x556E617574686F72697A656420456E74697479 PUSH1 0x68 SHL PUSH1 0x40 DUP3 ADD MSTORE PUSH1 0x60 ADD SWAP1 JUMP JUMPDEST PUSH1 0x0 DUP2 PUSH1 0x0 NOT DIV DUP4 GT DUP3 ISZERO ISZERO AND ISZERO PUSH2 0x30E7 JUMPI PUSH2 0x30E7 PUSH2 0x2F80 JUMP JUMPDEST POP MUL SWAP1 JUMP JUMPDEST PUSH1 0x0 DUP3 PUSH2 0x3109 JUMPI PUSH4 0x4E487B71 PUSH1 0xE0 SHL PUSH1 0x0 MSTORE PUSH1 0x12 PUSH1 0x4 MSTORE PUSH1 0x24 PUSH1 0x0 REVERT JUMPDEST POP DIV SWAP1 JUMP INVALID 0xAE 0xE8 0xE5 0xD3 0xBB 0xB2 0xF7 BYTE SWAP6 SHL JUMP ORIGIN 0xCE 0xE2 0xF PUSH27 0xC487B9F8AB4F66A236F7694B13AF7C6AA2646970667358221220F8 PUSH29 0x2DC8E970346F764807B3F11C4D514B1279B4DF8281F587DB816E44AEAC 0xAB PUSH5 0x736F6C6343 STOP ADDMOD SIGNEXTEND STOP CALLER "},"methodIdentifiers":{"balance()":"b69ef8a8","changeTax(uint256)":"3e45c8af","createProject(string,string,string,uint256,uint256)":"056c29ee","deleteProject(uint256)":"4cd0cb28","getAllSupporters()":"bb14b2e4","getProject(uint256)":"f0f3f2c8","getProjectStatus(uint256)":"9675c009","getProjects()":"dcc60128","getProjectsOf(address)":"1996c2df","getSupporters(uint256)":"4f63829c","getTotalDonationsCount()":"48cefbda","getTotalSupportersCount()":"38d58384","owner()":"8da5cb5b","payOutProject(uint256)":"b531dcba","projectCount()":"36fbad26","projectExist(uint256)":"8593054b","projectTax()":"d24cd3ec","projects(uint256)":"107046bd","requestRefund(uint256)":"a4b2409e","stats()":"d80528ae","supportProject(uint256)":"329b0f9b","updateProject(uint256,string,string,string,uint256)":"9a3fa8c7","withdrawFunds(uint256)":"155dd5ee"}}}}}