{"src/contracts/SupportProjects.sol":{"SupportProjects":{"abi":[{"anonymous":false,"inputs":[{"indexed":false,"internalType":"uint256","name":"id","type":"uint256"},{"indexed":false,"internalType":"string","name":"actionType","type":"string"},{"indexed":true,"internalType":"address","name":"executor","type":"address"},{"indexed":false,"internalType":"uint256","name":"timestamp","type":"uint256"}],"name":"Action","type":"event"},{"inputs":[],"name":"balance","outputs":[{"internalType":"uint256","name":"","type":"uint256"}],"stateMutability":"view","type":"function"},{"inputs":[],"name":"getAllSupporters","outputs":[{"components":[{"internalType":"address","name":"owner","type":"address"},{"internalType":"uint256","name":"contribution","type":"uint256"},{"internalType":"uint256","name":"timestamp","type":"uint256"},{"internalType":"bool","name":"refunded","type":"bool"}],"internalType":"struct DataTypes.Supporter[]","name":"","type":"tuple[]"}],"stateMutability":"view","type":"function"},{"inputs":[{"internalType":"uint256","name":"id","type":"uint256"}],"name":"getSupporters","outputs":[{"components":[{"internalType":"address","name":"owner","type":"address"},{"internalType":"uint256","name":"contribution","type":"uint256"},{"internalType":"uint256","name":"timestamp","type":"uint256"},{"internalType":"bool","name":"refunded","type":"bool"}],"internalType":"struct DataTypes.Supporter[]","name":"","type":"tuple[]"}],"stateMutability":"view","type":"function"},{"inputs":[],"name":"getTotalDonationsCount","outputs":[{"internalType":"uint256","name":"","type":"uint256"}],"stateMutability":"view","type":"function"},{"inputs":[],"name":"getTotalSupportersCount","outputs":[{"internalType":"uint256","name":"","type":"uint256"}],"stateMutability":"view","type":"function"},{"inputs":[],"name":"owner","outputs":[{"internalType":"address","name":"","type":"address"}],"stateMutability":"view","type":"function"},{"inputs":[{"internalType":"uint256","name":"id","type":"uint256"}],"name":"payOutProject","outputs":[{"internalType":"bool","name":"","type":"bool"}],"stateMutability":"nonpayable","type":"function"},{"inputs":[],"name":"projectCount","outputs":[{"internalType":"uint256","name":"","type":"uint256"}],"stateMutability":"view","type":"function"},{"inputs":[{"internalType":"uint256","name":"","type":"uint256"}],"name":"projectExist","outputs":[{"internalType":"bool","name":"","type":"bool"}],"stateMutability":"view","type":"function"},{"inputs":[],"name":"projectTax","outputs":[{"internalType":"uint256","name":"","type":"uint256"}],"stateMutability":"view","type":"function"},{"inputs":[{"internalType":"uint256","name":"","type":"uint256"}],"name":"projects","outputs":[{"internalType":"uint256","name":"id","type":"uint256"},{"internalType":"address","name":"owner","type":"address"},{"internalType":"string","name":"title","type":"string"},{"internalType":"string","name":"description","type":"string"},{"internalType":"string","name":"imageURL","type":"string"},{"internalType":"uint256","name":"cost","type":"uint256"},{"internalType":"uint256","name":"amountRaised","type":"uint256"},{"internalType":"uint256","name":"timestamp","type":"uint256"},{"internalType":"uint256","name":"expiresAt","type":"uint256"},{"internalType":"uint256","name":"supporters","type":"uint256"},{"internalType":"enum DataTypes.Status","name":"status","type":"uint8"}],"stateMutability":"view","type":"function"},{"inputs":[{"internalType":"uint256","name":"id","type":"uint256"}],"name":"requestRefund","outputs":[{"internalType":"bool","name":"","type":"bool"}],"stateMutability":"nonpayable","type":"function"},{"inputs":[],"name":"stats","outputs":[{"internalType":"uint256","name":"totalProjects","type":"uint256"},{"internalType":"uint256","name":"totalSupporters","type":"uint256"},{"internalType":"uint256","name":"totalDonations","type":"uint256"}],"stateMutability":"view","type":"function"},{"inputs":[{"internalType":"uint256","name":"id","type":"uint256"}],"name":"supportProject","outputs":[{"internalType":"bool","name":"","type":"bool"}],"stateMutability":"payable","type":"function"},{"inputs":[],"name":"withdrawFunds","outputs":[],"stateMutability":"nonpayable","type":"function"},{"inputs":[{"internalType":"address","name":"","type":"address"}],"name":"withdrawals","outputs":[{"internalType":"uint256","name":"","type":"uint256"}],"stateMutability":"view","type":"function"}],"evm":{"bytecode":{"linkReferences":{},"object":"608060405234801561001057600080fd5b50611ae1806100206000396000f3fe6080604052600436106100f35760003560e01c80638593054b1161008a578063b69ef8a811610059578063b69ef8a8146102c2578063bb14b2e4146102d8578063d24cd3ec146102ed578063d80528ae1461030357600080fd5b80638593054b1461021a5780638da5cb5b1461024a578063a4b2409e14610282578063b531dcba146102a257600080fd5b806338d58384116100c657806338d583841461019657806348cefbda146101ab5780634f63829c146101c05780637a9262a2146101ed57600080fd5b8063107046bd146100f857806324600fc314610138578063329b0f9b1461014f57806336fbad2614610172575b600080fd5b34801561010457600080fd5b506101186101133660046117c7565b61033d565b60405161012f9b9a9998979695949392919061183c565b60405180910390f35b34801561014457600080fd5b5061014d61054c565b005b61016261015d3660046117c7565b61064d565b604051901515815260200161012f565b34801561017e57600080fd5b5061018860025481565b60405190815260200161012f565b3480156101a257600080fd5b50600554610188565b3480156101b757600080fd5b50600654610188565b3480156101cc57600080fd5b506101e06101db3660046117c7565b610f12565b60405161012f91906118e7565b3480156101f957600080fd5b50610188610208366004611956565b60086020526000908152604090205481565b34801561022657600080fd5b506101626102353660046117c7565b600b6020526000908152604090205460ff1681565b34801561025657600080fd5b5060005461026a906001600160a01b031681565b6040516001600160a01b03909116815260200161012f565b34801561028e57600080fd5b5061016261029d3660046117c7565b610fd9565b3480156102ae57600080fd5b506101626102bd3660046117c7565b6110ff565b3480156102ce57600080fd5b5061018860035481565b3480156102e457600080fd5b506101e0611241565b3480156102f957600080fd5b5061018860015481565b34801561030f57600080fd5b5060045460055460065461032292919083565b6040805193845260208401929092529082015260600161012f565b6007818154811061034d57600080fd5b60009182526020909120600b90910201805460018201546002830180549294506001600160a01b03909116929161038390611986565b80601f01602080910402602001604051908101604052809291908181526020018280546103af90611986565b80156103fc5780601f106103d1576101008083540402835291602001916103fc565b820191906000526020600020905b8154815290600101906020018083116103df57829003601f168201915b50505050509080600301805461041190611986565b80601f016020809104026020016040519081016040528092919081815260200182805461043d90611986565b801561048a5780601f1061045f5761010080835404028352916020019161048a565b820191906000526020600020905b81548152906001019060200180831161046d57829003601f168201915b50505050509080600401805461049f90611986565b80601f01602080910402602001604051908101604052809291908181526020018280546104cb90611986565b80156105185780601f106104ed57610100808354040283529160200191610518565b820191906000526020600020905b8154815290600101906020018083116104fb57829003601f168201915b50505060058401546006850154600786015460088701546009880154600a9098015496979396929550909350919060ff168b565b33600090815260086020526040902054806105ae5760405162461bcd60e51b815260206004820152601e60248201527f4e6f2066756e647320617661696c61626c6520746f207769746864726177000060448201526064015b60405180910390fd5b336000818152600860205260408082208290555190919083908381818185875af1925050503d80600081146105ff576040519150601f19603f3d011682016040523d82523d6000602084013e610604565b606091505b50509050806106495760405162461bcd60e51b815260206004820152601160248201527015da5d1a191c985dd85b0819985a5b1959607a1b60448201526064016105a5565b5050565b60008034116106ad5760405162461bcd60e51b815260206004820152602660248201527f457468657220616d6f756e74206d7573742062652067726561746572207468616044820152656e207a65726f60d01b60648201526084016105a5565b6000828152600b602052604090205460ff166106db5760405162461bcd60e51b81526004016105a5906119c0565b6000600783815481106106f0576106f06119eb565b60009182526020909120600a600b90920201015460ff16600481111561071857610718611826565b146107655760405162461bcd60e51b815260206004820152601860248201527f50726f6a656374206e6f206c6f6e676572206f70656e6564000000000000000060448201526064016105a5565b60016004600101600082825461077b9190611a17565b909155505060068054349190600090610795908490611a17565b9250508190555034600783815481106107b0576107b06119eb565b90600052602060002090600b020160060160008282546107d09190611a17565b925050819055506001600783815481106107ec576107ec6119eb565b90600052602060002090600b0201600901600082825461080c9190611a17565b90915550506000828152600a6020908152604080832081516080808201845233808352348387019081524284870181815260608087018b8152885460018082018b55998d529b8b902097516004909c0290970180546001600160a01b0319166001600160a01b03909c169b909b178b559251968a01969096559451600289015592516003909701805460ff1916971515979097179096558351888152948501829052600e918501919091526d141493d29150d517d09050d2d15160921b90840152908201527faee8e5d3bbb2f71a951b5632cee20f7ac487b9f8ab4f66a236f7694b13af7c6a9060a00160405180910390a2610b9160078381548110610914576109146119eb565b90600052602060002090600b020160405180610160016040529081600082015481526020016001820160009054906101000a90046001600160a01b03166001600160a01b03166001600160a01b0316815260200160028201805461097790611986565b80601f01602080910402602001604051908101604052809291908181526020018280546109a390611986565b80156109f05780601f106109c5576101008083540402835291602001916109f0565b820191906000526020600020905b8154815290600101906020018083116109d357829003601f168201915b50505050508152602001600382018054610a0990611986565b80601f0160208091040260200160405190810160405280929190818152602001828054610a3590611986565b8015610a825780601f10610a5757610100808354040283529160200191610a82565b820191906000526020600020905b815481529060010190602001808311610a6557829003601f168201915b50505050508152602001600482018054610a9b90611986565b80601f0160208091040260200160405190810160405280929190818152602001828054610ac790611986565b8015610b145780601f10610ae957610100808354040283529160200191610b14565b820191906000526020600020905b815481529060010190602001808311610af757829003601f168201915b505050918352505060058201546020820152600682015460408201526007820154606082015260088201546080820152600982015460a0820152600a82015460c09091019060ff166004811115610b6d57610b6d611826565b6004811115610b7e57610b7e611826565b90525060a081015160c090910151101590565b15610c2757600160078381548110610bab57610bab6119eb565b60009182526020909120600a600b9092020101805460ff19166001836004811115610bd857610bd8611826565b021790555060078281548110610bf057610bf06119eb565b90600052602060002090600b02016006015460036000828254610c139190611a17565b90915550610c22905082611408565b610f0a565b610eb560078381548110610c3d57610c3d6119eb565b90600052602060002090600b020160405180610160016040529081600082015481526020016001820160009054906101000a90046001600160a01b03166001600160a01b03166001600160a01b03168152602001600282018054610ca090611986565b80601f0160208091040260200160405190810160405280929190818152602001828054610ccc90611986565b8015610d195780601f10610cee57610100808354040283529160200191610d19565b820191906000526020600020905b815481529060010190602001808311610cfc57829003601f168201915b50505050508152602001600382018054610d3290611986565b80601f0160208091040260200160405190810160405280929190818152602001828054610d5e90611986565b8015610dab5780601f10610d8057610100808354040283529160200191610dab565b820191906000526020600020905b815481529060010190602001808311610d8e57829003601f168201915b50505050508152602001600482018054610dc490611986565b80601f0160208091040260200160405190810160405280929190818152602001828054610df090611986565b8015610e3d5780601f10610e1257610100808354040283529160200191610e3d565b820191906000526020600020905b815481529060010190602001808311610e2057829003601f168201915b505050918352505060058201546020820152600682015460408201526007820154606082015260088201546080820152600982015460a0820152600a82015460c09091019060ff166004811115610e9657610e96611826565b6004811115610ea757610ea7611826565b905250610100015142101590565b15610f0a57600260078381548110610ecf57610ecf6119eb565b60009182526020909120600a600b9092020101805460ff19166001836004811115610efc57610efc611826565b0217905550610f0a82611591565b506001919050565b6000818152600b602052604090205460609060ff16610f435760405162461bcd60e51b81526004016105a5906119c0565b6000828152600a6020908152604080832080548251818502810185019093528083529193909284015b82821015610fce576000848152602090819020604080516080810182526004860290920180546001600160a01b03168352600180820154848601526002820154928401929092526003015460ff16151560608301529083529092019101610f6c565b505050509050919050565b6000818152600b602052604081205460ff166110075760405162461bcd60e51b81526004016105a5906119c0565b60026007838154811061101c5761101c6119eb565b60009182526020909120600a600b90920201015460ff16600481111561104457611044611826565b14158061108c5750600360078381548110611061576110616119eb565b60009182526020909120600a600b90920201015460ff16600481111561108957611089611826565b14155b6110ea5760405162461bcd60e51b815260206004820152602960248201527f50726f6a656374206e6f74206d61726b6564206173207265766572746564206f6044820152681c8819195b195d195960ba1b60648201526084016105a5565b600260078381548110610ecf57610ecf6119eb565b6000818152600b602052604081205460ff1661112d5760405162461bcd60e51b81526004016105a5906119c0565b600160078381548110611142576111426119eb565b60009182526020909120600a600b90920201015460ff16600481111561116a5761116a611826565b146111af5760405162461bcd60e51b815260206004820152601560248201527450726f6a656374206e6f7420417070726f7665642160581b60448201526064016105a5565b600782815481106111c2576111c26119eb565b60009182526020909120600b90910201600101546001600160a01b03163314806111f657506000546001600160a01b031633145b6112385760405162461bcd60e51b8152602060048201526013602482015272556e617574686f72697a656420456e7469747960681b60448201526064016105a5565b610f0a82611408565b60055460609060008167ffffffffffffffff81111561126257611262611a30565b6040519080825280602002602001820160405280156112b457816020015b6040805160808101825260008082526020808301829052928201819052606082015282526000199092019101816112805790505b5090506000805b6007548110156113ff576000600a6000600784815481106112de576112de6119eb565b90600052602060002090600b0201600001548152602001908152602001600020805480602002602001604051908101604052809291908181526020016000905b82821015611380576000848152602090819020604080516080810182526004860290920180546001600160a01b03168352600180820154848601526002820154928401929092526003015460ff1615156060830152908352909201910161131e565b50505050905060005b81518110156113ea578181815181106113a4576113a46119eb565b60200260200101518585815181106113be576113be6119eb565b602002602001018190525083806113d490611a46565b94505080806113e290611a46565b915050611389565b505080806113f790611a46565b9150506112bb565b50909392505050565b60006007828154811061141d5761141d6119eb565b90600052602060002090600b020160060154905060006064600154836114439190611a5f565b61144d9190611a76565b9050600460078481548110611464576114646119eb565b60009182526020909120600a600b9092020101805460ff1916600183600481111561149157611491611826565b02179055506114d8600784815481106114ac576114ac6119eb565b600091825260209091206001600b9092020101546001600160a01b03166114d38385611a98565b611762565b6000546114ee906001600160a01b031682611762565b60078381548110611501576115016119eb565b90600052602060002090600b020160060154600360008282546115249190611a98565b9091555050604080518481526060602082018190526010908201526f141493d29150d517d410525117d3d55560821b60808201524281830152905133917faee8e5d3bbb2f71a951b5632cee20f7ac487b9f8ab4f66a236f7694b13af7c6a919081900360a00190a2505050565b60005b6000828152600a6020526040902054811015610649576000828152600a602052604090208054829081106115ca576115ca6119eb565b600091825260209091206003600490920201015460ff16611750576000828152600a60205260408120805483908110611605576116056119eb565b60009182526020808320600490920290910154858352600a9091526040822080546001600160a01b0390921693509084908110611644576116446119eb565b90600052602060002090600402016001015490508060086000846001600160a01b03166001600160a01b03168152602001908152602001600020600082825461168d9190611a17565b90915550506000848152600a60205260409020805460019190859081106116b6576116b66119eb565b906000526020600020906004020160030160006101000a81548160ff02191690831515021790555042600a60008681526020019081526020016000208481548110611703576117036119eb565b90600052602060002090600402016002018190555060016004600101600082825461172e9190611a98565b909155505060068054829190600090611748908490611a98565b909155505050505b8061175a81611a46565b915050611594565b6000826001600160a01b03168260405160006040518083038185875af1925050503d80600081146117af576040519150601f19603f3d011682016040523d82523d6000602084013e6117b4565b606091505b50509050806117c257600080fd5b505050565b6000602082840312156117d957600080fd5b5035919050565b6000815180845260005b81811015611806576020818501810151868301820152016117ea565b506000602082860101526020601f19601f83011685010191505092915050565b634e487b7160e01b600052602160045260246000fd5b8b81526001600160a01b038b166020820152610160604082018190526000906118678382018d6117e0565b9050828103606084015261187b818c6117e0565b9050828103608084015261188f818b6117e0565b9150508760a08301528660c08301528560e08301528461010083015283610120830152600583106118d057634e487b7160e01b600052602160045260246000fd5b826101408301529c9b505050505050505050505050565b602080825282518282018190526000919060409081850190868401855b8281101561194957815180516001600160a01b031685528681015187860152858101518686015260609081015115159085015260809093019290850190600101611904565b5091979650505050505050565b60006020828403121561196857600080fd5b81356001600160a01b038116811461197f57600080fd5b9392505050565b600181811c9082168061199a57607f821691505b6020821081036119ba57634e487b7160e01b600052602260045260246000fd5b50919050565b602080825260119082015270141c9bda9958dd081b9bdd08199bdd5b99607a1b604082015260600190565b634e487b7160e01b600052603260045260246000fd5b634e487b7160e01b600052601160045260246000fd5b80820180821115611a2a57611a2a611a01565b92915050565b634e487b7160e01b600052604160045260246000fd5b600060018201611a5857611a58611a01565b5060010190565b8082028115828204841417611a2a57611a2a611a01565b600082611a9357634e487b7160e01b600052601260045260246000fd5b500490565b81810381811115611a2a57611a2a611a0156fea2646970667358221220b322005e38513033c09be49d444bc7a5cb4e7f55f115f5507e11fb5eae320bbe64736f6c63430008110033","opcodes":"PUSH1 0x80 PUSH1 0x40 MSTORE CALLVALUE DUP1 ISZERO PUSH2 0x10 JUMPI PUSH1 0x0 DUP1 REVERT JUMPDEST POP PUSH2 0x1AE1 DUP1 PUSH2 0x20 PUSH1 0x0 CODECOPY PUSH1 0x0 RETURN INVALID PUSH1 0x80 PUSH1 0x40 MSTORE PUSH1 0x4 CALLDATASIZE LT PUSH2 0xF3 JUMPI PUSH1 0x0 CALLDATALOAD PUSH1 0xE0 SHR DUP1 PUSH4 0x8593054B GT PUSH2 0x8A JUMPI DUP1 PUSH4 0xB69EF8A8 GT PUSH2 0x59 JUMPI DUP1 PUSH4 0xB69EF8A8 EQ PUSH2 0x2C2 JUMPI DUP1 PUSH4 0xBB14B2E4 EQ PUSH2 0x2D8 JUMPI DUP1 PUSH4 0xD24CD3EC EQ PUSH2 0x2ED JUMPI DUP1 PUSH4 0xD80528AE EQ PUSH2 0x303 JUMPI PUSH1 0x0 DUP1 REVERT JUMPDEST DUP1 PUSH4 0x8593054B EQ PUSH2 0x21A JUMPI DUP1 PUSH4 0x8DA5CB5B EQ PUSH2 0x24A JUMPI DUP1 PUSH4 0xA4B2409E EQ PUSH2 0x282 JUMPI DUP1 PUSH4 0xB531DCBA EQ PUSH2 0x2A2 JUMPI PUSH1 0x0 DUP1 REVERT JUMPDEST DUP1 PUSH4 0x38D58384 GT PUSH2 0xC6 JUMPI DUP1 PUSH4 0x38D58384 EQ PUSH2 0x196 JUMPI DUP1 PUSH4 0x48CEFBDA EQ PUSH2 0x1AB JUMPI DUP1 PUSH4 0x4F63829C EQ PUSH2 0x1C0 JUMPI DUP1 PUSH4 0x7A9262A2 EQ PUSH2 0x1ED JUMPI PUSH1 0x0 DUP1 REVERT JUMPDEST DUP1 PUSH4 0x107046BD EQ PUSH2 0xF8 JUMPI DUP1 PUSH4 0x24600FC3 EQ PUSH2 0x138 JUMPI DUP1 PUSH4 0x329B0F9B EQ PUSH2 0x14F JUMPI DUP1 PUSH4 0x36FBAD26 EQ PUSH2 0x172 JUMPI JUMPDEST PUSH1 0x0 DUP1 REVERT JUMPDEST CALLVALUE DUP1 ISZERO PUSH2 0x104 JUMPI PUSH1 0x0 DUP1 REVERT JUMPDEST POP PUSH2 0x118 PUSH2 0x113 CALLDATASIZE PUSH1 0x4 PUSH2 0x17C7 JUMP JUMPDEST PUSH2 0x33D JUMP JUMPDEST PUSH1 0x40 MLOAD PUSH2 0x12F SWAP12 SWAP11 SWAP10 SWAP9 SWAP8 SWAP7 SWAP6 SWAP5 SWAP4 SWAP3 SWAP2 SWAP1 PUSH2 0x183C JUMP JUMPDEST PUSH1 0x40 MLOAD DUP1 SWAP2 SUB SWAP1 RETURN JUMPDEST CALLVALUE DUP1 ISZERO PUSH2 0x144 JUMPI PUSH1 0x0 DUP1 REVERT JUMPDEST POP PUSH2 0x14D PUSH2 0x54C JUMP JUMPDEST STOP JUMPDEST PUSH2 0x162 PUSH2 0x15D CALLDATASIZE PUSH1 0x4 PUSH2 0x17C7 JUMP JUMPDEST PUSH2 0x64D JUMP JUMPDEST PUSH1 0x40 MLOAD SWAP1 ISZERO ISZERO DUP2 MSTORE PUSH1 0x20 ADD PUSH2 0x12F JUMP JUMPDEST CALLVALUE DUP1 ISZERO PUSH2 0x17E JUMPI PUSH1 0x0 DUP1 REVERT JUMPDEST POP PUSH2 0x188 PUSH1 0x2 SLOAD DUP2 JUMP JUMPDEST PUSH1 0x40 MLOAD SWAP1 DUP2 MSTORE PUSH1 0x20 ADD PUSH2 0x12F JUMP JUMPDEST CALLVALUE DUP1 ISZERO PUSH2 0x1A2 JUMPI PUSH1 0x0 DUP1 REVERT JUMPDEST POP PUSH1 0x5 SLOAD PUSH2 0x188 JUMP JUMPDEST CALLVALUE DUP1 ISZERO PUSH2 0x1B7 JUMPI PUSH1 0x0 DUP1 REVERT JUMPDEST POP PUSH1 0x6 SLOAD PUSH2 0x188 JUMP JUMPDEST CALLVALUE DUP1 ISZERO PUSH2 0x1CC JUMPI PUSH1 0x0 DUP1 REVERT JUMPDEST POP PUSH2 0x1E0 PUSH2 0x1DB CALLDATASIZE PUSH1 0x4 PUSH2 0x17C7 JUMP JUMPDEST PUSH2 0xF12 JUMP JUMPDEST PUSH1 0x40 MLOAD PUSH2 0x12F SWAP2 SWAP1 PUSH2 0x18E7 JUMP JUMPDEST CALLVALUE DUP1 ISZERO PUSH2 0x1F9 JUMPI PUSH1 0x0 DUP1 REVERT JUMPDEST POP PUSH2 0x188 PUSH2 0x208 CALLDATASIZE PUSH1 0x4 PUSH2 0x1956 JUMP JUMPDEST PUSH1 0x8 PUSH1 0x20 MSTORE PUSH1 0x0 SWAP1 DUP2 MSTORE PUSH1 0x40 SWAP1 KECCAK256 SLOAD DUP2 JUMP JUMPDEST CALLVALUE DUP1 ISZERO PUSH2 0x226 JUMPI PUSH1 0x0 DUP1 REVERT JUMPDEST POP PUSH2 0x162 PUSH2 0x235 CALLDATASIZE PUSH1 0x4 PUSH2 0x17C7 JUMP JUMPDEST PUSH1 0xB PUSH1 0x20 MSTORE PUSH1 0x0 SWAP1 DUP2 MSTORE PUSH1 0x40 SWAP1 KECCAK256 SLOAD PUSH1 0xFF AND DUP2 JUMP JUMPDEST CALLVALUE DUP1 ISZERO PUSH2 0x256 JUMPI PUSH1 0x0 DUP1 REVERT JUMPDEST POP PUSH1 0x0 SLOAD PUSH2 0x26A SWAP1 PUSH1 0x1 PUSH1 0x1 PUSH1 0xA0 SHL SUB AND DUP2 JUMP JUMPDEST PUSH1 0x40 MLOAD PUSH1 0x1 PUSH1 0x1 PUSH1 0xA0 SHL SUB SWAP1 SWAP2 AND DUP2 MSTORE PUSH1 0x20 ADD PUSH2 0x12F JUMP JUMPDEST CALLVALUE DUP1 ISZERO PUSH2 0x28E JUMPI PUSH1 0x0 DUP1 REVERT JUMPDEST POP PUSH2 0x162 PUSH2 0x29D CALLDATASIZE PUSH1 0x4 PUSH2 0x17C7 JUMP JUMPDEST PUSH2 0xFD9 JUMP JUMPDEST CALLVALUE DUP1 ISZERO PUSH2 0x2AE JUMPI PUSH1 0x0 DUP1 REVERT JUMPDEST POP PUSH2 0x162 PUSH2 0x2BD CALLDATASIZE PUSH1 0x4 PUSH2 0x17C7 JUMP JUMPDEST PUSH2 0x10FF JUMP JUMPDEST CALLVALUE DUP1 ISZERO PUSH2 0x2CE JUMPI PUSH1 0x0 DUP1 REVERT JUMPDEST POP PUSH2 0x188 PUSH1 0x3 SLOAD DUP2 JUMP JUMPDEST CALLVALUE DUP1 ISZERO PUSH2 0x2E4 JUMPI PUSH1 0x0 DUP1 REVERT JUMPDEST POP PUSH2 0x1E0 PUSH2 0x1241 JUMP JUMPDEST CALLVALUE DUP1 ISZERO PUSH2 0x2F9 JUMPI PUSH1 0x0 DUP1 REVERT JUMPDEST POP PUSH2 0x188 PUSH1 0x1 SLOAD DUP2 JUMP JUMPDEST CALLVALUE DUP1 ISZERO PUSH2 0x30F JUMPI PUSH1 0x0 DUP1 REVERT JUMPDEST POP PUSH1 0x4 SLOAD PUSH1 0x5 SLOAD PUSH1 0x6 SLOAD PUSH2 0x322 SWAP3 SWAP2 SWAP1 DUP4 JUMP JUMPDEST PUSH1 0x40 DUP1 MLOAD SWAP4 DUP5 MSTORE PUSH1 0x20 DUP5 ADD SWAP3 SWAP1 SWAP3 MSTORE SWAP1 DUP3 ADD MSTORE PUSH1 0x60 ADD PUSH2 0x12F JUMP JUMPDEST PUSH1 0x7 DUP2 DUP2 SLOAD DUP2 LT PUSH2 0x34D JUMPI PUSH1 0x0 DUP1 REVERT JUMPDEST PUSH1 0x0 SWAP2 DUP3 MSTORE PUSH1 0x20 SWAP1 SWAP2 KECCAK256 PUSH1 0xB SWAP1 SWAP2 MUL ADD DUP1 SLOAD PUSH1 0x1 DUP3 ADD SLOAD PUSH1 0x2 DUP4 ADD DUP1 SLOAD SWAP3 SWAP5 POP PUSH1 0x1 PUSH1 0x1 PUSH1 0xA0 SHL SUB SWAP1 SWAP2 AND SWAP3 SWAP2 PUSH2 0x383 SWAP1 PUSH2 0x1986 JUMP JUMPDEST DUP1 PUSH1 0x1F ADD PUSH1 0x20 DUP1 SWAP2 DIV MUL PUSH1 0x20 ADD PUSH1 0x40 MLOAD SWAP1 DUP2 ADD PUSH1 0x40 MSTORE DUP1 SWAP3 SWAP2 SWAP1 DUP2 DUP2 MSTORE PUSH1 0x20 ADD DUP3 DUP1 SLOAD PUSH2 0x3AF SWAP1 PUSH2 0x1986 JUMP JUMPDEST DUP1 ISZERO PUSH2 0x3FC JUMPI DUP1 PUSH1 0x1F LT PUSH2 0x3D1 JUMPI PUSH2 0x100 DUP1 DUP4 SLOAD DIV MUL DUP4 MSTORE SWAP2 PUSH1 0x20 ADD SWAP2 PUSH2 0x3FC JUMP JUMPDEST DUP3 ADD SWAP2 SWAP1 PUSH1 0x0 MSTORE PUSH1 0x20 PUSH1 0x0 KECCAK256 SWAP1 JUMPDEST DUP2 SLOAD DUP2 MSTORE SWAP1 PUSH1 0x1 ADD SWAP1 PUSH1 0x20 ADD DUP1 DUP4 GT PUSH2 0x3DF JUMPI DUP3 SWAP1 SUB PUSH1 0x1F AND DUP3 ADD SWAP2 JUMPDEST POP POP POP POP POP SWAP1 DUP1 PUSH1 0x3 ADD DUP1 SLOAD PUSH2 0x411 SWAP1 PUSH2 0x1986 JUMP JUMPDEST DUP1 PUSH1 0x1F ADD PUSH1 0x20 DUP1 SWAP2 DIV MUL PUSH1 0x20 ADD PUSH1 0x40 MLOAD SWAP1 DUP2 ADD PUSH1 0x40 MSTORE DUP1 SWAP3 SWAP2 SWAP1 DUP2 DUP2 MSTORE PUSH1 0x20 ADD DUP3 DUP1 SLOAD PUSH2 0x43D SWAP1 PUSH2 0x1986 JUMP JUMPDEST DUP1 ISZERO PUSH2 0x48A JUMPI DUP1 PUSH1 0x1F LT PUSH2 0x45F JUMPI PUSH2 0x100 DUP1 DUP4 SLOAD DIV MUL DUP4 MSTORE SWAP2 PUSH1 0x20 ADD SWAP2 PUSH2 0x48A JUMP JUMPDEST DUP3 ADD SWAP2 SWAP1 PUSH1 0x0 MSTORE PUSH1 0x20 PUSH1 0x0 KECCAK256 SWAP1 JUMPDEST DUP2 SLOAD DUP2 MSTORE SWAP1 PUSH1 0x1 ADD SWAP1 PUSH1 0x20 ADD DUP1 DUP4 GT PUSH2 0x46D JUMPI DUP3 SWAP1 SUB PUSH1 0x1F AND DUP3 ADD SWAP2 JUMPDEST POP POP POP POP POP SWAP1 DUP1 PUSH1 0x4 ADD DUP1 SLOAD PUSH2 0x49F SWAP1 PUSH2 0x1986 JUMP JUMPDEST DUP1 PUSH1 0x1F ADD PUSH1 0x20 DUP1 SWAP2 DIV MUL PUSH1 0x20 ADD PUSH1 0x40 MLOAD SWAP1 DUP2 ADD PUSH1 0x40 MSTORE DUP1 SWAP3 SWAP2 SWAP1 DUP2 DUP2 MSTORE PUSH1 0x20 ADD DUP3 DUP1 SLOAD PUSH2 0x4CB SWAP1 PUSH2 0x1986 JUMP JUMPDEST DUP1 ISZERO PUSH2 0x518 JUMPI DUP1 PUSH1 0x1F LT PUSH2 0x4ED JUMPI PUSH2 0x100 DUP1 DUP4 SLOAD DIV MUL DUP4 MSTORE SWAP2 PUSH1 0x20 ADD SWAP2 PUSH2 0x518 JUMP JUMPDEST DUP3 ADD SWAP2 SWAP1 PUSH1 0x0 MSTORE PUSH1 0x20 PUSH1 0x0 KECCAK256 SWAP1 JUMPDEST DUP2 SLOAD DUP2 MSTORE SWAP1 PUSH1 0x1 ADD SWAP1 PUSH1 0x20 ADD DUP1 DUP4 GT PUSH2 0x4FB JUMPI DUP3 SWAP1 SUB PUSH1 0x1F AND DUP3 ADD SWAP2 JUMPDEST POP POP POP PUSH1 0x5 DUP5 ADD SLOAD PUSH1 0x6 DUP6 ADD SLOAD PUSH1 0x7 DUP7 ADD SLOAD PUSH1 0x8 DUP8 ADD SLOAD PUSH1 0x9 DUP9 ADD SLOAD PUSH1 0xA SWAP1 SWAP9 ADD SLOAD SWAP7 SWAP8 SWAP4 SWAP7 SWAP3 SWAP6 POP SWAP1 SWAP4 POP SWAP2 SWAP1 PUSH1 0xFF AND DUP12 JUMP JUMPDEST CALLER PUSH1 0x0 SWAP1 DUP2 MSTORE PUSH1 0x8 PUSH1 0x20 MSTORE PUSH1 0x40 SWAP1 KECCAK256 SLOAD DUP1 PUSH2 0x5AE JUMPI PUSH1 0x40 MLOAD PUSH3 0x461BCD PUSH1 0xE5 SHL DUP2 MSTORE PUSH1 0x20 PUSH1 0x4 DUP3 ADD MSTORE PUSH1 0x1E PUSH1 0x24 DUP3 ADD MSTORE PUSH32 0x4E6F2066756E647320617661696C61626C6520746F2077697468647261770000 PUSH1 0x44 DUP3 ADD MSTORE PUSH1 0x64 ADD JUMPDEST PUSH1 0x40 MLOAD DUP1 SWAP2 SUB SWAP1 REVERT JUMPDEST CALLER PUSH1 0x0 DUP2 DUP2 MSTORE PUSH1 0x8 PUSH1 0x20 MSTORE PUSH1 0x40 DUP1 DUP3 KECCAK256 DUP3 SWAP1 SSTORE MLOAD SWAP1 SWAP2 SWAP1 DUP4 SWAP1 DUP4 DUP2 DUP2 DUP2 DUP6 DUP8 GAS CALL SWAP3 POP POP POP RETURNDATASIZE DUP1 PUSH1 0x0 DUP2 EQ PUSH2 0x5FF JUMPI PUSH1 0x40 MLOAD SWAP2 POP PUSH1 0x1F NOT PUSH1 0x3F RETURNDATASIZE ADD AND DUP3 ADD PUSH1 0x40 MSTORE RETURNDATASIZE DUP3 MSTORE RETURNDATASIZE PUSH1 0x0 PUSH1 0x20 DUP5 ADD RETURNDATACOPY PUSH2 0x604 JUMP JUMPDEST PUSH1 0x60 SWAP2 POP JUMPDEST POP POP SWAP1 POP DUP1 PUSH2 0x649 JUMPI PUSH1 0x40 MLOAD PUSH3 0x461BCD PUSH1 0xE5 SHL DUP2 MSTORE PUSH1 0x20 PUSH1 0x4 DUP3 ADD MSTORE PUSH1 0x11 PUSH1 0x24 DUP3 ADD MSTORE PUSH17 0x15DA5D1A191C985DD85B0819985A5B1959 PUSH1 0x7A SHL PUSH1 0x44 DUP3 ADD MSTORE PUSH1 0x64 ADD PUSH2 0x5A5 JUMP JUMPDEST POP POP JUMP JUMPDEST PUSH1 0x0 DUP1 CALLVALUE GT PUSH2 0x6AD JUMPI PUSH1 0x40 MLOAD PUSH3 0x461BCD PUSH1 0xE5 SHL DUP2 MSTORE PUSH1 0x20 PUSH1 0x4 DUP3 ADD MSTORE PUSH1 0x26 PUSH1 0x24 DUP3 ADD MSTORE PUSH32 0x457468657220616D6F756E74206D757374206265206772656174657220746861 PUSH1 0x44 DUP3 ADD MSTORE PUSH6 0x6E207A65726F PUSH1 0xD0 SHL PUSH1 0x64 DUP3 ADD MSTORE PUSH1 0x84 ADD PUSH2 0x5A5 JUMP JUMPDEST PUSH1 0x0 DUP3 DUP2 MSTORE PUSH1 0xB PUSH1 0x20 MSTORE PUSH1 0x40 SWAP1 KECCAK256 SLOAD PUSH1 0xFF AND PUSH2 0x6DB JUMPI PUSH1 0x40 MLOAD PUSH3 0x461BCD PUSH1 0xE5 SHL DUP2 MSTORE PUSH1 0x4 ADD PUSH2 0x5A5 SWAP1 PUSH2 0x19C0 JUMP JUMPDEST PUSH1 0x0 PUSH1 0x7 DUP4 DUP2 SLOAD DUP2 LT PUSH2 0x6F0 JUMPI PUSH2 0x6F0 PUSH2 0x19EB JUMP JUMPDEST PUSH1 0x0 SWAP2 DUP3 MSTORE PUSH1 0x20 SWAP1 SWAP2 KECCAK256 PUSH1 0xA PUSH1 0xB SWAP1 SWAP3 MUL ADD ADD SLOAD PUSH1 0xFF AND PUSH1 0x4 DUP2 GT ISZERO PUSH2 0x718 JUMPI PUSH2 0x718 PUSH2 0x1826 JUMP JUMPDEST EQ PUSH2 0x765 JUMPI PUSH1 0x40 MLOAD PUSH3 0x461BCD PUSH1 0xE5 SHL DUP2 MSTORE PUSH1 0x20 PUSH1 0x4 DUP3 ADD MSTORE PUSH1 0x18 PUSH1 0x24 DUP3 ADD MSTORE PUSH32 0x50726F6A656374206E6F206C6F6E676572206F70656E65640000000000000000 PUSH1 0x44 DUP3 ADD MSTORE PUSH1 0x64 ADD PUSH2 0x5A5 JUMP JUMPDEST PUSH1 0x1 PUSH1 0x4 PUSH1 0x1 ADD PUSH1 0x0 DUP3 DUP3 SLOAD PUSH2 0x77B SWAP2 SWAP1 PUSH2 0x1A17 JUMP JUMPDEST SWAP1 SWAP2 SSTORE POP POP PUSH1 0x6 DUP1 SLOAD CALLVALUE SWAP2 SWAP1 PUSH1 0x0 SWAP1 PUSH2 0x795 SWAP1 DUP5 SWAP1 PUSH2 0x1A17 JUMP JUMPDEST SWAP3 POP POP DUP2 SWAP1 SSTORE POP CALLVALUE PUSH1 0x7 DUP4 DUP2 SLOAD DUP2 LT PUSH2 0x7B0 JUMPI PUSH2 0x7B0 PUSH2 0x19EB JUMP JUMPDEST SWAP1 PUSH1 0x0 MSTORE PUSH1 0x20 PUSH1 0x0 KECCAK256 SWAP1 PUSH1 0xB MUL ADD PUSH1 0x6 ADD PUSH1 0x0 DUP3 DUP3 SLOAD PUSH2 0x7D0 SWAP2 SWAP1 PUSH2 0x1A17 JUMP JUMPDEST SWAP3 POP POP DUP2 SWAP1 SSTORE POP PUSH1 0x1 PUSH1 0x7 DUP4 DUP2 SLOAD DUP2 LT PUSH2 0x7EC JUMPI PUSH2 0x7EC PUSH2 0x19EB JUMP JUMPDEST SWAP1 PUSH1 0x0 MSTORE PUSH1 0x20 PUSH1 0x0 KECCAK256 SWAP1 PUSH1 0xB MUL ADD PUSH1 0x9 ADD PUSH1 0x0 DUP3 DUP3 SLOAD PUSH2 0x80C SWAP2 SWAP1 PUSH2 0x1A17 JUMP JUMPDEST SWAP1 SWAP2 SSTORE POP POP PUSH1 0x0 DUP3 DUP2 MSTORE PUSH1 0xA PUSH1 0x20 SWAP1 DUP2 MSTORE PUSH1 0x40 DUP1 DUP4 KECCAK256 DUP2 MLOAD PUSH1 0x80 DUP1 DUP3 ADD DUP5 MSTORE CALLER DUP1 DUP4 MSTORE CALLVALUE DUP4 DUP8 ADD SWAP1 DUP2 MSTORE TIMESTAMP DUP5 DUP8 ADD DUP2 DUP2 MSTORE PUSH1 0x60 DUP1 DUP8 ADD DUP12 DUP2 MSTORE DUP9 SLOAD PUSH1 0x1 DUP1 DUP3 ADD DUP12 SSTORE SWAP10 DUP14 MSTORE SWAP12 DUP12 SWAP1 KECCAK256 SWAP8 MLOAD PUSH1 0x4 SWAP1 SWAP13 MUL SWAP1 SWAP8 ADD DUP1 SLOAD PUSH1 0x1 PUSH1 0x1 PUSH1 0xA0 SHL SUB NOT AND PUSH1 0x1 PUSH1 0x1 PUSH1 0xA0 SHL SUB SWAP1 SWAP13 AND SWAP12 SWAP1 SWAP12 OR DUP12 SSTORE SWAP3 MLOAD SWAP7 DUP11 ADD SWAP7 SWAP1 SWAP7 SSTORE SWAP5 MLOAD PUSH1 0x2 DUP10 ADD SSTORE SWAP3 MLOAD PUSH1 0x3 SWAP1 SWAP8 ADD DUP1 SLOAD PUSH1 0xFF NOT AND SWAP8 ISZERO ISZERO SWAP8 SWAP1 SWAP8 OR SWAP1 SWAP7 SSTORE DUP4 MLOAD DUP9 DUP2 MSTORE SWAP5 DUP6 ADD DUP3 SWAP1 MSTORE PUSH1 0xE SWAP2 DUP6 ADD SWAP2 SWAP1 SWAP2 MSTORE PUSH14 0x141493D29150D517D09050D2D151 PUSH1 0x92 SHL SWAP1 DUP5 ADD MSTORE SWAP1 DUP3 ADD MSTORE PUSH32 0xAEE8E5D3BBB2F71A951B5632CEE20F7AC487B9F8AB4F66A236F7694B13AF7C6A SWAP1 PUSH1 0xA0 ADD PUSH1 0x40 MLOAD DUP1 SWAP2 SUB SWAP1 LOG2 PUSH2 0xB91 PUSH1 0x7 DUP4 DUP2 SLOAD DUP2 LT PUSH2 0x914 JUMPI PUSH2 0x914 PUSH2 0x19EB JUMP JUMPDEST SWAP1 PUSH1 0x0 MSTORE PUSH1 0x20 PUSH1 0x0 KECCAK256 SWAP1 PUSH1 0xB MUL ADD PUSH1 0x40 MLOAD DUP1 PUSH2 0x160 ADD PUSH1 0x40 MSTORE SWAP1 DUP2 PUSH1 0x0 DUP3 ADD SLOAD DUP2 MSTORE PUSH1 0x20 ADD PUSH1 0x1 DUP3 ADD PUSH1 0x0 SWAP1 SLOAD SWAP1 PUSH2 0x100 EXP SWAP1 DIV PUSH1 0x1 PUSH1 0x1 PUSH1 0xA0 SHL SUB AND PUSH1 0x1 PUSH1 0x1 PUSH1 0xA0 SHL SUB AND PUSH1 0x1 PUSH1 0x1 PUSH1 0xA0 SHL SUB AND DUP2 MSTORE PUSH1 0x20 ADD PUSH1 0x2 DUP3 ADD DUP1 SLOAD PUSH2 0x977 SWAP1 PUSH2 0x1986 JUMP JUMPDEST DUP1 PUSH1 0x1F ADD PUSH1 0x20 DUP1 SWAP2 DIV MUL PUSH1 0x20 ADD PUSH1 0x40 MLOAD SWAP1 DUP2 ADD PUSH1 0x40 MSTORE DUP1 SWAP3 SWAP2 SWAP1 DUP2 DUP2 MSTORE PUSH1 0x20 ADD DUP3 DUP1 SLOAD PUSH2 0x9A3 SWAP1 PUSH2 0x1986 JUMP JUMPDEST DUP1 ISZERO PUSH2 0x9F0 JUMPI DUP1 PUSH1 0x1F LT PUSH2 0x9C5 JUMPI PUSH2 0x100 DUP1 DUP4 SLOAD DIV MUL DUP4 MSTORE SWAP2 PUSH1 0x20 ADD SWAP2 PUSH2 0x9F0 JUMP JUMPDEST DUP3 ADD SWAP2 SWAP1 PUSH1 0x0 MSTORE PUSH1 0x20 PUSH1 0x0 KECCAK256 SWAP1 JUMPDEST DUP2 SLOAD DUP2 MSTORE SWAP1 PUSH1 0x1 ADD SWAP1 PUSH1 0x20 ADD DUP1 DUP4 GT PUSH2 0x9D3 JUMPI DUP3 SWAP1 SUB PUSH1 0x1F AND DUP3 ADD SWAP2 JUMPDEST POP POP POP POP POP DUP2 MSTORE PUSH1 0x20 ADD PUSH1 0x3 DUP3 ADD DUP1 SLOAD PUSH2 0xA09 SWAP1 PUSH2 0x1986 JUMP JUMPDEST DUP1 PUSH1 0x1F ADD PUSH1 0x20 DUP1 SWAP2 DIV MUL PUSH1 0x20 ADD PUSH1 0x40 MLOAD SWAP1 DUP2 ADD PUSH1 0x40 MSTORE DUP1 SWAP3 SWAP2 SWAP1 DUP2 DUP2 MSTORE PUSH1 0x20 ADD DUP3 DUP1 SLOAD PUSH2 0xA35 SWAP1 PUSH2 0x1986 JUMP JUMPDEST DUP1 ISZERO PUSH2 0xA82 JUMPI DUP1 PUSH1 0x1F LT PUSH2 0xA57 JUMPI PUSH2 0x100 DUP1 DUP4 SLOAD DIV MUL DUP4 MSTORE SWAP2 PUSH1 0x20 ADD SWAP2 PUSH2 0xA82 JUMP JUMPDEST DUP3 ADD SWAP2 SWAP1 PUSH1 0x0 MSTORE PUSH1 0x20 PUSH1 0x0 KECCAK256 SWAP1 JUMPDEST DUP2 SLOAD DUP2 MSTORE SWAP1 PUSH1 0x1 ADD SWAP1 PUSH1 0x20 ADD DUP1 DUP4 GT PUSH2 0xA65 JUMPI DUP3 SWAP1 SUB PUSH1 0x1F AND DUP3 ADD SWAP2 JUMPDEST POP POP POP POP POP DUP2 MSTORE PUSH1 0x20 ADD PUSH1 0x4 DUP3 ADD DUP1 SLOAD PUSH2 0xA9B SWAP1 PUSH2 0x1986 JUMP JUMPDEST DUP1 PUSH1 0x1F ADD PUSH1 0x20 DUP1 SWAP2 DIV MUL PUSH1 0x20 ADD PUSH1 0x40 MLOAD SWAP1 DUP2 ADD PUSH1 0x40 MSTORE DUP1 SWAP3 SWAP2 SWAP1 DUP2 DUP2 MSTORE PUSH1 0x20 ADD DUP3 DUP1 SLOAD PUSH2 0xAC7 SWAP1 PUSH2 0x1986 JUMP JUMPDEST DUP1 ISZERO PUSH2 0xB14 JUMPI DUP1 PUSH1 0x1F LT PUSH2 0xAE9 JUMPI PUSH2 0x100 DUP1 DUP4 SLOAD DIV MUL DUP4 MSTORE SWAP2 PUSH1 0x20 ADD SWAP2 PUSH2 0xB14 JUMP JUMPDEST DUP3 ADD SWAP2 SWAP1 PUSH1 0x0 MSTORE PUSH1 0x20 PUSH1 0x0 KECCAK256 SWAP1 JUMPDEST DUP2 SLOAD DUP2 MSTORE SWAP1 PUSH1 0x1 ADD SWAP1 PUSH1 0x20 ADD DUP1 DUP4 GT PUSH2 0xAF7 JUMPI DUP3 SWAP1 SUB PUSH1 0x1F AND DUP3 ADD SWAP2 JUMPDEST POP POP POP SWAP2 DUP4 MSTORE POP POP PUSH1 0x5 DUP3 ADD SLOAD PUSH1 0x20 DUP3 ADD MSTORE PUSH1 0x6 DUP3 ADD SLOAD PUSH1 0x40 DUP3 ADD MSTORE PUSH1 0x7 DUP3 ADD SLOAD PUSH1 0x60 DUP3 ADD MSTORE PUSH1 0x8 DUP3 ADD SLOAD PUSH1 0x80 DUP3 ADD MSTORE PUSH1 0x9 DUP3 ADD SLOAD PUSH1 0xA0 DUP3 ADD MSTORE PUSH1 0xA DUP3 ADD SLOAD PUSH1 0xC0 SWAP1 SWAP2 ADD SWAP1 PUSH1 0xFF AND PUSH1 0x4 DUP2 GT ISZERO PUSH2 0xB6D JUMPI PUSH2 0xB6D PUSH2 0x1826 JUMP JUMPDEST PUSH1 0x4 DUP2 GT ISZERO PUSH2 0xB7E JUMPI PUSH2 0xB7E PUSH2 0x1826 JUMP JUMPDEST SWAP1 MSTORE POP PUSH1 0xA0 DUP2 ADD MLOAD PUSH1 0xC0 SWAP1 SWAP2 ADD MLOAD LT ISZERO SWAP1 JUMP JUMPDEST ISZERO PUSH2 0xC27 JUMPI PUSH1 0x1 PUSH1 0x7 DUP4 DUP2 SLOAD DUP2 LT PUSH2 0xBAB JUMPI PUSH2 0xBAB PUSH2 0x19EB JUMP JUMPDEST PUSH1 0x0 SWAP2 DUP3 MSTORE PUSH1 0x20 SWAP1 SWAP2 KECCAK256 PUSH1 0xA PUSH1 0xB SWAP1 SWAP3 MUL ADD ADD DUP1 SLOAD PUSH1 0xFF NOT AND PUSH1 0x1 DUP4 PUSH1 0x4 DUP2 GT ISZERO PUSH2 0xBD8 JUMPI PUSH2 0xBD8 PUSH2 0x1826 JUMP JUMPDEST MUL OR SWAP1 SSTORE POP PUSH1 0x7 DUP3 DUP2 SLOAD DUP2 LT PUSH2 0xBF0 JUMPI PUSH2 0xBF0 PUSH2 0x19EB JUMP JUMPDEST SWAP1 PUSH1 0x0 MSTORE PUSH1 0x20 PUSH1 0x0 KECCAK256 SWAP1 PUSH1 0xB MUL ADD PUSH1 0x6 ADD SLOAD PUSH1 0x3 PUSH1 0x0 DUP3 DUP3 SLOAD PUSH2 0xC13 SWAP2 SWAP1 PUSH2 0x1A17 JUMP JUMPDEST SWAP1 SWAP2 SSTORE POP PUSH2 0xC22 SWAP1 POP DUP3 PUSH2 0x1408 JUMP JUMPDEST PUSH2 0xF0A JUMP JUMPDEST PUSH2 0xEB5 PUSH1 0x7 DUP4 DUP2 SLOAD DUP2 LT PUSH2 0xC3D JUMPI PUSH2 0xC3D PUSH2 0x19EB JUMP JUMPDEST SWAP1 PUSH1 0x0 MSTORE PUSH1 0x20 PUSH1 0x0 KECCAK256 SWAP1 PUSH1 0xB MUL ADD PUSH1 0x40 MLOAD DUP1 PUSH2 0x160 ADD PUSH1 0x40 MSTORE SWAP1 DUP2 PUSH1 0x0 DUP3 ADD SLOAD DUP2 MSTORE PUSH1 0x20 ADD PUSH1 0x1 DUP3 ADD PUSH1 0x0 SWAP1 SLOAD SWAP1 PUSH2 0x100 EXP SWAP1 DIV PUSH1 0x1 PUSH1 0x1 PUSH1 0xA0 SHL SUB AND PUSH1 0x1 PUSH1 0x1 PUSH1 0xA0 SHL SUB AND PUSH1 0x1 PUSH1 0x1 PUSH1 0xA0 SHL SUB AND DUP2 MSTORE PUSH1 0x20 ADD PUSH1 0x2 DUP3 ADD DUP1 SLOAD PUSH2 0xCA0 SWAP1 PUSH2 0x1986 JUMP JUMPDEST DUP1 PUSH1 0x1F ADD PUSH1 0x20 DUP1 SWAP2 DIV MUL PUSH1 0x20 ADD PUSH1 0x40 MLOAD SWAP1 DUP2 ADD PUSH1 0x40 MSTORE DUP1 SWAP3 SWAP2 SWAP1 DUP2 DUP2 MSTORE PUSH1 0x20 ADD DUP3 DUP1 SLOAD PUSH2 0xCCC SWAP1 PUSH2 0x1986 JUMP JUMPDEST DUP1 ISZERO PUSH2 0xD19 JUMPI DUP1 PUSH1 0x1F LT PUSH2 0xCEE JUMPI PUSH2 0x100 DUP1 DUP4 SLOAD DIV MUL DUP4 MSTORE SWAP2 PUSH1 0x20 ADD SWAP2 PUSH2 0xD19 JUMP JUMPDEST DUP3 ADD SWAP2 SWAP1 PUSH1 0x0 MSTORE PUSH1 0x20 PUSH1 0x0 KECCAK256 SWAP1 JUMPDEST DUP2 SLOAD DUP2 MSTORE SWAP1 PUSH1 0x1 ADD SWAP1 PUSH1 0x20 ADD DUP1 DUP4 GT PUSH2 0xCFC JUMPI DUP3 SWAP1 SUB PUSH1 0x1F AND DUP3 ADD SWAP2 JUMPDEST POP POP POP POP POP DUP2 MSTORE PUSH1 0x20 ADD PUSH1 0x3 DUP3 ADD DUP1 SLOAD PUSH2 0xD32 SWAP1 PUSH2 0x1986 JUMP JUMPDEST DUP1 PUSH1 0x1F ADD PUSH1 0x20 DUP1 SWAP2 DIV MUL PUSH1 0x20 ADD PUSH1 0x40 MLOAD SWAP1 DUP2 ADD PUSH1 0x40 MSTORE DUP1 SWAP3 SWAP2 SWAP1 DUP2 DUP2 MSTORE PUSH1 0x20 ADD DUP3 DUP1 SLOAD PUSH2 0xD5E SWAP1 PUSH2 0x1986 JUMP JUMPDEST DUP1 ISZERO PUSH2 0xDAB JUMPI DUP1 PUSH1 0x1F LT PUSH2 0xD80 JUMPI PUSH2 0x100 DUP1 DUP4 SLOAD DIV MUL DUP4 MSTORE SWAP2 PUSH1 0x20 ADD SWAP2 PUSH2 0xDAB JUMP JUMPDEST DUP3 ADD SWAP2 SWAP1 PUSH1 0x0 MSTORE PUSH1 0x20 PUSH1 0x0 KECCAK256 SWAP1 JUMPDEST DUP2 SLOAD DUP2 MSTORE SWAP1 PUSH1 0x1 ADD SWAP1 PUSH1 0x20 ADD DUP1 DUP4 GT PUSH2 0xD8E JUMPI DUP3 SWAP1 SUB PUSH1 0x1F AND DUP3 ADD SWAP2 JUMPDEST POP POP POP POP POP DUP2 MSTORE PUSH1 0x20 ADD PUSH1 0x4 DUP3 ADD DUP1 SLOAD PUSH2 0xDC4 SWAP1 PUSH2 0x1986 JUMP JUMPDEST DUP1 PUSH1 0x1F ADD PUSH1 0x20 DUP1 SWAP2 DIV MUL PUSH1 0x20 ADD PUSH1 0x40 MLOAD SWAP1 DUP2 ADD PUSH1 0x40 MSTORE DUP1 SWAP3 SWAP2 SWAP1 DUP2 DUP2 MSTORE PUSH1 0x20 ADD DUP3 DUP1 SLOAD PUSH2 0xDF0 SWAP1 PUSH2 0x1986 JUMP JUMPDEST DUP1 ISZERO PUSH2 0xE3D JUMPI DUP1 PUSH1 0x1F LT PUSH2 0xE12 JUMPI PUSH2 0x100 DUP1 DUP4 SLOAD DIV MUL DUP4 MSTORE SWAP2 PUSH1 0x20 ADD SWAP2 PUSH2 0xE3D JUMP JUMPDEST DUP3 ADD SWAP2 SWAP1 PUSH1 0x0 MSTORE PUSH1 0x20 PUSH1 0x0 KECCAK256 SWAP1 JUMPDEST DUP2 SLOAD DUP2 MSTORE SWAP1 PUSH1 0x1 ADD SWAP1 PUSH1 0x20 ADD DUP1 DUP4 GT PUSH2 0xE20 JUMPI DUP3 SWAP1 SUB PUSH1 0x1F AND DUP3 ADD SWAP2 JUMPDEST POP POP POP SWAP2 DUP4 MSTORE POP POP PUSH1 0x5 DUP3 ADD SLOAD PUSH1 0x20 DUP3 ADD MSTORE PUSH1 0x6 DUP3 ADD SLOAD PUSH1 0x40 DUP3 ADD MSTORE PUSH1 0x7 DUP3 ADD SLOAD PUSH1 0x60 DUP3 ADD MSTORE PUSH1 0x8 DUP3 ADD SLOAD PUSH1 0x80 DUP3 ADD MSTORE PUSH1 0x9 DUP3 ADD SLOAD PUSH1 0xA0 DUP3 ADD MSTORE PUSH1 0xA DUP3 ADD SLOAD PUSH1 0xC0 SWAP1 SWAP2 ADD SWAP1 PUSH1 0xFF AND PUSH1 0x4 DUP2 GT ISZERO PUSH2 0xE96 JUMPI PUSH2 0xE96 PUSH2 0x1826 JUMP JUMPDEST PUSH1 0x4 DUP2 GT ISZERO PUSH2 0xEA7 JUMPI PUSH2 0xEA7 PUSH2 0x1826 JUMP JUMPDEST SWAP1 MSTORE POP PUSH2 0x100 ADD MLOAD TIMESTAMP LT ISZERO SWAP1 JUMP JUMPDEST ISZERO PUSH2 0xF0A JUMPI PUSH1 0x2 PUSH1 0x7 DUP4 DUP2 SLOAD DUP2 LT PUSH2 0xECF JUMPI PUSH2 0xECF PUSH2 0x19EB JUMP JUMPDEST PUSH1 0x0 SWAP2 DUP3 MSTORE PUSH1 0x20 SWAP1 SWAP2 KECCAK256 PUSH1 0xA PUSH1 0xB SWAP1 SWAP3 MUL ADD ADD DUP1 SLOAD PUSH1 0xFF NOT AND PUSH1 0x1 DUP4 PUSH1 0x4 DUP2 GT ISZERO PUSH2 0xEFC JUMPI PUSH2 0xEFC PUSH2 0x1826 JUMP JUMPDEST MUL OR SWAP1 SSTORE POP PUSH2 0xF0A DUP3 PUSH2 0x1591 JUMP JUMPDEST POP PUSH1 0x1 SWAP2 SWAP1 POP JUMP JUMPDEST PUSH1 0x0 DUP2 DUP2 MSTORE PUSH1 0xB PUSH1 0x20 MSTORE PUSH1 0x40 SWAP1 KECCAK256 SLOAD PUSH1 0x60 SWAP1 PUSH1 0xFF AND PUSH2 0xF43 JUMPI PUSH1 0x40 MLOAD PUSH3 0x461BCD PUSH1 0xE5 SHL DUP2 MSTORE PUSH1 0x4 ADD PUSH2 0x5A5 SWAP1 PUSH2 0x19C0 JUMP JUMPDEST PUSH1 0x0 DUP3 DUP2 MSTORE PUSH1 0xA PUSH1 0x20 SWAP1 DUP2 MSTORE PUSH1 0x40 DUP1 DUP4 KECCAK256 DUP1 SLOAD DUP3 MLOAD DUP2 DUP6 MUL DUP2 ADD DUP6 ADD SWAP1 SWAP4 MSTORE DUP1 DUP4 MSTORE SWAP2 SWAP4 SWAP1 SWAP3 DUP5 ADD JUMPDEST DUP3 DUP3 LT ISZERO PUSH2 0xFCE JUMPI PUSH1 0x0 DUP5 DUP2 MSTORE PUSH1 0x20 SWAP1 DUP2 SWAP1 KECCAK256 PUSH1 0x40 DUP1 MLOAD PUSH1 0x80 DUP2 ADD DUP3 MSTORE PUSH1 0x4 DUP7 MUL SWAP1 SWAP3 ADD DUP1 SLOAD PUSH1 0x1 PUSH1 0x1 PUSH1 0xA0 SHL SUB AND DUP4 MSTORE PUSH1 0x1 DUP1 DUP3 ADD SLOAD DUP5 DUP7 ADD MSTORE PUSH1 0x2 DUP3 ADD SLOAD SWAP3 DUP5 ADD SWAP3 SWAP1 SWAP3 MSTORE PUSH1 0x3 ADD SLOAD PUSH1 0xFF AND ISZERO ISZERO PUSH1 0x60 DUP4 ADD MSTORE SWAP1 DUP4 MSTORE SWAP1 SWAP3 ADD SWAP2 ADD PUSH2 0xF6C JUMP JUMPDEST POP POP POP POP SWAP1 POP SWAP2 SWAP1 POP JUMP JUMPDEST PUSH1 0x0 DUP2 DUP2 MSTORE PUSH1 0xB PUSH1 0x20 MSTORE PUSH1 0x40 DUP2 KECCAK256 SLOAD PUSH1 0xFF AND PUSH2 0x1007 JUMPI PUSH1 0x40 MLOAD PUSH3 0x461BCD PUSH1 0xE5 SHL DUP2 MSTORE PUSH1 0x4 ADD PUSH2 0x5A5 SWAP1 PUSH2 0x19C0 JUMP JUMPDEST PUSH1 0x2 PUSH1 0x7 DUP4 DUP2 SLOAD DUP2 LT PUSH2 0x101C JUMPI PUSH2 0x101C PUSH2 0x19EB JUMP JUMPDEST PUSH1 0x0 SWAP2 DUP3 MSTORE PUSH1 0x20 SWAP1 SWAP2 KECCAK256 PUSH1 0xA PUSH1 0xB SWAP1 SWAP3 MUL ADD ADD SLOAD PUSH1 0xFF AND PUSH1 0x4 DUP2 GT ISZERO PUSH2 0x1044 JUMPI PUSH2 0x1044 PUSH2 0x1826 JUMP JUMPDEST EQ ISZERO DUP1 PUSH2 0x108C JUMPI POP PUSH1 0x3 PUSH1 0x7 DUP4 DUP2 SLOAD DUP2 LT PUSH2 0x1061 JUMPI PUSH2 0x1061 PUSH2 0x19EB JUMP JUMPDEST PUSH1 0x0 SWAP2 DUP3 MSTORE PUSH1 0x20 SWAP1 SWAP2 KECCAK256 PUSH1 0xA PUSH1 0xB SWAP1 SWAP3 MUL ADD ADD SLOAD PUSH1 0xFF AND PUSH1 0x4 DUP2 GT ISZERO PUSH2 0x1089 JUMPI PUSH2 0x1089 PUSH2 0x1826 JUMP JUMPDEST EQ ISZERO JUMPDEST PUSH2 0x10EA JUMPI PUSH1 0x40 MLOAD PUSH3 0x461BCD PUSH1 0xE5 SHL DUP2 MSTORE PUSH1 0x20 PUSH1 0x4 DUP3 ADD MSTORE PUSH1 0x29 PUSH1 0x24 DUP3 ADD MSTORE PUSH32 0x50726F6A656374206E6F74206D61726B6564206173207265766572746564206F PUSH1 0x44 DUP3 ADD MSTORE PUSH9 0x1C8819195B195D1959 PUSH1 0xBA SHL PUSH1 0x64 DUP3 ADD MSTORE PUSH1 0x84 ADD PUSH2 0x5A5 JUMP JUMPDEST PUSH1 0x2 PUSH1 0x7 DUP4 DUP2 SLOAD DUP2 LT PUSH2 0xECF JUMPI PUSH2 0xECF PUSH2 0x19EB JUMP JUMPDEST PUSH1 0x0 DUP2 DUP2 MSTORE PUSH1 0xB PUSH1 0x20 MSTORE PUSH1 0x40 DUP2 KECCAK256 SLOAD PUSH1 0xFF AND PUSH2 0x112D JUMPI PUSH1 0x40 MLOAD PUSH3 0x461BCD PUSH1 0xE5 SHL DUP2 MSTORE PUSH1 0x4 ADD PUSH2 0x5A5 SWAP1 PUSH2 0x19C0 JUMP JUMPDEST PUSH1 0x1 PUSH1 0x7 DUP4 DUP2 SLOAD DUP2 LT PUSH2 0x1142 JUMPI PUSH2 0x1142 PUSH2 0x19EB JUMP JUMPDEST PUSH1 0x0 SWAP2 DUP3 MSTORE PUSH1 0x20 SWAP1 SWAP2 KECCAK256 PUSH1 0xA PUSH1 0xB SWAP1 SWAP3 MUL ADD ADD SLOAD PUSH1 0xFF AND PUSH1 0x4 DUP2 GT ISZERO PUSH2 0x116A JUMPI PUSH2 0x116A PUSH2 0x1826 JUMP JUMPDEST EQ PUSH2 0x11AF JUMPI PUSH1 0x40 MLOAD PUSH3 0x461BCD PUSH1 0xE5 SHL DUP2 MSTORE PUSH1 0x20 PUSH1 0x4 DUP3 ADD MSTORE PUSH1 0x15 PUSH1 0x24 DUP3 ADD MSTORE PUSH21 0x50726F6A656374206E6F7420417070726F76656421 PUSH1 0x58 SHL PUSH1 0x44 DUP3 ADD MSTORE PUSH1 0x64 ADD PUSH2 0x5A5 JUMP JUMPDEST PUSH1 0x7 DUP3 DUP2 SLOAD DUP2 LT PUSH2 0x11C2 JUMPI PUSH2 0x11C2 PUSH2 0x19EB JUMP JUMPDEST PUSH1 0x0 SWAP2 DUP3 MSTORE PUSH1 0x20 SWAP1 SWAP2 KECCAK256 PUSH1 0xB SWAP1 SWAP2 MUL ADD PUSH1 0x1 ADD SLOAD PUSH1 0x1 PUSH1 0x1 PUSH1 0xA0 SHL SUB AND CALLER EQ DUP1 PUSH2 0x11F6 JUMPI POP PUSH1 0x0 SLOAD PUSH1 0x1 PUSH1 0x1 PUSH1 0xA0 SHL SUB AND CALLER EQ JUMPDEST PUSH2 0x1238 JUMPI PUSH1 0x40 MLOAD PUSH3 0x461BCD PUSH1 0xE5 SHL DUP2 MSTORE PUSH1 0x20 PUSH1 0x4 DUP3 ADD MSTORE PUSH1 0x13 PUSH1 0x24 DUP3 ADD MSTORE PUSH19 0x556E617574686F72697A656420456E74697479 PUSH1 0x68 SHL PUSH1 0x44 DUP3 ADD MSTORE PUSH1 0x64 ADD PUSH2 0x5A5 JUMP JUMPDEST PUSH2 0xF0A DUP3 PUSH2 0x1408 JUMP JUMPDEST PUSH1 0x5 SLOAD PUSH1 0x60 SWAP1 PUSH1 0x0 DUP2 PUSH8 0xFFFFFFFFFFFFFFFF DUP2 GT ISZERO PUSH2 0x1262 JUMPI PUSH2 0x1262 PUSH2 0x1A30 JUMP JUMPDEST PUSH1 0x40 MLOAD SWAP1 DUP1 DUP3 MSTORE DUP1 PUSH1 0x20 MUL PUSH1 0x20 ADD DUP3 ADD PUSH1 0x40 MSTORE DUP1 ISZERO PUSH2 0x12B4 JUMPI DUP2 PUSH1 0x20 ADD JUMPDEST PUSH1 0x40 DUP1 MLOAD PUSH1 0x80 DUP2 ADD DUP3 MSTORE PUSH1 0x0 DUP1 DUP3 MSTORE PUSH1 0x20 DUP1 DUP4 ADD DUP3 SWAP1 MSTORE SWAP3 DUP3 ADD DUP2 SWAP1 MSTORE PUSH1 0x60 DUP3 ADD MSTORE DUP3 MSTORE PUSH1 0x0 NOT SWAP1 SWAP3 ADD SWAP2 ADD DUP2 PUSH2 0x1280 JUMPI SWAP1 POP JUMPDEST POP SWAP1 POP PUSH1 0x0 DUP1 JUMPDEST PUSH1 0x7 SLOAD DUP2 LT ISZERO PUSH2 0x13FF JUMPI PUSH1 0x0 PUSH1 0xA PUSH1 0x0 PUSH1 0x7 DUP5 DUP2 SLOAD DUP2 LT PUSH2 0x12DE JUMPI PUSH2 0x12DE PUSH2 0x19EB JUMP JUMPDEST SWAP1 PUSH1 0x0 MSTORE PUSH1 0x20 PUSH1 0x0 KECCAK256 SWAP1 PUSH1 0xB MUL ADD PUSH1 0x0 ADD SLOAD DUP2 MSTORE PUSH1 0x20 ADD SWAP1 DUP2 MSTORE PUSH1 0x20 ADD PUSH1 0x0 KECCAK256 DUP1 SLOAD DUP1 PUSH1 0x20 MUL PUSH1 0x20 ADD PUSH1 0x40 MLOAD SWAP1 DUP2 ADD PUSH1 0x40 MSTORE DUP1 SWAP3 SWAP2 SWAP1 DUP2 DUP2 MSTORE PUSH1 0x20 ADD PUSH1 0x0 SWAP1 JUMPDEST DUP3 DUP3 LT ISZERO PUSH2 0x1380 JUMPI PUSH1 0x0 DUP5 DUP2 MSTORE PUSH1 0x20 SWAP1 DUP2 SWAP1 KECCAK256 PUSH1 0x40 DUP1 MLOAD PUSH1 0x80 DUP2 ADD DUP3 MSTORE PUSH1 0x4 DUP7 MUL SWAP1 SWAP3 ADD DUP1 SLOAD PUSH1 0x1 PUSH1 0x1 PUSH1 0xA0 SHL SUB AND DUP4 MSTORE PUSH1 0x1 DUP1 DUP3 ADD SLOAD DUP5 DUP7 ADD MSTORE PUSH1 0x2 DUP3 ADD SLOAD SWAP3 DUP5 ADD SWAP3 SWAP1 SWAP3 MSTORE PUSH1 0x3 ADD SLOAD PUSH1 0xFF AND ISZERO ISZERO PUSH1 0x60 DUP4 ADD MSTORE SWAP1 DUP4 MSTORE SWAP1 SWAP3 ADD SWAP2 ADD PUSH2 0x131E JUMP JUMPDEST POP POP POP POP SWAP1 POP PUSH1 0x0 JUMPDEST DUP2 MLOAD DUP2 LT ISZERO PUSH2 0x13EA JUMPI DUP2 DUP2 DUP2 MLOAD DUP2 LT PUSH2 0x13A4 JUMPI PUSH2 0x13A4 PUSH2 0x19EB JUMP JUMPDEST PUSH1 0x20 MUL PUSH1 0x20 ADD ADD MLOAD DUP6 DUP6 DUP2 MLOAD DUP2 LT PUSH2 0x13BE JUMPI PUSH2 0x13BE PUSH2 0x19EB JUMP JUMPDEST PUSH1 0x20 MUL PUSH1 0x20 ADD ADD DUP2 SWAP1 MSTORE POP DUP4 DUP1 PUSH2 0x13D4 SWAP1 PUSH2 0x1A46 JUMP JUMPDEST SWAP5 POP POP DUP1 DUP1 PUSH2 0x13E2 SWAP1 PUSH2 0x1A46 JUMP JUMPDEST SWAP2 POP POP PUSH2 0x1389 JUMP JUMPDEST POP POP DUP1 DUP1 PUSH2 0x13F7 SWAP1 PUSH2 0x1A46 JUMP JUMPDEST SWAP2 POP POP PUSH2 0x12BB JUMP JUMPDEST POP SWAP1 SWAP4 SWAP3 POP POP POP JUMP JUMPDEST PUSH1 0x0 PUSH1 0x7 DUP3 DUP2 SLOAD DUP2 LT PUSH2 0x141D JUMPI PUSH2 0x141D PUSH2 0x19EB JUMP JUMPDEST SWAP1 PUSH1 0x0 MSTORE PUSH1 0x20 PUSH1 0x0 KECCAK256 SWAP1 PUSH1 0xB MUL ADD PUSH1 0x6 ADD SLOAD SWAP1 POP PUSH1 0x0 PUSH1 0x64 PUSH1 0x1 SLOAD DUP4 PUSH2 0x1443 SWAP2 SWAP1 PUSH2 0x1A5F JUMP JUMPDEST PUSH2 0x144D SWAP2 SWAP1 PUSH2 0x1A76 JUMP JUMPDEST SWAP1 POP PUSH1 0x4 PUSH1 0x7 DUP5 DUP2 SLOAD DUP2 LT PUSH2 0x1464 JUMPI PUSH2 0x1464 PUSH2 0x19EB JUMP JUMPDEST PUSH1 0x0 SWAP2 DUP3 MSTORE PUSH1 0x20 SWAP1 SWAP2 KECCAK256 PUSH1 0xA PUSH1 0xB SWAP1 SWAP3 MUL ADD ADD DUP1 SLOAD PUSH1 0xFF NOT AND PUSH1 0x1 DUP4 PUSH1 0x4 DUP2 GT ISZERO PUSH2 0x1491 JUMPI PUSH2 0x1491 PUSH2 0x1826 JUMP JUMPDEST MUL OR SWAP1 SSTORE POP PUSH2 0x14D8 PUSH1 0x7 DUP5 DUP2 SLOAD DUP2 LT PUSH2 0x14AC JUMPI PUSH2 0x14AC PUSH2 0x19EB JUMP JUMPDEST PUSH1 0x0 SWAP2 DUP3 MSTORE PUSH1 0x20 SWAP1 SWAP2 KECCAK256 PUSH1 0x1 PUSH1 0xB SWAP1 SWAP3 MUL ADD ADD SLOAD PUSH1 0x1 PUSH1 0x1 PUSH1 0xA0 SHL SUB AND PUSH2 0x14D3 DUP4 DUP6 PUSH2 0x1A98 JUMP JUMPDEST PUSH2 0x1762 JUMP JUMPDEST PUSH1 0x0 SLOAD PUSH2 0x14EE SWAP1 PUSH1 0x1 PUSH1 0x1 PUSH1 0xA0 SHL SUB AND DUP3 PUSH2 0x1762 JUMP JUMPDEST PUSH1 0x7 DUP4 DUP2 SLOAD DUP2 LT PUSH2 0x1501 JUMPI PUSH2 0x1501 PUSH2 0x19EB JUMP JUMPDEST SWAP1 PUSH1 0x0 MSTORE PUSH1 0x20 PUSH1 0x0 KECCAK256 SWAP1 PUSH1 0xB MUL ADD PUSH1 0x6 ADD SLOAD PUSH1 0x3 PUSH1 0x0 DUP3 DUP3 SLOAD PUSH2 0x1524 SWAP2 SWAP1 PUSH2 0x1A98 JUMP JUMPDEST SWAP1 SWAP2 SSTORE POP POP PUSH1 0x40 DUP1 MLOAD DUP5 DUP2 MSTORE PUSH1 0x60 PUSH1 0x20 DUP3 ADD DUP2 SWAP1 MSTORE PUSH1 0x10 SWAP1 DUP3 ADD MSTORE PUSH16 0x141493D29150D517D410525117D3D555 PUSH1 0x82 SHL PUSH1 0x80 DUP3 ADD MSTORE TIMESTAMP DUP2 DUP4 ADD MSTORE SWAP1 MLOAD CALLER SWAP2 PUSH32 0xAEE8E5D3BBB2F71A951B5632CEE20F7AC487B9F8AB4F66A236F7694B13AF7C6A SWAP2 SWAP1 DUP2 SWAP1 SUB PUSH1 0xA0 ADD SWAP1 LOG2 POP POP POP JUMP JUMPDEST PUSH1 0x0 JUMPDEST PUSH1 0x0 DUP3 DUP2 MSTORE PUSH1 0xA PUSH1 0x20 MSTORE PUSH1 0x40 SWAP1 KECCAK256 SLOAD DUP2 LT ISZERO PUSH2 0x649 JUMPI PUSH1 0x0 DUP3 DUP2 MSTORE PUSH1 0xA PUSH1 0x20 MSTORE PUSH1 0x40 SWAP1 KECCAK256 DUP1 SLOAD DUP3 SWAP1 DUP2 LT PUSH2 0x15CA JUMPI PUSH2 0x15CA PUSH2 0x19EB JUMP JUMPDEST PUSH1 0x0 SWAP2 DUP3 MSTORE PUSH1 0x20 SWAP1 SWAP2 KECCAK256 PUSH1 0x3 PUSH1 0x4 SWAP1 SWAP3 MUL ADD ADD SLOAD PUSH1 0xFF AND PUSH2 0x1750 JUMPI PUSH1 0x0 DUP3 DUP2 MSTORE PUSH1 0xA PUSH1 0x20 MSTORE PUSH1 0x40 DUP2 KECCAK256 DUP1 SLOAD DUP4 SWAP1 DUP2 LT PUSH2 0x1605 JUMPI PUSH2 0x1605 PUSH2 0x19EB JUMP JUMPDEST PUSH1 0x0 SWAP2 DUP3 MSTORE PUSH1 0x20 DUP1 DUP4 KECCAK256 PUSH1 0x4 SWAP1 SWAP3 MUL SWAP1 SWAP2 ADD SLOAD DUP6 DUP4 MSTORE PUSH1 0xA SWAP1 SWAP2 MSTORE PUSH1 0x40 DUP3 KECCAK256 DUP1 SLOAD PUSH1 0x1 PUSH1 0x1 PUSH1 0xA0 SHL SUB SWAP1 SWAP3 AND SWAP4 POP SWAP1 DUP5 SWAP1 DUP2 LT PUSH2 0x1644 JUMPI PUSH2 0x1644 PUSH2 0x19EB JUMP JUMPDEST SWAP1 PUSH1 0x0 MSTORE PUSH1 0x20 PUSH1 0x0 KECCAK256 SWAP1 PUSH1 0x4 MUL ADD PUSH1 0x1 ADD SLOAD SWAP1 POP DUP1 PUSH1 0x8 PUSH1 0x0 DUP5 PUSH1 0x1 PUSH1 0x1 PUSH1 0xA0 SHL SUB AND PUSH1 0x1 PUSH1 0x1 PUSH1 0xA0 SHL SUB AND DUP2 MSTORE PUSH1 0x20 ADD SWAP1 DUP2 MSTORE PUSH1 0x20 ADD PUSH1 0x0 KECCAK256 PUSH1 0x0 DUP3 DUP3 SLOAD PUSH2 0x168D SWAP2 SWAP1 PUSH2 0x1A17 JUMP JUMPDEST SWAP1 SWAP2 SSTORE POP POP PUSH1 0x0 DUP5 DUP2 MSTORE PUSH1 0xA PUSH1 0x20 MSTORE PUSH1 0x40 SWAP1 KECCAK256 DUP1 SLOAD PUSH1 0x1 SWAP2 SWAP1 DUP6 SWAP1 DUP2 LT PUSH2 0x16B6 JUMPI PUSH2 0x16B6 PUSH2 0x19EB JUMP JUMPDEST SWAP1 PUSH1 0x0 MSTORE PUSH1 0x20 PUSH1 0x0 KECCAK256 SWAP1 PUSH1 0x4 MUL ADD PUSH1 0x3 ADD PUSH1 0x0 PUSH2 0x100 EXP DUP2 SLOAD DUP2 PUSH1 0xFF MUL NOT AND SWAP1 DUP4 ISZERO ISZERO MUL OR SWAP1 SSTORE POP TIMESTAMP PUSH1 0xA PUSH1 0x0 DUP7 DUP2 MSTORE PUSH1 0x20 ADD SWAP1 DUP2 MSTORE PUSH1 0x20 ADD PUSH1 0x0 KECCAK256 DUP5 DUP2 SLOAD DUP2 LT PUSH2 0x1703 JUMPI PUSH2 0x1703 PUSH2 0x19EB JUMP JUMPDEST SWAP1 PUSH1 0x0 MSTORE PUSH1 0x20 PUSH1 0x0 KECCAK256 SWAP1 PUSH1 0x4 MUL ADD PUSH1 0x2 ADD DUP2 SWAP1 SSTORE POP PUSH1 0x1 PUSH1 0x4 PUSH1 0x1 ADD PUSH1 0x0 DUP3 DUP3 SLOAD PUSH2 0x172E SWAP2 SWAP1 PUSH2 0x1A98 JUMP JUMPDEST SWAP1 SWAP2 SSTORE POP POP PUSH1 0x6 DUP1 SLOAD DUP3 SWAP2 SWAP1 PUSH1 0x0 SWAP1 PUSH2 0x1748 SWAP1 DUP5 SWAP1 PUSH2 0x1A98 JUMP JUMPDEST SWAP1 SWAP2 SSTORE POP POP POP POP JUMPDEST DUP1 PUSH2 0x175A DUP2 PUSH2 0x1A46 JUMP JUMPDEST SWAP2 POP POP PUSH2 0x1594 JUMP JUMPDEST PUSH1 0x0 DUP3 PUSH1 0x1 PUSH1 0x1 PUSH1 0xA0 SHL SUB AND DUP3 PUSH1 0x40 MLOAD PUSH1 0x0 PUSH1 0x40 MLOAD DUP1 DUP4 SUB DUP2 DUP6 DUP8 GAS CALL SWAP3 POP POP POP RETURNDATASIZE DUP1 PUSH1 0x0 DUP2 EQ PUSH2 0x17AF JUMPI PUSH1 0x40 MLOAD SWAP2 POP PUSH1 0x1F NOT PUSH1 0x3F RETURNDATASIZE ADD AND DUP3 ADD PUSH1 0x40 MSTORE RETURNDATASIZE DUP3 MSTORE RETURNDATASIZE PUSH1 0x0 PUSH1 0x20 DUP5 ADD RETURNDATACOPY PUSH2 0x17B4 JUMP JUMPDEST PUSH1 0x60 SWAP2 POP JUMPDEST POP POP SWAP1 POP DUP1 PUSH2 0x17C2 JUMPI PUSH1 0x0 DUP1 REVERT JUMPDEST POP POP POP JUMP JUMPDEST PUSH1 0x0 PUSH1 0x20 DUP3 DUP5 SUB SLT ISZERO PUSH2 0x17D9 JUMPI PUSH1 0x0 DUP1 REVERT JUMPDEST POP CALLDATALOAD SWAP2 SWAP1 POP JUMP JUMPDEST PUSH1 0x0 DUP2 MLOAD DUP1 DUP5 MSTORE PUSH1 0x0 JUMPDEST DUP2 DUP2 LT ISZERO PUSH2 0x1806 JUMPI PUSH1 0x20 DUP2 DUP6 ADD DUP2 ADD MLOAD DUP7 DUP4 ADD DUP3 ADD MSTORE ADD PUSH2 0x17EA JUMP JUMPDEST POP PUSH1 0x0 PUSH1 0x20 DUP3 DUP7 ADD ADD MSTORE PUSH1 0x20 PUSH1 0x1F NOT PUSH1 0x1F DUP4 ADD AND DUP6 ADD ADD SWAP2 POP POP SWAP3 SWAP2 POP POP JUMP JUMPDEST PUSH4 0x4E487B71 PUSH1 0xE0 SHL PUSH1 0x0 MSTORE PUSH1 0x21 PUSH1 0x4 MSTORE PUSH1 0x24 PUSH1 0x0 REVERT JUMPDEST DUP12 DUP2 MSTORE PUSH1 0x1 PUSH1 0x1 PUSH1 0xA0 SHL SUB DUP12 AND PUSH1 0x20 DUP3 ADD MSTORE PUSH2 0x160 PUSH1 0x40 DUP3 ADD DUP2 SWAP1 MSTORE PUSH1 0x0 SWAP1 PUSH2 0x1867 DUP4 DUP3 ADD DUP14 PUSH2 0x17E0 JUMP JUMPDEST SWAP1 POP DUP3 DUP2 SUB PUSH1 0x60 DUP5 ADD MSTORE PUSH2 0x187B DUP2 DUP13 PUSH2 0x17E0 JUMP JUMPDEST SWAP1 POP DUP3 DUP2 SUB PUSH1 0x80 DUP5 ADD MSTORE PUSH2 0x188F DUP2 DUP12 PUSH2 0x17E0 JUMP JUMPDEST SWAP2 POP POP DUP8 PUSH1 0xA0 DUP4 ADD MSTORE DUP7 PUSH1 0xC0 DUP4 ADD MSTORE DUP6 PUSH1 0xE0 DUP4 ADD MSTORE DUP5 PUSH2 0x100 DUP4 ADD MSTORE DUP4 PUSH2 0x120 DUP4 ADD MSTORE PUSH1 0x5 DUP4 LT PUSH2 0x18D0 JUMPI PUSH4 0x4E487B71 PUSH1 0xE0 SHL PUSH1 0x0 MSTORE PUSH1 0x21 PUSH1 0x4 MSTORE PUSH1 0x24 PUSH1 0x0 REVERT JUMPDEST DUP3 PUSH2 0x140 DUP4 ADD MSTORE SWAP13 SWAP12 POP POP POP POP POP POP POP POP POP POP POP POP JUMP JUMPDEST PUSH1 0x20 DUP1 DUP3 MSTORE DUP3 MLOAD DUP3 DUP3 ADD DUP2 SWAP1 MSTORE PUSH1 0x0 SWAP2 SWAP1 PUSH1 0x40 SWAP1 DUP2 DUP6 ADD SWAP1 DUP7 DUP5 ADD DUP6 JUMPDEST DUP3 DUP2 LT ISZERO PUSH2 0x1949 JUMPI DUP2 MLOAD DUP1 MLOAD PUSH1 0x1 PUSH1 0x1 PUSH1 0xA0 SHL SUB AND DUP6 MSTORE DUP7 DUP2 ADD MLOAD DUP8 DUP7 ADD MSTORE DUP6 DUP2 ADD MLOAD DUP7 DUP7 ADD MSTORE PUSH1 0x60 SWAP1 DUP2 ADD MLOAD ISZERO ISZERO SWAP1 DUP6 ADD MSTORE PUSH1 0x80 SWAP1 SWAP4 ADD SWAP3 SWAP1 DUP6 ADD SWAP1 PUSH1 0x1 ADD PUSH2 0x1904 JUMP JUMPDEST POP SWAP2 SWAP8 SWAP7 POP POP POP POP POP POP POP JUMP JUMPDEST PUSH1 0x0 PUSH1 0x20 DUP3 DUP5 SUB SLT ISZERO PUSH2 0x1968 JUMPI PUSH1 0x0 DUP1 REVERT JUMPDEST DUP2 CALLDATALOAD PUSH1 0x1 PUSH1 0x1 PUSH1 0xA0 SHL SUB DUP2 AND DUP2 EQ PUSH2 0x197F JUMPI PUSH1 0x0 DUP1 REVERT JUMPDEST SWAP4 SWAP3 POP POP POP JUMP JUMPDEST PUSH1 0x1 DUP2 DUP2 SHR SWAP1 DUP3 AND DUP1 PUSH2 0x199A JUMPI PUSH1 0x7F DUP3 AND SWAP2 POP JUMPDEST PUSH1 0x20 DUP3 LT DUP2 SUB PUSH2 0x19BA JUMPI PUSH4 0x4E487B71 PUSH1 0xE0 SHL PUSH1 0x0 MSTORE PUSH1 0x22 PUSH1 0x4 MSTORE PUSH1 0x24 PUSH1 0x0 REVERT JUMPDEST POP SWAP2 SWAP1 POP JUMP JUMPDEST PUSH1 0x20 DUP1 DUP3 MSTORE PUSH1 0x11 SWAP1 DUP3 ADD MSTORE PUSH17 0x141C9BDA9958DD081B9BDD08199BDD5B99 PUSH1 0x7A SHL PUSH1 0x40 DUP3 ADD MSTORE PUSH1 0x60 ADD SWAP1 JUMP JUMPDEST PUSH4 0x4E487B71 PUSH1 0xE0 SHL PUSH1 0x0 MSTORE PUSH1 0x32 PUSH1 0x4 MSTORE PUSH1 0x24 PUSH1 0x0 REVERT JUMPDEST PUSH4 0x4E487B71 PUSH1 0xE0 SHL PUSH1 0x0 MSTORE PUSH1 0x11 PUSH1 0x4 MSTORE PUSH1 0x24 PUSH1 0x0 REVERT JUMPDEST DUP1 DUP3 ADD DUP1 DUP3 GT ISZERO PUSH2 0x1A2A JUMPI PUSH2 0x1A2A PUSH2 0x1A01 JUMP JUMPDEST SWAP3 SWAP2 POP POP JUMP JUMPDEST PUSH4 0x4E487B71 PUSH1 0xE0 SHL PUSH1 0x0 MSTORE PUSH1 0x41 PUSH1 0x4 MSTORE PUSH1 0x24 PUSH1 0x0 REVERT JUMPDEST PUSH1 0x0 PUSH1 0x1 DUP3 ADD PUSH2 0x1A58 JUMPI PUSH2 0x1A58 PUSH2 0x1A01 JUMP JUMPDEST POP PUSH1 0x1 ADD SWAP1 JUMP JUMPDEST DUP1 DUP3 MUL DUP2 ISZERO DUP3 DUP3 DIV DUP5 EQ OR PUSH2 0x1A2A JUMPI PUSH2 0x1A2A PUSH2 0x1A01 JUMP JUMPDEST PUSH1 0x0 DUP3 PUSH2 0x1A93 JUMPI PUSH4 0x4E487B71 PUSH1 0xE0 SHL PUSH1 0x0 MSTORE PUSH1 0x12 PUSH1 0x4 MSTORE PUSH1 0x24 PUSH1 0x0 REVERT JUMPDEST POP DIV SWAP1 JUMP JUMPDEST DUP2 DUP2 SUB DUP2 DUP2 GT ISZERO PUSH2 0x1A2A JUMPI PUSH2 0x1A2A PUSH2 0x1A01 JUMP INVALID LOG2 PUSH5 0x6970667358 0x22 SLT KECCAK256 0xB3 0x22 STOP 0x5E CODESIZE MLOAD ADDRESS CALLER 0xC0 SWAP12 0xE4 SWAP14 DIFFICULTY 0x4B 0xC7 0xA5 0xCB 0x4E PUSH32 0x55F115F5507E11FB5EAE320BBE64736F6C634300081100330000000000000000 "},"methodIdentifiers":{"balance()":"b69ef8a8","getAllSupporters()":"bb14b2e4","getSupporters(uint256)":"4f63829c","getTotalDonationsCount()":"48cefbda","getTotalSupportersCount()":"38d58384","owner()":"8da5cb5b","payOutProject(uint256)":"b531dcba","projectCount()":"36fbad26","projectExist(uint256)":"8593054b","projectTax()":"d24cd3ec","projects(uint256)":"107046bd","requestRefund(uint256)":"a4b2409e","stats()":"d80528ae","supportProject(uint256)":"329b0f9b","withdrawFunds()":"24600fc3","withdrawals(address)":"7a9262a2"}}}}}