{"src/contracts/DCharity.sol":{"DCharity":{"abi":[{"inputs":[{"internalType":"uint256","name":"_projectTax","type":"uint256"}],"stateMutability":"nonpayable","type":"constructor"},{"anonymous":false,"inputs":[{"indexed":false,"internalType":"uint256","name":"id","type":"uint256"},{"indexed":false,"internalType":"string","name":"actionType","type":"string"},{"indexed":true,"internalType":"address","name":"executor","type":"address"},{"indexed":false,"internalType":"uint256","name":"timestamp","type":"uint256"}],"name":"Action","type":"event"},{"inputs":[],"name":"balance","outputs":[{"internalType":"uint256","name":"","type":"uint256"}],"stateMutability":"view","type":"function"},{"inputs":[{"internalType":"uint256","name":"_taxPercentage","type":"uint256"}],"name":"changeTax","outputs":[],"stateMutability":"nonpayable","type":"function"},{"inputs":[{"internalType":"string","name":"title","type":"string"},{"internalType":"string","name":"description","type":"string"},{"internalType":"string","name":"imageURL","type":"string"},{"internalType":"uint256","name":"cost","type":"uint256"},{"internalType":"uint256","name":"expiresAt","type":"uint256"}],"name":"createProject","outputs":[{"internalType":"bool","name":"","type":"bool"}],"stateMutability":"nonpayable","type":"function"},{"inputs":[{"internalType":"uint256","name":"id","type":"uint256"}],"name":"deleteProject","outputs":[{"internalType":"bool","name":"","type":"bool"}],"stateMutability":"nonpayable","type":"function"},{"inputs":[{"internalType":"uint256","name":"id","type":"uint256"}],"name":"getProject","outputs":[{"components":[{"internalType":"uint256","name":"id","type":"uint256"},{"internalType":"address","name":"owner","type":"address"},{"internalType":"string","name":"title","type":"string"},{"internalType":"string","name":"description","type":"string"},{"internalType":"string","name":"imageURL","type":"string"},{"internalType":"uint256","name":"cost","type":"uint256"},{"internalType":"uint256","name":"raised","type":"uint256"},{"internalType":"uint256","name":"timestamp","type":"uint256"},{"internalType":"uint256","name":"expiresAt","type":"uint256"},{"internalType":"uint256","name":"supporters","type":"uint256"},{"internalType":"enum DCharity.statusEnum","name":"status","type":"uint8"}],"internalType":"struct DCharity.projectStruct","name":"","type":"tuple"}],"stateMutability":"view","type":"function"},{"inputs":[],"name":"getProjects","outputs":[{"components":[{"internalType":"uint256","name":"id","type":"uint256"},{"internalType":"address","name":"owner","type":"address"},{"internalType":"string","name":"title","type":"string"},{"internalType":"string","name":"description","type":"string"},{"internalType":"string","name":"imageURL","type":"string"},{"internalType":"uint256","name":"cost","type":"uint256"},{"internalType":"uint256","name":"raised","type":"uint256"},{"internalType":"uint256","name":"timestamp","type":"uint256"},{"internalType":"uint256","name":"expiresAt","type":"uint256"},{"internalType":"uint256","name":"supporters","type":"uint256"},{"internalType":"enum DCharity.statusEnum","name":"status","type":"uint8"}],"internalType":"struct DCharity.projectStruct[]","name":"","type":"tuple[]"}],"stateMutability":"view","type":"function"},{"inputs":[{"internalType":"uint256","name":"id","type":"uint256"}],"name":"getSupporters","outputs":[{"components":[{"internalType":"address","name":"owner","type":"address"},{"internalType":"uint256","name":"contribution","type":"uint256"},{"internalType":"uint256","name":"timestamp","type":"uint256"},{"internalType":"bool","name":"refunded","type":"bool"}],"internalType":"struct DCharity.supporterStruct[]","name":"","type":"tuple[]"}],"stateMutability":"view","type":"function"},{"inputs":[],"name":"owner","outputs":[{"internalType":"address","name":"","type":"address"}],"stateMutability":"view","type":"function"},{"inputs":[{"internalType":"uint256","name":"id","type":"uint256"}],"name":"payOutProject","outputs":[{"internalType":"bool","name":"","type":"bool"}],"stateMutability":"nonpayable","type":"function"},{"inputs":[],"name":"projectCount","outputs":[{"internalType":"uint256","name":"","type":"uint256"}],"stateMutability":"view","type":"function"},{"inputs":[{"internalType":"uint256","name":"","type":"uint256"}],"name":"projectExist","outputs":[{"internalType":"bool","name":"","type":"bool"}],"stateMutability":"view","type":"function"},{"inputs":[],"name":"projectTax","outputs":[{"internalType":"uint256","name":"","type":"uint256"}],"stateMutability":"view","type":"function"},{"inputs":[{"internalType":"uint256","name":"id","type":"uint256"}],"name":"requestRefund","outputs":[{"internalType":"bool","name":"","type":"bool"}],"stateMutability":"nonpayable","type":"function"},{"inputs":[],"name":"stats","outputs":[{"internalType":"uint256","name":"totalProjects","type":"uint256"},{"internalType":"uint256","name":"totalSupporters","type":"uint256"},{"internalType":"uint256","name":"totalDonations","type":"uint256"}],"stateMutability":"view","type":"function"},{"inputs":[{"internalType":"uint256","name":"id","type":"uint256"}],"name":"supportProject","outputs":[{"internalType":"bool","name":"","type":"bool"}],"stateMutability":"payable","type":"function"},{"inputs":[{"internalType":"uint256","name":"id","type":"uint256"},{"internalType":"string","name":"title","type":"string"},{"internalType":"string","name":"description","type":"string"},{"internalType":"string","name":"imageURL","type":"string"},{"internalType":"uint256","name":"expiresAt","type":"uint256"}],"name":"updateProject","outputs":[{"internalType":"bool","name":"","type":"bool"}],"stateMutability":"nonpayable","type":"function"}],"evm":{"bytecode":{"linkReferences":{},"object":"608060405234801561001057600080fd5b5060405161229238038061229283398101604081905261002f91610049565b600080546001600160a01b03191633179055600155610062565b60006020828403121561005b57600080fd5b5051919050565b612221806100716000396000f3fe6080604052600436106100f35760003560e01c80639a3fa8c71161008a578063d24cd3ec11610059578063d24cd3ec146102b1578063d80528ae146102c7578063dcc6012814610301578063f0f3f2c81461032357600080fd5b80639a3fa8c71461023b578063a4b2409e1461025b578063b531dcba1461027b578063b69ef8a81461029b57600080fd5b80634cd0cb28116100c65780634cd0cb28146101865780634f63829c146101a65780638593054b146101d35780638da5cb5b1461020357600080fd5b8063056c29ee146100f8578063329b0f9b1461012d57806336fbad26146101405780633e45c8af14610164575b600080fd5b34801561010457600080fd5b50610118610113366004611d2a565b610350565b60405190151581526020015b60405180910390f35b61011861013b366004611dc4565b6107bc565b34801561014c57600080fd5b5061015660025481565b604051908152602001610124565b34801561017057600080fd5b5061018461017f366004611dc4565b610bde565b005b34801561019257600080fd5b506101186101a1366004611dc4565b610c33565b3480156101b257600080fd5b506101c66101c1366004611dc4565b610db4565b6040516101249190611ddd565b3480156101df57600080fd5b506101186101ee366004611dc4565b600a6020526000908152604090205460ff1681565b34801561020f57600080fd5b50600054610223906001600160a01b031681565b6040516001600160a01b039091168152602001610124565b34801561024757600080fd5b50610118610256366004611e4c565b610e56565b34801561026757600080fd5b50610118610276366004611dc4565b6110cf565b34801561028757600080fd5b50610118610296366004611dc4565b6111c6565b3480156102a757600080fd5b5061015660035481565b3480156102bd57600080fd5b5061015660015481565b3480156102d357600080fd5b506004546005546006546102e692919083565b60408051938452602084019290925290820152606001610124565b34801561030d57600080fd5b506103166112b6565b6040516101249190612030565b34801561032f57600080fd5b5061034361033e366004611dc4565b611551565b6040516101249190612092565b6000808651116103a05760405162461bcd60e51b81526020600482015260166024820152755469746c652063616e6e6f7420626520656d7074792160501b60448201526064015b60405180910390fd5b60008551116103f15760405162461bcd60e51b815260206004820152601c60248201527f4465736372697074696f6e2063616e6e6f7420626520656d70747921000000006044820152606401610397565b600084511161043e5760405162461bcd60e51b8152602060048201526019602482015278496d61676555524c2063616e6e6f7420626520656d7074792160381b6044820152606401610397565b600083116104855760405162461bcd60e51b8152602060048201526014602482015273436f73742063616e6e6f74206265207a65726f2160601b6044820152606401610397565b61048d611b7b565b600254815233602080830191825260408301898152606084018990526080840188905260a084018790524260e085015261010084018690526007805460018101825560009190915284517fa66cc928b5edb82af9bd49922954155ab7b0942694bea4ce44661d9a8736c688600b90920291820190815593517fa66cc928b5edb82af9bd49922954155ab7b0942694bea4ce44661d9a8736c689820180546001600160a01b0319166001600160a01b039092169190911790559051805185949361057a937fa66cc928b5edb82af9bd49922954155ab7b0942694bea4ce44661d9a8736c68a01920190611bee565b5060608201518051610596916003840191602090910190611bee565b50608082015180516105b2916004840191602090910190611bee565b5060a0820151600582015560c0820151600682015560e0820151600782015561010082015160088201556101208201516009820155610140820151600a8201805460ff1916600183600481111561060b5761060b611f33565b021790555050600280546000908152600a602090815260408083208054600160ff1990911681179091553384526008835281842080548083018255908552938390208751600b909502019384558683015190840180546001600160a01b0319166001600160a01b039092169190911790558501518051869550929361069893908501929190910190611bee565b50606082015180516106b4916003840191602090910190611bee565b50608082015180516106d0916004840191602090910190611bee565b5060a0820151600582015560c0820151600682015560e0820151600782015561010082015160088201556101208201516009820155610140820151600a8201805460ff1916600183600481111561072957610729611f33565b0217905550505060016004600001600082825461074691906120c2565b90915550506002805433916000805160206121cc8339815191529190600061076d836120da565b9091555060408051918252606060208301819052600f908301526e141493d29150d50810d49150551151608a1b6080830152429082015260a00160405180910390a25060019695505050505050565b600080341161081c5760405162461bcd60e51b815260206004820152602660248201527f457468657220616d6f756e74206d7573742062652067726561746572207468616044820152656e207a65726f60d01b6064820152608401610397565b6000828152600a602052604090205460ff1661086e5760405162461bcd60e51b8152602060048201526011602482015270141c9bda9958dd081b9bdd08199bdd5b99607a1b6044820152606401610397565b600060078381548110610883576108836120f5565b60009182526020909120600a600b90920201015460ff1660048111156108ab576108ab611f33565b146108f85760405162461bcd60e51b815260206004820152601860248201527f50726f6a656374206e6f206c6f6e676572206f70656e656400000000000000006044820152606401610397565b60016004600101600082825461090e91906120c2565b9091555050600680543491906000906109289084906120c2565b925050819055503460078381548110610943576109436120f5565b90600052602060002090600b0201600601600082825461096391906120c2565b9250508190555060016007838154811061097f5761097f6120f5565b90600052602060002090600b0201600901600082825461099f91906120c2565b9091555050600082815260096020908152604080832081516080808201845233808352348387019081524284870181815260608087018b8152885460018082018b55998d529b8b902097516004909c0290970180546001600160a01b0319166001600160a01b03909c169b909b178b559251968a01969096559451600289015592516003909701805460ff1916971515979097179096558351888152948501829052600f918501919091526e141493d29150d508109050d2d15391608a1b90840152908201526000805160206121cc8339815191529060a00160405180910390a260078281548110610a9357610a936120f5565b90600052602060002090600b02016005015460078381548110610ab857610ab86120f5565b90600052602060002090600b02016006015410610b6357600160078381548110610ae457610ae46120f5565b60009182526020909120600a600b9092020101805460ff19166001836004811115610b1157610b11611f33565b021790555060078281548110610b2957610b296120f5565b90600052602060002090600b02016006015460036000828254610b4c91906120c2565b90915550610b5b905082611831565b506001919050565b60078281548110610b7657610b766120f5565b90600052602060002090600b0201600801544210610b5b57600260078381548110610ba357610ba36120f5565b60009182526020909120600a600b9092020101805460ff19166001836004811115610bd057610bd0611f33565b0217905550610b5b826119a8565b6000546001600160a01b03163314610c2e5760405162461bcd60e51b81526020600482015260136024820152724f776e6572207265736572766564206f6e6c7960681b6044820152606401610397565b600155565b60008060078381548110610c4957610c496120f5565b60009182526020909120600a600b90920201015460ff166004811115610c7157610c71611f33565b14610cbe5760405162461bcd60e51b815260206004820152601960248201527f50726f6a656374206e6f206c6f6e676572206f70656e656421000000000000006044820152606401610397565b60078281548110610cd157610cd16120f5565b60009182526020909120600b90910201600101546001600160a01b03163314610d0c5760405162461bcd60e51b81526004016103979061210b565b600360078381548110610d2157610d216120f5565b60009182526020909120600a600b9092020101805460ff19166001836004811115610d4e57610d4e611f33565b0217905550610d5c826119a8565b60408051838152606060208201819052600f908201526e141493d29150d50811115311551151608a1b60808201524281830152905133916000805160206121cc833981519152919081900360a00190a2506001919050565b606060096000838152602001908152602001600020805480602002602001604051908101604052809291908181526020016000905b82821015610e4b576000848152602090819020604080516080810182526004860290920180546001600160a01b03168352600180820154848601526002820154928401929092526003015460ff16151560608301529083529092019101610de9565b505050509050919050565b600060078681548110610e6b57610e6b6120f5565b60009182526020909120600b90910201600101546001600160a01b03163314610ea65760405162461bcd60e51b81526004016103979061210b565b6000855111610ef05760405162461bcd60e51b81526020600482015260166024820152755469746c652063616e6e6f7420626520656d7074792160501b6044820152606401610397565b6000845111610f415760405162461bcd60e51b815260206004820152601c60248201527f4465736372697074696f6e2063616e6e6f7420626520656d70747921000000006044820152606401610397565b6000835111610f8e5760405162461bcd60e51b8152602060048201526019602482015278496d61676555524c2063616e6e6f7420626520656d7074792160381b6044820152606401610397565b8460078781548110610fa257610fa26120f5565b90600052602060002090600b02016002019080519060200190610fc6929190611bee565b508360078781548110610fdb57610fdb6120f5565b90600052602060002090600b02016003019080519060200190610fff929190611bee565b508260078781548110611014576110146120f5565b90600052602060002090600b02016004019080519060200190611038929190611bee565b50816007878154811061104d5761104d6120f5565b90600052602060002090600b020160080181905550336001600160a01b03166000805160206121cc83398151915287426040516110bb929190918252606060208301819052600f908301526e141493d29150d50815541110551151608a1b6080830152604082015260a00190565b60405180910390a250600195945050505050565b60006002600783815481106110e6576110e66120f5565b60009182526020909120600a600b90920201015460ff16600481111561110e5761110e611f33565b141580611156575060036007838154811061112b5761112b6120f5565b60009182526020909120600a600b90920201015460ff16600481111561115357611153611f33565b14155b6111b15760405162461bcd60e51b815260206004820152602660248201527f50726f6a656374206e6f74206d61726b656420617320726576657274206f722060448201526564656c65746560d01b6064820152608401610397565b600260078381548110610ba357610ba36120f5565b60006001600783815481106111dd576111dd6120f5565b60009182526020909120600a600b90920201015460ff16600481111561120557611205611f33565b1461124a5760405162461bcd60e51b815260206004820152601560248201527450726f6a656374206e6f7420417070726f7665642160581b6044820152606401610397565b6007828154811061125d5761125d6120f5565b60009182526020909120600b90910201600101546001600160a01b031633148061129157506000546001600160a01b031633145b6112ad5760405162461bcd60e51b81526004016103979061210b565b610b5b82611831565b60606007805480602002602001604051908101604052809291908181526020016000905b828210156115485760008481526020908190206040805161016081018252600b86029092018054835260018101546001600160a01b0316938301939093526002830180549293929184019161132e90612138565b80601f016020809104026020016040519081016040528092919081815260200182805461135a90612138565b80156113a75780601f1061137c576101008083540402835291602001916113a7565b820191906000526020600020905b81548152906001019060200180831161138a57829003601f168201915b505050505081526020016003820180546113c090612138565b80601f01602080910402602001604051908101604052809291908181526020018280546113ec90612138565b80156114395780601f1061140e57610100808354040283529160200191611439565b820191906000526020600020905b81548152906001019060200180831161141c57829003601f168201915b5050505050815260200160048201805461145290612138565b80601f016020809104026020016040519081016040528092919081815260200182805461147e90612138565b80156114cb5780601f106114a0576101008083540402835291602001916114cb565b820191906000526020600020905b8154815290600101906020018083116114ae57829003601f168201915b505050918352505060058201546020820152600682015460408201526007820154606082015260088201546080820152600982015460a0820152600a82015460c09091019060ff16600481111561152457611524611f33565b600481111561153557611535611f33565b81525050815260200190600101906112da565b50505050905090565b611559611b7b565b6000828152600a602052604090205460ff166115ab5760405162461bcd60e51b8152602060048201526011602482015270141c9bda9958dd081b9bdd08199bdd5b99607a1b6044820152606401610397565b600782815481106115be576115be6120f5565b90600052602060002090600b020160405180610160016040529081600082015481526020016001820160009054906101000a90046001600160a01b03166001600160a01b03166001600160a01b0316815260200160028201805461162190612138565b80601f016020809104026020016040519081016040528092919081815260200182805461164d90612138565b801561169a5780601f1061166f5761010080835404028352916020019161169a565b820191906000526020600020905b81548152906001019060200180831161167d57829003601f168201915b505050505081526020016003820180546116b390612138565b80601f01602080910402602001604051908101604052809291908181526020018280546116df90612138565b801561172c5780601f106117015761010080835404028352916020019161172c565b820191906000526020600020905b81548152906001019060200180831161170f57829003601f168201915b5050505050815260200160048201805461174590612138565b80601f016020809104026020016040519081016040528092919081815260200182805461177190612138565b80156117be5780601f10611793576101008083540402835291602001916117be565b820191906000526020600020905b8154815290600101906020018083116117a157829003601f168201915b505050918352505060058201546020820152600682015460408201526007820154606082015260088201546080820152600982015460a0820152600a82015460c09091019060ff16600481111561181757611817611f33565b600481111561182857611828611f33565b90525092915050565b600060078281548110611846576118466120f5565b90600052602060002090600b0201600601549050600060646001548361186c9190612173565b6118769190612192565b905060046007848154811061188d5761188d6120f5565b60009182526020909120600a600b9092020101805460ff191660018360048111156118ba576118ba611f33565b0217905550611901600784815481106118d5576118d56120f5565b600091825260209091206001600b9092020101546001600160a01b03166118fc83856121b4565b611b16565b600054611917906001600160a01b031682611b16565b6007838154811061192a5761192a6120f5565b90600052602060002090600b0201600601546003600082825461194d91906121b4565b9091555050604080518481526060602082018190526010908201526f141493d29150d508141052510813d55560821b60808201524281830152905133916000805160206121cc833981519152919081900360a00190a2505050565b60005b600082815260096020526040902054811015611b125760008281526009602052604081208054839081106119e1576119e16120f5565b6000918252602080832060049092029091015485835260099091526040822080546001600160a01b0390921693509084908110611a2057611a206120f5565b90600052602060002090600402016001015490506001600960008681526020019081526020016000208481548110611a5a57611a5a6120f5565b906000526020600020906004020160030160006101000a81548160ff02191690831515021790555042600960008681526020019081526020016000208481548110611aa757611aa76120f5565b906000526020600020906004020160020181905550611ac68282611b16565b600160046001016000828254611adc91906121b4565b909155505060068054829190600090611af69084906121b4565b9250508190555050508080611b0a906120da565b9150506119ab565b5050565b6000826001600160a01b03168260405160006040518083038185875af1925050503d8060008114611b63576040519150601f19603f3d011682016040523d82523d6000602084013e611b68565b606091505b5050905080611b7657600080fd5b505050565b6040518061016001604052806000815260200160006001600160a01b03168152602001606081526020016060815260200160608152602001600081526020016000815260200160008152602001600081526020016000815260200160006004811115611be957611be9611f33565b905290565b828054611bfa90612138565b90600052602060002090601f016020900481019282611c1c5760008555611c62565b82601f10611c3557805160ff1916838001178555611c62565b82800160010185558215611c62579182015b82811115611c62578251825591602001919060010190611c47565b50611c6e929150611c72565b5090565b5b80821115611c6e5760008155600101611c73565b634e487b7160e01b600052604160045260246000fd5b600082601f830112611cae57600080fd5b813567ffffffffffffffff80821115611cc957611cc9611c87565b604051601f8301601f19908116603f01168101908282118183101715611cf157611cf1611c87565b81604052838152866020858801011115611d0a57600080fd5b836020870160208301376000602085830101528094505050505092915050565b600080600080600060a08688031215611d4257600080fd5b853567ffffffffffffffff80821115611d5a57600080fd5b611d6689838a01611c9d565b96506020880135915080821115611d7c57600080fd5b611d8889838a01611c9d565b95506040880135915080821115611d9e57600080fd5b50611dab88828901611c9d565b9598949750949560608101359550608001359392505050565b600060208284031215611dd657600080fd5b5035919050565b602080825282518282018190526000919060409081850190868401855b82811015611e3f57815180516001600160a01b031685528681015187860152858101518686015260609081015115159085015260809093019290850190600101611dfa565b5091979650505050505050565b600080600080600060a08688031215611e6457600080fd5b85359450602086013567ffffffffffffffff80821115611e8357600080fd5b611e8f89838a01611c9d565b95506040880135915080821115611ea557600080fd5b611eb189838a01611c9d565b94506060880135915080821115611ec757600080fd5b50611ed488828901611c9d565b95989497509295608001359392505050565b6000815180845260005b81811015611f0c57602081850181015186830182015201611ef0565b81811115611f1e576000602083870101525b50601f01601f19169290920160200192915050565b634e487b7160e01b600052602160045260246000fd5b60058110611f6757634e487b7160e01b600052602160045260246000fd5b9052565b6000610160825184526020830151611f8e60208601826001600160a01b03169052565b506040830151816040860152611fa682860182611ee6565b91505060608301518482036060860152611fc08282611ee6565b91505060808301518482036080860152611fda8282611ee6565b91505060a083015160a085015260c083015160c085015260e083015160e08501526101008084015181860152506101208084015181860152506101408084015161202682870182611f49565b5090949350505050565b6000602080830181845280855180835260408601915060408160051b870101925083870160005b8281101561208557603f19888603018452612073858351611f6b565b94509285019290850190600101612057565b5092979650505050505050565b6020815260006120a56020830184611f6b565b9392505050565b634e487b7160e01b600052601160045260246000fd5b600082198211156120d5576120d56120ac565b500190565b60006000198214156120ee576120ee6120ac565b5060010190565b634e487b7160e01b600052603260045260246000fd5b602080825260139082015272556e617574686f72697a656420456e7469747960681b604082015260600190565b600181811c9082168061214c57607f821691505b6020821081141561216d57634e487b7160e01b600052602260045260246000fd5b50919050565b600081600019048311821515161561218d5761218d6120ac565b500290565b6000826121af57634e487b7160e01b600052601260045260246000fd5b500490565b6000828210156121c6576121c66120ac565b50039056feaee8e5d3bbb2f71a951b5632cee20f7ac487b9f8ab4f66a236f7694b13af7c6aa26469706673582212202570c10d5474235baf12f8d620d93607cdf517bf31430648ba7b61c56eee6e1c64736f6c634300080b0033","opcodes":"PUSH1 0x80 PUSH1 0x40 MSTORE CALLVALUE DUP1 ISZERO PUSH2 0x10 JUMPI PUSH1 0x0 DUP1 REVERT JUMPDEST POP PUSH1 0x40 MLOAD PUSH2 0x2292 CODESIZE SUB DUP1 PUSH2 0x2292 DUP4 CODECOPY DUP2 ADD PUSH1 0x40 DUP2 SWAP1 MSTORE PUSH2 0x2F SWAP2 PUSH2 0x49 JUMP JUMPDEST PUSH1 0x0 DUP1 SLOAD PUSH1 0x1 PUSH1 0x1 PUSH1 0xA0 SHL SUB NOT AND CALLER OR SWAP1 SSTORE PUSH1 0x1 SSTORE PUSH2 0x62 JUMP JUMPDEST PUSH1 0x0 PUSH1 0x20 DUP3 DUP5 SUB SLT ISZERO PUSH2 0x5B JUMPI PUSH1 0x0 DUP1 REVERT JUMPDEST POP MLOAD SWAP2 SWAP1 POP JUMP JUMPDEST PUSH2 0x2221 DUP1 PUSH2 0x71 PUSH1 0x0 CODECOPY PUSH1 0x0 RETURN INVALID PUSH1 0x80 PUSH1 0x40 MSTORE PUSH1 0x4 CALLDATASIZE LT PUSH2 0xF3 JUMPI PUSH1 0x0 CALLDATALOAD PUSH1 0xE0 SHR DUP1 PUSH4 0x9A3FA8C7 GT PUSH2 0x8A JUMPI DUP1 PUSH4 0xD24CD3EC GT PUSH2 0x59 JUMPI DUP1 PUSH4 0xD24CD3EC EQ PUSH2 0x2B1 JUMPI DUP1 PUSH4 0xD80528AE EQ PUSH2 0x2C7 JUMPI DUP1 PUSH4 0xDCC60128 EQ PUSH2 0x301 JUMPI DUP1 PUSH4 0xF0F3F2C8 EQ PUSH2 0x323 JUMPI PUSH1 0x0 DUP1 REVERT JUMPDEST DUP1 PUSH4 0x9A3FA8C7 EQ PUSH2 0x23B JUMPI DUP1 PUSH4 0xA4B2409E EQ PUSH2 0x25B JUMPI DUP1 PUSH4 0xB531DCBA EQ PUSH2 0x27B JUMPI DUP1 PUSH4 0xB69EF8A8 EQ PUSH2 0x29B JUMPI PUSH1 0x0 DUP1 REVERT JUMPDEST DUP1 PUSH4 0x4CD0CB28 GT PUSH2 0xC6 JUMPI DUP1 PUSH4 0x4CD0CB28 EQ PUSH2 0x186 JUMPI DUP1 PUSH4 0x4F63829C EQ PUSH2 0x1A6 JUMPI DUP1 PUSH4 0x8593054B EQ PUSH2 0x1D3 JUMPI DUP1 PUSH4 0x8DA5CB5B EQ PUSH2 0x203 JUMPI PUSH1 0x0 DUP1 REVERT JUMPDEST DUP1 PUSH4 0x56C29EE EQ PUSH2 0xF8 JUMPI DUP1 PUSH4 0x329B0F9B EQ PUSH2 0x12D JUMPI DUP1 PUSH4 0x36FBAD26 EQ PUSH2 0x140 JUMPI DUP1 PUSH4 0x3E45C8AF EQ PUSH2 0x164 JUMPI JUMPDEST PUSH1 0x0 DUP1 REVERT JUMPDEST CALLVALUE DUP1 ISZERO PUSH2 0x104 JUMPI PUSH1 0x0 DUP1 REVERT JUMPDEST POP PUSH2 0x118 PUSH2 0x113 CALLDATASIZE PUSH1 0x4 PUSH2 0x1D2A JUMP JUMPDEST PUSH2 0x350 JUMP JUMPDEST PUSH1 0x40 MLOAD SWAP1 ISZERO ISZERO DUP2 MSTORE PUSH1 0x20 ADD JUMPDEST PUSH1 0x40 MLOAD DUP1 SWAP2 SUB SWAP1 RETURN JUMPDEST PUSH2 0x118 PUSH2 0x13B CALLDATASIZE PUSH1 0x4 PUSH2 0x1DC4 JUMP JUMPDEST PUSH2 0x7BC JUMP JUMPDEST CALLVALUE DUP1 ISZERO PUSH2 0x14C JUMPI PUSH1 0x0 DUP1 REVERT JUMPDEST POP PUSH2 0x156 PUSH1 0x2 SLOAD DUP2 JUMP JUMPDEST PUSH1 0x40 MLOAD SWAP1 DUP2 MSTORE PUSH1 0x20 ADD PUSH2 0x124 JUMP JUMPDEST CALLVALUE DUP1 ISZERO PUSH2 0x170 JUMPI PUSH1 0x0 DUP1 REVERT JUMPDEST POP PUSH2 0x184 PUSH2 0x17F CALLDATASIZE PUSH1 0x4 PUSH2 0x1DC4 JUMP JUMPDEST PUSH2 0xBDE JUMP JUMPDEST STOP JUMPDEST CALLVALUE DUP1 ISZERO PUSH2 0x192 JUMPI PUSH1 0x0 DUP1 REVERT JUMPDEST POP PUSH2 0x118 PUSH2 0x1A1 CALLDATASIZE PUSH1 0x4 PUSH2 0x1DC4 JUMP JUMPDEST PUSH2 0xC33 JUMP JUMPDEST CALLVALUE DUP1 ISZERO PUSH2 0x1B2 JUMPI PUSH1 0x0 DUP1 REVERT JUMPDEST POP PUSH2 0x1C6 PUSH2 0x1C1 CALLDATASIZE PUSH1 0x4 PUSH2 0x1DC4 JUMP JUMPDEST PUSH2 0xDB4 JUMP JUMPDEST PUSH1 0x40 MLOAD PUSH2 0x124 SWAP2 SWAP1 PUSH2 0x1DDD JUMP JUMPDEST CALLVALUE DUP1 ISZERO PUSH2 0x1DF JUMPI PUSH1 0x0 DUP1 REVERT JUMPDEST POP PUSH2 0x118 PUSH2 0x1EE CALLDATASIZE PUSH1 0x4 PUSH2 0x1DC4 JUMP JUMPDEST PUSH1 0xA PUSH1 0x20 MSTORE PUSH1 0x0 SWAP1 DUP2 MSTORE PUSH1 0x40 SWAP1 KECCAK256 SLOAD PUSH1 0xFF AND DUP2 JUMP JUMPDEST CALLVALUE DUP1 ISZERO PUSH2 0x20F JUMPI PUSH1 0x0 DUP1 REVERT JUMPDEST POP PUSH1 0x0 SLOAD PUSH2 0x223 SWAP1 PUSH1 0x1 PUSH1 0x1 PUSH1 0xA0 SHL SUB AND DUP2 JUMP JUMPDEST PUSH1 0x40 MLOAD PUSH1 0x1 PUSH1 0x1 PUSH1 0xA0 SHL SUB SWAP1 SWAP2 AND DUP2 MSTORE PUSH1 0x20 ADD PUSH2 0x124 JUMP JUMPDEST CALLVALUE DUP1 ISZERO PUSH2 0x247 JUMPI PUSH1 0x0 DUP1 REVERT JUMPDEST POP PUSH2 0x118 PUSH2 0x256 CALLDATASIZE PUSH1 0x4 PUSH2 0x1E4C JUMP JUMPDEST PUSH2 0xE56 JUMP JUMPDEST CALLVALUE DUP1 ISZERO PUSH2 0x267 JUMPI PUSH1 0x0 DUP1 REVERT JUMPDEST POP PUSH2 0x118 PUSH2 0x276 CALLDATASIZE PUSH1 0x4 PUSH2 0x1DC4 JUMP JUMPDEST PUSH2 0x10CF JUMP JUMPDEST CALLVALUE DUP1 ISZERO PUSH2 0x287 JUMPI PUSH1 0x0 DUP1 REVERT JUMPDEST POP PUSH2 0x118 PUSH2 0x296 CALLDATASIZE PUSH1 0x4 PUSH2 0x1DC4 JUMP JUMPDEST PUSH2 0x11C6 JUMP JUMPDEST CALLVALUE DUP1 ISZERO PUSH2 0x2A7 JUMPI PUSH1 0x0 DUP1 REVERT JUMPDEST POP PUSH2 0x156 PUSH1 0x3 SLOAD DUP2 JUMP JUMPDEST CALLVALUE DUP1 ISZERO PUSH2 0x2BD JUMPI PUSH1 0x0 DUP1 REVERT JUMPDEST POP PUSH2 0x156 PUSH1 0x1 SLOAD DUP2 JUMP JUMPDEST CALLVALUE DUP1 ISZERO PUSH2 0x2D3 JUMPI PUSH1 0x0 DUP1 REVERT JUMPDEST POP PUSH1 0x4 SLOAD PUSH1 0x5 SLOAD PUSH1 0x6 SLOAD PUSH2 0x2E6 SWAP3 SWAP2 SWAP1 DUP4 JUMP JUMPDEST PUSH1 0x40 DUP1 MLOAD SWAP4 DUP5 MSTORE PUSH1 0x20 DUP5 ADD SWAP3 SWAP1 SWAP3 MSTORE SWAP1 DUP3 ADD MSTORE PUSH1 0x60 ADD PUSH2 0x124 JUMP JUMPDEST CALLVALUE DUP1 ISZERO PUSH2 0x30D JUMPI PUSH1 0x0 DUP1 REVERT JUMPDEST POP PUSH2 0x316 PUSH2 0x12B6 JUMP JUMPDEST PUSH1 0x40 MLOAD PUSH2 0x124 SWAP2 SWAP1 PUSH2 0x2030 JUMP JUMPDEST CALLVALUE DUP1 ISZERO PUSH2 0x32F JUMPI PUSH1 0x0 DUP1 REVERT JUMPDEST POP PUSH2 0x343 PUSH2 0x33E CALLDATASIZE PUSH1 0x4 PUSH2 0x1DC4 JUMP JUMPDEST PUSH2 0x1551 JUMP JUMPDEST PUSH1 0x40 MLOAD PUSH2 0x124 SWAP2 SWAP1 PUSH2 0x2092 JUMP JUMPDEST PUSH1 0x0 DUP1 DUP7 MLOAD GT PUSH2 0x3A0 JUMPI PUSH1 0x40 MLOAD PUSH3 0x461BCD PUSH1 0xE5 SHL DUP2 MSTORE PUSH1 0x20 PUSH1 0x4 DUP3 ADD MSTORE PUSH1 0x16 PUSH1 0x24 DUP3 ADD MSTORE PUSH22 0x5469746C652063616E6E6F7420626520656D70747921 PUSH1 0x50 SHL PUSH1 0x44 DUP3 ADD MSTORE PUSH1 0x64 ADD JUMPDEST PUSH1 0x40 MLOAD DUP1 SWAP2 SUB SWAP1 REVERT JUMPDEST PUSH1 0x0 DUP6 MLOAD GT PUSH2 0x3F1 JUMPI PUSH1 0x40 MLOAD PUSH3 0x461BCD PUSH1 0xE5 SHL DUP2 MSTORE PUSH1 0x20 PUSH1 0x4 DUP3 ADD MSTORE PUSH1 0x1C PUSH1 0x24 DUP3 ADD MSTORE PUSH32 0x4465736372697074696F6E2063616E6E6F7420626520656D7074792100000000 PUSH1 0x44 DUP3 ADD MSTORE PUSH1 0x64 ADD PUSH2 0x397 JUMP JUMPDEST PUSH1 0x0 DUP5 MLOAD GT PUSH2 0x43E JUMPI PUSH1 0x40 MLOAD PUSH3 0x461BCD PUSH1 0xE5 SHL DUP2 MSTORE PUSH1 0x20 PUSH1 0x4 DUP3 ADD MSTORE PUSH1 0x19 PUSH1 0x24 DUP3 ADD MSTORE PUSH25 0x496D61676555524C2063616E6E6F7420626520656D70747921 PUSH1 0x38 SHL PUSH1 0x44 DUP3 ADD MSTORE PUSH1 0x64 ADD PUSH2 0x397 JUMP JUMPDEST PUSH1 0x0 DUP4 GT PUSH2 0x485 JUMPI PUSH1 0x40 MLOAD PUSH3 0x461BCD PUSH1 0xE5 SHL DUP2 MSTORE PUSH1 0x20 PUSH1 0x4 DUP3 ADD MSTORE PUSH1 0x14 PUSH1 0x24 DUP3 ADD MSTORE PUSH20 0x436F73742063616E6E6F74206265207A65726F21 PUSH1 0x60 SHL PUSH1 0x44 DUP3 ADD MSTORE PUSH1 0x64 ADD PUSH2 0x397 JUMP JUMPDEST PUSH2 0x48D PUSH2 0x1B7B JUMP JUMPDEST PUSH1 0x2 SLOAD DUP2 MSTORE CALLER PUSH1 0x20 DUP1 DUP4 ADD SWAP2 DUP3 MSTORE PUSH1 0x40 DUP4 ADD DUP10 DUP2 MSTORE PUSH1 0x60 DUP5 ADD DUP10 SWAP1 MSTORE PUSH1 0x80 DUP5 ADD DUP9 SWAP1 MSTORE PUSH1 0xA0 DUP5 ADD DUP8 SWAP1 MSTORE TIMESTAMP PUSH1 0xE0 DUP6 ADD MSTORE PUSH2 0x100 DUP5 ADD DUP7 SWAP1 MSTORE PUSH1 0x7 DUP1 SLOAD PUSH1 0x1 DUP2 ADD DUP3 SSTORE PUSH1 0x0 SWAP2 SWAP1 SWAP2 MSTORE DUP5 MLOAD PUSH32 0xA66CC928B5EDB82AF9BD49922954155AB7B0942694BEA4CE44661D9A8736C688 PUSH1 0xB SWAP1 SWAP3 MUL SWAP2 DUP3 ADD SWAP1 DUP2 SSTORE SWAP4 MLOAD PUSH32 0xA66CC928B5EDB82AF9BD49922954155AB7B0942694BEA4CE44661D9A8736C689 DUP3 ADD DUP1 SLOAD PUSH1 0x1 PUSH1 0x1 PUSH1 0xA0 SHL SUB NOT AND PUSH1 0x1 PUSH1 0x1 PUSH1 0xA0 SHL SUB SWAP1 SWAP3 AND SWAP2 SWAP1 SWAP2 OR SWAP1 SSTORE SWAP1 MLOAD DUP1 MLOAD DUP6 SWAP5 SWAP4 PUSH2 0x57A SWAP4 PUSH32 0xA66CC928B5EDB82AF9BD49922954155AB7B0942694BEA4CE44661D9A8736C68A ADD SWAP3 ADD SWAP1 PUSH2 0x1BEE JUMP JUMPDEST POP PUSH1 0x60 DUP3 ADD MLOAD DUP1 MLOAD PUSH2 0x596 SWAP2 PUSH1 0x3 DUP5 ADD SWAP2 PUSH1 0x20 SWAP1 SWAP2 ADD SWAP1 PUSH2 0x1BEE JUMP JUMPDEST POP PUSH1 0x80 DUP3 ADD MLOAD DUP1 MLOAD PUSH2 0x5B2 SWAP2 PUSH1 0x4 DUP5 ADD SWAP2 PUSH1 0x20 SWAP1 SWAP2 ADD SWAP1 PUSH2 0x1BEE JUMP JUMPDEST POP PUSH1 0xA0 DUP3 ADD MLOAD PUSH1 0x5 DUP3 ADD SSTORE PUSH1 0xC0 DUP3 ADD MLOAD PUSH1 0x6 DUP3 ADD SSTORE PUSH1 0xE0 DUP3 ADD MLOAD PUSH1 0x7 DUP3 ADD SSTORE PUSH2 0x100 DUP3 ADD MLOAD PUSH1 0x8 DUP3 ADD SSTORE PUSH2 0x120 DUP3 ADD MLOAD PUSH1 0x9 DUP3 ADD SSTORE PUSH2 0x140 DUP3 ADD MLOAD PUSH1 0xA DUP3 ADD DUP1 SLOAD PUSH1 0xFF NOT AND PUSH1 0x1 DUP4 PUSH1 0x4 DUP2 GT ISZERO PUSH2 0x60B JUMPI PUSH2 0x60B PUSH2 0x1F33 JUMP JUMPDEST MUL OR SWAP1 SSTORE POP POP PUSH1 0x2 DUP1 SLOAD PUSH1 0x0 SWAP1 DUP2 MSTORE PUSH1 0xA PUSH1 0x20 SWAP1 DUP2 MSTORE PUSH1 0x40 DUP1 DUP4 KECCAK256 DUP1 SLOAD PUSH1 0x1 PUSH1 0xFF NOT SWAP1 SWAP2 AND DUP2 OR SWAP1 SWAP2 SSTORE CALLER DUP5 MSTORE PUSH1 0x8 DUP4 MSTORE DUP2 DUP5 KECCAK256 DUP1 SLOAD DUP1 DUP4 ADD DUP3 SSTORE SWAP1 DUP6 MSTORE SWAP4 DUP4 SWAP1 KECCAK256 DUP8 MLOAD PUSH1 0xB SWAP1 SWAP6 MUL ADD SWAP4 DUP5 SSTORE DUP7 DUP4 ADD MLOAD SWAP1 DUP5 ADD DUP1 SLOAD PUSH1 0x1 PUSH1 0x1 PUSH1 0xA0 SHL SUB NOT AND PUSH1 0x1 PUSH1 0x1 PUSH1 0xA0 SHL SUB SWAP1 SWAP3 AND SWAP2 SWAP1 SWAP2 OR SWAP1 SSTORE DUP6 ADD MLOAD DUP1 MLOAD DUP7 SWAP6 POP SWAP3 SWAP4 PUSH2 0x698 SWAP4 SWAP1 DUP6 ADD SWAP3 SWAP2 SWAP1 SWAP2 ADD SWAP1 PUSH2 0x1BEE JUMP JUMPDEST POP PUSH1 0x60 DUP3 ADD MLOAD DUP1 MLOAD PUSH2 0x6B4 SWAP2 PUSH1 0x3 DUP5 ADD SWAP2 PUSH1 0x20 SWAP1 SWAP2 ADD SWAP1 PUSH2 0x1BEE JUMP JUMPDEST POP PUSH1 0x80 DUP3 ADD MLOAD DUP1 MLOAD PUSH2 0x6D0 SWAP2 PUSH1 0x4 DUP5 ADD SWAP2 PUSH1 0x20 SWAP1 SWAP2 ADD SWAP1 PUSH2 0x1BEE JUMP JUMPDEST POP PUSH1 0xA0 DUP3 ADD MLOAD PUSH1 0x5 DUP3 ADD SSTORE PUSH1 0xC0 DUP3 ADD MLOAD PUSH1 0x6 DUP3 ADD SSTORE PUSH1 0xE0 DUP3 ADD MLOAD PUSH1 0x7 DUP3 ADD SSTORE PUSH2 0x100 DUP3 ADD MLOAD PUSH1 0x8 DUP3 ADD SSTORE PUSH2 0x120 DUP3 ADD MLOAD PUSH1 0x9 DUP3 ADD SSTORE PUSH2 0x140 DUP3 ADD MLOAD PUSH1 0xA DUP3 ADD DUP1 SLOAD PUSH1 0xFF NOT AND PUSH1 0x1 DUP4 PUSH1 0x4 DUP2 GT ISZERO PUSH2 0x729 JUMPI PUSH2 0x729 PUSH2 0x1F33 JUMP JUMPDEST MUL OR SWAP1 SSTORE POP POP POP PUSH1 0x1 PUSH1 0x4 PUSH1 0x0 ADD PUSH1 0x0 DUP3 DUP3 SLOAD PUSH2 0x746 SWAP2 SWAP1 PUSH2 0x20C2 JUMP JUMPDEST SWAP1 SWAP2 SSTORE POP POP PUSH1 0x2 DUP1 SLOAD CALLER SWAP2 PUSH1 0x0 DUP1 MLOAD PUSH1 0x20 PUSH2 0x21CC DUP4 CODECOPY DUP2 MLOAD SWAP2 MSTORE SWAP2 SWAP1 PUSH1 0x0 PUSH2 0x76D DUP4 PUSH2 0x20DA JUMP JUMPDEST SWAP1 SWAP2 SSTORE POP PUSH1 0x40 DUP1 MLOAD SWAP2 DUP3 MSTORE PUSH1 0x60 PUSH1 0x20 DUP4 ADD DUP2 SWAP1 MSTORE PUSH1 0xF SWAP1 DUP4 ADD MSTORE PUSH15 0x141493D29150D50810D49150551151 PUSH1 0x8A SHL PUSH1 0x80 DUP4 ADD MSTORE TIMESTAMP SWAP1 DUP3 ADD MSTORE PUSH1 0xA0 ADD PUSH1 0x40 MLOAD DUP1 SWAP2 SUB SWAP1 LOG2 POP PUSH1 0x1 SWAP7 SWAP6 POP POP POP POP POP POP JUMP JUMPDEST PUSH1 0x0 DUP1 CALLVALUE GT PUSH2 0x81C JUMPI PUSH1 0x40 MLOAD PUSH3 0x461BCD PUSH1 0xE5 SHL DUP2 MSTORE PUSH1 0x20 PUSH1 0x4 DUP3 ADD MSTORE PUSH1 0x26 PUSH1 0x24 DUP3 ADD MSTORE PUSH32 0x457468657220616D6F756E74206D757374206265206772656174657220746861 PUSH1 0x44 DUP3 ADD MSTORE PUSH6 0x6E207A65726F PUSH1 0xD0 SHL PUSH1 0x64 DUP3 ADD MSTORE PUSH1 0x84 ADD PUSH2 0x397 JUMP JUMPDEST PUSH1 0x0 DUP3 DUP2 MSTORE PUSH1 0xA PUSH1 0x20 MSTORE PUSH1 0x40 SWAP1 KECCAK256 SLOAD PUSH1 0xFF AND PUSH2 0x86E JUMPI PUSH1 0x40 MLOAD PUSH3 0x461BCD PUSH1 0xE5 SHL DUP2 MSTORE PUSH1 0x20 PUSH1 0x4 DUP3 ADD MSTORE PUSH1 0x11 PUSH1 0x24 DUP3 ADD MSTORE PUSH17 0x141C9BDA9958DD081B9BDD08199BDD5B99 PUSH1 0x7A SHL PUSH1 0x44 DUP3 ADD MSTORE PUSH1 0x64 ADD PUSH2 0x397 JUMP JUMPDEST PUSH1 0x0 PUSH1 0x7 DUP4 DUP2 SLOAD DUP2 LT PUSH2 0x883 JUMPI PUSH2 0x883 PUSH2 0x20F5 JUMP JUMPDEST PUSH1 0x0 SWAP2 DUP3 MSTORE PUSH1 0x20 SWAP1 SWAP2 KECCAK256 PUSH1 0xA PUSH1 0xB SWAP1 SWAP3 MUL ADD ADD SLOAD PUSH1 0xFF AND PUSH1 0x4 DUP2 GT ISZERO PUSH2 0x8AB JUMPI PUSH2 0x8AB PUSH2 0x1F33 JUMP JUMPDEST EQ PUSH2 0x8F8 JUMPI PUSH1 0x40 MLOAD PUSH3 0x461BCD PUSH1 0xE5 SHL DUP2 MSTORE PUSH1 0x20 PUSH1 0x4 DUP3 ADD MSTORE PUSH1 0x18 PUSH1 0x24 DUP3 ADD MSTORE PUSH32 0x50726F6A656374206E6F206C6F6E676572206F70656E65640000000000000000 PUSH1 0x44 DUP3 ADD MSTORE PUSH1 0x64 ADD PUSH2 0x397 JUMP JUMPDEST PUSH1 0x1 PUSH1 0x4 PUSH1 0x1 ADD PUSH1 0x0 DUP3 DUP3 SLOAD PUSH2 0x90E SWAP2 SWAP1 PUSH2 0x20C2 JUMP JUMPDEST SWAP1 SWAP2 SSTORE POP POP PUSH1 0x6 DUP1 SLOAD CALLVALUE SWAP2 SWAP1 PUSH1 0x0 SWAP1 PUSH2 0x928 SWAP1 DUP5 SWAP1 PUSH2 0x20C2 JUMP JUMPDEST SWAP3 POP POP DUP2 SWAP1 SSTORE POP CALLVALUE PUSH1 0x7 DUP4 DUP2 SLOAD DUP2 LT PUSH2 0x943 JUMPI PUSH2 0x943 PUSH2 0x20F5 JUMP JUMPDEST SWAP1 PUSH1 0x0 MSTORE PUSH1 0x20 PUSH1 0x0 KECCAK256 SWAP1 PUSH1 0xB MUL ADD PUSH1 0x6 ADD PUSH1 0x0 DUP3 DUP3 SLOAD PUSH2 0x963 SWAP2 SWAP1 PUSH2 0x20C2 JUMP JUMPDEST SWAP3 POP POP DUP2 SWAP1 SSTORE POP PUSH1 0x1 PUSH1 0x7 DUP4 DUP2 SLOAD DUP2 LT PUSH2 0x97F JUMPI PUSH2 0x97F PUSH2 0x20F5 JUMP JUMPDEST SWAP1 PUSH1 0x0 MSTORE PUSH1 0x20 PUSH1 0x0 KECCAK256 SWAP1 PUSH1 0xB MUL ADD PUSH1 0x9 ADD PUSH1 0x0 DUP3 DUP3 SLOAD PUSH2 0x99F SWAP2 SWAP1 PUSH2 0x20C2 JUMP JUMPDEST SWAP1 SWAP2 SSTORE POP POP PUSH1 0x0 DUP3 DUP2 MSTORE PUSH1 0x9 PUSH1 0x20 SWAP1 DUP2 MSTORE PUSH1 0x40 DUP1 DUP4 KECCAK256 DUP2 MLOAD PUSH1 0x80 DUP1 DUP3 ADD DUP5 MSTORE CALLER DUP1 DUP4 MSTORE CALLVALUE DUP4 DUP8 ADD SWAP1 DUP2 MSTORE TIMESTAMP DUP5 DUP8 ADD DUP2 DUP2 MSTORE PUSH1 0x60 DUP1 DUP8 ADD DUP12 DUP2 MSTORE DUP9 SLOAD PUSH1 0x1 DUP1 DUP3 ADD DUP12 SSTORE SWAP10 DUP14 MSTORE SWAP12 DUP12 SWAP1 KECCAK256 SWAP8 MLOAD PUSH1 0x4 SWAP1 SWAP13 MUL SWAP1 SWAP8 ADD DUP1 SLOAD PUSH1 0x1 PUSH1 0x1 PUSH1 0xA0 SHL SUB NOT AND PUSH1 0x1 PUSH1 0x1 PUSH1 0xA0 SHL SUB SWAP1 SWAP13 AND SWAP12 SWAP1 SWAP12 OR DUP12 SSTORE SWAP3 MLOAD SWAP7 DUP11 ADD SWAP7 SWAP1 SWAP7 SSTORE SWAP5 MLOAD PUSH1 0x2 DUP10 ADD SSTORE SWAP3 MLOAD PUSH1 0x3 SWAP1 SWAP8 ADD DUP1 SLOAD PUSH1 0xFF NOT AND SWAP8 ISZERO ISZERO SWAP8 SWAP1 SWAP8 OR SWAP1 SWAP7 SSTORE DUP4 MLOAD DUP9 DUP2 MSTORE SWAP5 DUP6 ADD DUP3 SWAP1 MSTORE PUSH1 0xF SWAP2 DUP6 ADD SWAP2 SWAP1 SWAP2 MSTORE PUSH15 0x141493D29150D508109050D2D15391 PUSH1 0x8A SHL SWAP1 DUP5 ADD MSTORE SWAP1 DUP3 ADD MSTORE PUSH1 0x0 DUP1 MLOAD PUSH1 0x20 PUSH2 0x21CC DUP4 CODECOPY DUP2 MLOAD SWAP2 MSTORE SWAP1 PUSH1 0xA0 ADD PUSH1 0x40 MLOAD DUP1 SWAP2 SUB SWAP1 LOG2 PUSH1 0x7 DUP3 DUP2 SLOAD DUP2 LT PUSH2 0xA93 JUMPI PUSH2 0xA93 PUSH2 0x20F5 JUMP JUMPDEST SWAP1 PUSH1 0x0 MSTORE PUSH1 0x20 PUSH1 0x0 KECCAK256 SWAP1 PUSH1 0xB MUL ADD PUSH1 0x5 ADD SLOAD PUSH1 0x7 DUP4 DUP2 SLOAD DUP2 LT PUSH2 0xAB8 JUMPI PUSH2 0xAB8 PUSH2 0x20F5 JUMP JUMPDEST SWAP1 PUSH1 0x0 MSTORE PUSH1 0x20 PUSH1 0x0 KECCAK256 SWAP1 PUSH1 0xB MUL ADD PUSH1 0x6 ADD SLOAD LT PUSH2 0xB63 JUMPI PUSH1 0x1 PUSH1 0x7 DUP4 DUP2 SLOAD DUP2 LT PUSH2 0xAE4 JUMPI PUSH2 0xAE4 PUSH2 0x20F5 JUMP JUMPDEST PUSH1 0x0 SWAP2 DUP3 MSTORE PUSH1 0x20 SWAP1 SWAP2 KECCAK256 PUSH1 0xA PUSH1 0xB SWAP1 SWAP3 MUL ADD ADD DUP1 SLOAD PUSH1 0xFF NOT AND PUSH1 0x1 DUP4 PUSH1 0x4 DUP2 GT ISZERO PUSH2 0xB11 JUMPI PUSH2 0xB11 PUSH2 0x1F33 JUMP JUMPDEST MUL OR SWAP1 SSTORE POP PUSH1 0x7 DUP3 DUP2 SLOAD DUP2 LT PUSH2 0xB29 JUMPI PUSH2 0xB29 PUSH2 0x20F5 JUMP JUMPDEST SWAP1 PUSH1 0x0 MSTORE PUSH1 0x20 PUSH1 0x0 KECCAK256 SWAP1 PUSH1 0xB MUL ADD PUSH1 0x6 ADD SLOAD PUSH1 0x3 PUSH1 0x0 DUP3 DUP3 SLOAD PUSH2 0xB4C SWAP2 SWAP1 PUSH2 0x20C2 JUMP JUMPDEST SWAP1 SWAP2 SSTORE POP PUSH2 0xB5B SWAP1 POP DUP3 PUSH2 0x1831 JUMP JUMPDEST POP PUSH1 0x1 SWAP2 SWAP1 POP JUMP JUMPDEST PUSH1 0x7 DUP3 DUP2 SLOAD DUP2 LT PUSH2 0xB76 JUMPI PUSH2 0xB76 PUSH2 0x20F5 JUMP JUMPDEST SWAP1 PUSH1 0x0 MSTORE PUSH1 0x20 PUSH1 0x0 KECCAK256 SWAP1 PUSH1 0xB MUL ADD PUSH1 0x8 ADD SLOAD TIMESTAMP LT PUSH2 0xB5B JUMPI PUSH1 0x2 PUSH1 0x7 DUP4 DUP2 SLOAD DUP2 LT PUSH2 0xBA3 JUMPI PUSH2 0xBA3 PUSH2 0x20F5 JUMP JUMPDEST PUSH1 0x0 SWAP2 DUP3 MSTORE PUSH1 0x20 SWAP1 SWAP2 KECCAK256 PUSH1 0xA PUSH1 0xB SWAP1 SWAP3 MUL ADD ADD DUP1 SLOAD PUSH1 0xFF NOT AND PUSH1 0x1 DUP4 PUSH1 0x4 DUP2 GT ISZERO PUSH2 0xBD0 JUMPI PUSH2 0xBD0 PUSH2 0x1F33 JUMP JUMPDEST MUL OR SWAP1 SSTORE POP PUSH2 0xB5B DUP3 PUSH2 0x19A8 JUMP JUMPDEST PUSH1 0x0 SLOAD PUSH1 0x1 PUSH1 0x1 PUSH1 0xA0 SHL SUB AND CALLER EQ PUSH2 0xC2E JUMPI PUSH1 0x40 MLOAD PUSH3 0x461BCD PUSH1 0xE5 SHL DUP2 MSTORE PUSH1 0x20 PUSH1 0x4 DUP3 ADD MSTORE PUSH1 0x13 PUSH1 0x24 DUP3 ADD MSTORE PUSH19 0x4F776E6572207265736572766564206F6E6C79 PUSH1 0x68 SHL PUSH1 0x44 DUP3 ADD MSTORE PUSH1 0x64 ADD PUSH2 0x397 JUMP JUMPDEST PUSH1 0x1 SSTORE JUMP JUMPDEST PUSH1 0x0 DUP1 PUSH1 0x7 DUP4 DUP2 SLOAD DUP2 LT PUSH2 0xC49 JUMPI PUSH2 0xC49 PUSH2 0x20F5 JUMP JUMPDEST PUSH1 0x0 SWAP2 DUP3 MSTORE PUSH1 0x20 SWAP1 SWAP2 KECCAK256 PUSH1 0xA PUSH1 0xB SWAP1 SWAP3 MUL ADD ADD SLOAD PUSH1 0xFF AND PUSH1 0x4 DUP2 GT ISZERO PUSH2 0xC71 JUMPI PUSH2 0xC71 PUSH2 0x1F33 JUMP JUMPDEST EQ PUSH2 0xCBE JUMPI PUSH1 0x40 MLOAD PUSH3 0x461BCD PUSH1 0xE5 SHL DUP2 MSTORE PUSH1 0x20 PUSH1 0x4 DUP3 ADD MSTORE PUSH1 0x19 PUSH1 0x24 DUP3 ADD MSTORE PUSH32 0x50726F6A656374206E6F206C6F6E676572206F70656E65642100000000000000 PUSH1 0x44 DUP3 ADD MSTORE PUSH1 0x64 ADD PUSH2 0x397 JUMP JUMPDEST PUSH1 0x7 DUP3 DUP2 SLOAD DUP2 LT PUSH2 0xCD1 JUMPI PUSH2 0xCD1 PUSH2 0x20F5 JUMP JUMPDEST PUSH1 0x0 SWAP2 DUP3 MSTORE PUSH1 0x20 SWAP1 SWAP2 KECCAK256 PUSH1 0xB SWAP1 SWAP2 MUL ADD PUSH1 0x1 ADD SLOAD PUSH1 0x1 PUSH1 0x1 PUSH1 0xA0 SHL SUB AND CALLER EQ PUSH2 0xD0C JUMPI PUSH1 0x40 MLOAD PUSH3 0x461BCD PUSH1 0xE5 SHL DUP2 MSTORE PUSH1 0x4 ADD PUSH2 0x397 SWAP1 PUSH2 0x210B JUMP JUMPDEST PUSH1 0x3 PUSH1 0x7 DUP4 DUP2 SLOAD DUP2 LT PUSH2 0xD21 JUMPI PUSH2 0xD21 PUSH2 0x20F5 JUMP JUMPDEST PUSH1 0x0 SWAP2 DUP3 MSTORE PUSH1 0x20 SWAP1 SWAP2 KECCAK256 PUSH1 0xA PUSH1 0xB SWAP1 SWAP3 MUL ADD ADD DUP1 SLOAD PUSH1 0xFF NOT AND PUSH1 0x1 DUP4 PUSH1 0x4 DUP2 GT ISZERO PUSH2 0xD4E JUMPI PUSH2 0xD4E PUSH2 0x1F33 JUMP JUMPDEST MUL OR SWAP1 SSTORE POP PUSH2 0xD5C DUP3 PUSH2 0x19A8 JUMP JUMPDEST PUSH1 0x40 DUP1 MLOAD DUP4 DUP2 MSTORE PUSH1 0x60 PUSH1 0x20 DUP3 ADD DUP2 SWAP1 MSTORE PUSH1 0xF SWAP1 DUP3 ADD MSTORE PUSH15 0x141493D29150D50811115311551151 PUSH1 0x8A SHL PUSH1 0x80 DUP3 ADD MSTORE TIMESTAMP DUP2 DUP4 ADD MSTORE SWAP1 MLOAD CALLER SWAP2 PUSH1 0x0 DUP1 MLOAD PUSH1 0x20 PUSH2 0x21CC DUP4 CODECOPY DUP2 MLOAD SWAP2 MSTORE SWAP2 SWAP1 DUP2 SWAP1 SUB PUSH1 0xA0 ADD SWAP1 LOG2 POP PUSH1 0x1 SWAP2 SWAP1 POP JUMP JUMPDEST PUSH1 0x60 PUSH1 0x9 PUSH1 0x0 DUP4 DUP2 MSTORE PUSH1 0x20 ADD SWAP1 DUP2 MSTORE PUSH1 0x20 ADD PUSH1 0x0 KECCAK256 DUP1 SLOAD DUP1 PUSH1 0x20 MUL PUSH1 0x20 ADD PUSH1 0x40 MLOAD SWAP1 DUP2 ADD PUSH1 0x40 MSTORE DUP1 SWAP3 SWAP2 SWAP1 DUP2 DUP2 MSTORE PUSH1 0x20 ADD PUSH1 0x0 SWAP1 JUMPDEST DUP3 DUP3 LT ISZERO PUSH2 0xE4B JUMPI PUSH1 0x0 DUP5 DUP2 MSTORE PUSH1 0x20 SWAP1 DUP2 SWAP1 KECCAK256 PUSH1 0x40 DUP1 MLOAD PUSH1 0x80 DUP2 ADD DUP3 MSTORE PUSH1 0x4 DUP7 MUL SWAP1 SWAP3 ADD DUP1 SLOAD PUSH1 0x1 PUSH1 0x1 PUSH1 0xA0 SHL SUB AND DUP4 MSTORE PUSH1 0x1 DUP1 DUP3 ADD SLOAD DUP5 DUP7 ADD MSTORE PUSH1 0x2 DUP3 ADD SLOAD SWAP3 DUP5 ADD SWAP3 SWAP1 SWAP3 MSTORE PUSH1 0x3 ADD SLOAD PUSH1 0xFF AND ISZERO ISZERO PUSH1 0x60 DUP4 ADD MSTORE SWAP1 DUP4 MSTORE SWAP1 SWAP3 ADD SWAP2 ADD PUSH2 0xDE9 JUMP JUMPDEST POP POP POP POP SWAP1 POP SWAP2 SWAP1 POP JUMP JUMPDEST PUSH1 0x0 PUSH1 0x7 DUP7 DUP2 SLOAD DUP2 LT PUSH2 0xE6B JUMPI PUSH2 0xE6B PUSH2 0x20F5 JUMP JUMPDEST PUSH1 0x0 SWAP2 DUP3 MSTORE PUSH1 0x20 SWAP1 SWAP2 KECCAK256 PUSH1 0xB SWAP1 SWAP2 MUL ADD PUSH1 0x1 ADD SLOAD PUSH1 0x1 PUSH1 0x1 PUSH1 0xA0 SHL SUB AND CALLER EQ PUSH2 0xEA6 JUMPI PUSH1 0x40 MLOAD PUSH3 0x461BCD PUSH1 0xE5 SHL DUP2 MSTORE PUSH1 0x4 ADD PUSH2 0x397 SWAP1 PUSH2 0x210B JUMP JUMPDEST PUSH1 0x0 DUP6 MLOAD GT PUSH2 0xEF0 JUMPI PUSH1 0x40 MLOAD PUSH3 0x461BCD PUSH1 0xE5 SHL DUP2 MSTORE PUSH1 0x20 PUSH1 0x4 DUP3 ADD MSTORE PUSH1 0x16 PUSH1 0x24 DUP3 ADD MSTORE PUSH22 0x5469746C652063616E6E6F7420626520656D70747921 PUSH1 0x50 SHL PUSH1 0x44 DUP3 ADD MSTORE PUSH1 0x64 ADD PUSH2 0x397 JUMP JUMPDEST PUSH1 0x0 DUP5 MLOAD GT PUSH2 0xF41 JUMPI PUSH1 0x40 MLOAD PUSH3 0x461BCD PUSH1 0xE5 SHL DUP2 MSTORE PUSH1 0x20 PUSH1 0x4 DUP3 ADD MSTORE PUSH1 0x1C PUSH1 0x24 DUP3 ADD MSTORE PUSH32 0x4465736372697074696F6E2063616E6E6F7420626520656D7074792100000000 PUSH1 0x44 DUP3 ADD MSTORE PUSH1 0x64 ADD PUSH2 0x397 JUMP JUMPDEST PUSH1 0x0 DUP4 MLOAD GT PUSH2 0xF8E JUMPI PUSH1 0x40 MLOAD PUSH3 0x461BCD PUSH1 0xE5 SHL DUP2 MSTORE PUSH1 0x20 PUSH1 0x4 DUP3 ADD MSTORE PUSH1 0x19 PUSH1 0x24 DUP3 ADD MSTORE PUSH25 0x496D61676555524C2063616E6E6F7420626520656D70747921 PUSH1 0x38 SHL PUSH1 0x44 DUP3 ADD MSTORE PUSH1 0x64 ADD PUSH2 0x397 JUMP JUMPDEST DUP5 PUSH1 0x7 DUP8 DUP2 SLOAD DUP2 LT PUSH2 0xFA2 JUMPI PUSH2 0xFA2 PUSH2 0x20F5 JUMP JUMPDEST SWAP1 PUSH1 0x0 MSTORE PUSH1 0x20 PUSH1 0x0 KECCAK256 SWAP1 PUSH1 0xB MUL ADD PUSH1 0x2 ADD SWAP1 DUP1 MLOAD SWAP1 PUSH1 0x20 ADD SWAP1 PUSH2 0xFC6 SWAP3 SWAP2 SWAP1 PUSH2 0x1BEE JUMP JUMPDEST POP DUP4 PUSH1 0x7 DUP8 DUP2 SLOAD DUP2 LT PUSH2 0xFDB JUMPI PUSH2 0xFDB PUSH2 0x20F5 JUMP JUMPDEST SWAP1 PUSH1 0x0 MSTORE PUSH1 0x20 PUSH1 0x0 KECCAK256 SWAP1 PUSH1 0xB MUL ADD PUSH1 0x3 ADD SWAP1 DUP1 MLOAD SWAP1 PUSH1 0x20 ADD SWAP1 PUSH2 0xFFF SWAP3 SWAP2 SWAP1 PUSH2 0x1BEE JUMP JUMPDEST POP DUP3 PUSH1 0x7 DUP8 DUP2 SLOAD DUP2 LT PUSH2 0x1014 JUMPI PUSH2 0x1014 PUSH2 0x20F5 JUMP JUMPDEST SWAP1 PUSH1 0x0 MSTORE PUSH1 0x20 PUSH1 0x0 KECCAK256 SWAP1 PUSH1 0xB MUL ADD PUSH1 0x4 ADD SWAP1 DUP1 MLOAD SWAP1 PUSH1 0x20 ADD SWAP1 PUSH2 0x1038 SWAP3 SWAP2 SWAP1 PUSH2 0x1BEE JUMP JUMPDEST POP DUP2 PUSH1 0x7 DUP8 DUP2 SLOAD DUP2 LT PUSH2 0x104D JUMPI PUSH2 0x104D PUSH2 0x20F5 JUMP JUMPDEST SWAP1 PUSH1 0x0 MSTORE PUSH1 0x20 PUSH1 0x0 KECCAK256 SWAP1 PUSH1 0xB MUL ADD PUSH1 0x8 ADD DUP2 SWAP1 SSTORE POP CALLER PUSH1 0x1 PUSH1 0x1 PUSH1 0xA0 SHL SUB AND PUSH1 0x0 DUP1 MLOAD PUSH1 0x20 PUSH2 0x21CC DUP4 CODECOPY DUP2 MLOAD SWAP2 MSTORE DUP8 TIMESTAMP PUSH1 0x40 MLOAD PUSH2 0x10BB SWAP3 SWAP2 SWAP1 SWAP2 DUP3 MSTORE PUSH1 0x60 PUSH1 0x20 DUP4 ADD DUP2 SWAP1 MSTORE PUSH1 0xF SWAP1 DUP4 ADD MSTORE PUSH15 0x141493D29150D50815541110551151 PUSH1 0x8A SHL PUSH1 0x80 DUP4 ADD MSTORE PUSH1 0x40 DUP3 ADD MSTORE PUSH1 0xA0 ADD SWAP1 JUMP JUMPDEST PUSH1 0x40 MLOAD DUP1 SWAP2 SUB SWAP1 LOG2 POP PUSH1 0x1 SWAP6 SWAP5 POP POP POP POP POP JUMP JUMPDEST PUSH1 0x0 PUSH1 0x2 PUSH1 0x7 DUP4 DUP2 SLOAD DUP2 LT PUSH2 0x10E6 JUMPI PUSH2 0x10E6 PUSH2 0x20F5 JUMP JUMPDEST PUSH1 0x0 SWAP2 DUP3 MSTORE PUSH1 0x20 SWAP1 SWAP2 KECCAK256 PUSH1 0xA PUSH1 0xB SWAP1 SWAP3 MUL ADD ADD SLOAD PUSH1 0xFF AND PUSH1 0x4 DUP2 GT ISZERO PUSH2 0x110E JUMPI PUSH2 0x110E PUSH2 0x1F33 JUMP JUMPDEST EQ ISZERO DUP1 PUSH2 0x1156 JUMPI POP PUSH1 0x3 PUSH1 0x7 DUP4 DUP2 SLOAD DUP2 LT PUSH2 0x112B JUMPI PUSH2 0x112B PUSH2 0x20F5 JUMP JUMPDEST PUSH1 0x0 SWAP2 DUP3 MSTORE PUSH1 0x20 SWAP1 SWAP2 KECCAK256 PUSH1 0xA PUSH1 0xB SWAP1 SWAP3 MUL ADD ADD SLOAD PUSH1 0xFF AND PUSH1 0x4 DUP2 GT ISZERO PUSH2 0x1153 JUMPI PUSH2 0x1153 PUSH2 0x1F33 JUMP JUMPDEST EQ ISZERO JUMPDEST PUSH2 0x11B1 JUMPI PUSH1 0x40 MLOAD PUSH3 0x461BCD PUSH1 0xE5 SHL DUP2 MSTORE PUSH1 0x20 PUSH1 0x4 DUP3 ADD MSTORE PUSH1 0x26 PUSH1 0x24 DUP3 ADD MSTORE PUSH32 0x50726F6A656374206E6F74206D61726B656420617320726576657274206F7220 PUSH1 0x44 DUP3 ADD MSTORE PUSH6 0x64656C657465 PUSH1 0xD0 SHL PUSH1 0x64 DUP3 ADD MSTORE PUSH1 0x84 ADD PUSH2 0x397 JUMP JUMPDEST PUSH1 0x2 PUSH1 0x7 DUP4 DUP2 SLOAD DUP2 LT PUSH2 0xBA3 JUMPI PUSH2 0xBA3 PUSH2 0x20F5 JUMP JUMPDEST PUSH1 0x0 PUSH1 0x1 PUSH1 0x7 DUP4 DUP2 SLOAD DUP2 LT PUSH2 0x11DD JUMPI PUSH2 0x11DD PUSH2 0x20F5 JUMP JUMPDEST PUSH1 0x0 SWAP2 DUP3 MSTORE PUSH1 0x20 SWAP1 SWAP2 KECCAK256 PUSH1 0xA PUSH1 0xB SWAP1 SWAP3 MUL ADD ADD SLOAD PUSH1 0xFF AND PUSH1 0x4 DUP2 GT ISZERO PUSH2 0x1205 JUMPI PUSH2 0x1205 PUSH2 0x1F33 JUMP JUMPDEST EQ PUSH2 0x124A JUMPI PUSH1 0x40 MLOAD PUSH3 0x461BCD PUSH1 0xE5 SHL DUP2 MSTORE PUSH1 0x20 PUSH1 0x4 DUP3 ADD MSTORE PUSH1 0x15 PUSH1 0x24 DUP3 ADD MSTORE PUSH21 0x50726F6A656374206E6F7420417070726F76656421 PUSH1 0x58 SHL PUSH1 0x44 DUP3 ADD MSTORE PUSH1 0x64 ADD PUSH2 0x397 JUMP JUMPDEST PUSH1 0x7 DUP3 DUP2 SLOAD DUP2 LT PUSH2 0x125D JUMPI PUSH2 0x125D PUSH2 0x20F5 JUMP JUMPDEST PUSH1 0x0 SWAP2 DUP3 MSTORE PUSH1 0x20 SWAP1 SWAP2 KECCAK256 PUSH1 0xB SWAP1 SWAP2 MUL ADD PUSH1 0x1 ADD SLOAD PUSH1 0x1 PUSH1 0x1 PUSH1 0xA0 SHL SUB AND CALLER EQ DUP1 PUSH2 0x1291 JUMPI POP PUSH1 0x0 SLOAD PUSH1 0x1 PUSH1 0x1 PUSH1 0xA0 SHL SUB AND CALLER EQ JUMPDEST PUSH2 0x12AD JUMPI PUSH1 0x40 MLOAD PUSH3 0x461BCD PUSH1 0xE5 SHL DUP2 MSTORE PUSH1 0x4 ADD PUSH2 0x397 SWAP1 PUSH2 0x210B JUMP JUMPDEST PUSH2 0xB5B DUP3 PUSH2 0x1831 JUMP JUMPDEST PUSH1 0x60 PUSH1 0x7 DUP1 SLOAD DUP1 PUSH1 0x20 MUL PUSH1 0x20 ADD PUSH1 0x40 MLOAD SWAP1 DUP2 ADD PUSH1 0x40 MSTORE DUP1 SWAP3 SWAP2 SWAP1 DUP2 DUP2 MSTORE PUSH1 0x20 ADD PUSH1 0x0 SWAP1 JUMPDEST DUP3 DUP3 LT ISZERO PUSH2 0x1548 JUMPI PUSH1 0x0 DUP5 DUP2 MSTORE PUSH1 0x20 SWAP1 DUP2 SWAP1 KECCAK256 PUSH1 0x40 DUP1 MLOAD PUSH2 0x160 DUP2 ADD DUP3 MSTORE PUSH1 0xB DUP7 MUL SWAP1 SWAP3 ADD DUP1 SLOAD DUP4 MSTORE PUSH1 0x1 DUP2 ADD SLOAD PUSH1 0x1 PUSH1 0x1 PUSH1 0xA0 SHL SUB AND SWAP4 DUP4 ADD SWAP4 SWAP1 SWAP4 MSTORE PUSH1 0x2 DUP4 ADD DUP1 SLOAD SWAP3 SWAP4 SWAP3 SWAP2 DUP5 ADD SWAP2 PUSH2 0x132E SWAP1 PUSH2 0x2138 JUMP JUMPDEST DUP1 PUSH1 0x1F ADD PUSH1 0x20 DUP1 SWAP2 DIV MUL PUSH1 0x20 ADD PUSH1 0x40 MLOAD SWAP1 DUP2 ADD PUSH1 0x40 MSTORE DUP1 SWAP3 SWAP2 SWAP1 DUP2 DUP2 MSTORE PUSH1 0x20 ADD DUP3 DUP1 SLOAD PUSH2 0x135A SWAP1 PUSH2 0x2138 JUMP JUMPDEST DUP1 ISZERO PUSH2 0x13A7 JUMPI DUP1 PUSH1 0x1F LT PUSH2 0x137C JUMPI PUSH2 0x100 DUP1 DUP4 SLOAD DIV MUL DUP4 MSTORE SWAP2 PUSH1 0x20 ADD SWAP2 PUSH2 0x13A7 JUMP JUMPDEST DUP3 ADD SWAP2 SWAP1 PUSH1 0x0 MSTORE PUSH1 0x20 PUSH1 0x0 KECCAK256 SWAP1 JUMPDEST DUP2 SLOAD DUP2 MSTORE SWAP1 PUSH1 0x1 ADD SWAP1 PUSH1 0x20 ADD DUP1 DUP4 GT PUSH2 0x138A JUMPI DUP3 SWAP1 SUB PUSH1 0x1F AND DUP3 ADD SWAP2 JUMPDEST POP POP POP POP POP DUP2 MSTORE PUSH1 0x20 ADD PUSH1 0x3 DUP3 ADD DUP1 SLOAD PUSH2 0x13C0 SWAP1 PUSH2 0x2138 JUMP JUMPDEST DUP1 PUSH1 0x1F ADD PUSH1 0x20 DUP1 SWAP2 DIV MUL PUSH1 0x20 ADD PUSH1 0x40 MLOAD SWAP1 DUP2 ADD PUSH1 0x40 MSTORE DUP1 SWAP3 SWAP2 SWAP1 DUP2 DUP2 MSTORE PUSH1 0x20 ADD DUP3 DUP1 SLOAD PUSH2 0x13EC SWAP1 PUSH2 0x2138 JUMP JUMPDEST DUP1 ISZERO PUSH2 0x1439 JUMPI DUP1 PUSH1 0x1F LT PUSH2 0x140E JUMPI PUSH2 0x100 DUP1 DUP4 SLOAD DIV MUL DUP4 MSTORE SWAP2 PUSH1 0x20 ADD SWAP2 PUSH2 0x1439 JUMP JUMPDEST DUP3 ADD SWAP2 SWAP1 PUSH1 0x0 MSTORE PUSH1 0x20 PUSH1 0x0 KECCAK256 SWAP1 JUMPDEST DUP2 SLOAD DUP2 MSTORE SWAP1 PUSH1 0x1 ADD SWAP1 PUSH1 0x20 ADD DUP1 DUP4 GT PUSH2 0x141C JUMPI DUP3 SWAP1 SUB PUSH1 0x1F AND DUP3 ADD SWAP2 JUMPDEST POP POP POP POP POP DUP2 MSTORE PUSH1 0x20 ADD PUSH1 0x4 DUP3 ADD DUP1 SLOAD PUSH2 0x1452 SWAP1 PUSH2 0x2138 JUMP JUMPDEST DUP1 PUSH1 0x1F ADD PUSH1 0x20 DUP1 SWAP2 DIV MUL PUSH1 0x20 ADD PUSH1 0x40 MLOAD SWAP1 DUP2 ADD PUSH1 0x40 MSTORE DUP1 SWAP3 SWAP2 SWAP1 DUP2 DUP2 MSTORE PUSH1 0x20 ADD DUP3 DUP1 SLOAD PUSH2 0x147E SWAP1 PUSH2 0x2138 JUMP JUMPDEST DUP1 ISZERO PUSH2 0x14CB JUMPI DUP1 PUSH1 0x1F LT PUSH2 0x14A0 JUMPI PUSH2 0x100 DUP1 DUP4 SLOAD DIV MUL DUP4 MSTORE SWAP2 PUSH1 0x20 ADD SWAP2 PUSH2 0x14CB JUMP JUMPDEST DUP3 ADD SWAP2 SWAP1 PUSH1 0x0 MSTORE PUSH1 0x20 PUSH1 0x0 KECCAK256 SWAP1 JUMPDEST DUP2 SLOAD DUP2 MSTORE SWAP1 PUSH1 0x1 ADD SWAP1 PUSH1 0x20 ADD DUP1 DUP4 GT PUSH2 0x14AE JUMPI DUP3 SWAP1 SUB PUSH1 0x1F AND DUP3 ADD SWAP2 JUMPDEST POP POP POP SWAP2 DUP4 MSTORE POP POP PUSH1 0x5 DUP3 ADD SLOAD PUSH1 0x20 DUP3 ADD MSTORE PUSH1 0x6 DUP3 ADD SLOAD PUSH1 0x40 DUP3 ADD MSTORE PUSH1 0x7 DUP3 ADD SLOAD PUSH1 0x60 DUP3 ADD MSTORE PUSH1 0x8 DUP3 ADD SLOAD PUSH1 0x80 DUP3 ADD MSTORE PUSH1 0x9 DUP3 ADD SLOAD PUSH1 0xA0 DUP3 ADD MSTORE PUSH1 0xA DUP3 ADD SLOAD PUSH1 0xC0 SWAP1 SWAP2 ADD SWAP1 PUSH1 0xFF AND PUSH1 0x4 DUP2 GT ISZERO PUSH2 0x1524 JUMPI PUSH2 0x1524 PUSH2 0x1F33 JUMP JUMPDEST PUSH1 0x4 DUP2 GT ISZERO PUSH2 0x1535 JUMPI PUSH2 0x1535 PUSH2 0x1F33 JUMP JUMPDEST DUP2 MSTORE POP POP DUP2 MSTORE PUSH1 0x20 ADD SWAP1 PUSH1 0x1 ADD SWAP1 PUSH2 0x12DA JUMP JUMPDEST POP POP POP POP SWAP1 POP SWAP1 JUMP JUMPDEST PUSH2 0x1559 PUSH2 0x1B7B JUMP JUMPDEST PUSH1 0x0 DUP3 DUP2 MSTORE PUSH1 0xA PUSH1 0x20 MSTORE PUSH1 0x40 SWAP1 KECCAK256 SLOAD PUSH1 0xFF AND PUSH2 0x15AB JUMPI PUSH1 0x40 MLOAD PUSH3 0x461BCD PUSH1 0xE5 SHL DUP2 MSTORE PUSH1 0x20 PUSH1 0x4 DUP3 ADD MSTORE PUSH1 0x11 PUSH1 0x24 DUP3 ADD MSTORE PUSH17 0x141C9BDA9958DD081B9BDD08199BDD5B99 PUSH1 0x7A SHL PUSH1 0x44 DUP3 ADD MSTORE PUSH1 0x64 ADD PUSH2 0x397 JUMP JUMPDEST PUSH1 0x7 DUP3 DUP2 SLOAD DUP2 LT PUSH2 0x15BE JUMPI PUSH2 0x15BE PUSH2 0x20F5 JUMP JUMPDEST SWAP1 PUSH1 0x0 MSTORE PUSH1 0x20 PUSH1 0x0 KECCAK256 SWAP1 PUSH1 0xB MUL ADD PUSH1 0x40 MLOAD DUP1 PUSH2 0x160 ADD PUSH1 0x40 MSTORE SWAP1 DUP2 PUSH1 0x0 DUP3 ADD SLOAD DUP2 MSTORE PUSH1 0x20 ADD PUSH1 0x1 DUP3 ADD PUSH1 0x0 SWAP1 SLOAD SWAP1 PUSH2 0x100 EXP SWAP1 DIV PUSH1 0x1 PUSH1 0x1 PUSH1 0xA0 SHL SUB AND PUSH1 0x1 PUSH1 0x1 PUSH1 0xA0 SHL SUB AND PUSH1 0x1 PUSH1 0x1 PUSH1 0xA0 SHL SUB AND DUP2 MSTORE PUSH1 0x20 ADD PUSH1 0x2 DUP3 ADD DUP1 SLOAD PUSH2 0x1621 SWAP1 PUSH2 0x2138 JUMP JUMPDEST DUP1 PUSH1 0x1F ADD PUSH1 0x20 DUP1 SWAP2 DIV MUL PUSH1 0x20 ADD PUSH1 0x40 MLOAD SWAP1 DUP2 ADD PUSH1 0x40 MSTORE DUP1 SWAP3 SWAP2 SWAP1 DUP2 DUP2 MSTORE PUSH1 0x20 ADD DUP3 DUP1 SLOAD PUSH2 0x164D SWAP1 PUSH2 0x2138 JUMP JUMPDEST DUP1 ISZERO PUSH2 0x169A JUMPI DUP1 PUSH1 0x1F LT PUSH2 0x166F JUMPI PUSH2 0x100 DUP1 DUP4 SLOAD DIV MUL DUP4 MSTORE SWAP2 PUSH1 0x20 ADD SWAP2 PUSH2 0x169A JUMP JUMPDEST DUP3 ADD SWAP2 SWAP1 PUSH1 0x0 MSTORE PUSH1 0x20 PUSH1 0x0 KECCAK256 SWAP1 JUMPDEST DUP2 SLOAD DUP2 MSTORE SWAP1 PUSH1 0x1 ADD SWAP1 PUSH1 0x20 ADD DUP1 DUP4 GT PUSH2 0x167D JUMPI DUP3 SWAP1 SUB PUSH1 0x1F AND DUP3 ADD SWAP2 JUMPDEST POP POP POP POP POP DUP2 MSTORE PUSH1 0x20 ADD PUSH1 0x3 DUP3 ADD DUP1 SLOAD PUSH2 0x16B3 SWAP1 PUSH2 0x2138 JUMP JUMPDEST DUP1 PUSH1 0x1F ADD PUSH1 0x20 DUP1 SWAP2 DIV MUL PUSH1 0x20 ADD PUSH1 0x40 MLOAD SWAP1 DUP2 ADD PUSH1 0x40 MSTORE DUP1 SWAP3 SWAP2 SWAP1 DUP2 DUP2 MSTORE PUSH1 0x20 ADD DUP3 DUP1 SLOAD PUSH2 0x16DF SWAP1 PUSH2 0x2138 JUMP JUMPDEST DUP1 ISZERO PUSH2 0x172C JUMPI DUP1 PUSH1 0x1F LT PUSH2 0x1701 JUMPI PUSH2 0x100 DUP1 DUP4 SLOAD DIV MUL DUP4 MSTORE SWAP2 PUSH1 0x20 ADD SWAP2 PUSH2 0x172C JUMP JUMPDEST DUP3 ADD SWAP2 SWAP1 PUSH1 0x0 MSTORE PUSH1 0x20 PUSH1 0x0 KECCAK256 SWAP1 JUMPDEST DUP2 SLOAD DUP2 MSTORE SWAP1 PUSH1 0x1 ADD SWAP1 PUSH1 0x20 ADD DUP1 DUP4 GT PUSH2 0x170F JUMPI DUP3 SWAP1 SUB PUSH1 0x1F AND DUP3 ADD SWAP2 JUMPDEST POP POP POP POP POP DUP2 MSTORE PUSH1 0x20 ADD PUSH1 0x4 DUP3 ADD DUP1 SLOAD PUSH2 0x1745 SWAP1 PUSH2 0x2138 JUMP JUMPDEST DUP1 PUSH1 0x1F ADD PUSH1 0x20 DUP1 SWAP2 DIV MUL PUSH1 0x20 ADD PUSH1 0x40 MLOAD SWAP1 DUP2 ADD PUSH1 0x40 MSTORE DUP1 SWAP3 SWAP2 SWAP1 DUP2 DUP2 MSTORE PUSH1 0x20 ADD DUP3 DUP1 SLOAD PUSH2 0x1771 SWAP1 PUSH2 0x2138 JUMP JUMPDEST DUP1 ISZERO PUSH2 0x17BE JUMPI DUP1 PUSH1 0x1F LT PUSH2 0x1793 JUMPI PUSH2 0x100 DUP1 DUP4 SLOAD DIV MUL DUP4 MSTORE SWAP2 PUSH1 0x20 ADD SWAP2 PUSH2 0x17BE JUMP JUMPDEST DUP3 ADD SWAP2 SWAP1 PUSH1 0x0 MSTORE PUSH1 0x20 PUSH1 0x0 KECCAK256 SWAP1 JUMPDEST DUP2 SLOAD DUP2 MSTORE SWAP1 PUSH1 0x1 ADD SWAP1 PUSH1 0x20 ADD DUP1 DUP4 GT PUSH2 0x17A1 JUMPI DUP3 SWAP1 SUB PUSH1 0x1F AND DUP3 ADD SWAP2 JUMPDEST POP POP POP SWAP2 DUP4 MSTORE POP POP PUSH1 0x5 DUP3 ADD SLOAD PUSH1 0x20 DUP3 ADD MSTORE PUSH1 0x6 DUP3 ADD SLOAD PUSH1 0x40 DUP3 ADD MSTORE PUSH1 0x7 DUP3 ADD SLOAD PUSH1 0x60 DUP3 ADD MSTORE PUSH1 0x8 DUP3 ADD SLOAD PUSH1 0x80 DUP3 ADD MSTORE PUSH1 0x9 DUP3 ADD SLOAD PUSH1 0xA0 DUP3 ADD MSTORE PUSH1 0xA DUP3 ADD SLOAD PUSH1 0xC0 SWAP1 SWAP2 ADD SWAP1 PUSH1 0xFF AND PUSH1 0x4 DUP2 GT ISZERO PUSH2 0x1817 JUMPI PUSH2 0x1817 PUSH2 0x1F33 JUMP JUMPDEST PUSH1 0x4 DUP2 GT ISZERO PUSH2 0x1828 JUMPI PUSH2 0x1828 PUSH2 0x1F33 JUMP JUMPDEST SWAP1 MSTORE POP SWAP3 SWAP2 POP POP JUMP JUMPDEST PUSH1 0x0 PUSH1 0x7 DUP3 DUP2 SLOAD DUP2 LT PUSH2 0x1846 JUMPI PUSH2 0x1846 PUSH2 0x20F5 JUMP JUMPDEST SWAP1 PUSH1 0x0 MSTORE PUSH1 0x20 PUSH1 0x0 KECCAK256 SWAP1 PUSH1 0xB MUL ADD PUSH1 0x6 ADD SLOAD SWAP1 POP PUSH1 0x0 PUSH1 0x64 PUSH1 0x1 SLOAD DUP4 PUSH2 0x186C SWAP2 SWAP1 PUSH2 0x2173 JUMP JUMPDEST PUSH2 0x1876 SWAP2 SWAP1 PUSH2 0x2192 JUMP JUMPDEST SWAP1 POP PUSH1 0x4 PUSH1 0x7 DUP5 DUP2 SLOAD DUP2 LT PUSH2 0x188D JUMPI PUSH2 0x188D PUSH2 0x20F5 JUMP JUMPDEST PUSH1 0x0 SWAP2 DUP3 MSTORE PUSH1 0x20 SWAP1 SWAP2 KECCAK256 PUSH1 0xA PUSH1 0xB SWAP1 SWAP3 MUL ADD ADD DUP1 SLOAD PUSH1 0xFF NOT AND PUSH1 0x1 DUP4 PUSH1 0x4 DUP2 GT ISZERO PUSH2 0x18BA JUMPI PUSH2 0x18BA PUSH2 0x1F33 JUMP JUMPDEST MUL OR SWAP1 SSTORE POP PUSH2 0x1901 PUSH1 0x7 DUP5 DUP2 SLOAD DUP2 LT PUSH2 0x18D5 JUMPI PUSH2 0x18D5 PUSH2 0x20F5 JUMP JUMPDEST PUSH1 0x0 SWAP2 DUP3 MSTORE PUSH1 0x20 SWAP1 SWAP2 KECCAK256 PUSH1 0x1 PUSH1 0xB SWAP1 SWAP3 MUL ADD ADD SLOAD PUSH1 0x1 PUSH1 0x1 PUSH1 0xA0 SHL SUB AND PUSH2 0x18FC DUP4 DUP6 PUSH2 0x21B4 JUMP JUMPDEST PUSH2 0x1B16 JUMP JUMPDEST PUSH1 0x0 SLOAD PUSH2 0x1917 SWAP1 PUSH1 0x1 PUSH1 0x1 PUSH1 0xA0 SHL SUB AND DUP3 PUSH2 0x1B16 JUMP JUMPDEST PUSH1 0x7 DUP4 DUP2 SLOAD DUP2 LT PUSH2 0x192A JUMPI PUSH2 0x192A PUSH2 0x20F5 JUMP JUMPDEST SWAP1 PUSH1 0x0 MSTORE PUSH1 0x20 PUSH1 0x0 KECCAK256 SWAP1 PUSH1 0xB MUL ADD PUSH1 0x6 ADD SLOAD PUSH1 0x3 PUSH1 0x0 DUP3 DUP3 SLOAD PUSH2 0x194D SWAP2 SWAP1 PUSH2 0x21B4 JUMP JUMPDEST SWAP1 SWAP2 SSTORE POP POP PUSH1 0x40 DUP1 MLOAD DUP5 DUP2 MSTORE PUSH1 0x60 PUSH1 0x20 DUP3 ADD DUP2 SWAP1 MSTORE PUSH1 0x10 SWAP1 DUP3 ADD MSTORE PUSH16 0x141493D29150D508141052510813D555 PUSH1 0x82 SHL PUSH1 0x80 DUP3 ADD MSTORE TIMESTAMP DUP2 DUP4 ADD MSTORE SWAP1 MLOAD CALLER SWAP2 PUSH1 0x0 DUP1 MLOAD PUSH1 0x20 PUSH2 0x21CC DUP4 CODECOPY DUP2 MLOAD SWAP2 MSTORE SWAP2 SWAP1 DUP2 SWAP1 SUB PUSH1 0xA0 ADD SWAP1 LOG2 POP POP POP JUMP JUMPDEST PUSH1 0x0 JUMPDEST PUSH1 0x0 DUP3 DUP2 MSTORE PUSH1 0x9 PUSH1 0x20 MSTORE PUSH1 0x40 SWAP1 KECCAK256 SLOAD DUP2 LT ISZERO PUSH2 0x1B12 JUMPI PUSH1 0x0 DUP3 DUP2 MSTORE PUSH1 0x9 PUSH1 0x20 MSTORE PUSH1 0x40 DUP2 KECCAK256 DUP1 SLOAD DUP4 SWAP1 DUP2 LT PUSH2 0x19E1 JUMPI PUSH2 0x19E1 PUSH2 0x20F5 JUMP JUMPDEST PUSH1 0x0 SWAP2 DUP3 MSTORE PUSH1 0x20 DUP1 DUP4 KECCAK256 PUSH1 0x4 SWAP1 SWAP3 MUL SWAP1 SWAP2 ADD SLOAD DUP6 DUP4 MSTORE PUSH1 0x9 SWAP1 SWAP2 MSTORE PUSH1 0x40 DUP3 KECCAK256 DUP1 SLOAD PUSH1 0x1 PUSH1 0x1 PUSH1 0xA0 SHL SUB SWAP1 SWAP3 AND SWAP4 POP SWAP1 DUP5 SWAP1 DUP2 LT PUSH2 0x1A20 JUMPI PUSH2 0x1A20 PUSH2 0x20F5 JUMP JUMPDEST SWAP1 PUSH1 0x0 MSTORE PUSH1 0x20 PUSH1 0x0 KECCAK256 SWAP1 PUSH1 0x4 MUL ADD PUSH1 0x1 ADD SLOAD SWAP1 POP PUSH1 0x1 PUSH1 0x9 PUSH1 0x0 DUP7 DUP2 MSTORE PUSH1 0x20 ADD SWAP1 DUP2 MSTORE PUSH1 0x20 ADD PUSH1 0x0 KECCAK256 DUP5 DUP2 SLOAD DUP2 LT PUSH2 0x1A5A JUMPI PUSH2 0x1A5A PUSH2 0x20F5 JUMP JUMPDEST SWAP1 PUSH1 0x0 MSTORE PUSH1 0x20 PUSH1 0x0 KECCAK256 SWAP1 PUSH1 0x4 MUL ADD PUSH1 0x3 ADD PUSH1 0x0 PUSH2 0x100 EXP DUP2 SLOAD DUP2 PUSH1 0xFF MUL NOT AND SWAP1 DUP4 ISZERO ISZERO MUL OR SWAP1 SSTORE POP TIMESTAMP PUSH1 0x9 PUSH1 0x0 DUP7 DUP2 MSTORE PUSH1 0x20 ADD SWAP1 DUP2 MSTORE PUSH1 0x20 ADD PUSH1 0x0 KECCAK256 DUP5 DUP2 SLOAD DUP2 LT PUSH2 0x1AA7 JUMPI PUSH2 0x1AA7 PUSH2 0x20F5 JUMP JUMPDEST SWAP1 PUSH1 0x0 MSTORE PUSH1 0x20 PUSH1 0x0 KECCAK256 SWAP1 PUSH1 0x4 MUL ADD PUSH1 0x2 ADD DUP2 SWAP1 SSTORE POP PUSH2 0x1AC6 DUP3 DUP3 PUSH2 0x1B16 JUMP JUMPDEST PUSH1 0x1 PUSH1 0x4 PUSH1 0x1 ADD PUSH1 0x0 DUP3 DUP3 SLOAD PUSH2 0x1ADC SWAP2 SWAP1 PUSH2 0x21B4 JUMP JUMPDEST SWAP1 SWAP2 SSTORE POP POP PUSH1 0x6 DUP1 SLOAD DUP3 SWAP2 SWAP1 PUSH1 0x0 SWAP1 PUSH2 0x1AF6 SWAP1 DUP5 SWAP1 PUSH2 0x21B4 JUMP JUMPDEST SWAP3 POP POP DUP2 SWAP1 SSTORE POP POP POP DUP1 DUP1 PUSH2 0x1B0A SWAP1 PUSH2 0x20DA JUMP JUMPDEST SWAP2 POP POP PUSH2 0x19AB JUMP JUMPDEST POP POP JUMP JUMPDEST PUSH1 0x0 DUP3 PUSH1 0x1 PUSH1 0x1 PUSH1 0xA0 SHL SUB AND DUP3 PUSH1 0x40 MLOAD PUSH1 0x0 PUSH1 0x40 MLOAD DUP1 DUP4 SUB DUP2 DUP6 DUP8 GAS CALL SWAP3 POP POP POP RETURNDATASIZE DUP1 PUSH1 0x0 DUP2 EQ PUSH2 0x1B63 JUMPI PUSH1 0x40 MLOAD SWAP2 POP PUSH1 0x1F NOT PUSH1 0x3F RETURNDATASIZE ADD AND DUP3 ADD PUSH1 0x40 MSTORE RETURNDATASIZE DUP3 MSTORE RETURNDATASIZE PUSH1 0x0 PUSH1 0x20 DUP5 ADD RETURNDATACOPY PUSH2 0x1B68 JUMP JUMPDEST PUSH1 0x60 SWAP2 POP JUMPDEST POP POP SWAP1 POP DUP1 PUSH2 0x1B76 JUMPI PUSH1 0x0 DUP1 REVERT JUMPDEST POP POP POP JUMP JUMPDEST PUSH1 0x40 MLOAD DUP1 PUSH2 0x160 ADD PUSH1 0x40 MSTORE DUP1 PUSH1 0x0 DUP2 MSTORE PUSH1 0x20 ADD PUSH1 0x0 PUSH1 0x1 PUSH1 0x1 PUSH1 0xA0 SHL SUB AND DUP2 MSTORE PUSH1 0x20 ADD PUSH1 0x60 DUP2 MSTORE PUSH1 0x20 ADD PUSH1 0x60 DUP2 MSTORE PUSH1 0x20 ADD PUSH1 0x60 DUP2 MSTORE PUSH1 0x20 ADD PUSH1 0x0 DUP2 MSTORE PUSH1 0x20 ADD PUSH1 0x0 DUP2 MSTORE PUSH1 0x20 ADD PUSH1 0x0 DUP2 MSTORE PUSH1 0x20 ADD PUSH1 0x0 DUP2 MSTORE PUSH1 0x20 ADD PUSH1 0x0 DUP2 MSTORE PUSH1 0x20 ADD PUSH1 0x0 PUSH1 0x4 DUP2 GT ISZERO PUSH2 0x1BE9 JUMPI PUSH2 0x1BE9 PUSH2 0x1F33 JUMP JUMPDEST SWAP1 MSTORE SWAP1 JUMP JUMPDEST DUP3 DUP1 SLOAD PUSH2 0x1BFA SWAP1 PUSH2 0x2138 JUMP JUMPDEST SWAP1 PUSH1 0x0 MSTORE PUSH1 0x20 PUSH1 0x0 KECCAK256 SWAP1 PUSH1 0x1F ADD PUSH1 0x20 SWAP1 DIV DUP2 ADD SWAP3 DUP3 PUSH2 0x1C1C JUMPI PUSH1 0x0 DUP6 SSTORE PUSH2 0x1C62 JUMP JUMPDEST DUP3 PUSH1 0x1F LT PUSH2 0x1C35 JUMPI DUP1 MLOAD PUSH1 0xFF NOT AND DUP4 DUP1 ADD OR DUP6 SSTORE PUSH2 0x1C62 JUMP JUMPDEST DUP3 DUP1 ADD PUSH1 0x1 ADD DUP6 SSTORE DUP3 ISZERO PUSH2 0x1C62 JUMPI SWAP2 DUP3 ADD JUMPDEST DUP3 DUP2 GT ISZERO PUSH2 0x1C62 JUMPI DUP3 MLOAD DUP3 SSTORE SWAP2 PUSH1 0x20 ADD SWAP2 SWAP1 PUSH1 0x1 ADD SWAP1 PUSH2 0x1C47 JUMP JUMPDEST POP PUSH2 0x1C6E SWAP3 SWAP2 POP PUSH2 0x1C72 JUMP JUMPDEST POP SWAP1 JUMP JUMPDEST JUMPDEST DUP1 DUP3 GT ISZERO PUSH2 0x1C6E JUMPI PUSH1 0x0 DUP2 SSTORE PUSH1 0x1 ADD PUSH2 0x1C73 JUMP JUMPDEST PUSH4 0x4E487B71 PUSH1 0xE0 SHL PUSH1 0x0 MSTORE PUSH1 0x41 PUSH1 0x4 MSTORE PUSH1 0x24 PUSH1 0x0 REVERT JUMPDEST PUSH1 0x0 DUP3 PUSH1 0x1F DUP4 ADD SLT PUSH2 0x1CAE JUMPI PUSH1 0x0 DUP1 REVERT JUMPDEST DUP2 CALLDATALOAD PUSH8 0xFFFFFFFFFFFFFFFF DUP1 DUP3 GT ISZERO PUSH2 0x1CC9 JUMPI PUSH2 0x1CC9 PUSH2 0x1C87 JUMP JUMPDEST PUSH1 0x40 MLOAD PUSH1 0x1F DUP4 ADD PUSH1 0x1F NOT SWAP1 DUP2 AND PUSH1 0x3F ADD AND DUP2 ADD SWAP1 DUP3 DUP3 GT DUP2 DUP4 LT OR ISZERO PUSH2 0x1CF1 JUMPI PUSH2 0x1CF1 PUSH2 0x1C87 JUMP JUMPDEST DUP2 PUSH1 0x40 MSTORE DUP4 DUP2 MSTORE DUP7 PUSH1 0x20 DUP6 DUP9 ADD ADD GT ISZERO PUSH2 0x1D0A JUMPI PUSH1 0x0 DUP1 REVERT JUMPDEST DUP4 PUSH1 0x20 DUP8 ADD PUSH1 0x20 DUP4 ADD CALLDATACOPY PUSH1 0x0 PUSH1 0x20 DUP6 DUP4 ADD ADD MSTORE DUP1 SWAP5 POP POP POP POP POP SWAP3 SWAP2 POP POP JUMP JUMPDEST PUSH1 0x0 DUP1 PUSH1 0x0 DUP1 PUSH1 0x0 PUSH1 0xA0 DUP7 DUP9 SUB SLT ISZERO PUSH2 0x1D42 JUMPI PUSH1 0x0 DUP1 REVERT JUMPDEST DUP6 CALLDATALOAD PUSH8 0xFFFFFFFFFFFFFFFF DUP1 DUP3 GT ISZERO PUSH2 0x1D5A JUMPI PUSH1 0x0 DUP1 REVERT JUMPDEST PUSH2 0x1D66 DUP10 DUP4 DUP11 ADD PUSH2 0x1C9D JUMP JUMPDEST SWAP7 POP PUSH1 0x20 DUP9 ADD CALLDATALOAD SWAP2 POP DUP1 DUP3 GT ISZERO PUSH2 0x1D7C JUMPI PUSH1 0x0 DUP1 REVERT JUMPDEST PUSH2 0x1D88 DUP10 DUP4 DUP11 ADD PUSH2 0x1C9D JUMP JUMPDEST SWAP6 POP PUSH1 0x40 DUP9 ADD CALLDATALOAD SWAP2 POP DUP1 DUP3 GT ISZERO PUSH2 0x1D9E JUMPI PUSH1 0x0 DUP1 REVERT JUMPDEST POP PUSH2 0x1DAB DUP9 DUP3 DUP10 ADD PUSH2 0x1C9D JUMP JUMPDEST SWAP6 SWAP9 SWAP5 SWAP8 POP SWAP5 SWAP6 PUSH1 0x60 DUP2 ADD CALLDATALOAD SWAP6 POP PUSH1 0x80 ADD CALLDATALOAD SWAP4 SWAP3 POP POP POP JUMP JUMPDEST PUSH1 0x0 PUSH1 0x20 DUP3 DUP5 SUB SLT ISZERO PUSH2 0x1DD6 JUMPI PUSH1 0x0 DUP1 REVERT JUMPDEST POP CALLDATALOAD SWAP2 SWAP1 POP JUMP JUMPDEST PUSH1 0x20 DUP1 DUP3 MSTORE DUP3 MLOAD DUP3 DUP3 ADD DUP2 SWAP1 MSTORE PUSH1 0x0 SWAP2 SWAP1 PUSH1 0x40 SWAP1 DUP2 DUP6 ADD SWAP1 DUP7 DUP5 ADD DUP6 JUMPDEST DUP3 DUP2 LT ISZERO PUSH2 0x1E3F JUMPI DUP2 MLOAD DUP1 MLOAD PUSH1 0x1 PUSH1 0x1 PUSH1 0xA0 SHL SUB AND DUP6 MSTORE DUP7 DUP2 ADD MLOAD DUP8 DUP7 ADD MSTORE DUP6 DUP2 ADD MLOAD DUP7 DUP7 ADD MSTORE PUSH1 0x60 SWAP1 DUP2 ADD MLOAD ISZERO ISZERO SWAP1 DUP6 ADD MSTORE PUSH1 0x80 SWAP1 SWAP4 ADD SWAP3 SWAP1 DUP6 ADD SWAP1 PUSH1 0x1 ADD PUSH2 0x1DFA JUMP JUMPDEST POP SWAP2 SWAP8 SWAP7 POP POP POP POP POP POP POP JUMP JUMPDEST PUSH1 0x0 DUP1 PUSH1 0x0 DUP1 PUSH1 0x0 PUSH1 0xA0 DUP7 DUP9 SUB SLT ISZERO PUSH2 0x1E64 JUMPI PUSH1 0x0 DUP1 REVERT JUMPDEST DUP6 CALLDATALOAD SWAP5 POP PUSH1 0x20 DUP7 ADD CALLDATALOAD PUSH8 0xFFFFFFFFFFFFFFFF DUP1 DUP3 GT ISZERO PUSH2 0x1E83 JUMPI PUSH1 0x0 DUP1 REVERT JUMPDEST PUSH2 0x1E8F DUP10 DUP4 DUP11 ADD PUSH2 0x1C9D JUMP JUMPDEST SWAP6 POP PUSH1 0x40 DUP9 ADD CALLDATALOAD SWAP2 POP DUP1 DUP3 GT ISZERO PUSH2 0x1EA5 JUMPI PUSH1 0x0 DUP1 REVERT JUMPDEST PUSH2 0x1EB1 DUP10 DUP4 DUP11 ADD PUSH2 0x1C9D JUMP JUMPDEST SWAP5 POP PUSH1 0x60 DUP9 ADD CALLDATALOAD SWAP2 POP DUP1 DUP3 GT ISZERO PUSH2 0x1EC7 JUMPI PUSH1 0x0 DUP1 REVERT JUMPDEST POP PUSH2 0x1ED4 DUP9 DUP3 DUP10 ADD PUSH2 0x1C9D JUMP JUMPDEST SWAP6 SWAP9 SWAP5 SWAP8 POP SWAP3 SWAP6 PUSH1 0x80 ADD CALLDATALOAD SWAP4 SWAP3 POP POP POP JUMP JUMPDEST PUSH1 0x0 DUP2 MLOAD DUP1 DUP5 MSTORE PUSH1 0x0 JUMPDEST DUP2 DUP2 LT ISZERO PUSH2 0x1F0C JUMPI PUSH1 0x20 DUP2 DUP6 ADD DUP2 ADD MLOAD DUP7 DUP4 ADD DUP3 ADD MSTORE ADD PUSH2 0x1EF0 JUMP JUMPDEST DUP2 DUP2 GT ISZERO PUSH2 0x1F1E JUMPI PUSH1 0x0 PUSH1 0x20 DUP4 DUP8 ADD ADD MSTORE JUMPDEST POP PUSH1 0x1F ADD PUSH1 0x1F NOT AND SWAP3 SWAP1 SWAP3 ADD PUSH1 0x20 ADD SWAP3 SWAP2 POP POP JUMP JUMPDEST PUSH4 0x4E487B71 PUSH1 0xE0 SHL PUSH1 0x0 MSTORE PUSH1 0x21 PUSH1 0x4 MSTORE PUSH1 0x24 PUSH1 0x0 REVERT JUMPDEST PUSH1 0x5 DUP2 LT PUSH2 0x1F67 JUMPI PUSH4 0x4E487B71 PUSH1 0xE0 SHL PUSH1 0x0 MSTORE PUSH1 0x21 PUSH1 0x4 MSTORE PUSH1 0x24 PUSH1 0x0 REVERT JUMPDEST SWAP1 MSTORE JUMP JUMPDEST PUSH1 0x0 PUSH2 0x160 DUP3 MLOAD DUP5 MSTORE PUSH1 0x20 DUP4 ADD MLOAD PUSH2 0x1F8E PUSH1 0x20 DUP7 ADD DUP3 PUSH1 0x1 PUSH1 0x1 PUSH1 0xA0 SHL SUB AND SWAP1 MSTORE JUMP JUMPDEST POP PUSH1 0x40 DUP4 ADD MLOAD DUP2 PUSH1 0x40 DUP7 ADD MSTORE PUSH2 0x1FA6 DUP3 DUP7 ADD DUP3 PUSH2 0x1EE6 JUMP JUMPDEST SWAP2 POP POP PUSH1 0x60 DUP4 ADD MLOAD DUP5 DUP3 SUB PUSH1 0x60 DUP7 ADD MSTORE PUSH2 0x1FC0 DUP3 DUP3 PUSH2 0x1EE6 JUMP JUMPDEST SWAP2 POP POP PUSH1 0x80 DUP4 ADD MLOAD DUP5 DUP3 SUB PUSH1 0x80 DUP7 ADD MSTORE PUSH2 0x1FDA DUP3 DUP3 PUSH2 0x1EE6 JUMP JUMPDEST SWAP2 POP POP PUSH1 0xA0 DUP4 ADD MLOAD PUSH1 0xA0 DUP6 ADD MSTORE PUSH1 0xC0 DUP4 ADD MLOAD PUSH1 0xC0 DUP6 ADD MSTORE PUSH1 0xE0 DUP4 ADD MLOAD PUSH1 0xE0 DUP6 ADD MSTORE PUSH2 0x100 DUP1 DUP5 ADD MLOAD DUP2 DUP7 ADD MSTORE POP PUSH2 0x120 DUP1 DUP5 ADD MLOAD DUP2 DUP7 ADD MSTORE POP PUSH2 0x140 DUP1 DUP5 ADD MLOAD PUSH2 0x2026 DUP3 DUP8 ADD DUP3 PUSH2 0x1F49 JUMP JUMPDEST POP SWAP1 SWAP5 SWAP4 POP POP POP POP JUMP JUMPDEST PUSH1 0x0 PUSH1 0x20 DUP1 DUP4 ADD DUP2 DUP5 MSTORE DUP1 DUP6 MLOAD DUP1 DUP4 MSTORE PUSH1 0x40 DUP7 ADD SWAP2 POP PUSH1 0x40 DUP2 PUSH1 0x5 SHL DUP8 ADD ADD SWAP3 POP DUP4 DUP8 ADD PUSH1 0x0 JUMPDEST DUP3 DUP2 LT ISZERO PUSH2 0x2085 JUMPI PUSH1 0x3F NOT DUP9 DUP7 SUB ADD DUP5 MSTORE PUSH2 0x2073 DUP6 DUP4 MLOAD PUSH2 0x1F6B JUMP JUMPDEST SWAP5 POP SWAP3 DUP6 ADD SWAP3 SWAP1 DUP6 ADD SWAP1 PUSH1 0x1 ADD PUSH2 0x2057 JUMP JUMPDEST POP SWAP3 SWAP8 SWAP7 POP POP POP POP POP POP POP JUMP JUMPDEST PUSH1 0x20 DUP2 MSTORE PUSH1 0x0 PUSH2 0x20A5 PUSH1 0x20 DUP4 ADD DUP5 PUSH2 0x1F6B JUMP JUMPDEST SWAP4 SWAP3 POP POP POP JUMP JUMPDEST PUSH4 0x4E487B71 PUSH1 0xE0 SHL PUSH1 0x0 MSTORE PUSH1 0x11 PUSH1 0x4 MSTORE PUSH1 0x24 PUSH1 0x0 REVERT JUMPDEST PUSH1 0x0 DUP3 NOT DUP3 GT ISZERO PUSH2 0x20D5 JUMPI PUSH2 0x20D5 PUSH2 0x20AC JUMP JUMPDEST POP ADD SWAP1 JUMP JUMPDEST PUSH1 0x0 PUSH1 0x0 NOT DUP3 EQ ISZERO PUSH2 0x20EE JUMPI PUSH2 0x20EE PUSH2 0x20AC JUMP JUMPDEST POP PUSH1 0x1 ADD SWAP1 JUMP JUMPDEST PUSH4 0x4E487B71 PUSH1 0xE0 SHL PUSH1 0x0 MSTORE PUSH1 0x32 PUSH1 0x4 MSTORE PUSH1 0x24 PUSH1 0x0 REVERT JUMPDEST PUSH1 0x20 DUP1 DUP3 MSTORE PUSH1 0x13 SWAP1 DUP3 ADD MSTORE PUSH19 0x556E617574686F72697A656420456E74697479 PUSH1 0x68 SHL PUSH1 0x40 DUP3 ADD MSTORE PUSH1 0x60 ADD SWAP1 JUMP JUMPDEST PUSH1 0x1 DUP2 DUP2 SHR SWAP1 DUP3 AND DUP1 PUSH2 0x214C JUMPI PUSH1 0x7F DUP3 AND SWAP2 POP JUMPDEST PUSH1 0x20 DUP3 LT DUP2 EQ ISZERO PUSH2 0x216D JUMPI PUSH4 0x4E487B71 PUSH1 0xE0 SHL PUSH1 0x0 MSTORE PUSH1 0x22 PUSH1 0x4 MSTORE PUSH1 0x24 PUSH1 0x0 REVERT JUMPDEST POP SWAP2 SWAP1 POP JUMP JUMPDEST PUSH1 0x0 DUP2 PUSH1 0x0 NOT DIV DUP4 GT DUP3 ISZERO ISZERO AND ISZERO PUSH2 0x218D JUMPI PUSH2 0x218D PUSH2 0x20AC JUMP JUMPDEST POP MUL SWAP1 JUMP JUMPDEST PUSH1 0x0 DUP3 PUSH2 0x21AF JUMPI PUSH4 0x4E487B71 PUSH1 0xE0 SHL PUSH1 0x0 MSTORE PUSH1 0x12 PUSH1 0x4 MSTORE PUSH1 0x24 PUSH1 0x0 REVERT JUMPDEST POP DIV SWAP1 JUMP JUMPDEST PUSH1 0x0 DUP3 DUP3 LT ISZERO PUSH2 0x21C6 JUMPI PUSH2 0x21C6 PUSH2 0x20AC JUMP JUMPDEST POP SUB SWAP1 JUMP INVALID 0xAE 0xE8 0xE5 0xD3 0xBB 0xB2 0xF7 BYTE SWAP6 SHL JUMP ORIGIN 0xCE 0xE2 0xF PUSH27 0xC487B9F8AB4F66A236F7694B13AF7C6AA264697066735822122025 PUSH17 0xC10D5474235BAF12F8D620D93607CDF517 0xBF BALANCE NUMBER MOD BASEFEE 0xBA PUSH28 0x61C56EEE6E1C64736F6C634300080B00330000000000000000000000 "},"methodIdentifiers":{"balance()":"b69ef8a8","changeTax(uint256)":"3e45c8af","createProject(string,string,string,uint256,uint256)":"056c29ee","deleteProject(uint256)":"4cd0cb28","getProject(uint256)":"f0f3f2c8","getProjects()":"dcc60128","getSupporters(uint256)":"4f63829c","owner()":"8da5cb5b","payOutProject(uint256)":"b531dcba","projectCount()":"36fbad26","projectExist(uint256)":"8593054b","projectTax()":"d24cd3ec","requestRefund(uint256)":"a4b2409e","stats()":"d80528ae","supportProject(uint256)":"329b0f9b","updateProject(uint256,string,string,string,uint256)":"9a3fa8c7"}}}}}