{
  "_format": "hh-sol-artifact-1",
  "contractName": "ProjectUtilsEchidnaTest",
  "sourceName": "src/contracts/test/ProjectUtilsEchidnaTest.sol",
  "abi": [
    {
      "inputs": [],
      "stateMutability": "nonpayable",
      "type": "constructor"
    },
    {
      "anonymous": false,
      "inputs": [
        {
          "indexed": false,
          "internalType": "uint256",
          "name": "id",
          "type": "uint256"
        },
        {
          "indexed": false,
          "internalType": "string",
          "name": "actionType",
          "type": "string"
        },
        {
          "indexed": true,
          "internalType": "address",
          "name": "executor",
          "type": "address"
        },
        {
          "indexed": false,
          "internalType": "uint256",
          "name": "timestamp",
          "type": "uint256"
        }
      ],
      "name": "Action",
      "type": "event"
    },
    {
      "inputs": [],
      "name": "balance",
      "outputs": [
        {
          "internalType": "uint256",
          "name": "",
          "type": "uint256"
        }
      ],
      "stateMutability": "view",
      "type": "function"
    },
    {
      "inputs": [],
      "name": "echidna_test_performPayout",
      "outputs": [],
      "stateMutability": "nonpayable",
      "type": "function"
    },
    {
      "inputs": [],
      "name": "owner",
      "outputs": [
        {
          "internalType": "address",
          "name": "",
          "type": "address"
        }
      ],
      "stateMutability": "view",
      "type": "function"
    },
    {
      "inputs": [],
      "name": "projectCount",
      "outputs": [
        {
          "internalType": "uint256",
          "name": "",
          "type": "uint256"
        }
      ],
      "stateMutability": "view",
      "type": "function"
    },
    {
      "inputs": [
        {
          "internalType": "uint256",
          "name": "",
          "type": "uint256"
        }
      ],
      "name": "projectExist",
      "outputs": [
        {
          "internalType": "bool",
          "name": "",
          "type": "bool"
        }
      ],
      "stateMutability": "view",
      "type": "function"
    },
    {
      "inputs": [],
      "name": "projectTax",
      "outputs": [
        {
          "internalType": "uint256",
          "name": "",
          "type": "uint256"
        }
      ],
      "stateMutability": "view",
      "type": "function"
    },
    {
      "inputs": [
        {
          "internalType": "uint256",
          "name": "",
          "type": "uint256"
        }
      ],
      "name": "projects",
      "outputs": [
        {
          "internalType": "uint256",
          "name": "id",
          "type": "uint256"
        },
        {
          "internalType": "address",
          "name": "owner",
          "type": "address"
        },
        {
          "internalType": "string",
          "name": "title",
          "type": "string"
        },
        {
          "internalType": "string",
          "name": "description",
          "type": "string"
        },
        {
          "internalType": "string",
          "name": "imageURL",
          "type": "string"
        },
        {
          "internalType": "uint256",
          "name": "cost",
          "type": "uint256"
        },
        {
          "internalType": "uint256",
          "name": "amountRaised",
          "type": "uint256"
        },
        {
          "internalType": "uint256",
          "name": "timestamp",
          "type": "uint256"
        },
        {
          "internalType": "uint256",
          "name": "expiresAt",
          "type": "uint256"
        },
        {
          "internalType": "uint256",
          "name": "supporters",
          "type": "uint256"
        },
        {
          "internalType": "enum DataTypes.Status",
          "name": "status",
          "type": "uint8"
        }
      ],
      "stateMutability": "view",
      "type": "function"
    },
    {
      "inputs": [],
      "name": "stats",
      "outputs": [
        {
          "internalType": "uint256",
          "name": "totalProjects",
          "type": "uint256"
        },
        {
          "internalType": "uint256",
          "name": "totalSupporters",
          "type": "uint256"
        },
        {
          "internalType": "uint256",
          "name": "totalDonations",
          "type": "uint256"
        }
      ],
      "stateMutability": "view",
      "type": "function"
    },
    {
      "inputs": [],
      "name": "withdrawFunds",
      "outputs": [],
      "stateMutability": "nonpayable",
      "type": "function"
    },
    {
      "inputs": [
        {
          "internalType": "address",
          "name": "",
          "type": "address"
        }
      ],
      "name": "withdrawals",
      "outputs": [
        {
          "internalType": "uint256",
          "name": "",
          "type": "uint256"
        }
      ],
      "stateMutability": "view",
      "type": "function"
    }
  ],
  "bytecode": "0x60806040523480156200001157600080fd5b50600080546001600160a01b03191633178155600560015560408051610160810182529182523060208084019190915281518083018352600c81526b15195cdd08141c9bda9958dd60a21b818301528383015281518083018352601681527f54686973206973206120746573742070726f6a656374000000000000000000008183015260608401528151808301909252601d82527f68747470733a2f2f6578616d706c652e636f6d2f696d6167652e706e67000000908201526080820152678ac7230489e8000060a0820181905260c08201524260e08201819052610100820190620001019062278d006200021e565b815260016020820152604001600081525060076000815481106200012957620001296200025c565b60009182526020918290208351600b9290920201908155908201516001820180546001600160a01b0319166001600160a01b03909216919091179055604082015160028201906200017b908262000317565b506060820151600382019062000192908262000317565b5060808201516004820190620001a9908262000317565b5060a0820151600582015560c0820151600682015560e0820151600782015561010082015160088201556101208201516009820155610140820151600a8201805460ff1916600183600481111562000205576200020562000246565b021790555050678ac7230489e8000060035550620003e3565b808201808211156200024057634e487b7160e01b600052601160045260246000fd5b92915050565b634e487b7160e01b600052602160045260246000fd5b634e487b7160e01b600052603260045260246000fd5b634e487b7160e01b600052604160045260246000fd5b600181811c908216806200029d57607f821691505b602082108103620002be57634e487b7160e01b600052602260045260246000fd5b50919050565b601f8211156200031257600081815260208120601f850160051c81016020861015620002ed5750805b601f850160051c820191505b818110156200030e57828155600101620002f9565b5050505b505050565b81516001600160401b0381111562000333576200033362000272565b6200034b8162000344845462000288565b84620002c4565b602080601f8311600181146200038357600084156200036a5750858301515b600019600386901b1c1916600185901b1785556200030e565b600085815260208120601f198616915b82811015620003b45788860151825594840194600190910190840162000393565b5085821015620003d35787850151600019600388901b60f8161c191681555b5050505050600190811b01905550565b61098880620003f36000396000f3fe608060405234801561001057600080fd5b506004361061009e5760003560e01c80638593054b116100665780638593054b1461011f5780638da5cb5b14610152578063b69ef8a81461017d578063d24cd3ec14610186578063d80528ae1461018f57600080fd5b8063107046bd146100a357806324600fc3146100d657806336fbad26146100e0578063563ca20c146100f75780637a9262a2146100ff575b600080fd5b6100b66100b1366004610734565b6101bc565b6040516100cd9b9a999897969594939291906107a9565b60405180910390f35b6100de6103cb565b005b6100e960025481565b6040519081526020016100cd565b6100de6104cc565b6100e961010d366004610854565b60086020526000908152604090205481565b61014261012d366004610734565b600b6020526000908152604090205460ff1681565b60405190151581526020016100cd565b600054610165906001600160a01b031681565b6040516001600160a01b0390911681526020016100cd565b6100e960035481565b6100e960015481565b6004546005546006546101a192919083565b604080519384526020840192909252908201526060016100cd565b600781815481106101cc57600080fd5b60009182526020909120600b90910201805460018201546002830180549294506001600160a01b03909116929161020290610884565b80601f016020809104026020016040519081016040528092919081815260200182805461022e90610884565b801561027b5780601f106102505761010080835404028352916020019161027b565b820191906000526020600020905b81548152906001019060200180831161025e57829003601f168201915b50505050509080600301805461029090610884565b80601f01602080910402602001604051908101604052809291908181526020018280546102bc90610884565b80156103095780601f106102de57610100808354040283529160200191610309565b820191906000526020600020905b8154815290600101906020018083116102ec57829003601f168201915b50505050509080600401805461031e90610884565b80601f016020809104026020016040519081016040528092919081815260200182805461034a90610884565b80156103975780601f1061036c57610100808354040283529160200191610397565b820191906000526020600020905b81548152906001019060200180831161037a57829003601f168201915b50505060058401546006850154600786015460088701546009880154600a9098015496979396929550909350919060ff168b565b336000908152600860205260409020548061042d5760405162461bcd60e51b815260206004820152601e60248201527f4e6f2066756e647320617661696c61626c6520746f207769746864726177000060448201526064015b60405180910390fd5b336000818152600860205260408082208290555190919083908381818185875af1925050503d806000811461047e576040519150601f19603f3d011682016040523d82523d6000602084013e610483565b606091505b50509050806104c85760405162461bcd60e51b815260206004820152601160248201527015da5d1a191c985dd85b0819985a5b1959607a1b6044820152606401610424565b5050565b60006003549050600060076000815481106104e9576104e96108be565b90600052602060002090600b0201600601549050600060646001548361050f91906108ea565b6105199190610907565b90506105256000610546565b6003546105328385610929565b81146105405761054061093c565b50505050565b60006007828154811061055b5761055b6108be565b90600052602060002090600b0201600601549050600060646001548361058191906108ea565b61058b9190610907565b90506004600784815481106105a2576105a26108be565b60009182526020909120600a600b9092020101805460ff191660018360048111156105cf576105cf610793565b0217905550610616600784815481106105ea576105ea6108be565b600091825260209091206001600b9092020101546001600160a01b03166106118385610929565b6106cf565b60005461062c906001600160a01b0316826106cf565b6007838154811061063f5761063f6108be565b90600052602060002090600b020160060154600360008282546106629190610929565b9091555050604080518481526060602082018190526010908201526f141493d29150d517d410525117d3d55560821b60808201524281830152905133917faee8e5d3bbb2f71a951b5632cee20f7ac487b9f8ab4f66a236f7694b13af7c6a919081900360a00190a2505050565b6000826001600160a01b03168260405160006040518083038185875af1925050503d806000811461071c576040519150601f19603f3d011682016040523d82523d6000602084013e610721565b606091505b505090508061072f57600080fd5b505050565b60006020828403121561074657600080fd5b5035919050565b6000815180845260005b8181101561077357602081850181015186830182015201610757565b506000602082860101526020601f19601f83011685010191505092915050565b634e487b7160e01b600052602160045260246000fd5b8b81526001600160a01b038b166020820152610160604082018190526000906107d48382018d61074d565b905082810360608401526107e8818c61074d565b905082810360808401526107fc818b61074d565b9150508760a08301528660c08301528560e083015284610100830152836101208301526005831061083d57634e487b7160e01b600052602160045260246000fd5b826101408301529c9b505050505050505050505050565b60006020828403121561086657600080fd5b81356001600160a01b038116811461087d57600080fd5b9392505050565b600181811c9082168061089857607f821691505b6020821081036108b857634e487b7160e01b600052602260045260246000fd5b50919050565b634e487b7160e01b600052603260045260246000fd5b634e487b7160e01b600052601160045260246000fd5b8082028115828204841417610901576109016108d4565b92915050565b60008261092457634e487b7160e01b600052601260045260246000fd5b500490565b81810381811115610901576109016108d4565b634e487b7160e01b600052600160045260246000fdfea2646970667358221220578715bbd159fa720b4ac9d41e15903f6a25c6d01b6c664aba8a25834cacd45464736f6c63430008110033",
  "linkReferences": {},
  "deployedLinkReferences": {}
}