{
  "_format": "hh-sol-artifact-1",
  "contractName": "CharityStorage",
  "sourceName": "src/contracts/CharityStorage.sol",
  "abi": [
    {
      "anonymous": false,
      "inputs": [
        {
          "indexed": false,
          "internalType": "uint256",
          "name": "id",
          "type": "uint256"
        },
        {
          "indexed": false,
          "internalType": "string",
          "name": "actionType",
          "type": "string"
        },
        {
          "indexed": true,
          "internalType": "address",
          "name": "executor",
          "type": "address"
        },
        {
          "indexed": false,
          "internalType": "uint256",
          "name": "timestamp",
          "type": "uint256"
        }
      ],
      "name": "Action",
      "type": "event"
    },
    {
      "inputs": [],
      "name": "balance",
      "outputs": [
        {
          "internalType": "uint256",
          "name": "",
          "type": "uint256"
        }
      ],
      "stateMutability": "view",
      "type": "function"
    },
    {
      "inputs": [],
      "name": "owner",
      "outputs": [
        {
          "internalType": "address",
          "name": "",
          "type": "address"
        }
      ],
      "stateMutability": "view",
      "type": "function"
    },
    {
      "inputs": [],
      "name": "projectCount",
      "outputs": [
        {
          "internalType": "uint256",
          "name": "",
          "type": "uint256"
        }
      ],
      "stateMutability": "view",
      "type": "function"
    },
    {
      "inputs": [
        {
          "internalType": "uint256",
          "name": "",
          "type": "uint256"
        }
      ],
      "name": "projectExist",
      "outputs": [
        {
          "internalType": "bool",
          "name": "",
          "type": "bool"
        }
      ],
      "stateMutability": "view",
      "type": "function"
    },
    {
      "inputs": [],
      "name": "projectTax",
      "outputs": [
        {
          "internalType": "uint256",
          "name": "",
          "type": "uint256"
        }
      ],
      "stateMutability": "view",
      "type": "function"
    },
    {
      "inputs": [
        {
          "internalType": "uint256",
          "name": "",
          "type": "uint256"
        }
      ],
      "name": "projects",
      "outputs": [
        {
          "internalType": "uint256",
          "name": "id",
          "type": "uint256"
        },
        {
          "internalType": "address",
          "name": "owner",
          "type": "address"
        },
        {
          "internalType": "string",
          "name": "title",
          "type": "string"
        },
        {
          "internalType": "string",
          "name": "description",
          "type": "string"
        },
        {
          "internalType": "string",
          "name": "imageURL",
          "type": "string"
        },
        {
          "internalType": "uint256",
          "name": "cost",
          "type": "uint256"
        },
        {
          "internalType": "uint256",
          "name": "raised",
          "type": "uint256"
        },
        {
          "internalType": "uint256",
          "name": "timestamp",
          "type": "uint256"
        },
        {
          "internalType": "uint256",
          "name": "expiresAt",
          "type": "uint256"
        },
        {
          "internalType": "uint256",
          "name": "supporters",
          "type": "uint256"
        },
        {
          "internalType": "enum DataTypes.Status",
          "name": "status",
          "type": "uint8"
        }
      ],
      "stateMutability": "view",
      "type": "function"
    },
    {
      "inputs": [],
      "name": "stats",
      "outputs": [
        {
          "internalType": "uint256",
          "name": "totalProjects",
          "type": "uint256"
        },
        {
          "internalType": "uint256",
          "name": "totalSupporters",
          "type": "uint256"
        },
        {
          "internalType": "uint256",
          "name": "totalDonations",
          "type": "uint256"
        }
      ],
      "stateMutability": "view",
      "type": "function"
    }
  ],
  "bytecode": "0x608060405234801561001057600080fd5b506104fa806100206000396000f3fe608060405234801561001057600080fd5b506004361061007d5760003560e01c80638da5cb5b1161005b5780638da5cb5b146100ff578063b69ef8a81461012a578063d24cd3ec14610133578063d80528ae1461013c57600080fd5b8063107046bd1461008257806336fbad26146100b55780638593054b146100cc575b600080fd5b610095610090366004610378565b610169565b6040516100ac9b9a999897969594939291906103de565b60405180910390f35b6100be60025481565b6040519081526020016100ac565b6100ef6100da366004610378565b600a6020526000908152604090205460ff1681565b60405190151581526020016100ac565b600054610112906001600160a01b031681565b6040516001600160a01b0390911681526020016100ac565b6100be60035481565b6100be60015481565b60045460055460065461014e92919083565b604080519384526020840192909252908201526060016100ac565b6007818154811061017957600080fd5b60009182526020909120600b90910201805460018201546002830180549294506001600160a01b0390911692916101af90610489565b80601f01602080910402602001604051908101604052809291908181526020018280546101db90610489565b80156102285780601f106101fd57610100808354040283529160200191610228565b820191906000526020600020905b81548152906001019060200180831161020b57829003601f168201915b50505050509080600301805461023d90610489565b80601f016020809104026020016040519081016040528092919081815260200182805461026990610489565b80156102b65780601f1061028b576101008083540402835291602001916102b6565b820191906000526020600020905b81548152906001019060200180831161029957829003601f168201915b5050505050908060040180546102cb90610489565b80601f01602080910402602001604051908101604052809291908181526020018280546102f790610489565b80156103445780601f1061031957610100808354040283529160200191610344565b820191906000526020600020905b81548152906001019060200180831161032757829003601f168201915b50505060058401546006850154600786015460088701546009880154600a9098015496979396929550909350919060ff168b565b60006020828403121561038a57600080fd5b5035919050565b6000815180845260005b818110156103b75760208185018101518683018201520161039b565b818111156103c9576000602083870101525b50601f01601f19169290920160200192915050565b8b81526001600160a01b038b166020820152610160604082018190526000906104098382018d610391565b9050828103606084015261041d818c610391565b90508281036080840152610431818b610391565b9150508760a08301528660c08301528560e083015284610100830152836101208301526005831061047257634e487b7160e01b600052602160045260246000fd5b826101408301529c9b505050505050505050505050565b600181811c9082168061049d57607f821691505b602082108114156104be57634e487b7160e01b600052602260045260246000fd5b5091905056fea2646970667358221220cf07cc8fc9ad936143a84029c331ff988b189ee648a75ca06d9c4e51f560669364736f6c634300080b0033",
  "linkReferences": {},
  "deployedLinkReferences": {}
}