{
  "_format": "hh-sol-artifact-1",
  "contractName": "CharityStorage",
  "sourceName": "src/contracts/CharityStorage.sol",
  "abi": [
    {
      "anonymous": false,
      "inputs": [
        {
          "indexed": false,
          "internalType": "uint256",
          "name": "id",
          "type": "uint256"
        },
        {
          "indexed": false,
          "internalType": "string",
          "name": "actionType",
          "type": "string"
        },
        {
          "indexed": true,
          "internalType": "address",
          "name": "executor",
          "type": "address"
        },
        {
          "indexed": false,
          "internalType": "uint256",
          "name": "timestamp",
          "type": "uint256"
        }
      ],
      "name": "Action",
      "type": "event"
    },
    {
      "inputs": [],
      "name": "balance",
      "outputs": [
        {
          "internalType": "uint256",
          "name": "",
          "type": "uint256"
        }
      ],
      "stateMutability": "view",
      "type": "function"
    },
    {
      "inputs": [],
      "name": "owner",
      "outputs": [
        {
          "internalType": "address",
          "name": "",
          "type": "address"
        }
      ],
      "stateMutability": "view",
      "type": "function"
    },
    {
      "inputs": [],
      "name": "projectCount",
      "outputs": [
        {
          "internalType": "uint256",
          "name": "",
          "type": "uint256"
        }
      ],
      "stateMutability": "view",
      "type": "function"
    },
    {
      "inputs": [
        {
          "internalType": "uint256",
          "name": "",
          "type": "uint256"
        }
      ],
      "name": "projectExist",
      "outputs": [
        {
          "internalType": "bool",
          "name": "",
          "type": "bool"
        }
      ],
      "stateMutability": "view",
      "type": "function"
    },
    {
      "inputs": [],
      "name": "projectTax",
      "outputs": [
        {
          "internalType": "uint256",
          "name": "",
          "type": "uint256"
        }
      ],
      "stateMutability": "view",
      "type": "function"
    },
    {
      "inputs": [
        {
          "internalType": "uint256",
          "name": "",
          "type": "uint256"
        }
      ],
      "name": "projects",
      "outputs": [
        {
          "internalType": "uint256",
          "name": "id",
          "type": "uint256"
        },
        {
          "internalType": "address",
          "name": "owner",
          "type": "address"
        },
        {
          "internalType": "string",
          "name": "title",
          "type": "string"
        },
        {
          "internalType": "string",
          "name": "description",
          "type": "string"
        },
        {
          "internalType": "string",
          "name": "imageURL",
          "type": "string"
        },
        {
          "internalType": "uint256",
          "name": "cost",
          "type": "uint256"
        },
        {
          "internalType": "uint256",
          "name": "amountRaised",
          "type": "uint256"
        },
        {
          "internalType": "uint256",
          "name": "timestamp",
          "type": "uint256"
        },
        {
          "internalType": "uint256",
          "name": "expiresAt",
          "type": "uint256"
        },
        {
          "internalType": "uint256",
          "name": "supporters",
          "type": "uint256"
        },
        {
          "internalType": "enum DataTypes.Status",
          "name": "status",
          "type": "uint8"
        }
      ],
      "stateMutability": "view",
      "type": "function"
    },
    {
      "inputs": [],
      "name": "stats",
      "outputs": [
        {
          "internalType": "uint256",
          "name": "totalProjects",
          "type": "uint256"
        },
        {
          "internalType": "uint256",
          "name": "totalSupporters",
          "type": "uint256"
        },
        {
          "internalType": "uint256",
          "name": "totalDonations",
          "type": "uint256"
        }
      ],
      "stateMutability": "view",
      "type": "function"
    },
    {
      "inputs": [
        {
          "internalType": "address",
          "name": "",
          "type": "address"
        }
      ],
      "name": "withdrawals",
      "outputs": [
        {
          "internalType": "uint256",
          "name": "",
          "type": "uint256"
        }
      ],
      "stateMutability": "view",
      "type": "function"
    }
  ],
  "bytecode": "0x608060405234801561001057600080fd5b5061054d806100206000396000f3fe608060405234801561001057600080fd5b50600436106100885760003560e01c80638da5cb5b1161005b5780638da5cb5b1461012a578063b69ef8a814610155578063d24cd3ec1461015e578063d80528ae1461016757600080fd5b8063107046bd1461008d57806336fbad26146100c05780637a9262a2146100d75780638593054b146100f7575b600080fd5b6100a061009b3660046103a3565b610194565b6040516100b79b9a99989796959493929190610402565b60405180910390f35b6100c960025481565b6040519081526020016100b7565b6100c96100e53660046104ad565b60086020526000908152604090205481565b61011a6101053660046103a3565b600b6020526000908152604090205460ff1681565b60405190151581526020016100b7565b60005461013d906001600160a01b031681565b6040516001600160a01b0390911681526020016100b7565b6100c960035481565b6100c960015481565b60045460055460065461017992919083565b604080519384526020840192909252908201526060016100b7565b600781815481106101a457600080fd5b60009182526020909120600b90910201805460018201546002830180549294506001600160a01b0390911692916101da906104dd565b80601f0160208091040260200160405190810160405280929190818152602001828054610206906104dd565b80156102535780601f1061022857610100808354040283529160200191610253565b820191906000526020600020905b81548152906001019060200180831161023657829003601f168201915b505050505090806003018054610268906104dd565b80601f0160208091040260200160405190810160405280929190818152602001828054610294906104dd565b80156102e15780601f106102b6576101008083540402835291602001916102e1565b820191906000526020600020905b8154815290600101906020018083116102c457829003601f168201915b5050505050908060040180546102f6906104dd565b80601f0160208091040260200160405190810160405280929190818152602001828054610322906104dd565b801561036f5780601f106103445761010080835404028352916020019161036f565b820191906000526020600020905b81548152906001019060200180831161035257829003601f168201915b50505060058401546006850154600786015460088701546009880154600a9098015496979396929550909350919060ff168b565b6000602082840312156103b557600080fd5b5035919050565b6000815180845260005b818110156103e2576020818501810151868301820152016103c6565b506000602082860101526020601f19601f83011685010191505092915050565b8b81526001600160a01b038b1660208201526101606040820181905260009061042d8382018d6103bc565b90508281036060840152610441818c6103bc565b90508281036080840152610455818b6103bc565b9150508760a08301528660c08301528560e083015284610100830152836101208301526005831061049657634e487b7160e01b600052602160045260246000fd5b826101408301529c9b505050505050505050505050565b6000602082840312156104bf57600080fd5b81356001600160a01b03811681146104d657600080fd5b9392505050565b600181811c908216806104f157607f821691505b60208210810361051157634e487b7160e01b600052602260045260246000fd5b5091905056fea264697066735822122074d0ef7e9f2545c8e644105b0a75f05e0535255821f68b3a124cb4665e409f7f64736f6c63430008110033",
  "linkReferences": {},
  "deployedLinkReferences": {}
}