{
  "_format": "hh-sol-artifact-1",
  "contractName": "ProjectUtils",
  "sourceName": "src/contracts/ProjectUtils.sol",
  "abi": [
    {
      "anonymous": false,
      "inputs": [
        {
          "indexed": false,
          "internalType": "uint256",
          "name": "id",
          "type": "uint256"
        },
        {
          "indexed": false,
          "internalType": "string",
          "name": "actionType",
          "type": "string"
        },
        {
          "indexed": true,
          "internalType": "address",
          "name": "executor",
          "type": "address"
        },
        {
          "indexed": false,
          "internalType": "uint256",
          "name": "timestamp",
          "type": "uint256"
        }
      ],
      "name": "Action",
      "type": "event"
    },
    {
      "inputs": [],
      "name": "balance",
      "outputs": [
        {
          "internalType": "uint256",
          "name": "",
          "type": "uint256"
        }
      ],
      "stateMutability": "view",
      "type": "function"
    },
    {
      "inputs": [],
      "name": "owner",
      "outputs": [
        {
          "internalType": "address",
          "name": "",
          "type": "address"
        }
      ],
      "stateMutability": "view",
      "type": "function"
    },
    {
      "inputs": [],
      "name": "projectCount",
      "outputs": [
        {
          "internalType": "uint256",
          "name": "",
          "type": "uint256"
        }
      ],
      "stateMutability": "view",
      "type": "function"
    },
    {
      "inputs": [
        {
          "internalType": "uint256",
          "name": "",
          "type": "uint256"
        }
      ],
      "name": "projectExist",
      "outputs": [
        {
          "internalType": "bool",
          "name": "",
          "type": "bool"
        }
      ],
      "stateMutability": "view",
      "type": "function"
    },
    {
      "inputs": [],
      "name": "projectTax",
      "outputs": [
        {
          "internalType": "uint256",
          "name": "",
          "type": "uint256"
        }
      ],
      "stateMutability": "view",
      "type": "function"
    },
    {
      "inputs": [
        {
          "internalType": "uint256",
          "name": "",
          "type": "uint256"
        }
      ],
      "name": "projects",
      "outputs": [
        {
          "internalType": "uint256",
          "name": "id",
          "type": "uint256"
        },
        {
          "internalType": "address",
          "name": "owner",
          "type": "address"
        },
        {
          "internalType": "string",
          "name": "title",
          "type": "string"
        },
        {
          "internalType": "string",
          "name": "description",
          "type": "string"
        },
        {
          "internalType": "string",
          "name": "imageURL",
          "type": "string"
        },
        {
          "internalType": "uint256",
          "name": "cost",
          "type": "uint256"
        },
        {
          "internalType": "uint256",
          "name": "amountRaised",
          "type": "uint256"
        },
        {
          "internalType": "uint256",
          "name": "timestamp",
          "type": "uint256"
        },
        {
          "internalType": "uint256",
          "name": "expiresAt",
          "type": "uint256"
        },
        {
          "internalType": "uint256",
          "name": "supporters",
          "type": "uint256"
        },
        {
          "internalType": "enum DataTypes.Status",
          "name": "status",
          "type": "uint8"
        }
      ],
      "stateMutability": "view",
      "type": "function"
    },
    {
      "inputs": [],
      "name": "stats",
      "outputs": [
        {
          "internalType": "uint256",
          "name": "totalProjects",
          "type": "uint256"
        },
        {
          "internalType": "uint256",
          "name": "totalSupporters",
          "type": "uint256"
        },
        {
          "internalType": "uint256",
          "name": "totalDonations",
          "type": "uint256"
        }
      ],
      "stateMutability": "view",
      "type": "function"
    },
    {
      "inputs": [],
      "name": "withdrawFunds",
      "outputs": [],
      "stateMutability": "nonpayable",
      "type": "function"
    },
    {
      "inputs": [
        {
          "internalType": "address",
          "name": "",
          "type": "address"
        }
      ],
      "name": "withdrawals",
      "outputs": [
        {
          "internalType": "uint256",
          "name": "",
          "type": "uint256"
        }
      ],
      "stateMutability": "view",
      "type": "function"
    }
  ],
  "bytecode": "0x608060405234801561001057600080fd5b50610663806100206000396000f3fe608060405234801561001057600080fd5b50600436106100935760003560e01c80638593054b116100665780638593054b1461010c5780638da5cb5b1461013f578063b69ef8a81461016a578063d24cd3ec14610173578063d80528ae1461017c57600080fd5b8063107046bd1461009857806324600fc3146100cb57806336fbad26146100d55780637a9262a2146100ec575b600080fd5b6100ab6100a63660046104b9565b6101a9565b6040516100c29b9a99989796959493929190610518565b60405180910390f35b6100d36103b8565b005b6100de60025481565b6040519081526020016100c2565b6100de6100fa3660046105c3565b60086020526000908152604090205481565b61012f61011a3660046104b9565b600b6020526000908152604090205460ff1681565b60405190151581526020016100c2565b600054610152906001600160a01b031681565b6040516001600160a01b0390911681526020016100c2565b6100de60035481565b6100de60015481565b60045460055460065461018e92919083565b604080519384526020840192909252908201526060016100c2565b600781815481106101b957600080fd5b60009182526020909120600b90910201805460018201546002830180549294506001600160a01b0390911692916101ef906105f3565b80601f016020809104026020016040519081016040528092919081815260200182805461021b906105f3565b80156102685780601f1061023d57610100808354040283529160200191610268565b820191906000526020600020905b81548152906001019060200180831161024b57829003601f168201915b50505050509080600301805461027d906105f3565b80601f01602080910402602001604051908101604052809291908181526020018280546102a9906105f3565b80156102f65780601f106102cb576101008083540402835291602001916102f6565b820191906000526020600020905b8154815290600101906020018083116102d957829003601f168201915b50505050509080600401805461030b906105f3565b80601f0160208091040260200160405190810160405280929190818152602001828054610337906105f3565b80156103845780601f1061035957610100808354040283529160200191610384565b820191906000526020600020905b81548152906001019060200180831161036757829003601f168201915b50505060058401546006850154600786015460088701546009880154600a9098015496979396929550909350919060ff168b565b336000908152600860205260409020548061041a5760405162461bcd60e51b815260206004820152601e60248201527f4e6f2066756e647320617661696c61626c6520746f207769746864726177000060448201526064015b60405180910390fd5b336000818152600860205260408082208290555190919083908381818185875af1925050503d806000811461046b576040519150601f19603f3d011682016040523d82523d6000602084013e610470565b606091505b50509050806104b55760405162461bcd60e51b815260206004820152601160248201527015da5d1a191c985dd85b0819985a5b1959607a1b6044820152606401610411565b5050565b6000602082840312156104cb57600080fd5b5035919050565b6000815180845260005b818110156104f8576020818501810151868301820152016104dc565b506000602082860101526020601f19601f83011685010191505092915050565b8b81526001600160a01b038b166020820152610160604082018190526000906105438382018d6104d2565b90508281036060840152610557818c6104d2565b9050828103608084015261056b818b6104d2565b9150508760a08301528660c08301528560e08301528461010083015283610120830152600583106105ac57634e487b7160e01b600052602160045260246000fd5b826101408301529c9b505050505050505050505050565b6000602082840312156105d557600080fd5b81356001600160a01b03811681146105ec57600080fd5b9392505050565b600181811c9082168061060757607f821691505b60208210810361062757634e487b7160e01b600052602260045260246000fd5b5091905056fea264697066735822122044a61fc4afcfe4eb207bd0e1d1da8b92bc61835ec8556d1ddc104789e2eb8db264736f6c63430008110033",
  "linkReferences": {},
  "deployedLinkReferences": {}
}