{
  "_format": "hh-sol-artifact-1",
  "contractName": "DCharity",
  "sourceName": "src/contracts/DCharity.sol",
  "abi": [
    {
      "inputs": [
        {
          "internalType": "uint256",
          "name": "_projectTax",
          "type": "uint256"
        }
      ],
      "stateMutability": "nonpayable",
      "type": "constructor"
    },
    {
      "anonymous": false,
      "inputs": [
        {
          "indexed": false,
          "internalType": "uint256",
          "name": "id",
          "type": "uint256"
        },
        {
          "indexed": false,
          "internalType": "string",
          "name": "actionType",
          "type": "string"
        },
        {
          "indexed": true,
          "internalType": "address",
          "name": "executor",
          "type": "address"
        },
        {
          "indexed": false,
          "internalType": "uint256",
          "name": "timestamp",
          "type": "uint256"
        }
      ],
      "name": "Action",
      "type": "event"
    },
    {
      "inputs": [],
      "name": "balance",
      "outputs": [
        {
          "internalType": "uint256",
          "name": "",
          "type": "uint256"
        }
      ],
      "stateMutability": "view",
      "type": "function"
    },
    {
      "inputs": [
        {
          "internalType": "uint256",
          "name": "_taxPercentage",
          "type": "uint256"
        }
      ],
      "name": "changeTax",
      "outputs": [],
      "stateMutability": "nonpayable",
      "type": "function"
    },
    {
      "inputs": [
        {
          "internalType": "string",
          "name": "title",
          "type": "string"
        },
        {
          "internalType": "string",
          "name": "description",
          "type": "string"
        },
        {
          "internalType": "string",
          "name": "imageURL",
          "type": "string"
        },
        {
          "internalType": "uint256",
          "name": "cost",
          "type": "uint256"
        },
        {
          "internalType": "uint256",
          "name": "expiresAt",
          "type": "uint256"
        }
      ],
      "name": "createProject",
      "outputs": [
        {
          "internalType": "bool",
          "name": "",
          "type": "bool"
        }
      ],
      "stateMutability": "nonpayable",
      "type": "function"
    },
    {
      "inputs": [
        {
          "internalType": "uint256",
          "name": "id",
          "type": "uint256"
        }
      ],
      "name": "deleteProject",
      "outputs": [
        {
          "internalType": "bool",
          "name": "",
          "type": "bool"
        }
      ],
      "stateMutability": "nonpayable",
      "type": "function"
    },
    {
      "inputs": [],
      "name": "getAllSupporters",
      "outputs": [
        {
          "components": [
            {
              "internalType": "address",
              "name": "owner",
              "type": "address"
            },
            {
              "internalType": "uint256",
              "name": "contribution",
              "type": "uint256"
            },
            {
              "internalType": "uint256",
              "name": "timestamp",
              "type": "uint256"
            },
            {
              "internalType": "bool",
              "name": "refunded",
              "type": "bool"
            }
          ],
          "internalType": "struct DCharity.Supporter[]",
          "name": "",
          "type": "tuple[]"
        }
      ],
      "stateMutability": "view",
      "type": "function"
    },
    {
      "inputs": [],
      "name": "getOwnerProjects",
      "outputs": [
        {
          "components": [
            {
              "internalType": "uint256",
              "name": "id",
              "type": "uint256"
            },
            {
              "internalType": "address",
              "name": "owner",
              "type": "address"
            },
            {
              "internalType": "string",
              "name": "title",
              "type": "string"
            },
            {
              "internalType": "string",
              "name": "description",
              "type": "string"
            },
            {
              "internalType": "string",
              "name": "imageURL",
              "type": "string"
            },
            {
              "internalType": "uint256",
              "name": "cost",
              "type": "uint256"
            },
            {
              "internalType": "uint256",
              "name": "raised",
              "type": "uint256"
            },
            {
              "internalType": "uint256",
              "name": "timestamp",
              "type": "uint256"
            },
            {
              "internalType": "uint256",
              "name": "expiresAt",
              "type": "uint256"
            },
            {
              "internalType": "uint256",
              "name": "supporters",
              "type": "uint256"
            },
            {
              "internalType": "enum DCharity.Status",
              "name": "status",
              "type": "uint8"
            }
          ],
          "internalType": "struct DCharity.Project[]",
          "name": "",
          "type": "tuple[]"
        }
      ],
      "stateMutability": "view",
      "type": "function"
    },
    {
      "inputs": [],
      "name": "getOwnerProjectsCount",
      "outputs": [
        {
          "internalType": "uint256",
          "name": "",
          "type": "uint256"
        }
      ],
      "stateMutability": "view",
      "type": "function"
    },
    {
      "inputs": [
        {
          "internalType": "uint256",
          "name": "id",
          "type": "uint256"
        }
      ],
      "name": "getProject",
      "outputs": [
        {
          "components": [
            {
              "internalType": "uint256",
              "name": "id",
              "type": "uint256"
            },
            {
              "internalType": "address",
              "name": "owner",
              "type": "address"
            },
            {
              "internalType": "string",
              "name": "title",
              "type": "string"
            },
            {
              "internalType": "string",
              "name": "description",
              "type": "string"
            },
            {
              "internalType": "string",
              "name": "imageURL",
              "type": "string"
            },
            {
              "internalType": "uint256",
              "name": "cost",
              "type": "uint256"
            },
            {
              "internalType": "uint256",
              "name": "raised",
              "type": "uint256"
            },
            {
              "internalType": "uint256",
              "name": "timestamp",
              "type": "uint256"
            },
            {
              "internalType": "uint256",
              "name": "expiresAt",
              "type": "uint256"
            },
            {
              "internalType": "uint256",
              "name": "supporters",
              "type": "uint256"
            },
            {
              "internalType": "enum DCharity.Status",
              "name": "status",
              "type": "uint8"
            }
          ],
          "internalType": "struct DCharity.Project",
          "name": "",
          "type": "tuple"
        }
      ],
      "stateMutability": "view",
      "type": "function"
    },
    {
      "inputs": [
        {
          "internalType": "uint256",
          "name": "id",
          "type": "uint256"
        }
      ],
      "name": "getProjectSupporters",
      "outputs": [
        {
          "components": [
            {
              "internalType": "address",
              "name": "owner",
              "type": "address"
            },
            {
              "internalType": "uint256",
              "name": "contribution",
              "type": "uint256"
            },
            {
              "internalType": "uint256",
              "name": "timestamp",
              "type": "uint256"
            },
            {
              "internalType": "bool",
              "name": "refunded",
              "type": "bool"
            }
          ],
          "internalType": "struct DCharity.Supporter[]",
          "name": "",
          "type": "tuple[]"
        }
      ],
      "stateMutability": "view",
      "type": "function"
    },
    {
      "inputs": [],
      "name": "getProjects",
      "outputs": [
        {
          "components": [
            {
              "internalType": "uint256",
              "name": "id",
              "type": "uint256"
            },
            {
              "internalType": "address",
              "name": "owner",
              "type": "address"
            },
            {
              "internalType": "string",
              "name": "title",
              "type": "string"
            },
            {
              "internalType": "string",
              "name": "description",
              "type": "string"
            },
            {
              "internalType": "string",
              "name": "imageURL",
              "type": "string"
            },
            {
              "internalType": "uint256",
              "name": "cost",
              "type": "uint256"
            },
            {
              "internalType": "uint256",
              "name": "raised",
              "type": "uint256"
            },
            {
              "internalType": "uint256",
              "name": "timestamp",
              "type": "uint256"
            },
            {
              "internalType": "uint256",
              "name": "expiresAt",
              "type": "uint256"
            },
            {
              "internalType": "uint256",
              "name": "supporters",
              "type": "uint256"
            },
            {
              "internalType": "enum DCharity.Status",
              "name": "status",
              "type": "uint8"
            }
          ],
          "internalType": "struct DCharity.Project[]",
          "name": "",
          "type": "tuple[]"
        }
      ],
      "stateMutability": "view",
      "type": "function"
    },
    {
      "inputs": [
        {
          "internalType": "address",
          "name": "projectOwner",
          "type": "address"
        }
      ],
      "name": "getProjectsOf",
      "outputs": [
        {
          "components": [
            {
              "internalType": "uint256",
              "name": "id",
              "type": "uint256"
            },
            {
              "internalType": "address",
              "name": "owner",
              "type": "address"
            },
            {
              "internalType": "string",
              "name": "title",
              "type": "string"
            },
            {
              "internalType": "string",
              "name": "description",
              "type": "string"
            },
            {
              "internalType": "string",
              "name": "imageURL",
              "type": "string"
            },
            {
              "internalType": "uint256",
              "name": "cost",
              "type": "uint256"
            },
            {
              "internalType": "uint256",
              "name": "raised",
              "type": "uint256"
            },
            {
              "internalType": "uint256",
              "name": "timestamp",
              "type": "uint256"
            },
            {
              "internalType": "uint256",
              "name": "expiresAt",
              "type": "uint256"
            },
            {
              "internalType": "uint256",
              "name": "supporters",
              "type": "uint256"
            },
            {
              "internalType": "enum DCharity.Status",
              "name": "status",
              "type": "uint8"
            }
          ],
          "internalType": "struct DCharity.Project[]",
          "name": "",
          "type": "tuple[]"
        }
      ],
      "stateMutability": "view",
      "type": "function"
    },
    {
      "inputs": [
        {
          "internalType": "uint256",
          "name": "id",
          "type": "uint256"
        }
      ],
      "name": "getSupporters",
      "outputs": [
        {
          "components": [
            {
              "internalType": "address",
              "name": "owner",
              "type": "address"
            },
            {
              "internalType": "uint256",
              "name": "contribution",
              "type": "uint256"
            },
            {
              "internalType": "uint256",
              "name": "timestamp",
              "type": "uint256"
            },
            {
              "internalType": "bool",
              "name": "refunded",
              "type": "bool"
            }
          ],
          "internalType": "struct DCharity.Supporter[]",
          "name": "",
          "type": "tuple[]"
        }
      ],
      "stateMutability": "view",
      "type": "function"
    },
    {
      "inputs": [],
      "name": "getTotalDonationsCount",
      "outputs": [
        {
          "internalType": "uint256",
          "name": "",
          "type": "uint256"
        }
      ],
      "stateMutability": "view",
      "type": "function"
    },
    {
      "inputs": [],
      "name": "getTotalProjectCount",
      "outputs": [
        {
          "internalType": "uint256",
          "name": "",
          "type": "uint256"
        }
      ],
      "stateMutability": "view",
      "type": "function"
    },
    {
      "inputs": [],
      "name": "getTotalSupportersCount",
      "outputs": [
        {
          "internalType": "uint256",
          "name": "",
          "type": "uint256"
        }
      ],
      "stateMutability": "view",
      "type": "function"
    },
    {
      "inputs": [],
      "name": "owner",
      "outputs": [
        {
          "internalType": "address",
          "name": "",
          "type": "address"
        }
      ],
      "stateMutability": "view",
      "type": "function"
    },
    {
      "inputs": [
        {
          "internalType": "uint256",
          "name": "id",
          "type": "uint256"
        }
      ],
      "name": "payOutProject",
      "outputs": [
        {
          "internalType": "bool",
          "name": "",
          "type": "bool"
        }
      ],
      "stateMutability": "nonpayable",
      "type": "function"
    },
    {
      "inputs": [],
      "name": "projectCount",
      "outputs": [
        {
          "internalType": "uint256",
          "name": "",
          "type": "uint256"
        }
      ],
      "stateMutability": "view",
      "type": "function"
    },
    {
      "inputs": [
        {
          "internalType": "uint256",
          "name": "",
          "type": "uint256"
        }
      ],
      "name": "projectExist",
      "outputs": [
        {
          "internalType": "bool",
          "name": "",
          "type": "bool"
        }
      ],
      "stateMutability": "view",
      "type": "function"
    },
    {
      "inputs": [],
      "name": "projectTax",
      "outputs": [
        {
          "internalType": "uint256",
          "name": "",
          "type": "uint256"
        }
      ],
      "stateMutability": "view",
      "type": "function"
    },
    {
      "inputs": [
        {
          "internalType": "uint256",
          "name": "",
          "type": "uint256"
        }
      ],
      "name": "projects",
      "outputs": [
        {
          "internalType": "uint256",
          "name": "id",
          "type": "uint256"
        },
        {
          "internalType": "address",
          "name": "owner",
          "type": "address"
        },
        {
          "internalType": "string",
          "name": "title",
          "type": "string"
        },
        {
          "internalType": "string",
          "name": "description",
          "type": "string"
        },
        {
          "internalType": "string",
          "name": "imageURL",
          "type": "string"
        },
        {
          "internalType": "uint256",
          "name": "cost",
          "type": "uint256"
        },
        {
          "internalType": "uint256",
          "name": "raised",
          "type": "uint256"
        },
        {
          "internalType": "uint256",
          "name": "timestamp",
          "type": "uint256"
        },
        {
          "internalType": "uint256",
          "name": "expiresAt",
          "type": "uint256"
        },
        {
          "internalType": "uint256",
          "name": "supporters",
          "type": "uint256"
        },
        {
          "internalType": "enum DCharity.Status",
          "name": "status",
          "type": "uint8"
        }
      ],
      "stateMutability": "view",
      "type": "function"
    },
    {
      "inputs": [
        {
          "internalType": "uint256",
          "name": "id",
          "type": "uint256"
        }
      ],
      "name": "requestRefund",
      "outputs": [
        {
          "internalType": "bool",
          "name": "",
          "type": "bool"
        }
      ],
      "stateMutability": "nonpayable",
      "type": "function"
    },
    {
      "inputs": [],
      "name": "stats",
      "outputs": [
        {
          "internalType": "uint256",
          "name": "totalProjects",
          "type": "uint256"
        },
        {
          "internalType": "uint256",
          "name": "totalSupporters",
          "type": "uint256"
        },
        {
          "internalType": "uint256",
          "name": "totalDonations",
          "type": "uint256"
        }
      ],
      "stateMutability": "view",
      "type": "function"
    },
    {
      "inputs": [
        {
          "internalType": "uint256",
          "name": "id",
          "type": "uint256"
        }
      ],
      "name": "supportProject",
      "outputs": [
        {
          "internalType": "bool",
          "name": "",
          "type": "bool"
        }
      ],
      "stateMutability": "payable",
      "type": "function"
    },
    {
      "inputs": [
        {
          "internalType": "uint256",
          "name": "id",
          "type": "uint256"
        },
        {
          "internalType": "string",
          "name": "title",
          "type": "string"
        },
        {
          "internalType": "string",
          "name": "description",
          "type": "string"
        },
        {
          "internalType": "string",
          "name": "imageURL",
          "type": "string"
        },
        {
          "internalType": "uint256",
          "name": "expiresAt",
          "type": "uint256"
        }
      ],
      "name": "updateProject",
      "outputs": [
        {
          "internalType": "bool",
          "name": "",
          "type": "bool"
        }
      ],
      "stateMutability": "nonpayable",
      "type": "function"
    },
    {
      "inputs": [
        {
          "internalType": "uint256",
          "name": "amount",
          "type": "uint256"
        }
      ],
      "name": "withdrawFunds",
      "outputs": [],
      "stateMutability": "nonpayable",
      "type": "function"
    }
  ],
  "bytecode": "0x60806040523480156200001157600080fd5b5060405162002da538038062002da583398101604081905262000034916200004f565b600080546001600160a01b0319163317905560015562000069565b6000602082840312156200006257600080fd5b5051919050565b612d2c80620000796000396000f3fe6080604052600436106101815760003560e01c80638593054b116100d1578063b69ef8a81161008a578063d7fc616f11610064578063d7fc616f1461046f578063d80528ae14610484578063dcc60128146104be578063f0f3f2c8146104d357600080fd5b8063b69ef8a81461042e578063bb14b2e414610444578063d24cd3ec1461045957600080fd5b80638593054b146103445780638da5cb5b146103745780639a3fa8c7146103ac578063a1ae4564146103cc578063a4b2409e146103ee578063b531dcba1461040e57600080fd5b806336fbad261161013e57806348cefbda1161011857806348cefbda146102da5780634cd0cb28146102ef5780634f63829c1461030f578063765050b71461032f57600080fd5b806336fbad261461028157806338d58384146102a55780633e45c8af146102ba57600080fd5b8063056c29ee14610186578063107046bd146101bb578063155dd5ee146101f25780631996c2df1461021457806329b2800814610241578063329b0f9b1461026e575b600080fd5b34801561019257600080fd5b506101a66101a136600461274d565b610500565b60405190151581526020015b60405180910390f35b3480156101c757600080fd5b506101db6101d63660046127e7565b61096c565b6040516101b29b9a99989796959493929190612885565b3480156101fe57600080fd5b5061021261020d3660046127e7565b610b7b565b005b34801561022057600080fd5b5061023461022f366004612919565b610c44565b6040516101b29190612a0e565b34801561024d57600080fd5b5061026161025c3660046127e7565b610ef5565b6040516101b29190612a70565b6101a661027c3660046127e7565b610fb1565b34801561028d57600080fd5b5061029760025481565b6040519081526020016101b2565b3480156102b157600080fd5b50600554610297565b3480156102c657600080fd5b506102126102d53660046127e7565b6113ae565b3480156102e657600080fd5b50600654610297565b3480156102fb57600080fd5b506101a661030a3660046127e7565b611403565b34801561031b57600080fd5b5061026161032a3660046127e7565b6115b2565b34801561033b57600080fd5b5061023461163f565b34801561035057600080fd5b506101a661035f3660046127e7565b600a6020526000908152604090205460ff1681565b34801561038057600080fd5b50600054610394906001600160a01b031681565b6040516001600160a01b0390911681526020016101b2565b3480156103b857600080fd5b506101a66103c7366004612adf565b61164f565b3480156103d857600080fd5b5033600090815260086020526040902054610297565b3480156103fa57600080fd5b506101a66104093660046127e7565b6118f4565b34801561041a57600080fd5b506101a66104293660046127e7565b611a1a565b34801561043a57600080fd5b5061029760035481565b34801561045057600080fd5b50610261611b36565b34801561046557600080fd5b5061029760015481565b34801561047b57600080fd5b50600754610297565b34801561049057600080fd5b506004546005546006546104a392919083565b604080519384526020840192909252908201526060016101b2565b3480156104ca57600080fd5b50610234611cfd565b3480156104df57600080fd5b506104f36104ee3660046127e7565b611f98565b6040516101b29190612b79565b6000808651116105505760405162461bcd60e51b81526020600482015260166024820152755469746c652063616e6e6f7420626520656d7074792160501b60448201526064015b60405180910390fd5b60008551116105a15760405162461bcd60e51b815260206004820152601c60248201527f4465736372697074696f6e2063616e6e6f7420626520656d70747921000000006044820152606401610547565b60008451116105ee5760405162461bcd60e51b8152602060048201526019602482015278496d61676555524c2063616e6e6f7420626520656d7074792160381b6044820152606401610547565b600083116106355760405162461bcd60e51b8152602060048201526014602482015273436f73742063616e6e6f74206265207a65726f2160601b6044820152606401610547565b61063d61259e565b600254815233602080830191825260408301898152606084018990526080840188905260a084018790524260e085015261010084018690526007805460018101825560009190915284517fa66cc928b5edb82af9bd49922954155ab7b0942694bea4ce44661d9a8736c688600b90920291820190815593517fa66cc928b5edb82af9bd49922954155ab7b0942694bea4ce44661d9a8736c689820180546001600160a01b0319166001600160a01b039092169190911790559051805185949361072a937fa66cc928b5edb82af9bd49922954155ab7b0942694bea4ce44661d9a8736c68a01920190612611565b5060608201518051610746916003840191602090910190612611565b5060808201518051610762916004840191602090910190612611565b5060a0820151600582015560c0820151600682015560e0820151600782015561010082015160088201556101208201516009820155610140820151600a8201805460ff191660018360048111156107bb576107bb61284d565b021790555050600280546000908152600a602090815260408083208054600160ff1990911681179091553384526008835281842080548083018255908552938390208751600b909502019384558683015190840180546001600160a01b0319166001600160a01b039092169190911790558501518051869550929361084893908501929190910190612611565b5060608201518051610864916003840191602090910190612611565b5060808201518051610880916004840191602090910190612611565b5060a0820151600582015560c0820151600682015560e0820151600782015561010082015160088201556101208201516009820155610140820151600a8201805460ff191660018360048111156108d9576108d961284d565b021790555050506001600460000160008282546108f69190612ba2565b9091555050600280543391600080516020612cd78339815191529190600061091d83612bba565b9091555060408051918252606060208301819052600f908301526e141493d29150d517d0d49150551151608a1b6080830152429082015260a00160405180910390a25060019695505050505050565b6007818154811061097c57600080fd5b60009182526020909120600b90910201805460018201546002830180549294506001600160a01b0390911692916109b290612bd5565b80601f01602080910402602001604051908101604052809291908181526020018280546109de90612bd5565b8015610a2b5780601f10610a0057610100808354040283529160200191610a2b565b820191906000526020600020905b815481529060010190602001808311610a0e57829003601f168201915b505050505090806003018054610a4090612bd5565b80601f0160208091040260200160405190810160405280929190818152602001828054610a6c90612bd5565b8015610ab95780601f10610a8e57610100808354040283529160200191610ab9565b820191906000526020600020905b815481529060010190602001808311610a9c57829003601f168201915b505050505090806004018054610ace90612bd5565b80601f0160208091040260200160405190810160405280929190818152602001828054610afa90612bd5565b8015610b475780601f10610b1c57610100808354040283529160200191610b47565b820191906000526020600020905b815481529060010190602001808311610b2a57829003601f168201915b50505060058401546006850154600786015460088701546009880154600a9098015496979396929550909350919060ff168b565b6000546001600160a01b03163314610bcb5760405162461bcd60e51b81526020600482015260136024820152724f776e6572207265736572766564206f6e6c7960681b6044820152606401610547565b600354811115610c145760405162461bcd60e51b8152602060048201526014602482015273496e73756666696369656e742062616c616e636560601b6044820152606401610547565b8060036000828254610c269190612c10565b9091555050600054610c41906001600160a01b031682612254565b50565b6001600160a01b0381166000908152600860209081526040808320805482518185028101850190935280835260609492939192909184015b82821015610eea5760008481526020908190206040805161016081018252600b86029092018054835260018101546001600160a01b03169383019390935260028301805492939291840191610cd090612bd5565b80601f0160208091040260200160405190810160405280929190818152602001828054610cfc90612bd5565b8015610d495780601f10610d1e57610100808354040283529160200191610d49565b820191906000526020600020905b815481529060010190602001808311610d2c57829003601f168201915b50505050508152602001600382018054610d6290612bd5565b80601f0160208091040260200160405190810160405280929190818152602001828054610d8e90612bd5565b8015610ddb5780601f10610db057610100808354040283529160200191610ddb565b820191906000526020600020905b815481529060010190602001808311610dbe57829003601f168201915b50505050508152602001600482018054610df490612bd5565b80601f0160208091040260200160405190810160405280929190818152602001828054610e2090612bd5565b8015610e6d5780601f10610e4257610100808354040283529160200191610e6d565b820191906000526020600020905b815481529060010190602001808311610e5057829003601f168201915b505050918352505060058201546020820152600682015460408201526007820154606082015260088201546080820152600982015460a0820152600a82015460c09091019060ff166004811115610ec657610ec661284d565b6004811115610ed757610ed761284d565b8152505081526020019060010190610c7c565b505050509050919050565b6000818152600a602052604090205460609060ff16610f265760405162461bcd60e51b815260040161054790612c27565b600082815260096020908152604080832080548251818502810185019093528083529193909284015b82821015610eea576000848152602090819020604080516080810182526004860290920180546001600160a01b03168352600180820154848601526002820154928401929092526003015460ff16151560608301529083529092019101610f4f565b60008034116110115760405162461bcd60e51b815260206004820152602660248201527f457468657220616d6f756e74206d7573742062652067726561746572207468616044820152656e207a65726f60d01b6064820152608401610547565b6000828152600a602052604090205460ff1661103f5760405162461bcd60e51b815260040161054790612c27565b60006007838154811061105457611054612c52565b60009182526020909120600a600b90920201015460ff16600481111561107c5761107c61284d565b146110c95760405162461bcd60e51b815260206004820152601860248201527f50726f6a656374206e6f206c6f6e676572206f70656e656400000000000000006044820152606401610547565b6001600460010160008282546110df9190612ba2565b9091555050600680543491906000906110f9908490612ba2565b92505081905550346007838154811061111457611114612c52565b90600052602060002090600b020160060160008282546111349190612ba2565b9250508190555060016007838154811061115057611150612c52565b90600052602060002090600b020160090160008282546111709190612ba2565b9091555050600082815260096020908152604080832081516080808201845233808352348387019081524284870181815260608087018b8152885460018082018b55998d529b8b902097516004909c0290970180546001600160a01b0319166001600160a01b03909c169b909b178b559251968a01969096559451600289015592516003909701805460ff1916971515979097179096558351888152948501829052600e918501919091526d141493d29150d517d09050d2d15160921b9084015290820152600080516020612cd78339815191529060a00160405180910390a26007828154811061126357611263612c52565b90600052602060002090600b0201600501546007838154811061128857611288612c52565b90600052602060002090600b02016006015410611333576001600783815481106112b4576112b4612c52565b60009182526020909120600a600b9092020101805460ff191660018360048111156112e1576112e161284d565b0217905550600782815481106112f9576112f9612c52565b90600052602060002090600b0201600601546003600082825461131c9190612ba2565b9091555061132b9050826122b9565b506001919050565b6007828154811061134657611346612c52565b90600052602060002090600b020160080154421061132b5760026007838154811061137357611373612c52565b60009182526020909120600a600b9092020101805460ff191660018360048111156113a0576113a061284d565b021790555061132b82612430565b6000546001600160a01b031633146113fe5760405162461bcd60e51b81526020600482015260136024820152724f776e6572207265736572766564206f6e6c7960681b6044820152606401610547565b600155565b6000806007838154811061141957611419612c52565b60009182526020909120600a600b90920201015460ff1660048111156114415761144161284d565b1461148e5760405162461bcd60e51b815260206004820152601960248201527f50726f6a656374206e6f206c6f6e676572206f70656e656421000000000000006044820152606401610547565b600782815481106114a1576114a1612c52565b60009182526020909120600b90910201600101546001600160a01b031633146114dc5760405162461bcd60e51b815260040161054790612c68565b6000828152600a602052604090205460ff1661150a5760405162461bcd60e51b815260040161054790612c27565b60036007838154811061151f5761151f612c52565b60009182526020909120600a600b9092020101805460ff1916600183600481111561154c5761154c61284d565b021790555061155a82612430565b60408051838152606060208201819052600f908201526e141493d29150d517d1115311551151608a1b6080820152428183015290513391600080516020612cd7833981519152919081900360a00190a2506001919050565b6000818152600960209081526040808320805482518185028101850190935280835260609492939192909184018215610eea576000848152602090819020604080516080810182526004860290920180546001600160a01b03168352600180820154848601526002820154928401929092526003015460ff16151560608301529083529092019101610f4f565b606061164a33610c44565b905090565b6000858152600a602052604081205460ff1661167d5760405162461bcd60e51b815260040161054790612c27565b6007868154811061169057611690612c52565b60009182526020909120600b90910201600101546001600160a01b031633146116cb5760405162461bcd60e51b815260040161054790612c68565b60008551116117155760405162461bcd60e51b81526020600482015260166024820152755469746c652063616e6e6f7420626520656d7074792160501b6044820152606401610547565b60008451116117665760405162461bcd60e51b815260206004820152601c60248201527f4465736372697074696f6e2063616e6e6f7420626520656d70747921000000006044820152606401610547565b60008351116117b35760405162461bcd60e51b8152602060048201526019602482015278496d61676555524c2063616e6e6f7420626520656d7074792160381b6044820152606401610547565b84600787815481106117c7576117c7612c52565b90600052602060002090600b020160020190805190602001906117eb929190612611565b50836007878154811061180057611800612c52565b90600052602060002090600b02016003019080519060200190611824929190612611565b50826007878154811061183957611839612c52565b90600052602060002090600b0201600401908051906020019061185d929190612611565b50816007878154811061187257611872612c52565b90600052602060002090600b020160080181905550336001600160a01b0316600080516020612cd783398151915287426040516118e0929190918252606060208301819052600f908301526e141493d29150d517d5541110551151608a1b6080830152604082015260a00190565b60405180910390a250600195945050505050565b6000818152600a602052604081205460ff166119225760405162461bcd60e51b815260040161054790612c27565b60026007838154811061193757611937612c52565b60009182526020909120600a600b90920201015460ff16600481111561195f5761195f61284d565b1415806119a7575060036007838154811061197c5761197c612c52565b60009182526020909120600a600b90920201015460ff1660048111156119a4576119a461284d565b14155b611a055760405162461bcd60e51b815260206004820152602960248201527f50726f6a656374206e6f74206d61726b6564206173207265766572746564206f6044820152681c8819195b195d195960ba1b6064820152608401610547565b60026007838154811061137357611373612c52565b6000818152600a602052604081205460ff16611a485760405162461bcd60e51b815260040161054790612c27565b600160078381548110611a5d57611a5d612c52565b60009182526020909120600a600b90920201015460ff166004811115611a8557611a8561284d565b14611aca5760405162461bcd60e51b815260206004820152601560248201527450726f6a656374206e6f7420417070726f7665642160581b6044820152606401610547565b60078281548110611add57611add612c52565b60009182526020909120600b90910201600101546001600160a01b0316331480611b1157506000546001600160a01b031633145b611b2d5760405162461bcd60e51b815260040161054790612c68565b61132b826122b9565b60055460609060008167ffffffffffffffff811115611b5757611b576126aa565b604051908082528060200260200182016040528015611ba957816020015b604080516080810182526000808252602080830182905292820181905260608201528252600019909201910181611b755790505b5090506000805b600754811015611cf45760006009600060078481548110611bd357611bd3612c52565b90600052602060002090600b0201600001548152602001908152602001600020805480602002602001604051908101604052809291908181526020016000905b82821015611c75576000848152602090819020604080516080810182526004860290920180546001600160a01b03168352600180820154848601526002820154928401929092526003015460ff16151560608301529083529092019101611c13565b50505050905060005b8151811015611cdf57818181518110611c9957611c99612c52565b6020026020010151858581518110611cb357611cb3612c52565b60200260200101819052508380611cc990612bba565b9450508080611cd790612bba565b915050611c7e565b50508080611cec90612bba565b915050611bb0565b50909392505050565b60606007805480602002602001604051908101604052809291908181526020016000905b82821015611f8f5760008481526020908190206040805161016081018252600b86029092018054835260018101546001600160a01b03169383019390935260028301805492939291840191611d7590612bd5565b80601f0160208091040260200160405190810160405280929190818152602001828054611da190612bd5565b8015611dee5780601f10611dc357610100808354040283529160200191611dee565b820191906000526020600020905b815481529060010190602001808311611dd157829003601f168201915b50505050508152602001600382018054611e0790612bd5565b80601f0160208091040260200160405190810160405280929190818152602001828054611e3390612bd5565b8015611e805780601f10611e5557610100808354040283529160200191611e80565b820191906000526020600020905b815481529060010190602001808311611e6357829003601f168201915b50505050508152602001600482018054611e9990612bd5565b80601f0160208091040260200160405190810160405280929190818152602001828054611ec590612bd5565b8015611f125780601f10611ee757610100808354040283529160200191611f12565b820191906000526020600020905b815481529060010190602001808311611ef557829003601f168201915b505050918352505060058201546020820152600682015460408201526007820154606082015260088201546080820152600982015460a0820152600a82015460c09091019060ff166004811115611f6b57611f6b61284d565b6004811115611f7c57611f7c61284d565b8152505081526020019060010190611d21565b50505050905090565b611fa061259e565b6000828152600a602052604090205460ff16611fce5760405162461bcd60e51b815260040161054790612c27565b60078281548110611fe157611fe1612c52565b90600052602060002090600b020160405180610160016040529081600082015481526020016001820160009054906101000a90046001600160a01b03166001600160a01b03166001600160a01b0316815260200160028201805461204490612bd5565b80601f016020809104026020016040519081016040528092919081815260200182805461207090612bd5565b80156120bd5780601f10612092576101008083540402835291602001916120bd565b820191906000526020600020905b8154815290600101906020018083116120a057829003601f168201915b505050505081526020016003820180546120d690612bd5565b80601f016020809104026020016040519081016040528092919081815260200182805461210290612bd5565b801561214f5780601f106121245761010080835404028352916020019161214f565b820191906000526020600020905b81548152906001019060200180831161213257829003601f168201915b5050505050815260200160048201805461216890612bd5565b80601f016020809104026020016040519081016040528092919081815260200182805461219490612bd5565b80156121e15780601f106121b6576101008083540402835291602001916121e1565b820191906000526020600020905b8154815290600101906020018083116121c457829003601f168201915b505050918352505060058201546020820152600682015460408201526007820154606082015260088201546080820152600982015460a0820152600a82015460c09091019060ff16600481111561223a5761223a61284d565b600481111561224b5761224b61284d565b90525092915050565b6000826001600160a01b03168260405160006040518083038185875af1925050503d80600081146122a1576040519150601f19603f3d011682016040523d82523d6000602084013e6122a6565b606091505b50509050806122b457600080fd5b505050565b6000600782815481106122ce576122ce612c52565b90600052602060002090600b020160060154905060006064600154836122f49190612c95565b6122fe9190612cb4565b905060046007848154811061231557612315612c52565b60009182526020909120600a600b9092020101805460ff191660018360048111156123425761234261284d565b02179055506123896007848154811061235d5761235d612c52565b600091825260209091206001600b9092020101546001600160a01b03166123848385612c10565b612254565b60005461239f906001600160a01b031682612254565b600783815481106123b2576123b2612c52565b90600052602060002090600b020160060154600360008282546123d59190612c10565b9091555050604080518481526060602082018190526010908201526f141493d29150d517d410525117d3d55560821b6080820152428183015290513391600080516020612cd7833981519152919081900360a00190a2505050565b60005b60008281526009602052604090205481101561259a57600082815260096020526040812080548390811061246957612469612c52565b6000918252602080832060049092029091015485835260099091526040822080546001600160a01b03909216935090849081106124a8576124a8612c52565b906000526020600020906004020160010154905060016009600086815260200190815260200160002084815481106124e2576124e2612c52565b906000526020600020906004020160030160006101000a81548160ff0219169083151502179055504260096000868152602001908152602001600020848154811061252f5761252f612c52565b90600052602060002090600402016002018190555061254e8282612254565b6001600460010160008282546125649190612c10565b90915550506006805482919060009061257e908490612c10565b925050819055505050808061259290612bba565b915050612433565b5050565b6040518061016001604052806000815260200160006001600160a01b0316815260200160608152602001606081526020016060815260200160008152602001600081526020016000815260200160008152602001600081526020016000600481111561260c5761260c61284d565b905290565b82805461261d90612bd5565b90600052602060002090601f01602090048101928261263f5760008555612685565b82601f1061265857805160ff1916838001178555612685565b82800160010185558215612685579182015b8281111561268557825182559160200191906001019061266a565b50612691929150612695565b5090565b5b808211156126915760008155600101612696565b634e487b7160e01b600052604160045260246000fd5b600082601f8301126126d157600080fd5b813567ffffffffffffffff808211156126ec576126ec6126aa565b604051601f8301601f19908116603f01168101908282118183101715612714576127146126aa565b8160405283815286602085880101111561272d57600080fd5b836020870160208301376000602085830101528094505050505092915050565b600080600080600060a0868803121561276557600080fd5b853567ffffffffffffffff8082111561277d57600080fd5b61278989838a016126c0565b9650602088013591508082111561279f57600080fd5b6127ab89838a016126c0565b955060408801359150808211156127c157600080fd5b506127ce888289016126c0565b9598949750949560608101359550608001359392505050565b6000602082840312156127f957600080fd5b5035919050565b6000815180845260005b818110156128265760208185018101518683018201520161280a565b81811115612838576000602083870101525b50601f01601f19169290920160200192915050565b634e487b7160e01b600052602160045260246000fd5b6005811061288157634e487b7160e01b600052602160045260246000fd5b9052565b8b81526001600160a01b038b166020820152610160604082018190526000906128b08382018d612800565b905082810360608401526128c4818c612800565b905082810360808401526128d8818b612800565b9150508760a08301528660c08301528560e08301528461010083015283610120830152612909610140830184612863565b9c9b505050505050505050505050565b60006020828403121561292b57600080fd5b81356001600160a01b038116811461294257600080fd5b9392505050565b600061016082518452602083015161296c60208601826001600160a01b03169052565b50604083015181604086015261298482860182612800565b9150506060830151848203606086015261299e8282612800565b915050608083015184820360808601526129b88282612800565b91505060a083015160a085015260c083015160c085015260e083015160e085015261010080840151818601525061012080840151818601525061014080840151612a0482870182612863565b5090949350505050565b6000602080830181845280855180835260408601915060408160051b870101925083870160005b82811015612a6357603f19888603018452612a51858351612949565b94509285019290850190600101612a35565b5092979650505050505050565b602080825282518282018190526000919060409081850190868401855b82811015612ad257815180516001600160a01b031685528681015187860152858101518686015260609081015115159085015260809093019290850190600101612a8d565b5091979650505050505050565b600080600080600060a08688031215612af757600080fd5b85359450602086013567ffffffffffffffff80821115612b1657600080fd5b612b2289838a016126c0565b95506040880135915080821115612b3857600080fd5b612b4489838a016126c0565b94506060880135915080821115612b5a57600080fd5b50612b67888289016126c0565b95989497509295608001359392505050565b6020815260006129426020830184612949565b634e487b7160e01b600052601160045260246000fd5b60008219821115612bb557612bb5612b8c565b500190565b6000600019821415612bce57612bce612b8c565b5060010190565b600181811c90821680612be957607f821691505b60208210811415612c0a57634e487b7160e01b600052602260045260246000fd5b50919050565b600082821015612c2257612c22612b8c565b500390565b602080825260119082015270141c9bda9958dd081b9bdd08199bdd5b99607a1b604082015260600190565b634e487b7160e01b600052603260045260246000fd5b602080825260139082015272556e617574686f72697a656420456e7469747960681b604082015260600190565b6000816000190483118215151615612caf57612caf612b8c565b500290565b600082612cd157634e487b7160e01b600052601260045260246000fd5b50049056feaee8e5d3bbb2f71a951b5632cee20f7ac487b9f8ab4f66a236f7694b13af7c6aa2646970667358221220cc9fc58e9f06d1f7c5aaa36d4159cb8045186ccbe5cde8e9268fb8a44949374664736f6c634300080b0033",
  "linkReferences": {},
  "deployedLinkReferences": {}
}