{
  "_format": "hh-sol-artifact-1",
  "contractName": "DCharity",
  "sourceName": "src/contracts/DCharity.sol",
  "abi": [
    {
      "inputs": [
        {
          "internalType": "uint256",
          "name": "_projectTax",
          "type": "uint256"
        }
      ],
      "stateMutability": "nonpayable",
      "type": "constructor"
    },
    {
      "anonymous": false,
      "inputs": [
        {
          "indexed": false,
          "internalType": "uint256",
          "name": "id",
          "type": "uint256"
        },
        {
          "indexed": false,
          "internalType": "string",
          "name": "actionType",
          "type": "string"
        },
        {
          "indexed": true,
          "internalType": "address",
          "name": "executor",
          "type": "address"
        },
        {
          "indexed": false,
          "internalType": "uint256",
          "name": "timestamp",
          "type": "uint256"
        }
      ],
      "name": "Action",
      "type": "event"
    },
    {
      "inputs": [],
      "name": "balance",
      "outputs": [
        {
          "internalType": "uint256",
          "name": "",
          "type": "uint256"
        }
      ],
      "stateMutability": "view",
      "type": "function"
    },
    {
      "inputs": [
        {
          "internalType": "uint256",
          "name": "_taxPercentage",
          "type": "uint256"
        }
      ],
      "name": "changeTax",
      "outputs": [],
      "stateMutability": "nonpayable",
      "type": "function"
    },
    {
      "inputs": [
        {
          "internalType": "string",
          "name": "title",
          "type": "string"
        },
        {
          "internalType": "string",
          "name": "description",
          "type": "string"
        },
        {
          "internalType": "string",
          "name": "imageURL",
          "type": "string"
        },
        {
          "internalType": "uint256",
          "name": "cost",
          "type": "uint256"
        },
        {
          "internalType": "uint256",
          "name": "expiresAt",
          "type": "uint256"
        }
      ],
      "name": "createProject",
      "outputs": [
        {
          "internalType": "bool",
          "name": "",
          "type": "bool"
        }
      ],
      "stateMutability": "nonpayable",
      "type": "function"
    },
    {
      "inputs": [
        {
          "internalType": "uint256",
          "name": "id",
          "type": "uint256"
        }
      ],
      "name": "deleteProject",
      "outputs": [
        {
          "internalType": "bool",
          "name": "",
          "type": "bool"
        }
      ],
      "stateMutability": "nonpayable",
      "type": "function"
    },
    {
      "inputs": [],
      "name": "getAllSupporters",
      "outputs": [
        {
          "components": [
            {
              "internalType": "address",
              "name": "owner",
              "type": "address"
            },
            {
              "internalType": "uint256",
              "name": "contribution",
              "type": "uint256"
            },
            {
              "internalType": "uint256",
              "name": "timestamp",
              "type": "uint256"
            },
            {
              "internalType": "bool",
              "name": "refunded",
              "type": "bool"
            }
          ],
          "internalType": "struct DataTypes.Supporter[]",
          "name": "",
          "type": "tuple[]"
        }
      ],
      "stateMutability": "view",
      "type": "function"
    },
    {
      "inputs": [
        {
          "internalType": "uint256",
          "name": "id",
          "type": "uint256"
        }
      ],
      "name": "getProject",
      "outputs": [
        {
          "components": [
            {
              "internalType": "uint256",
              "name": "id",
              "type": "uint256"
            },
            {
              "internalType": "address",
              "name": "owner",
              "type": "address"
            },
            {
              "internalType": "string",
              "name": "title",
              "type": "string"
            },
            {
              "internalType": "string",
              "name": "description",
              "type": "string"
            },
            {
              "internalType": "string",
              "name": "imageURL",
              "type": "string"
            },
            {
              "internalType": "uint256",
              "name": "cost",
              "type": "uint256"
            },
            {
              "internalType": "uint256",
              "name": "raised",
              "type": "uint256"
            },
            {
              "internalType": "uint256",
              "name": "timestamp",
              "type": "uint256"
            },
            {
              "internalType": "uint256",
              "name": "expiresAt",
              "type": "uint256"
            },
            {
              "internalType": "uint256",
              "name": "supporters",
              "type": "uint256"
            },
            {
              "internalType": "enum DataTypes.Status",
              "name": "status",
              "type": "uint8"
            }
          ],
          "internalType": "struct DataTypes.Project",
          "name": "",
          "type": "tuple"
        }
      ],
      "stateMutability": "view",
      "type": "function"
    },
    {
      "inputs": [
        {
          "internalType": "uint256",
          "name": "id",
          "type": "uint256"
        }
      ],
      "name": "getProjectStatus",
      "outputs": [
        {
          "internalType": "uint256",
          "name": "",
          "type": "uint256"
        }
      ],
      "stateMutability": "view",
      "type": "function"
    },
    {
      "inputs": [],
      "name": "getProjects",
      "outputs": [
        {
          "components": [
            {
              "internalType": "uint256",
              "name": "id",
              "type": "uint256"
            },
            {
              "internalType": "address",
              "name": "owner",
              "type": "address"
            },
            {
              "internalType": "string",
              "name": "title",
              "type": "string"
            },
            {
              "internalType": "string",
              "name": "description",
              "type": "string"
            },
            {
              "internalType": "string",
              "name": "imageURL",
              "type": "string"
            },
            {
              "internalType": "uint256",
              "name": "cost",
              "type": "uint256"
            },
            {
              "internalType": "uint256",
              "name": "raised",
              "type": "uint256"
            },
            {
              "internalType": "uint256",
              "name": "timestamp",
              "type": "uint256"
            },
            {
              "internalType": "uint256",
              "name": "expiresAt",
              "type": "uint256"
            },
            {
              "internalType": "uint256",
              "name": "supporters",
              "type": "uint256"
            },
            {
              "internalType": "enum DataTypes.Status",
              "name": "status",
              "type": "uint8"
            }
          ],
          "internalType": "struct DataTypes.Project[]",
          "name": "",
          "type": "tuple[]"
        }
      ],
      "stateMutability": "view",
      "type": "function"
    },
    {
      "inputs": [
        {
          "internalType": "address",
          "name": "projectOwner",
          "type": "address"
        }
      ],
      "name": "getProjectsOf",
      "outputs": [
        {
          "components": [
            {
              "internalType": "uint256",
              "name": "id",
              "type": "uint256"
            },
            {
              "internalType": "address",
              "name": "owner",
              "type": "address"
            },
            {
              "internalType": "string",
              "name": "title",
              "type": "string"
            },
            {
              "internalType": "string",
              "name": "description",
              "type": "string"
            },
            {
              "internalType": "string",
              "name": "imageURL",
              "type": "string"
            },
            {
              "internalType": "uint256",
              "name": "cost",
              "type": "uint256"
            },
            {
              "internalType": "uint256",
              "name": "raised",
              "type": "uint256"
            },
            {
              "internalType": "uint256",
              "name": "timestamp",
              "type": "uint256"
            },
            {
              "internalType": "uint256",
              "name": "expiresAt",
              "type": "uint256"
            },
            {
              "internalType": "uint256",
              "name": "supporters",
              "type": "uint256"
            },
            {
              "internalType": "enum DataTypes.Status",
              "name": "status",
              "type": "uint8"
            }
          ],
          "internalType": "struct DataTypes.Project[]",
          "name": "",
          "type": "tuple[]"
        }
      ],
      "stateMutability": "view",
      "type": "function"
    },
    {
      "inputs": [
        {
          "internalType": "uint256",
          "name": "id",
          "type": "uint256"
        }
      ],
      "name": "getSupporters",
      "outputs": [
        {
          "components": [
            {
              "internalType": "address",
              "name": "owner",
              "type": "address"
            },
            {
              "internalType": "uint256",
              "name": "contribution",
              "type": "uint256"
            },
            {
              "internalType": "uint256",
              "name": "timestamp",
              "type": "uint256"
            },
            {
              "internalType": "bool",
              "name": "refunded",
              "type": "bool"
            }
          ],
          "internalType": "struct DataTypes.Supporter[]",
          "name": "",
          "type": "tuple[]"
        }
      ],
      "stateMutability": "view",
      "type": "function"
    },
    {
      "inputs": [],
      "name": "getTotalDonationsCount",
      "outputs": [
        {
          "internalType": "uint256",
          "name": "",
          "type": "uint256"
        }
      ],
      "stateMutability": "view",
      "type": "function"
    },
    {
      "inputs": [],
      "name": "getTotalSupportersCount",
      "outputs": [
        {
          "internalType": "uint256",
          "name": "",
          "type": "uint256"
        }
      ],
      "stateMutability": "view",
      "type": "function"
    },
    {
      "inputs": [],
      "name": "owner",
      "outputs": [
        {
          "internalType": "address",
          "name": "",
          "type": "address"
        }
      ],
      "stateMutability": "view",
      "type": "function"
    },
    {
      "inputs": [
        {
          "internalType": "uint256",
          "name": "id",
          "type": "uint256"
        }
      ],
      "name": "payOutProject",
      "outputs": [
        {
          "internalType": "bool",
          "name": "",
          "type": "bool"
        }
      ],
      "stateMutability": "nonpayable",
      "type": "function"
    },
    {
      "inputs": [],
      "name": "projectCount",
      "outputs": [
        {
          "internalType": "uint256",
          "name": "",
          "type": "uint256"
        }
      ],
      "stateMutability": "view",
      "type": "function"
    },
    {
      "inputs": [
        {
          "internalType": "uint256",
          "name": "",
          "type": "uint256"
        }
      ],
      "name": "projectExist",
      "outputs": [
        {
          "internalType": "bool",
          "name": "",
          "type": "bool"
        }
      ],
      "stateMutability": "view",
      "type": "function"
    },
    {
      "inputs": [],
      "name": "projectTax",
      "outputs": [
        {
          "internalType": "uint256",
          "name": "",
          "type": "uint256"
        }
      ],
      "stateMutability": "view",
      "type": "function"
    },
    {
      "inputs": [
        {
          "internalType": "uint256",
          "name": "",
          "type": "uint256"
        }
      ],
      "name": "projects",
      "outputs": [
        {
          "internalType": "uint256",
          "name": "id",
          "type": "uint256"
        },
        {
          "internalType": "address",
          "name": "owner",
          "type": "address"
        },
        {
          "internalType": "string",
          "name": "title",
          "type": "string"
        },
        {
          "internalType": "string",
          "name": "description",
          "type": "string"
        },
        {
          "internalType": "string",
          "name": "imageURL",
          "type": "string"
        },
        {
          "internalType": "uint256",
          "name": "cost",
          "type": "uint256"
        },
        {
          "internalType": "uint256",
          "name": "raised",
          "type": "uint256"
        },
        {
          "internalType": "uint256",
          "name": "timestamp",
          "type": "uint256"
        },
        {
          "internalType": "uint256",
          "name": "expiresAt",
          "type": "uint256"
        },
        {
          "internalType": "uint256",
          "name": "supporters",
          "type": "uint256"
        },
        {
          "internalType": "enum DataTypes.Status",
          "name": "status",
          "type": "uint8"
        }
      ],
      "stateMutability": "view",
      "type": "function"
    },
    {
      "inputs": [
        {
          "internalType": "uint256",
          "name": "id",
          "type": "uint256"
        }
      ],
      "name": "requestRefund",
      "outputs": [
        {
          "internalType": "bool",
          "name": "",
          "type": "bool"
        }
      ],
      "stateMutability": "nonpayable",
      "type": "function"
    },
    {
      "inputs": [],
      "name": "stats",
      "outputs": [
        {
          "internalType": "uint256",
          "name": "totalProjects",
          "type": "uint256"
        },
        {
          "internalType": "uint256",
          "name": "totalSupporters",
          "type": "uint256"
        },
        {
          "internalType": "uint256",
          "name": "totalDonations",
          "type": "uint256"
        }
      ],
      "stateMutability": "view",
      "type": "function"
    },
    {
      "inputs": [
        {
          "internalType": "uint256",
          "name": "id",
          "type": "uint256"
        }
      ],
      "name": "supportProject",
      "outputs": [
        {
          "internalType": "bool",
          "name": "",
          "type": "bool"
        }
      ],
      "stateMutability": "payable",
      "type": "function"
    },
    {
      "inputs": [
        {
          "internalType": "uint256",
          "name": "id",
          "type": "uint256"
        },
        {
          "internalType": "string",
          "name": "title",
          "type": "string"
        },
        {
          "internalType": "string",
          "name": "description",
          "type": "string"
        },
        {
          "internalType": "string",
          "name": "imageURL",
          "type": "string"
        },
        {
          "internalType": "uint256",
          "name": "expiresAt",
          "type": "uint256"
        }
      ],
      "name": "updateProject",
      "outputs": [
        {
          "internalType": "bool",
          "name": "",
          "type": "bool"
        }
      ],
      "stateMutability": "nonpayable",
      "type": "function"
    },
    {
      "inputs": [
        {
          "internalType": "uint256",
          "name": "amount",
          "type": "uint256"
        }
      ],
      "name": "withdrawFunds",
      "outputs": [],
      "stateMutability": "nonpayable",
      "type": "function"
    },
    {
      "inputs": [],
      "name": "withdrawFunds",
      "outputs": [],
      "stateMutability": "nonpayable",
      "type": "function"
    },
    {
      "inputs": [
        {
          "internalType": "address",
          "name": "",
          "type": "address"
        }
      ],
      "name": "withdrawals",
      "outputs": [
        {
          "internalType": "uint256",
          "name": "",
          "type": "uint256"
        }
      ],
      "stateMutability": "view",
      "type": "function"
    }
  ],
  "bytecode": "0x60806040523480156200001157600080fd5b506040516200343538038062003435833981016040819052620000349162000054565b6001600c819055600080546001600160a01b03191633179055556200006e565b6000602082840312156200006757600080fd5b5051919050565b6133b7806200007e6000396000f3fe6080604052600436106101665760003560e01c80637a9262a2116100d1578063b531dcba1161008a578063d24cd3ec11610064578063d24cd3ec14610449578063d80528ae1461045f578063dcc6012814610499578063f0f3f2c8146104ae57600080fd5b8063b531dcba146103fe578063b69ef8a81461041e578063bb14b2e41461043457600080fd5b80637a9262a2146103095780638593054b146103365780638da5cb5b146103665780639675c0091461039e5780639a3fa8c7146103be578063a4b2409e146103de57600080fd5b806336fbad261161012357806336fbad261461024e57806338d58384146102725780633e45c8af1461028757806348cefbda146102a75780634cd0cb28146102bc5780634f63829c146102dc57600080fd5b8063056c29ee1461016b578063107046bd146101a0578063155dd5ee146101d75780631996c2df146101f957806324600fc314610226578063329b0f9b1461023b575b600080fd5b34801561017757600080fd5b5061018b610186366004612ca1565b6104db565b60405190151581526020015b60405180910390f35b3480156101ac57600080fd5b506101c06101bb366004612d3b565b610922565b6040516101979b9a99989796959493929190612dd2565b3480156101e357600080fd5b506101f76101f2366004612d3b565b610b31565b005b34801561020557600080fd5b50610219610214366004612e66565b610bd4565b6040516101979190612f5b565b34801561023257600080fd5b506101f7610e85565b61018b610249366004612d3b565b610f81565b34801561025a57600080fd5b5061026460025481565b604051908152602001610197565b34801561027e57600080fd5b50600554610264565b34801561029357600080fd5b506101f76102a2366004612d3b565b611834565b3480156102b357600080fd5b50600654610264565b3480156102c857600080fd5b5061018b6102d7366004612d3b565b6118a8565b3480156102e857600080fd5b506102fc6102f7366004612d3b565b611a57565b6040516101979190612fbd565b34801561031557600080fd5b50610264610324366004612e66565b60086020526000908152604090205481565b34801561034257600080fd5b5061018b610351366004612d3b565b600b6020526000908152604090205460ff1681565b34801561037257600080fd5b50600054610386906001600160a01b031681565b6040516001600160a01b039091168152602001610197565b3480156103aa57600080fd5b506102646103b9366004612d3b565b611b13565b3480156103ca57600080fd5b5061018b6103d936600461302c565b611b82565b3480156103ea57600080fd5b5061018b6103f9366004612d3b565b611e12565b34801561040a57600080fd5b5061018b610419366004612d3b565b611f38565b34801561042a57600080fd5b5061026460035481565b34801561044057600080fd5b506102fc612054565b34801561045557600080fd5b5061026460015481565b34801561046b57600080fd5b5060045460055460065461047e92919083565b60408051938452602084019290925290820152606001610197565b3480156104a557600080fd5b5061021961221b565b3480156104ba57600080fd5b506104ce6104c9366004612d3b565b6124b6565b60405161019791906130c6565b60008086511161052b5760405162461bcd60e51b81526020600482015260166024820152755469746c652063616e6e6f7420626520656d7074792160501b60448201526064015b60405180910390fd5b600085511161057c5760405162461bcd60e51b815260206004820152601c60248201527f4465736372697074696f6e2063616e6e6f7420626520656d70747921000000006044820152606401610522565b60008451116105c95760405162461bcd60e51b8152602060048201526019602482015278496d61676555524c2063616e6e6f7420626520656d7074792160381b6044820152606401610522565b600083116106105760405162461bcd60e51b8152602060048201526014602482015273436f73742063616e6e6f74206265207a65726f2160601b6044820152606401610522565b610618612b8b565b6002548152336020820190815260408201888152606083018890526080830187905260a083018690524260e084015261010083018590526007805460018101825560009190915283517fa66cc928b5edb82af9bd49922954155ab7b0942694bea4ce44661d9a8736c688600b90920291820190815592517fa66cc928b5edb82af9bd49922954155ab7b0942694bea4ce44661d9a8736c689820180546001600160a01b0319166001600160a01b0390921691909117905590518392917fa66cc928b5edb82af9bd49922954155ab7b0942694bea4ce44661d9a8736c68a01906107019082613161565b50606082015160038201906107169082613161565b506080820151600482019061072b9082613161565b5060a0820151600582015560c0820151600682015560e0820151600782015561010082015160088201556101208201516009820155610140820151600a8201805460ff1916600183600481111561078457610784612d9a565b021790555050600280546000908152600b602081815260408084208054600160ff1990911681179091553385526009835281852080548083018255908652948390208851959094029093019384559086015191830180546001600160a01b0319166001600160a01b0390931692909217909155840151849350909182019061080c9082613161565b50606082015160038201906108219082613161565b50608082015160048201906108369082613161565b5060a0820151600582015560c0820151600682015560e0820151600782015561010082015160088201556101208201516009820155610140820151600a8201805460ff1916600183600481111561088f5761088f612d9a565b021790555050506001600460000160008282546108ac9190613237565b9091555050600280543391600080516020613362833981519152919060006108d38361324a565b9091555060408051918252606060208301819052600f908301526e141493d29150d517d0d49150551151608a1b6080830152429082015260a00160405180910390a25060019695505050505050565b6007818154811061093257600080fd5b60009182526020909120600b90910201805460018201546002830180549294506001600160a01b039091169291610968906130d9565b80601f0160208091040260200160405190810160405280929190818152602001828054610994906130d9565b80156109e15780601f106109b6576101008083540402835291602001916109e1565b820191906000526020600020905b8154815290600101906020018083116109c457829003601f168201915b5050505050908060030180546109f6906130d9565b80601f0160208091040260200160405190810160405280929190818152602001828054610a22906130d9565b8015610a6f5780601f10610a4457610100808354040283529160200191610a6f565b820191906000526020600020905b815481529060010190602001808311610a5257829003601f168201915b505050505090806004018054610a84906130d9565b80601f0160208091040260200160405190810160405280929190818152602001828054610ab0906130d9565b8015610afd5780601f10610ad257610100808354040283529160200191610afd565b820191906000526020600020905b815481529060010190602001808311610ae057829003601f168201915b50505060058401546006850154600786015460088701546009880154600a9098015496979396929550909350919060ff168b565b6000546001600160a01b03163314610b5b5760405162461bcd60e51b815260040161052290613263565b600354811115610ba45760405162461bcd60e51b8152602060048201526014602482015273496e73756666696369656e742062616c616e636560601b6044820152606401610522565b8060036000828254610bb691906132a7565b9091555050600054610bd1906001600160a01b031682612772565b50565b6001600160a01b0381166000908152600960209081526040808320805482518185028101850190935280835260609492939192909184015b82821015610e7a5760008481526020908190206040805161016081018252600b86029092018054835260018101546001600160a01b03169383019390935260028301805492939291840191610c60906130d9565b80601f0160208091040260200160405190810160405280929190818152602001828054610c8c906130d9565b8015610cd95780601f10610cae57610100808354040283529160200191610cd9565b820191906000526020600020905b815481529060010190602001808311610cbc57829003601f168201915b50505050508152602001600382018054610cf2906130d9565b80601f0160208091040260200160405190810160405280929190818152602001828054610d1e906130d9565b8015610d6b5780601f10610d4057610100808354040283529160200191610d6b565b820191906000526020600020905b815481529060010190602001808311610d4e57829003601f168201915b50505050508152602001600482018054610d84906130d9565b80601f0160208091040260200160405190810160405280929190818152602001828054610db0906130d9565b8015610dfd5780601f10610dd257610100808354040283529160200191610dfd565b820191906000526020600020905b815481529060010190602001808311610de057829003601f168201915b505050918352505060058201546020820152600682015460408201526007820154606082015260088201546080820152600982015460a0820152600a82015460c09091019060ff166004811115610e5657610e56612d9a565b6004811115610e6757610e67612d9a565b8152505081526020019060010190610c0c565b505050509050919050565b3360009081526008602052604090205480610ee25760405162461bcd60e51b815260206004820152601e60248201527f4e6f2066756e647320617661696c61626c6520746f20776974686472617700006044820152606401610522565b336000818152600860205260408082208290555190919083908381818185875af1925050503d8060008114610f33576040519150601f19603f3d011682016040523d82523d6000602084013e610f38565b606091505b5050905080610f7d5760405162461bcd60e51b815260206004820152601160248201527015da5d1a191c985dd85b0819985a5b1959607a1b6044820152606401610522565b5050565b6000803411610fe15760405162461bcd60e51b815260206004820152602660248201527f457468657220616d6f756e74206d7573742062652067726561746572207468616044820152656e207a65726f60d01b6064820152608401610522565b6000828152600b602052604090205460ff1661100f5760405162461bcd60e51b8152600401610522906132ba565b600060078381548110611024576110246132e5565b60009182526020909120600a600b90920201015460ff16600481111561104c5761104c612d9a565b146110995760405162461bcd60e51b815260206004820152601860248201527f50726f6a656374206e6f206c6f6e676572206f70656e656400000000000000006044820152606401610522565b6001600460010160008282546110af9190613237565b9091555050600680543491906000906110c9908490613237565b9250508190555034600783815481106110e4576110e46132e5565b90600052602060002090600b020160060160008282546111049190613237565b92505081905550600160078381548110611120576111206132e5565b90600052602060002090600b020160090160008282546111409190613237565b90915550506000828152600a6020908152604080832081516080808201845233808352348387019081524284870181815260608087018b8152885460018082018b55998d529b8b902097516004909c0290970180546001600160a01b0319166001600160a01b03909c169b909b178b559251968a01969096559451600289015592516003909701805460ff1916971515979097179096558351888152948501829052600e918501919091526d141493d29150d517d09050d2d15160921b90840152908201526000805160206133628339815191529060a00160405180910390a26114b360078381548110611236576112366132e5565b90600052602060002090600b020160405180610160016040529081600082015481526020016001820160009054906101000a90046001600160a01b03166001600160a01b03166001600160a01b03168152602001600282018054611299906130d9565b80601f01602080910402602001604051908101604052809291908181526020018280546112c5906130d9565b80156113125780601f106112e757610100808354040283529160200191611312565b820191906000526020600020905b8154815290600101906020018083116112f557829003601f168201915b5050505050815260200160038201805461132b906130d9565b80601f0160208091040260200160405190810160405280929190818152602001828054611357906130d9565b80156113a45780601f10611379576101008083540402835291602001916113a4565b820191906000526020600020905b81548152906001019060200180831161138757829003601f168201915b505050505081526020016004820180546113bd906130d9565b80601f01602080910402602001604051908101604052809291908181526020018280546113e9906130d9565b80156114365780601f1061140b57610100808354040283529160200191611436565b820191906000526020600020905b81548152906001019060200180831161141957829003601f168201915b505050918352505060058201546020820152600682015460408201526007820154606082015260088201546080820152600982015460a0820152600a82015460c09091019060ff16600481111561148f5761148f612d9a565b60048111156114a0576114a0612d9a565b90525060a081015160c090910151101590565b15611549576001600783815481106114cd576114cd6132e5565b60009182526020909120600a600b9092020101805460ff191660018360048111156114fa576114fa612d9a565b021790555060078281548110611512576115126132e5565b90600052602060002090600b020160060154600360008282546115359190613237565b909155506115449050826127d7565b61182c565b6117d76007838154811061155f5761155f6132e5565b90600052602060002090600b020160405180610160016040529081600082015481526020016001820160009054906101000a90046001600160a01b03166001600160a01b03166001600160a01b031681526020016002820180546115c2906130d9565b80601f01602080910402602001604051908101604052809291908181526020018280546115ee906130d9565b801561163b5780601f106116105761010080835404028352916020019161163b565b820191906000526020600020905b81548152906001019060200180831161161e57829003601f168201915b50505050508152602001600382018054611654906130d9565b80601f0160208091040260200160405190810160405280929190818152602001828054611680906130d9565b80156116cd5780601f106116a2576101008083540402835291602001916116cd565b820191906000526020600020905b8154815290600101906020018083116116b057829003601f168201915b505050505081526020016004820180546116e6906130d9565b80601f0160208091040260200160405190810160405280929190818152602001828054611712906130d9565b801561175f5780601f106117345761010080835404028352916020019161175f565b820191906000526020600020905b81548152906001019060200180831161174257829003601f168201915b505050918352505060058201546020820152600682015460408201526007820154606082015260088201546080820152600982015460a0820152600a82015460c09091019060ff1660048111156117b8576117b8612d9a565b60048111156117c9576117c9612d9a565b905250610100015142101590565b1561182c576002600783815481106117f1576117f16132e5565b60009182526020909120600a600b9092020101805460ff1916600183600481111561181e5761181e612d9a565b021790555061182c8261294e565b506001919050565b6000546001600160a01b0316331461185e5760405162461bcd60e51b815260040161052290613263565b60648111156118a35760405162461bcd60e51b8152602060048201526011602482015270496e76616c6964207461782076616c756560781b6044820152606401610522565b600155565b600080600783815481106118be576118be6132e5565b60009182526020909120600a600b90920201015460ff1660048111156118e6576118e6612d9a565b146119335760405162461bcd60e51b815260206004820152601960248201527f50726f6a656374206e6f206c6f6e676572206f70656e656421000000000000006044820152606401610522565b60078281548110611946576119466132e5565b60009182526020909120600b90910201600101546001600160a01b031633146119815760405162461bcd60e51b8152600401610522906132fb565b6000828152600b602052604090205460ff166119af5760405162461bcd60e51b8152600401610522906132ba565b6003600783815481106119c4576119c46132e5565b60009182526020909120600a600b9092020101805460ff191660018360048111156119f1576119f1612d9a565b02179055506119ff8261294e565b60408051838152606060208201819052600f908201526e141493d29150d517d1115311551151608a1b6080820152428183015290513391600080516020613362833981519152919081900360a00190a2506001919050565b6000818152600b602052604090205460609060ff16611a885760405162461bcd60e51b8152600401610522906132ba565b6000828152600a6020908152604080832080548251818502810185019093528083529193909284015b82821015610e7a576000848152602090819020604080516080810182526004860290920180546001600160a01b03168352600180820154848601526002820154928401929092526003015460ff16151560608301529083529092019101611ab1565b6000818152600b602052604081205460ff16611b415760405162461bcd60e51b8152600401610522906132ba565b60078281548110611b5457611b546132e5565b60009182526020909120600a600b90920201015460ff166004811115611b7c57611b7c612d9a565b92915050565b6000858152600b602052604081205460ff16611bb05760405162461bcd60e51b8152600401610522906132ba565b60078681548110611bc357611bc36132e5565b60009182526020909120600b90910201600101546001600160a01b03163314611bfe5760405162461bcd60e51b8152600401610522906132fb565b6000855111611c485760405162461bcd60e51b81526020600482015260166024820152755469746c652063616e6e6f7420626520656d7074792160501b6044820152606401610522565b6000845111611c995760405162461bcd60e51b815260206004820152601c60248201527f4465736372697074696f6e2063616e6e6f7420626520656d70747921000000006044820152606401610522565b6000835111611ce65760405162461bcd60e51b8152602060048201526019602482015278496d61676555524c2063616e6e6f7420626520656d7074792160381b6044820152606401610522565b8460078781548110611cfa57611cfa6132e5565b90600052602060002090600b02016002019081611d179190613161565b508360078781548110611d2c57611d2c6132e5565b90600052602060002090600b02016003019081611d499190613161565b508260078781548110611d5e57611d5e6132e5565b90600052602060002090600b02016004019081611d7b9190613161565b508160078781548110611d9057611d906132e5565b90600052602060002090600b020160080181905550336001600160a01b03166000805160206133628339815191528742604051611dfe929190918252606060208301819052600f908301526e141493d29150d517d5541110551151608a1b6080830152604082015260a00190565b60405180910390a250600195945050505050565b6000818152600b602052604081205460ff16611e405760405162461bcd60e51b8152600401610522906132ba565b600260078381548110611e5557611e556132e5565b60009182526020909120600a600b90920201015460ff166004811115611e7d57611e7d612d9a565b141580611ec55750600360078381548110611e9a57611e9a6132e5565b60009182526020909120600a600b90920201015460ff166004811115611ec257611ec2612d9a565b14155b611f235760405162461bcd60e51b815260206004820152602960248201527f50726f6a656374206e6f74206d61726b6564206173207265766572746564206f6044820152681c8819195b195d195960ba1b6064820152608401610522565b6002600783815481106117f1576117f16132e5565b6000818152600b602052604081205460ff16611f665760405162461bcd60e51b8152600401610522906132ba565b600160078381548110611f7b57611f7b6132e5565b60009182526020909120600a600b90920201015460ff166004811115611fa357611fa3612d9a565b14611fe85760405162461bcd60e51b815260206004820152601560248201527450726f6a656374206e6f7420417070726f7665642160581b6044820152606401610522565b60078281548110611ffb57611ffb6132e5565b60009182526020909120600b90910201600101546001600160a01b031633148061202f57506000546001600160a01b031633145b61204b5760405162461bcd60e51b8152600401610522906132fb565b61182c826127d7565b60055460609060008167ffffffffffffffff81111561207557612075612bfe565b6040519080825280602002602001820160405280156120c757816020015b6040805160808101825260008082526020808301829052928201819052606082015282526000199092019101816120935790505b5090506000805b600754811015612212576000600a6000600784815481106120f1576120f16132e5565b90600052602060002090600b0201600001548152602001908152602001600020805480602002602001604051908101604052809291908181526020016000905b82821015612193576000848152602090819020604080516080810182526004860290920180546001600160a01b03168352600180820154848601526002820154928401929092526003015460ff16151560608301529083529092019101612131565b50505050905060005b81518110156121fd578181815181106121b7576121b76132e5565b60200260200101518585815181106121d1576121d16132e5565b602002602001018190525083806121e79061324a565b94505080806121f59061324a565b91505061219c565b5050808061220a9061324a565b9150506120ce565b50909392505050565b60606007805480602002602001604051908101604052809291908181526020016000905b828210156124ad5760008481526020908190206040805161016081018252600b86029092018054835260018101546001600160a01b03169383019390935260028301805492939291840191612293906130d9565b80601f01602080910402602001604051908101604052809291908181526020018280546122bf906130d9565b801561230c5780601f106122e15761010080835404028352916020019161230c565b820191906000526020600020905b8154815290600101906020018083116122ef57829003601f168201915b50505050508152602001600382018054612325906130d9565b80601f0160208091040260200160405190810160405280929190818152602001828054612351906130d9565b801561239e5780601f106123735761010080835404028352916020019161239e565b820191906000526020600020905b81548152906001019060200180831161238157829003601f168201915b505050505081526020016004820180546123b7906130d9565b80601f01602080910402602001604051908101604052809291908181526020018280546123e3906130d9565b80156124305780601f1061240557610100808354040283529160200191612430565b820191906000526020600020905b81548152906001019060200180831161241357829003601f168201915b505050918352505060058201546020820152600682015460408201526007820154606082015260088201546080820152600982015460a0820152600a82015460c09091019060ff16600481111561248957612489612d9a565b600481111561249a5761249a612d9a565b815250508152602001906001019061223f565b50505050905090565b6124be612b8b565b6000828152600b602052604090205460ff166124ec5760405162461bcd60e51b8152600401610522906132ba565b600782815481106124ff576124ff6132e5565b90600052602060002090600b020160405180610160016040529081600082015481526020016001820160009054906101000a90046001600160a01b03166001600160a01b03166001600160a01b03168152602001600282018054612562906130d9565b80601f016020809104026020016040519081016040528092919081815260200182805461258e906130d9565b80156125db5780601f106125b0576101008083540402835291602001916125db565b820191906000526020600020905b8154815290600101906020018083116125be57829003601f168201915b505050505081526020016003820180546125f4906130d9565b80601f0160208091040260200160405190810160405280929190818152602001828054612620906130d9565b801561266d5780601f106126425761010080835404028352916020019161266d565b820191906000526020600020905b81548152906001019060200180831161265057829003601f168201915b50505050508152602001600482018054612686906130d9565b80601f01602080910402602001604051908101604052809291908181526020018280546126b2906130d9565b80156126ff5780601f106126d4576101008083540402835291602001916126ff565b820191906000526020600020905b8154815290600101906020018083116126e257829003601f168201915b505050918352505060058201546020820152600682015460408201526007820154606082015260088201546080820152600982015460a0820152600a82015460c09091019060ff16600481111561275857612758612d9a565b600481111561276957612769612d9a565b90525092915050565b6000826001600160a01b03168260405160006040518083038185875af1925050503d80600081146127bf576040519150601f19603f3d011682016040523d82523d6000602084013e6127c4565b606091505b50509050806127d257600080fd5b505050565b6000600782815481106127ec576127ec6132e5565b90600052602060002090600b020160060154905060006064600154836128129190613328565b61281c919061333f565b9050600460078481548110612833576128336132e5565b60009182526020909120600a600b9092020101805460ff1916600183600481111561286057612860612d9a565b02179055506128a76007848154811061287b5761287b6132e5565b600091825260209091206001600b9092020101546001600160a01b03166128a283856132a7565b612772565b6000546128bd906001600160a01b031682612772565b600783815481106128d0576128d06132e5565b90600052602060002090600b020160060154600360008282546128f391906132a7565b9091555050604080518481526060602082018190526010908201526f141493d29150d517d410525117d3d55560821b6080820152428183015290513391600080516020613362833981519152919081900360a00190a2505050565b612956612b32565b60005b6000828152600a6020526040902054811015612b27576000828152600a6020526040902080548290811061298f5761298f6132e5565b600091825260209091206003600490920201015460ff16612b15576000828152600a602052604081208054839081106129ca576129ca6132e5565b60009182526020808320600490920290910154858352600a9091526040822080546001600160a01b0390921693509084908110612a0957612a096132e5565b90600052602060002090600402016001015490508060086000846001600160a01b03166001600160a01b031681526020019081526020016000206000828254612a529190613237565b90915550506000848152600a6020526040902080546001919085908110612a7b57612a7b6132e5565b906000526020600020906004020160030160006101000a81548160ff02191690831515021790555042600a60008681526020019081526020016000208481548110612ac857612ac86132e5565b906000526020600020906004020160020181905550600160046001016000828254612af391906132a7565b909155505060068054829190600090612b0d9084906132a7565b909155505050505b80612b1f8161324a565b915050612959565b50610bd16001600c55565b6002600c5403612b845760405162461bcd60e51b815260206004820152601f60248201527f5265656e7472616e637947756172643a207265656e7472616e742063616c6c006044820152606401610522565b6002600c55565b6040518061016001604052806000815260200160006001600160a01b03168152602001606081526020016060815260200160608152602001600081526020016000815260200160008152602001600081526020016000815260200160006004811115612bf957612bf9612d9a565b905290565b634e487b7160e01b600052604160045260246000fd5b600082601f830112612c2557600080fd5b813567ffffffffffffffff80821115612c4057612c40612bfe565b604051601f8301601f19908116603f01168101908282118183101715612c6857612c68612bfe565b81604052838152866020858801011115612c8157600080fd5b836020870160208301376000602085830101528094505050505092915050565b600080600080600060a08688031215612cb957600080fd5b853567ffffffffffffffff80821115612cd157600080fd5b612cdd89838a01612c14565b96506020880135915080821115612cf357600080fd5b612cff89838a01612c14565b95506040880135915080821115612d1557600080fd5b50612d2288828901612c14565b9598949750949560608101359550608001359392505050565b600060208284031215612d4d57600080fd5b5035919050565b6000815180845260005b81811015612d7a57602081850181015186830182015201612d5e565b506000602082860101526020601f19601f83011685010191505092915050565b634e487b7160e01b600052602160045260246000fd5b60058110612dce57634e487b7160e01b600052602160045260246000fd5b9052565b8b81526001600160a01b038b16602082015261016060408201819052600090612dfd8382018d612d54565b90508281036060840152612e11818c612d54565b90508281036080840152612e25818b612d54565b9150508760a08301528660c08301528560e08301528461010083015283610120830152612e56610140830184612db0565b9c9b505050505050505050505050565b600060208284031215612e7857600080fd5b81356001600160a01b0381168114612e8f57600080fd5b9392505050565b6000610160825184526020830151612eb960208601826001600160a01b03169052565b506040830151816040860152612ed182860182612d54565b91505060608301518482036060860152612eeb8282612d54565b91505060808301518482036080860152612f058282612d54565b91505060a083015160a085015260c083015160c085015260e083015160e085015261010080840151818601525061012080840151818601525061014080840151612f5182870182612db0565b5090949350505050565b6000602080830181845280855180835260408601915060408160051b870101925083870160005b82811015612fb057603f19888603018452612f9e858351612e96565b94509285019290850190600101612f82565b5092979650505050505050565b602080825282518282018190526000919060409081850190868401855b8281101561301f57815180516001600160a01b031685528681015187860152858101518686015260609081015115159085015260809093019290850190600101612fda565b5091979650505050505050565b600080600080600060a0868803121561304457600080fd5b85359450602086013567ffffffffffffffff8082111561306357600080fd5b61306f89838a01612c14565b9550604088013591508082111561308557600080fd5b61309189838a01612c14565b945060608801359150808211156130a757600080fd5b506130b488828901612c14565b95989497509295608001359392505050565b602081526000612e8f6020830184612e96565b600181811c908216806130ed57607f821691505b60208210810361310d57634e487b7160e01b600052602260045260246000fd5b50919050565b601f8211156127d257600081815260208120601f850160051c8101602086101561313a5750805b601f850160051c820191505b8181101561315957828155600101613146565b505050505050565b815167ffffffffffffffff81111561317b5761317b612bfe565b61318f8161318984546130d9565b84613113565b602080601f8311600181146131c457600084156131ac5750858301515b600019600386901b1c1916600185901b178555613159565b600085815260208120601f198616915b828110156131f3578886015182559484019460019091019084016131d4565b50858210156132115787850151600019600388901b60f8161c191681555b5050505050600190811b01905550565b634e487b7160e01b600052601160045260246000fd5b80820180821115611b7c57611b7c613221565b60006001820161325c5761325c613221565b5060010190565b60208082526024908201527f4f7065726174696f6e20616c6c6f776564206f6e6c7920666f7220746865206f6040820152633bb732b960e11b606082015260800190565b81810381811115611b7c57611b7c613221565b602080825260119082015270141c9bda9958dd081b9bdd08199bdd5b99607a1b604082015260600190565b634e487b7160e01b600052603260045260246000fd5b602080825260139082015272556e617574686f72697a656420456e7469747960681b604082015260600190565b8082028115828204841417611b7c57611b7c613221565b60008261335c57634e487b7160e01b600052601260045260246000fd5b50049056feaee8e5d3bbb2f71a951b5632cee20f7ac487b9f8ab4f66a236f7694b13af7c6aa2646970667358221220d8df654bdc154477e2043357656e2d50357adf2d723417473b6e22f1c3de84fc64736f6c63430008110033",
  "linkReferences": {},
  "deployedLinkReferences": {}
}