{
  "_format": "hh-sol-artifact-1",
  "contractName": "DCharity",
  "sourceName": "src/contracts/DCharity.sol",
  "abi": [
    {
      "inputs": [
        {
          "internalType": "uint256",
          "name": "_projectTax",
          "type": "uint256"
        }
      ],
      "stateMutability": "nonpayable",
      "type": "constructor"
    },
    {
      "anonymous": false,
      "inputs": [
        {
          "indexed": false,
          "internalType": "uint256",
          "name": "id",
          "type": "uint256"
        },
        {
          "indexed": false,
          "internalType": "string",
          "name": "actionType",
          "type": "string"
        },
        {
          "indexed": true,
          "internalType": "address",
          "name": "executor",
          "type": "address"
        },
        {
          "indexed": false,
          "internalType": "uint256",
          "name": "timestamp",
          "type": "uint256"
        }
      ],
      "name": "Action",
      "type": "event"
    },
    {
      "inputs": [],
      "name": "balance",
      "outputs": [
        {
          "internalType": "uint256",
          "name": "",
          "type": "uint256"
        }
      ],
      "stateMutability": "view",
      "type": "function"
    },
    {
      "inputs": [
        {
          "internalType": "uint256",
          "name": "_taxPercentage",
          "type": "uint256"
        }
      ],
      "name": "changeTax",
      "outputs": [],
      "stateMutability": "nonpayable",
      "type": "function"
    },
    {
      "inputs": [
        {
          "internalType": "string",
          "name": "title",
          "type": "string"
        },
        {
          "internalType": "string",
          "name": "description",
          "type": "string"
        },
        {
          "internalType": "string",
          "name": "imageURL",
          "type": "string"
        },
        {
          "internalType": "uint256",
          "name": "cost",
          "type": "uint256"
        },
        {
          "internalType": "uint256",
          "name": "expiresAt",
          "type": "uint256"
        }
      ],
      "name": "createProject",
      "outputs": [
        {
          "internalType": "bool",
          "name": "",
          "type": "bool"
        }
      ],
      "stateMutability": "nonpayable",
      "type": "function"
    },
    {
      "inputs": [
        {
          "internalType": "uint256",
          "name": "id",
          "type": "uint256"
        }
      ],
      "name": "deleteProject",
      "outputs": [
        {
          "internalType": "bool",
          "name": "",
          "type": "bool"
        }
      ],
      "stateMutability": "nonpayable",
      "type": "function"
    },
    {
      "inputs": [
        {
          "internalType": "uint256",
          "name": "id",
          "type": "uint256"
        }
      ],
      "name": "getProject",
      "outputs": [
        {
          "components": [
            {
              "internalType": "uint256",
              "name": "id",
              "type": "uint256"
            },
            {
              "internalType": "address",
              "name": "owner",
              "type": "address"
            },
            {
              "internalType": "string",
              "name": "title",
              "type": "string"
            },
            {
              "internalType": "string",
              "name": "description",
              "type": "string"
            },
            {
              "internalType": "string",
              "name": "imageURL",
              "type": "string"
            },
            {
              "internalType": "uint256",
              "name": "cost",
              "type": "uint256"
            },
            {
              "internalType": "uint256",
              "name": "raised",
              "type": "uint256"
            },
            {
              "internalType": "uint256",
              "name": "timestamp",
              "type": "uint256"
            },
            {
              "internalType": "uint256",
              "name": "expiresAt",
              "type": "uint256"
            },
            {
              "internalType": "uint256",
              "name": "supporters",
              "type": "uint256"
            },
            {
              "internalType": "enum DCharity.statusEnum",
              "name": "status",
              "type": "uint8"
            }
          ],
          "internalType": "struct DCharity.projectStruct",
          "name": "",
          "type": "tuple"
        }
      ],
      "stateMutability": "view",
      "type": "function"
    },
    {
      "inputs": [],
      "name": "getProjects",
      "outputs": [
        {
          "components": [
            {
              "internalType": "uint256",
              "name": "id",
              "type": "uint256"
            },
            {
              "internalType": "address",
              "name": "owner",
              "type": "address"
            },
            {
              "internalType": "string",
              "name": "title",
              "type": "string"
            },
            {
              "internalType": "string",
              "name": "description",
              "type": "string"
            },
            {
              "internalType": "string",
              "name": "imageURL",
              "type": "string"
            },
            {
              "internalType": "uint256",
              "name": "cost",
              "type": "uint256"
            },
            {
              "internalType": "uint256",
              "name": "raised",
              "type": "uint256"
            },
            {
              "internalType": "uint256",
              "name": "timestamp",
              "type": "uint256"
            },
            {
              "internalType": "uint256",
              "name": "expiresAt",
              "type": "uint256"
            },
            {
              "internalType": "uint256",
              "name": "supporters",
              "type": "uint256"
            },
            {
              "internalType": "enum DCharity.statusEnum",
              "name": "status",
              "type": "uint8"
            }
          ],
          "internalType": "struct DCharity.projectStruct[]",
          "name": "",
          "type": "tuple[]"
        }
      ],
      "stateMutability": "view",
      "type": "function"
    },
    {
      "inputs": [
        {
          "internalType": "uint256",
          "name": "id",
          "type": "uint256"
        }
      ],
      "name": "getSupporters",
      "outputs": [
        {
          "components": [
            {
              "internalType": "address",
              "name": "owner",
              "type": "address"
            },
            {
              "internalType": "uint256",
              "name": "contribution",
              "type": "uint256"
            },
            {
              "internalType": "uint256",
              "name": "timestamp",
              "type": "uint256"
            },
            {
              "internalType": "bool",
              "name": "refunded",
              "type": "bool"
            }
          ],
          "internalType": "struct DCharity.supporterStruct[]",
          "name": "",
          "type": "tuple[]"
        }
      ],
      "stateMutability": "view",
      "type": "function"
    },
    {
      "inputs": [],
      "name": "owner",
      "outputs": [
        {
          "internalType": "address",
          "name": "",
          "type": "address"
        }
      ],
      "stateMutability": "view",
      "type": "function"
    },
    {
      "inputs": [
        {
          "internalType": "uint256",
          "name": "id",
          "type": "uint256"
        }
      ],
      "name": "payOutProject",
      "outputs": [
        {
          "internalType": "bool",
          "name": "",
          "type": "bool"
        }
      ],
      "stateMutability": "nonpayable",
      "type": "function"
    },
    {
      "inputs": [],
      "name": "projectCount",
      "outputs": [
        {
          "internalType": "uint256",
          "name": "",
          "type": "uint256"
        }
      ],
      "stateMutability": "view",
      "type": "function"
    },
    {
      "inputs": [
        {
          "internalType": "uint256",
          "name": "",
          "type": "uint256"
        }
      ],
      "name": "projectExist",
      "outputs": [
        {
          "internalType": "bool",
          "name": "",
          "type": "bool"
        }
      ],
      "stateMutability": "view",
      "type": "function"
    },
    {
      "inputs": [],
      "name": "projectTax",
      "outputs": [
        {
          "internalType": "uint256",
          "name": "",
          "type": "uint256"
        }
      ],
      "stateMutability": "view",
      "type": "function"
    },
    {
      "inputs": [
        {
          "internalType": "uint256",
          "name": "id",
          "type": "uint256"
        }
      ],
      "name": "requestRefund",
      "outputs": [
        {
          "internalType": "bool",
          "name": "",
          "type": "bool"
        }
      ],
      "stateMutability": "nonpayable",
      "type": "function"
    },
    {
      "inputs": [],
      "name": "stats",
      "outputs": [
        {
          "internalType": "uint256",
          "name": "totalProjects",
          "type": "uint256"
        },
        {
          "internalType": "uint256",
          "name": "totalSupporters",
          "type": "uint256"
        },
        {
          "internalType": "uint256",
          "name": "totalDonations",
          "type": "uint256"
        }
      ],
      "stateMutability": "view",
      "type": "function"
    },
    {
      "inputs": [
        {
          "internalType": "uint256",
          "name": "id",
          "type": "uint256"
        }
      ],
      "name": "supportProject",
      "outputs": [
        {
          "internalType": "bool",
          "name": "",
          "type": "bool"
        }
      ],
      "stateMutability": "payable",
      "type": "function"
    },
    {
      "inputs": [
        {
          "internalType": "uint256",
          "name": "id",
          "type": "uint256"
        },
        {
          "internalType": "string",
          "name": "title",
          "type": "string"
        },
        {
          "internalType": "string",
          "name": "description",
          "type": "string"
        },
        {
          "internalType": "string",
          "name": "imageURL",
          "type": "string"
        },
        {
          "internalType": "uint256",
          "name": "expiresAt",
          "type": "uint256"
        }
      ],
      "name": "updateProject",
      "outputs": [
        {
          "internalType": "bool",
          "name": "",
          "type": "bool"
        }
      ],
      "stateMutability": "nonpayable",
      "type": "function"
    }
  ],
  "bytecode": "0x608060405234801561001057600080fd5b5060405161229238038061229283398101604081905261002f91610049565b600080546001600160a01b03191633179055600155610062565b60006020828403121561005b57600080fd5b5051919050565b612221806100716000396000f3fe6080604052600436106100f35760003560e01c80639a3fa8c71161008a578063d24cd3ec11610059578063d24cd3ec146102b1578063d80528ae146102c7578063dcc6012814610301578063f0f3f2c81461032357600080fd5b80639a3fa8c71461023b578063a4b2409e1461025b578063b531dcba1461027b578063b69ef8a81461029b57600080fd5b80634cd0cb28116100c65780634cd0cb28146101865780634f63829c146101a65780638593054b146101d35780638da5cb5b1461020357600080fd5b8063056c29ee146100f8578063329b0f9b1461012d57806336fbad26146101405780633e45c8af14610164575b600080fd5b34801561010457600080fd5b50610118610113366004611d2a565b610350565b60405190151581526020015b60405180910390f35b61011861013b366004611dc4565b6107bc565b34801561014c57600080fd5b5061015660025481565b604051908152602001610124565b34801561017057600080fd5b5061018461017f366004611dc4565b610bde565b005b34801561019257600080fd5b506101186101a1366004611dc4565b610c33565b3480156101b257600080fd5b506101c66101c1366004611dc4565b610db4565b6040516101249190611ddd565b3480156101df57600080fd5b506101186101ee366004611dc4565b600a6020526000908152604090205460ff1681565b34801561020f57600080fd5b50600054610223906001600160a01b031681565b6040516001600160a01b039091168152602001610124565b34801561024757600080fd5b50610118610256366004611e4c565b610e56565b34801561026757600080fd5b50610118610276366004611dc4565b6110cf565b34801561028757600080fd5b50610118610296366004611dc4565b6111c6565b3480156102a757600080fd5b5061015660035481565b3480156102bd57600080fd5b5061015660015481565b3480156102d357600080fd5b506004546005546006546102e692919083565b60408051938452602084019290925290820152606001610124565b34801561030d57600080fd5b506103166112b6565b6040516101249190612030565b34801561032f57600080fd5b5061034361033e366004611dc4565b611551565b6040516101249190612092565b6000808651116103a05760405162461bcd60e51b81526020600482015260166024820152755469746c652063616e6e6f7420626520656d7074792160501b60448201526064015b60405180910390fd5b60008551116103f15760405162461bcd60e51b815260206004820152601c60248201527f4465736372697074696f6e2063616e6e6f7420626520656d70747921000000006044820152606401610397565b600084511161043e5760405162461bcd60e51b8152602060048201526019602482015278496d61676555524c2063616e6e6f7420626520656d7074792160381b6044820152606401610397565b600083116104855760405162461bcd60e51b8152602060048201526014602482015273436f73742063616e6e6f74206265207a65726f2160601b6044820152606401610397565b61048d611b7b565b600254815233602080830191825260408301898152606084018990526080840188905260a084018790524260e085015261010084018690526007805460018101825560009190915284517fa66cc928b5edb82af9bd49922954155ab7b0942694bea4ce44661d9a8736c688600b90920291820190815593517fa66cc928b5edb82af9bd49922954155ab7b0942694bea4ce44661d9a8736c689820180546001600160a01b0319166001600160a01b039092169190911790559051805185949361057a937fa66cc928b5edb82af9bd49922954155ab7b0942694bea4ce44661d9a8736c68a01920190611bee565b5060608201518051610596916003840191602090910190611bee565b50608082015180516105b2916004840191602090910190611bee565b5060a0820151600582015560c0820151600682015560e0820151600782015561010082015160088201556101208201516009820155610140820151600a8201805460ff1916600183600481111561060b5761060b611f33565b021790555050600280546000908152600a602090815260408083208054600160ff1990911681179091553384526008835281842080548083018255908552938390208751600b909502019384558683015190840180546001600160a01b0319166001600160a01b039092169190911790558501518051869550929361069893908501929190910190611bee565b50606082015180516106b4916003840191602090910190611bee565b50608082015180516106d0916004840191602090910190611bee565b5060a0820151600582015560c0820151600682015560e0820151600782015561010082015160088201556101208201516009820155610140820151600a8201805460ff1916600183600481111561072957610729611f33565b0217905550505060016004600001600082825461074691906120c2565b90915550506002805433916000805160206121cc8339815191529190600061076d836120da565b9091555060408051918252606060208301819052600f908301526e141493d29150d50810d49150551151608a1b6080830152429082015260a00160405180910390a25060019695505050505050565b600080341161081c5760405162461bcd60e51b815260206004820152602660248201527f457468657220616d6f756e74206d7573742062652067726561746572207468616044820152656e207a65726f60d01b6064820152608401610397565b6000828152600a602052604090205460ff1661086e5760405162461bcd60e51b8152602060048201526011602482015270141c9bda9958dd081b9bdd08199bdd5b99607a1b6044820152606401610397565b600060078381548110610883576108836120f5565b60009182526020909120600a600b90920201015460ff1660048111156108ab576108ab611f33565b146108f85760405162461bcd60e51b815260206004820152601860248201527f50726f6a656374206e6f206c6f6e676572206f70656e656400000000000000006044820152606401610397565b60016004600101600082825461090e91906120c2565b9091555050600680543491906000906109289084906120c2565b925050819055503460078381548110610943576109436120f5565b90600052602060002090600b0201600601600082825461096391906120c2565b9250508190555060016007838154811061097f5761097f6120f5565b90600052602060002090600b0201600901600082825461099f91906120c2565b9091555050600082815260096020908152604080832081516080808201845233808352348387019081524284870181815260608087018b8152885460018082018b55998d529b8b902097516004909c0290970180546001600160a01b0319166001600160a01b03909c169b909b178b559251968a01969096559451600289015592516003909701805460ff1916971515979097179096558351888152948501829052600f918501919091526e141493d29150d508109050d2d15391608a1b90840152908201526000805160206121cc8339815191529060a00160405180910390a260078281548110610a9357610a936120f5565b90600052602060002090600b02016005015460078381548110610ab857610ab86120f5565b90600052602060002090600b02016006015410610b6357600160078381548110610ae457610ae46120f5565b60009182526020909120600a600b9092020101805460ff19166001836004811115610b1157610b11611f33565b021790555060078281548110610b2957610b296120f5565b90600052602060002090600b02016006015460036000828254610b4c91906120c2565b90915550610b5b905082611831565b506001919050565b60078281548110610b7657610b766120f5565b90600052602060002090600b0201600801544210610b5b57600260078381548110610ba357610ba36120f5565b60009182526020909120600a600b9092020101805460ff19166001836004811115610bd057610bd0611f33565b0217905550610b5b826119a8565b6000546001600160a01b03163314610c2e5760405162461bcd60e51b81526020600482015260136024820152724f776e6572207265736572766564206f6e6c7960681b6044820152606401610397565b600155565b60008060078381548110610c4957610c496120f5565b60009182526020909120600a600b90920201015460ff166004811115610c7157610c71611f33565b14610cbe5760405162461bcd60e51b815260206004820152601960248201527f50726f6a656374206e6f206c6f6e676572206f70656e656421000000000000006044820152606401610397565b60078281548110610cd157610cd16120f5565b60009182526020909120600b90910201600101546001600160a01b03163314610d0c5760405162461bcd60e51b81526004016103979061210b565b600360078381548110610d2157610d216120f5565b60009182526020909120600a600b9092020101805460ff19166001836004811115610d4e57610d4e611f33565b0217905550610d5c826119a8565b60408051838152606060208201819052600f908201526e141493d29150d50811115311551151608a1b60808201524281830152905133916000805160206121cc833981519152919081900360a00190a2506001919050565b606060096000838152602001908152602001600020805480602002602001604051908101604052809291908181526020016000905b82821015610e4b576000848152602090819020604080516080810182526004860290920180546001600160a01b03168352600180820154848601526002820154928401929092526003015460ff16151560608301529083529092019101610de9565b505050509050919050565b600060078681548110610e6b57610e6b6120f5565b60009182526020909120600b90910201600101546001600160a01b03163314610ea65760405162461bcd60e51b81526004016103979061210b565b6000855111610ef05760405162461bcd60e51b81526020600482015260166024820152755469746c652063616e6e6f7420626520656d7074792160501b6044820152606401610397565b6000845111610f415760405162461bcd60e51b815260206004820152601c60248201527f4465736372697074696f6e2063616e6e6f7420626520656d70747921000000006044820152606401610397565b6000835111610f8e5760405162461bcd60e51b8152602060048201526019602482015278496d61676555524c2063616e6e6f7420626520656d7074792160381b6044820152606401610397565b8460078781548110610fa257610fa26120f5565b90600052602060002090600b02016002019080519060200190610fc6929190611bee565b508360078781548110610fdb57610fdb6120f5565b90600052602060002090600b02016003019080519060200190610fff929190611bee565b508260078781548110611014576110146120f5565b90600052602060002090600b02016004019080519060200190611038929190611bee565b50816007878154811061104d5761104d6120f5565b90600052602060002090600b020160080181905550336001600160a01b03166000805160206121cc83398151915287426040516110bb929190918252606060208301819052600f908301526e141493d29150d50815541110551151608a1b6080830152604082015260a00190565b60405180910390a250600195945050505050565b60006002600783815481106110e6576110e66120f5565b60009182526020909120600a600b90920201015460ff16600481111561110e5761110e611f33565b141580611156575060036007838154811061112b5761112b6120f5565b60009182526020909120600a600b90920201015460ff16600481111561115357611153611f33565b14155b6111b15760405162461bcd60e51b815260206004820152602660248201527f50726f6a656374206e6f74206d61726b656420617320726576657274206f722060448201526564656c65746560d01b6064820152608401610397565b600260078381548110610ba357610ba36120f5565b60006001600783815481106111dd576111dd6120f5565b60009182526020909120600a600b90920201015460ff16600481111561120557611205611f33565b1461124a5760405162461bcd60e51b815260206004820152601560248201527450726f6a656374206e6f7420417070726f7665642160581b6044820152606401610397565b6007828154811061125d5761125d6120f5565b60009182526020909120600b90910201600101546001600160a01b031633148061129157506000546001600160a01b031633145b6112ad5760405162461bcd60e51b81526004016103979061210b565b610b5b82611831565b60606007805480602002602001604051908101604052809291908181526020016000905b828210156115485760008481526020908190206040805161016081018252600b86029092018054835260018101546001600160a01b0316938301939093526002830180549293929184019161132e90612138565b80601f016020809104026020016040519081016040528092919081815260200182805461135a90612138565b80156113a75780601f1061137c576101008083540402835291602001916113a7565b820191906000526020600020905b81548152906001019060200180831161138a57829003601f168201915b505050505081526020016003820180546113c090612138565b80601f01602080910402602001604051908101604052809291908181526020018280546113ec90612138565b80156114395780601f1061140e57610100808354040283529160200191611439565b820191906000526020600020905b81548152906001019060200180831161141c57829003601f168201915b5050505050815260200160048201805461145290612138565b80601f016020809104026020016040519081016040528092919081815260200182805461147e90612138565b80156114cb5780601f106114a0576101008083540402835291602001916114cb565b820191906000526020600020905b8154815290600101906020018083116114ae57829003601f168201915b505050918352505060058201546020820152600682015460408201526007820154606082015260088201546080820152600982015460a0820152600a82015460c09091019060ff16600481111561152457611524611f33565b600481111561153557611535611f33565b81525050815260200190600101906112da565b50505050905090565b611559611b7b565b6000828152600a602052604090205460ff166115ab5760405162461bcd60e51b8152602060048201526011602482015270141c9bda9958dd081b9bdd08199bdd5b99607a1b6044820152606401610397565b600782815481106115be576115be6120f5565b90600052602060002090600b020160405180610160016040529081600082015481526020016001820160009054906101000a90046001600160a01b03166001600160a01b03166001600160a01b0316815260200160028201805461162190612138565b80601f016020809104026020016040519081016040528092919081815260200182805461164d90612138565b801561169a5780601f1061166f5761010080835404028352916020019161169a565b820191906000526020600020905b81548152906001019060200180831161167d57829003601f168201915b505050505081526020016003820180546116b390612138565b80601f01602080910402602001604051908101604052809291908181526020018280546116df90612138565b801561172c5780601f106117015761010080835404028352916020019161172c565b820191906000526020600020905b81548152906001019060200180831161170f57829003601f168201915b5050505050815260200160048201805461174590612138565b80601f016020809104026020016040519081016040528092919081815260200182805461177190612138565b80156117be5780601f10611793576101008083540402835291602001916117be565b820191906000526020600020905b8154815290600101906020018083116117a157829003601f168201915b505050918352505060058201546020820152600682015460408201526007820154606082015260088201546080820152600982015460a0820152600a82015460c09091019060ff16600481111561181757611817611f33565b600481111561182857611828611f33565b90525092915050565b600060078281548110611846576118466120f5565b90600052602060002090600b0201600601549050600060646001548361186c9190612173565b6118769190612192565b905060046007848154811061188d5761188d6120f5565b60009182526020909120600a600b9092020101805460ff191660018360048111156118ba576118ba611f33565b0217905550611901600784815481106118d5576118d56120f5565b600091825260209091206001600b9092020101546001600160a01b03166118fc83856121b4565b611b16565b600054611917906001600160a01b031682611b16565b6007838154811061192a5761192a6120f5565b90600052602060002090600b0201600601546003600082825461194d91906121b4565b9091555050604080518481526060602082018190526010908201526f141493d29150d508141052510813d55560821b60808201524281830152905133916000805160206121cc833981519152919081900360a00190a2505050565b60005b600082815260096020526040902054811015611b125760008281526009602052604081208054839081106119e1576119e16120f5565b6000918252602080832060049092029091015485835260099091526040822080546001600160a01b0390921693509084908110611a2057611a206120f5565b90600052602060002090600402016001015490506001600960008681526020019081526020016000208481548110611a5a57611a5a6120f5565b906000526020600020906004020160030160006101000a81548160ff02191690831515021790555042600960008681526020019081526020016000208481548110611aa757611aa76120f5565b906000526020600020906004020160020181905550611ac68282611b16565b600160046001016000828254611adc91906121b4565b909155505060068054829190600090611af69084906121b4565b9250508190555050508080611b0a906120da565b9150506119ab565b5050565b6000826001600160a01b03168260405160006040518083038185875af1925050503d8060008114611b63576040519150601f19603f3d011682016040523d82523d6000602084013e611b68565b606091505b5050905080611b7657600080fd5b505050565b6040518061016001604052806000815260200160006001600160a01b03168152602001606081526020016060815260200160608152602001600081526020016000815260200160008152602001600081526020016000815260200160006004811115611be957611be9611f33565b905290565b828054611bfa90612138565b90600052602060002090601f016020900481019282611c1c5760008555611c62565b82601f10611c3557805160ff1916838001178555611c62565b82800160010185558215611c62579182015b82811115611c62578251825591602001919060010190611c47565b50611c6e929150611c72565b5090565b5b80821115611c6e5760008155600101611c73565b634e487b7160e01b600052604160045260246000fd5b600082601f830112611cae57600080fd5b813567ffffffffffffffff80821115611cc957611cc9611c87565b604051601f8301601f19908116603f01168101908282118183101715611cf157611cf1611c87565b81604052838152866020858801011115611d0a57600080fd5b836020870160208301376000602085830101528094505050505092915050565b600080600080600060a08688031215611d4257600080fd5b853567ffffffffffffffff80821115611d5a57600080fd5b611d6689838a01611c9d565b96506020880135915080821115611d7c57600080fd5b611d8889838a01611c9d565b95506040880135915080821115611d9e57600080fd5b50611dab88828901611c9d565b9598949750949560608101359550608001359392505050565b600060208284031215611dd657600080fd5b5035919050565b602080825282518282018190526000919060409081850190868401855b82811015611e3f57815180516001600160a01b031685528681015187860152858101518686015260609081015115159085015260809093019290850190600101611dfa565b5091979650505050505050565b600080600080600060a08688031215611e6457600080fd5b85359450602086013567ffffffffffffffff80821115611e8357600080fd5b611e8f89838a01611c9d565b95506040880135915080821115611ea557600080fd5b611eb189838a01611c9d565b94506060880135915080821115611ec757600080fd5b50611ed488828901611c9d565b95989497509295608001359392505050565b6000815180845260005b81811015611f0c57602081850181015186830182015201611ef0565b81811115611f1e576000602083870101525b50601f01601f19169290920160200192915050565b634e487b7160e01b600052602160045260246000fd5b60058110611f6757634e487b7160e01b600052602160045260246000fd5b9052565b6000610160825184526020830151611f8e60208601826001600160a01b03169052565b506040830151816040860152611fa682860182611ee6565b91505060608301518482036060860152611fc08282611ee6565b91505060808301518482036080860152611fda8282611ee6565b91505060a083015160a085015260c083015160c085015260e083015160e08501526101008084015181860152506101208084015181860152506101408084015161202682870182611f49565b5090949350505050565b6000602080830181845280855180835260408601915060408160051b870101925083870160005b8281101561208557603f19888603018452612073858351611f6b565b94509285019290850190600101612057565b5092979650505050505050565b6020815260006120a56020830184611f6b565b9392505050565b634e487b7160e01b600052601160045260246000fd5b600082198211156120d5576120d56120ac565b500190565b60006000198214156120ee576120ee6120ac565b5060010190565b634e487b7160e01b600052603260045260246000fd5b602080825260139082015272556e617574686f72697a656420456e7469747960681b604082015260600190565b600181811c9082168061214c57607f821691505b6020821081141561216d57634e487b7160e01b600052602260045260246000fd5b50919050565b600081600019048311821515161561218d5761218d6120ac565b500290565b6000826121af57634e487b7160e01b600052601260045260246000fd5b500490565b6000828210156121c6576121c66120ac565b50039056feaee8e5d3bbb2f71a951b5632cee20f7ac487b9f8ab4f66a236f7694b13af7c6aa26469706673582212202570c10d5474235baf12f8d620d93607cdf517bf31430648ba7b61c56eee6e1c64736f6c634300080b0033",
  "linkReferences": {},
  "deployedLinkReferences": {}
}