{
  "_format": "hh-sol-artifact-1",
  "contractName": "DCharity",
  "sourceName": "src/contracts/DCharity.sol",
  "abi": [
    {
      "inputs": [
        {
          "internalType": "uint256",
          "name": "_projectTax",
          "type": "uint256"
        }
      ],
      "stateMutability": "nonpayable",
      "type": "constructor"
    },
    {
      "anonymous": false,
      "inputs": [
        {
          "indexed": false,
          "internalType": "uint256",
          "name": "id",
          "type": "uint256"
        },
        {
          "indexed": false,
          "internalType": "string",
          "name": "actionType",
          "type": "string"
        },
        {
          "indexed": true,
          "internalType": "address",
          "name": "executor",
          "type": "address"
        },
        {
          "indexed": false,
          "internalType": "uint256",
          "name": "timestamp",
          "type": "uint256"
        }
      ],
      "name": "Action",
      "type": "event"
    },
    {
      "inputs": [],
      "name": "balance",
      "outputs": [
        {
          "internalType": "uint256",
          "name": "",
          "type": "uint256"
        }
      ],
      "stateMutability": "view",
      "type": "function"
    },
    {
      "inputs": [
        {
          "internalType": "uint256",
          "name": "_taxPercentage",
          "type": "uint256"
        }
      ],
      "name": "changeTax",
      "outputs": [],
      "stateMutability": "nonpayable",
      "type": "function"
    },
    {
      "inputs": [
        {
          "internalType": "string",
          "name": "title",
          "type": "string"
        },
        {
          "internalType": "string",
          "name": "description",
          "type": "string"
        },
        {
          "internalType": "string",
          "name": "imageURL",
          "type": "string"
        },
        {
          "internalType": "uint256",
          "name": "cost",
          "type": "uint256"
        },
        {
          "internalType": "uint256",
          "name": "expiresAt",
          "type": "uint256"
        }
      ],
      "name": "createProject",
      "outputs": [
        {
          "internalType": "bool",
          "name": "",
          "type": "bool"
        }
      ],
      "stateMutability": "nonpayable",
      "type": "function"
    },
    {
      "inputs": [
        {
          "internalType": "uint256",
          "name": "id",
          "type": "uint256"
        }
      ],
      "name": "deleteProject",
      "outputs": [
        {
          "internalType": "bool",
          "name": "",
          "type": "bool"
        }
      ],
      "stateMutability": "nonpayable",
      "type": "function"
    },
    {
      "inputs": [],
      "name": "getAllSupporters",
      "outputs": [
        {
          "components": [
            {
              "internalType": "address",
              "name": "owner",
              "type": "address"
            },
            {
              "internalType": "uint256",
              "name": "contribution",
              "type": "uint256"
            },
            {
              "internalType": "uint256",
              "name": "timestamp",
              "type": "uint256"
            },
            {
              "internalType": "bool",
              "name": "refunded",
              "type": "bool"
            }
          ],
          "internalType": "struct DCharity.Supporter[]",
          "name": "",
          "type": "tuple[]"
        }
      ],
      "stateMutability": "view",
      "type": "function"
    },
    {
      "inputs": [
        {
          "internalType": "uint256",
          "name": "id",
          "type": "uint256"
        }
      ],
      "name": "getProject",
      "outputs": [
        {
          "components": [
            {
              "internalType": "uint256",
              "name": "id",
              "type": "uint256"
            },
            {
              "internalType": "address",
              "name": "owner",
              "type": "address"
            },
            {
              "internalType": "string",
              "name": "title",
              "type": "string"
            },
            {
              "internalType": "string",
              "name": "description",
              "type": "string"
            },
            {
              "internalType": "string",
              "name": "imageURL",
              "type": "string"
            },
            {
              "internalType": "uint256",
              "name": "cost",
              "type": "uint256"
            },
            {
              "internalType": "uint256",
              "name": "raised",
              "type": "uint256"
            },
            {
              "internalType": "uint256",
              "name": "timestamp",
              "type": "uint256"
            },
            {
              "internalType": "uint256",
              "name": "expiresAt",
              "type": "uint256"
            },
            {
              "internalType": "uint256",
              "name": "supporters",
              "type": "uint256"
            },
            {
              "internalType": "enum DCharity.Status",
              "name": "status",
              "type": "uint8"
            }
          ],
          "internalType": "struct DCharity.Project",
          "name": "",
          "type": "tuple"
        }
      ],
      "stateMutability": "view",
      "type": "function"
    },
    {
      "inputs": [
        {
          "internalType": "uint256",
          "name": "id",
          "type": "uint256"
        }
      ],
      "name": "getProjectStatus",
      "outputs": [
        {
          "internalType": "uint256",
          "name": "",
          "type": "uint256"
        }
      ],
      "stateMutability": "view",
      "type": "function"
    },
    {
      "inputs": [],
      "name": "getProjects",
      "outputs": [
        {
          "components": [
            {
              "internalType": "uint256",
              "name": "id",
              "type": "uint256"
            },
            {
              "internalType": "address",
              "name": "owner",
              "type": "address"
            },
            {
              "internalType": "string",
              "name": "title",
              "type": "string"
            },
            {
              "internalType": "string",
              "name": "description",
              "type": "string"
            },
            {
              "internalType": "string",
              "name": "imageURL",
              "type": "string"
            },
            {
              "internalType": "uint256",
              "name": "cost",
              "type": "uint256"
            },
            {
              "internalType": "uint256",
              "name": "raised",
              "type": "uint256"
            },
            {
              "internalType": "uint256",
              "name": "timestamp",
              "type": "uint256"
            },
            {
              "internalType": "uint256",
              "name": "expiresAt",
              "type": "uint256"
            },
            {
              "internalType": "uint256",
              "name": "supporters",
              "type": "uint256"
            },
            {
              "internalType": "enum DCharity.Status",
              "name": "status",
              "type": "uint8"
            }
          ],
          "internalType": "struct DCharity.Project[]",
          "name": "",
          "type": "tuple[]"
        }
      ],
      "stateMutability": "view",
      "type": "function"
    },
    {
      "inputs": [
        {
          "internalType": "address",
          "name": "projectOwner",
          "type": "address"
        }
      ],
      "name": "getProjectsOf",
      "outputs": [
        {
          "components": [
            {
              "internalType": "uint256",
              "name": "id",
              "type": "uint256"
            },
            {
              "internalType": "address",
              "name": "owner",
              "type": "address"
            },
            {
              "internalType": "string",
              "name": "title",
              "type": "string"
            },
            {
              "internalType": "string",
              "name": "description",
              "type": "string"
            },
            {
              "internalType": "string",
              "name": "imageURL",
              "type": "string"
            },
            {
              "internalType": "uint256",
              "name": "cost",
              "type": "uint256"
            },
            {
              "internalType": "uint256",
              "name": "raised",
              "type": "uint256"
            },
            {
              "internalType": "uint256",
              "name": "timestamp",
              "type": "uint256"
            },
            {
              "internalType": "uint256",
              "name": "expiresAt",
              "type": "uint256"
            },
            {
              "internalType": "uint256",
              "name": "supporters",
              "type": "uint256"
            },
            {
              "internalType": "enum DCharity.Status",
              "name": "status",
              "type": "uint8"
            }
          ],
          "internalType": "struct DCharity.Project[]",
          "name": "",
          "type": "tuple[]"
        }
      ],
      "stateMutability": "view",
      "type": "function"
    },
    {
      "inputs": [
        {
          "internalType": "uint256",
          "name": "id",
          "type": "uint256"
        }
      ],
      "name": "getSupporters",
      "outputs": [
        {
          "components": [
            {
              "internalType": "address",
              "name": "owner",
              "type": "address"
            },
            {
              "internalType": "uint256",
              "name": "contribution",
              "type": "uint256"
            },
            {
              "internalType": "uint256",
              "name": "timestamp",
              "type": "uint256"
            },
            {
              "internalType": "bool",
              "name": "refunded",
              "type": "bool"
            }
          ],
          "internalType": "struct DCharity.Supporter[]",
          "name": "",
          "type": "tuple[]"
        }
      ],
      "stateMutability": "view",
      "type": "function"
    },
    {
      "inputs": [],
      "name": "getTotalDonationsCount",
      "outputs": [
        {
          "internalType": "uint256",
          "name": "",
          "type": "uint256"
        }
      ],
      "stateMutability": "view",
      "type": "function"
    },
    {
      "inputs": [],
      "name": "getTotalSupportersCount",
      "outputs": [
        {
          "internalType": "uint256",
          "name": "",
          "type": "uint256"
        }
      ],
      "stateMutability": "view",
      "type": "function"
    },
    {
      "inputs": [],
      "name": "owner",
      "outputs": [
        {
          "internalType": "address",
          "name": "",
          "type": "address"
        }
      ],
      "stateMutability": "view",
      "type": "function"
    },
    {
      "inputs": [
        {
          "internalType": "uint256",
          "name": "id",
          "type": "uint256"
        }
      ],
      "name": "payOutProject",
      "outputs": [
        {
          "internalType": "bool",
          "name": "",
          "type": "bool"
        }
      ],
      "stateMutability": "nonpayable",
      "type": "function"
    },
    {
      "inputs": [],
      "name": "projectCount",
      "outputs": [
        {
          "internalType": "uint256",
          "name": "",
          "type": "uint256"
        }
      ],
      "stateMutability": "view",
      "type": "function"
    },
    {
      "inputs": [
        {
          "internalType": "uint256",
          "name": "",
          "type": "uint256"
        }
      ],
      "name": "projectExist",
      "outputs": [
        {
          "internalType": "bool",
          "name": "",
          "type": "bool"
        }
      ],
      "stateMutability": "view",
      "type": "function"
    },
    {
      "inputs": [],
      "name": "projectTax",
      "outputs": [
        {
          "internalType": "uint256",
          "name": "",
          "type": "uint256"
        }
      ],
      "stateMutability": "view",
      "type": "function"
    },
    {
      "inputs": [
        {
          "internalType": "uint256",
          "name": "",
          "type": "uint256"
        }
      ],
      "name": "projects",
      "outputs": [
        {
          "internalType": "uint256",
          "name": "id",
          "type": "uint256"
        },
        {
          "internalType": "address",
          "name": "owner",
          "type": "address"
        },
        {
          "internalType": "string",
          "name": "title",
          "type": "string"
        },
        {
          "internalType": "string",
          "name": "description",
          "type": "string"
        },
        {
          "internalType": "string",
          "name": "imageURL",
          "type": "string"
        },
        {
          "internalType": "uint256",
          "name": "cost",
          "type": "uint256"
        },
        {
          "internalType": "uint256",
          "name": "raised",
          "type": "uint256"
        },
        {
          "internalType": "uint256",
          "name": "timestamp",
          "type": "uint256"
        },
        {
          "internalType": "uint256",
          "name": "expiresAt",
          "type": "uint256"
        },
        {
          "internalType": "uint256",
          "name": "supporters",
          "type": "uint256"
        },
        {
          "internalType": "enum DCharity.Status",
          "name": "status",
          "type": "uint8"
        }
      ],
      "stateMutability": "view",
      "type": "function"
    },
    {
      "inputs": [
        {
          "internalType": "uint256",
          "name": "id",
          "type": "uint256"
        }
      ],
      "name": "requestRefund",
      "outputs": [
        {
          "internalType": "bool",
          "name": "",
          "type": "bool"
        }
      ],
      "stateMutability": "nonpayable",
      "type": "function"
    },
    {
      "inputs": [],
      "name": "stats",
      "outputs": [
        {
          "internalType": "uint256",
          "name": "totalProjects",
          "type": "uint256"
        },
        {
          "internalType": "uint256",
          "name": "totalSupporters",
          "type": "uint256"
        },
        {
          "internalType": "uint256",
          "name": "totalDonations",
          "type": "uint256"
        }
      ],
      "stateMutability": "view",
      "type": "function"
    },
    {
      "inputs": [
        {
          "internalType": "uint256",
          "name": "id",
          "type": "uint256"
        }
      ],
      "name": "supportProject",
      "outputs": [
        {
          "internalType": "bool",
          "name": "",
          "type": "bool"
        }
      ],
      "stateMutability": "payable",
      "type": "function"
    },
    {
      "inputs": [
        {
          "internalType": "uint256",
          "name": "id",
          "type": "uint256"
        },
        {
          "internalType": "string",
          "name": "title",
          "type": "string"
        },
        {
          "internalType": "string",
          "name": "description",
          "type": "string"
        },
        {
          "internalType": "string",
          "name": "imageURL",
          "type": "string"
        },
        {
          "internalType": "uint256",
          "name": "expiresAt",
          "type": "uint256"
        }
      ],
      "name": "updateProject",
      "outputs": [
        {
          "internalType": "bool",
          "name": "",
          "type": "bool"
        }
      ],
      "stateMutability": "nonpayable",
      "type": "function"
    },
    {
      "inputs": [
        {
          "internalType": "uint256",
          "name": "amount",
          "type": "uint256"
        }
      ],
      "name": "withdrawFunds",
      "outputs": [],
      "stateMutability": "nonpayable",
      "type": "function"
    }
  ],
  "bytecode": "0x60806040523480156200001157600080fd5b50604051620031dd380380620031dd83398101604081905262000034916200004f565b600080546001600160a01b0319163317905560015562000069565b6000602082840312156200006257600080fd5b5051919050565b61316480620000796000396000f3fe6080604052600436106101405760003560e01c80638593054b116100b6578063b69ef8a81161006f578063b69ef8a8146103b6578063bb14b2e4146103cc578063d24cd3ec146103e1578063d80528ae146103f7578063dcc6012814610431578063f0f3f2c81461044657600080fd5b80638593054b146102ce5780638da5cb5b146102fe5780639675c009146103365780639a3fa8c714610356578063a4b2409e14610376578063b531dcba1461039657600080fd5b806336fbad261161010857806336fbad261461021357806338d58384146102375780633e45c8af1461024c57806348cefbda1461026c5780634cd0cb28146102815780634f63829c146102a157600080fd5b8063056c29ee14610145578063107046bd1461017a578063155dd5ee146101b15780631996c2df146101d3578063329b0f9b14610200575b600080fd5b34801561015157600080fd5b50610165610160366004612b41565b610473565b60405190151581526020015b60405180910390f35b34801561018657600080fd5b5061019a610195366004612bdb565b6108df565b6040516101719b9a99989796959493929190612c79565b3480156101bd57600080fd5b506101d16101cc366004612bdb565b610aee565b005b3480156101df57600080fd5b506101f36101ee366004612d0d565b610b91565b6040516101719190612e02565b61016561020e366004612bdb565b610e42565b34801561021f57600080fd5b5061022960025481565b604051908152602001610171565b34801561024357600080fd5b50600554610229565b34801561025857600080fd5b506101d1610267366004612bdb565b6116f5565b34801561027857600080fd5b50600654610229565b34801561028d57600080fd5b5061016561029c366004612bdb565b611769565b3480156102ad57600080fd5b506102c16102bc366004612bdb565b611918565b6040516101719190612e64565b3480156102da57600080fd5b506101656102e9366004612bdb565b600a6020526000908152604090205460ff1681565b34801561030a57600080fd5b5060005461031e906001600160a01b031681565b6040516001600160a01b039091168152602001610171565b34801561034257600080fd5b50610229610351366004612bdb565b6119d4565b34801561036257600080fd5b50610165610371366004612ed3565b611a43565b34801561038257600080fd5b50610165610391366004612bdb565b611ce8565b3480156103a257600080fd5b506101656103b1366004612bdb565b611e0e565b3480156103c257600080fd5b5061022960035481565b3480156103d857600080fd5b506102c1611f2a565b3480156103ed57600080fd5b5061022960015481565b34801561040357600080fd5b5060045460055460065461041692919083565b60408051938452602084019290925290820152606001610171565b34801561043d57600080fd5b506101f36120f1565b34801561045257600080fd5b50610466610461366004612bdb565b61238c565b6040516101719190612f6d565b6000808651116104c35760405162461bcd60e51b81526020600482015260166024820152755469746c652063616e6e6f7420626520656d7074792160501b60448201526064015b60405180910390fd5b60008551116105145760405162461bcd60e51b815260206004820152601c60248201527f4465736372697074696f6e2063616e6e6f7420626520656d707479210000000060448201526064016104ba565b60008451116105615760405162461bcd60e51b8152602060048201526019602482015278496d61676555524c2063616e6e6f7420626520656d7074792160381b60448201526064016104ba565b600083116105a85760405162461bcd60e51b8152602060048201526014602482015273436f73742063616e6e6f74206265207a65726f2160601b60448201526064016104ba565b6105b0612992565b600254815233602080830191825260408301898152606084018990526080840188905260a084018790524260e085015261010084018690526007805460018101825560009190915284517fa66cc928b5edb82af9bd49922954155ab7b0942694bea4ce44661d9a8736c688600b90920291820190815593517fa66cc928b5edb82af9bd49922954155ab7b0942694bea4ce44661d9a8736c689820180546001600160a01b0319166001600160a01b039092169190911790559051805185949361069d937fa66cc928b5edb82af9bd49922954155ab7b0942694bea4ce44661d9a8736c68a01920190612a05565b50606082015180516106b9916003840191602090910190612a05565b50608082015180516106d5916004840191602090910190612a05565b5060a0820151600582015560c0820151600682015560e0820151600782015561010082015160088201556101208201516009820155610140820151600a8201805460ff1916600183600481111561072e5761072e612c41565b021790555050600280546000908152600a602090815260408083208054600160ff1990911681179091553384526008835281842080548083018255908552938390208751600b909502019384558683015190840180546001600160a01b0319166001600160a01b03909216919091179055850151805186955092936107bb93908501929190910190612a05565b50606082015180516107d7916003840191602090910190612a05565b50608082015180516107f3916004840191602090910190612a05565b5060a0820151600582015560c0820151600682015560e0820151600782015561010082015160088201556101208201516009820155610140820151600a8201805460ff1916600183600481111561084c5761084c612c41565b021790555050506001600460000160008282546108699190612f96565b909155505060028054339160008051602061310f8339815191529190600061089083612fae565b9091555060408051918252606060208301819052600f908301526e141493d29150d517d0d49150551151608a1b6080830152429082015260a00160405180910390a25060019695505050505050565b600781815481106108ef57600080fd5b60009182526020909120600b90910201805460018201546002830180549294506001600160a01b03909116929161092590612fc9565b80601f016020809104026020016040519081016040528092919081815260200182805461095190612fc9565b801561099e5780601f106109735761010080835404028352916020019161099e565b820191906000526020600020905b81548152906001019060200180831161098157829003601f168201915b5050505050908060030180546109b390612fc9565b80601f01602080910402602001604051908101604052809291908181526020018280546109df90612fc9565b8015610a2c5780601f10610a0157610100808354040283529160200191610a2c565b820191906000526020600020905b815481529060010190602001808311610a0f57829003601f168201915b505050505090806004018054610a4190612fc9565b80601f0160208091040260200160405190810160405280929190818152602001828054610a6d90612fc9565b8015610aba5780601f10610a8f57610100808354040283529160200191610aba565b820191906000526020600020905b815481529060010190602001808311610a9d57829003601f168201915b50505060058401546006850154600786015460088701546009880154600a9098015496979396929550909350919060ff168b565b6000546001600160a01b03163314610b185760405162461bcd60e51b81526004016104ba90613004565b600354811115610b615760405162461bcd60e51b8152602060048201526014602482015273496e73756666696369656e742062616c616e636560601b60448201526064016104ba565b8060036000828254610b739190613048565b9091555050600054610b8e906001600160a01b031682612648565b50565b6001600160a01b0381166000908152600860209081526040808320805482518185028101850190935280835260609492939192909184015b82821015610e375760008481526020908190206040805161016081018252600b86029092018054835260018101546001600160a01b03169383019390935260028301805492939291840191610c1d90612fc9565b80601f0160208091040260200160405190810160405280929190818152602001828054610c4990612fc9565b8015610c965780601f10610c6b57610100808354040283529160200191610c96565b820191906000526020600020905b815481529060010190602001808311610c7957829003601f168201915b50505050508152602001600382018054610caf90612fc9565b80601f0160208091040260200160405190810160405280929190818152602001828054610cdb90612fc9565b8015610d285780601f10610cfd57610100808354040283529160200191610d28565b820191906000526020600020905b815481529060010190602001808311610d0b57829003601f168201915b50505050508152602001600482018054610d4190612fc9565b80601f0160208091040260200160405190810160405280929190818152602001828054610d6d90612fc9565b8015610dba5780601f10610d8f57610100808354040283529160200191610dba565b820191906000526020600020905b815481529060010190602001808311610d9d57829003601f168201915b505050918352505060058201546020820152600682015460408201526007820154606082015260088201546080820152600982015460a0820152600a82015460c09091019060ff166004811115610e1357610e13612c41565b6004811115610e2457610e24612c41565b8152505081526020019060010190610bc9565b505050509050919050565b6000803411610ea25760405162461bcd60e51b815260206004820152602660248201527f457468657220616d6f756e74206d7573742062652067726561746572207468616044820152656e207a65726f60d01b60648201526084016104ba565b6000828152600a602052604090205460ff16610ed05760405162461bcd60e51b81526004016104ba9061305f565b600060078381548110610ee557610ee561308a565b60009182526020909120600a600b90920201015460ff166004811115610f0d57610f0d612c41565b14610f5a5760405162461bcd60e51b815260206004820152601860248201527f50726f6a656374206e6f206c6f6e676572206f70656e6564000000000000000060448201526064016104ba565b600160046001016000828254610f709190612f96565b909155505060068054349190600090610f8a908490612f96565b925050819055503460078381548110610fa557610fa561308a565b90600052602060002090600b02016006016000828254610fc59190612f96565b92505081905550600160078381548110610fe157610fe161308a565b90600052602060002090600b020160090160008282546110019190612f96565b9091555050600082815260096020908152604080832081516080808201845233808352348387019081524284870181815260608087018b8152885460018082018b55998d529b8b902097516004909c0290970180546001600160a01b0319166001600160a01b03909c169b909b178b559251968a01969096559451600289015592516003909701805460ff1916971515979097179096558351888152948501829052600e918501919091526d141493d29150d517d09050d2d15160921b908401529082015260008051602061310f8339815191529060a00160405180910390a2611374600783815481106110f7576110f761308a565b90600052602060002090600b020160405180610160016040529081600082015481526020016001820160009054906101000a90046001600160a01b03166001600160a01b03166001600160a01b0316815260200160028201805461115a90612fc9565b80601f016020809104026020016040519081016040528092919081815260200182805461118690612fc9565b80156111d35780601f106111a8576101008083540402835291602001916111d3565b820191906000526020600020905b8154815290600101906020018083116111b657829003601f168201915b505050505081526020016003820180546111ec90612fc9565b80601f016020809104026020016040519081016040528092919081815260200182805461121890612fc9565b80156112655780601f1061123a57610100808354040283529160200191611265565b820191906000526020600020905b81548152906001019060200180831161124857829003601f168201915b5050505050815260200160048201805461127e90612fc9565b80601f01602080910402602001604051908101604052809291908181526020018280546112aa90612fc9565b80156112f75780601f106112cc576101008083540402835291602001916112f7565b820191906000526020600020905b8154815290600101906020018083116112da57829003601f168201915b505050918352505060058201546020820152600682015460408201526007820154606082015260088201546080820152600982015460a0820152600a82015460c09091019060ff16600481111561135057611350612c41565b600481111561136157611361612c41565b90525060a081015160c090910151101590565b1561140a5760016007838154811061138e5761138e61308a565b60009182526020909120600a600b9092020101805460ff191660018360048111156113bb576113bb612c41565b0217905550600782815481106113d3576113d361308a565b90600052602060002090600b020160060154600360008282546113f69190612f96565b909155506114059050826126ad565b6116ed565b611698600783815481106114205761142061308a565b90600052602060002090600b020160405180610160016040529081600082015481526020016001820160009054906101000a90046001600160a01b03166001600160a01b03166001600160a01b0316815260200160028201805461148390612fc9565b80601f01602080910402602001604051908101604052809291908181526020018280546114af90612fc9565b80156114fc5780601f106114d1576101008083540402835291602001916114fc565b820191906000526020600020905b8154815290600101906020018083116114df57829003601f168201915b5050505050815260200160038201805461151590612fc9565b80601f016020809104026020016040519081016040528092919081815260200182805461154190612fc9565b801561158e5780601f106115635761010080835404028352916020019161158e565b820191906000526020600020905b81548152906001019060200180831161157157829003601f168201915b505050505081526020016004820180546115a790612fc9565b80601f01602080910402602001604051908101604052809291908181526020018280546115d390612fc9565b80156116205780601f106115f557610100808354040283529160200191611620565b820191906000526020600020905b81548152906001019060200180831161160357829003601f168201915b505050918352505060058201546020820152600682015460408201526007820154606082015260088201546080820152600982015460a0820152600a82015460c09091019060ff16600481111561167957611679612c41565b600481111561168a5761168a612c41565b905250610100015142101590565b156116ed576002600783815481106116b2576116b261308a565b60009182526020909120600a600b9092020101805460ff191660018360048111156116df576116df612c41565b02179055506116ed82612824565b506001919050565b6000546001600160a01b0316331461171f5760405162461bcd60e51b81526004016104ba90613004565b60648111156117645760405162461bcd60e51b8152602060048201526011602482015270496e76616c6964207461782076616c756560781b60448201526064016104ba565b600155565b6000806007838154811061177f5761177f61308a565b60009182526020909120600a600b90920201015460ff1660048111156117a7576117a7612c41565b146117f45760405162461bcd60e51b815260206004820152601960248201527f50726f6a656374206e6f206c6f6e676572206f70656e6564210000000000000060448201526064016104ba565b600782815481106118075761180761308a565b60009182526020909120600b90910201600101546001600160a01b031633146118425760405162461bcd60e51b81526004016104ba906130a0565b6000828152600a602052604090205460ff166118705760405162461bcd60e51b81526004016104ba9061305f565b6003600783815481106118855761188561308a565b60009182526020909120600a600b9092020101805460ff191660018360048111156118b2576118b2612c41565b02179055506118c082612824565b60408051838152606060208201819052600f908201526e141493d29150d517d1115311551151608a1b608082015242818301529051339160008051602061310f833981519152919081900360a00190a2506001919050565b6000818152600a602052604090205460609060ff166119495760405162461bcd60e51b81526004016104ba9061305f565b600082815260096020908152604080832080548251818502810185019093528083529193909284015b82821015610e37576000848152602090819020604080516080810182526004860290920180546001600160a01b03168352600180820154848601526002820154928401929092526003015460ff16151560608301529083529092019101611972565b6000818152600a602052604081205460ff16611a025760405162461bcd60e51b81526004016104ba9061305f565b60078281548110611a1557611a1561308a565b60009182526020909120600a600b90920201015460ff166004811115611a3d57611a3d612c41565b92915050565b6000858152600a602052604081205460ff16611a715760405162461bcd60e51b81526004016104ba9061305f565b60078681548110611a8457611a8461308a565b60009182526020909120600b90910201600101546001600160a01b03163314611abf5760405162461bcd60e51b81526004016104ba906130a0565b6000855111611b095760405162461bcd60e51b81526020600482015260166024820152755469746c652063616e6e6f7420626520656d7074792160501b60448201526064016104ba565b6000845111611b5a5760405162461bcd60e51b815260206004820152601c60248201527f4465736372697074696f6e2063616e6e6f7420626520656d707479210000000060448201526064016104ba565b6000835111611ba75760405162461bcd60e51b8152602060048201526019602482015278496d61676555524c2063616e6e6f7420626520656d7074792160381b60448201526064016104ba565b8460078781548110611bbb57611bbb61308a565b90600052602060002090600b02016002019080519060200190611bdf929190612a05565b508360078781548110611bf457611bf461308a565b90600052602060002090600b02016003019080519060200190611c18929190612a05565b508260078781548110611c2d57611c2d61308a565b90600052602060002090600b02016004019080519060200190611c51929190612a05565b508160078781548110611c6657611c6661308a565b90600052602060002090600b020160080181905550336001600160a01b031660008051602061310f8339815191528742604051611cd4929190918252606060208301819052600f908301526e141493d29150d517d5541110551151608a1b6080830152604082015260a00190565b60405180910390a250600195945050505050565b6000818152600a602052604081205460ff16611d165760405162461bcd60e51b81526004016104ba9061305f565b600260078381548110611d2b57611d2b61308a565b60009182526020909120600a600b90920201015460ff166004811115611d5357611d53612c41565b141580611d9b5750600360078381548110611d7057611d7061308a565b60009182526020909120600a600b90920201015460ff166004811115611d9857611d98612c41565b14155b611df95760405162461bcd60e51b815260206004820152602960248201527f50726f6a656374206e6f74206d61726b6564206173207265766572746564206f6044820152681c8819195b195d195960ba1b60648201526084016104ba565b6002600783815481106116b2576116b261308a565b6000818152600a602052604081205460ff16611e3c5760405162461bcd60e51b81526004016104ba9061305f565b600160078381548110611e5157611e5161308a565b60009182526020909120600a600b90920201015460ff166004811115611e7957611e79612c41565b14611ebe5760405162461bcd60e51b815260206004820152601560248201527450726f6a656374206e6f7420417070726f7665642160581b60448201526064016104ba565b60078281548110611ed157611ed161308a565b60009182526020909120600b90910201600101546001600160a01b0316331480611f0557506000546001600160a01b031633145b611f215760405162461bcd60e51b81526004016104ba906130a0565b6116ed826126ad565b60055460609060008167ffffffffffffffff811115611f4b57611f4b612a9e565b604051908082528060200260200182016040528015611f9d57816020015b604080516080810182526000808252602080830182905292820181905260608201528252600019909201910181611f695790505b5090506000805b6007548110156120e85760006009600060078481548110611fc757611fc761308a565b90600052602060002090600b0201600001548152602001908152602001600020805480602002602001604051908101604052809291908181526020016000905b82821015612069576000848152602090819020604080516080810182526004860290920180546001600160a01b03168352600180820154848601526002820154928401929092526003015460ff16151560608301529083529092019101612007565b50505050905060005b81518110156120d35781818151811061208d5761208d61308a565b60200260200101518585815181106120a7576120a761308a565b602002602001018190525083806120bd90612fae565b94505080806120cb90612fae565b915050612072565b505080806120e090612fae565b915050611fa4565b50909392505050565b60606007805480602002602001604051908101604052809291908181526020016000905b828210156123835760008481526020908190206040805161016081018252600b86029092018054835260018101546001600160a01b0316938301939093526002830180549293929184019161216990612fc9565b80601f016020809104026020016040519081016040528092919081815260200182805461219590612fc9565b80156121e25780601f106121b7576101008083540402835291602001916121e2565b820191906000526020600020905b8154815290600101906020018083116121c557829003601f168201915b505050505081526020016003820180546121fb90612fc9565b80601f016020809104026020016040519081016040528092919081815260200182805461222790612fc9565b80156122745780601f1061224957610100808354040283529160200191612274565b820191906000526020600020905b81548152906001019060200180831161225757829003601f168201915b5050505050815260200160048201805461228d90612fc9565b80601f01602080910402602001604051908101604052809291908181526020018280546122b990612fc9565b80156123065780601f106122db57610100808354040283529160200191612306565b820191906000526020600020905b8154815290600101906020018083116122e957829003601f168201915b505050918352505060058201546020820152600682015460408201526007820154606082015260088201546080820152600982015460a0820152600a82015460c09091019060ff16600481111561235f5761235f612c41565b600481111561237057612370612c41565b8152505081526020019060010190612115565b50505050905090565b612394612992565b6000828152600a602052604090205460ff166123c25760405162461bcd60e51b81526004016104ba9061305f565b600782815481106123d5576123d561308a565b90600052602060002090600b020160405180610160016040529081600082015481526020016001820160009054906101000a90046001600160a01b03166001600160a01b03166001600160a01b0316815260200160028201805461243890612fc9565b80601f016020809104026020016040519081016040528092919081815260200182805461246490612fc9565b80156124b15780601f10612486576101008083540402835291602001916124b1565b820191906000526020600020905b81548152906001019060200180831161249457829003601f168201915b505050505081526020016003820180546124ca90612fc9565b80601f01602080910402602001604051908101604052809291908181526020018280546124f690612fc9565b80156125435780601f1061251857610100808354040283529160200191612543565b820191906000526020600020905b81548152906001019060200180831161252657829003601f168201915b5050505050815260200160048201805461255c90612fc9565b80601f016020809104026020016040519081016040528092919081815260200182805461258890612fc9565b80156125d55780601f106125aa576101008083540402835291602001916125d5565b820191906000526020600020905b8154815290600101906020018083116125b857829003601f168201915b505050918352505060058201546020820152600682015460408201526007820154606082015260088201546080820152600982015460a0820152600a82015460c09091019060ff16600481111561262e5761262e612c41565b600481111561263f5761263f612c41565b90525092915050565b6000826001600160a01b03168260405160006040518083038185875af1925050503d8060008114612695576040519150601f19603f3d011682016040523d82523d6000602084013e61269a565b606091505b50509050806126a857600080fd5b505050565b6000600782815481106126c2576126c261308a565b90600052602060002090600b020160060154905060006064600154836126e891906130cd565b6126f291906130ec565b90506004600784815481106127095761270961308a565b60009182526020909120600a600b9092020101805460ff1916600183600481111561273657612736612c41565b021790555061277d600784815481106127515761275161308a565b600091825260209091206001600b9092020101546001600160a01b03166127788385613048565b612648565b600054612793906001600160a01b031682612648565b600783815481106127a6576127a661308a565b90600052602060002090600b020160060154600360008282546127c99190613048565b9091555050604080518481526060602082018190526010908201526f141493d29150d517d410525117d3d55560821b608082015242818301529051339160008051602061310f833981519152919081900360a00190a2505050565b60005b60008281526009602052604090205481101561298e57600082815260096020526040812080548390811061285d5761285d61308a565b6000918252602080832060049092029091015485835260099091526040822080546001600160a01b039092169350908490811061289c5761289c61308a565b906000526020600020906004020160010154905060016009600086815260200190815260200160002084815481106128d6576128d661308a565b906000526020600020906004020160030160006101000a81548160ff021916908315150217905550426009600086815260200190815260200160002084815481106129235761292361308a565b9060005260206000209060040201600201819055506129428282612648565b6001600460010160008282546129589190613048565b909155505060068054829190600090612972908490613048565b925050819055505050808061298690612fae565b915050612827565b5050565b6040518061016001604052806000815260200160006001600160a01b03168152602001606081526020016060815260200160608152602001600081526020016000815260200160008152602001600081526020016000815260200160006004811115612a0057612a00612c41565b905290565b828054612a1190612fc9565b90600052602060002090601f016020900481019282612a335760008555612a79565b82601f10612a4c57805160ff1916838001178555612a79565b82800160010185558215612a79579182015b82811115612a79578251825591602001919060010190612a5e565b50612a85929150612a89565b5090565b5b80821115612a855760008155600101612a8a565b634e487b7160e01b600052604160045260246000fd5b600082601f830112612ac557600080fd5b813567ffffffffffffffff80821115612ae057612ae0612a9e565b604051601f8301601f19908116603f01168101908282118183101715612b0857612b08612a9e565b81604052838152866020858801011115612b2157600080fd5b836020870160208301376000602085830101528094505050505092915050565b600080600080600060a08688031215612b5957600080fd5b853567ffffffffffffffff80821115612b7157600080fd5b612b7d89838a01612ab4565b96506020880135915080821115612b9357600080fd5b612b9f89838a01612ab4565b95506040880135915080821115612bb557600080fd5b50612bc288828901612ab4565b9598949750949560608101359550608001359392505050565b600060208284031215612bed57600080fd5b5035919050565b6000815180845260005b81811015612c1a57602081850181015186830182015201612bfe565b81811115612c2c576000602083870101525b50601f01601f19169290920160200192915050565b634e487b7160e01b600052602160045260246000fd5b60058110612c7557634e487b7160e01b600052602160045260246000fd5b9052565b8b81526001600160a01b038b16602082015261016060408201819052600090612ca48382018d612bf4565b90508281036060840152612cb8818c612bf4565b90508281036080840152612ccc818b612bf4565b9150508760a08301528660c08301528560e08301528461010083015283610120830152612cfd610140830184612c57565b9c9b505050505050505050505050565b600060208284031215612d1f57600080fd5b81356001600160a01b0381168114612d3657600080fd5b9392505050565b6000610160825184526020830151612d6060208601826001600160a01b03169052565b506040830151816040860152612d7882860182612bf4565b91505060608301518482036060860152612d928282612bf4565b91505060808301518482036080860152612dac8282612bf4565b91505060a083015160a085015260c083015160c085015260e083015160e085015261010080840151818601525061012080840151818601525061014080840151612df882870182612c57565b5090949350505050565b6000602080830181845280855180835260408601915060408160051b870101925083870160005b82811015612e5757603f19888603018452612e45858351612d3d565b94509285019290850190600101612e29565b5092979650505050505050565b602080825282518282018190526000919060409081850190868401855b82811015612ec657815180516001600160a01b031685528681015187860152858101518686015260609081015115159085015260809093019290850190600101612e81565b5091979650505050505050565b600080600080600060a08688031215612eeb57600080fd5b85359450602086013567ffffffffffffffff80821115612f0a57600080fd5b612f1689838a01612ab4565b95506040880135915080821115612f2c57600080fd5b612f3889838a01612ab4565b94506060880135915080821115612f4e57600080fd5b50612f5b88828901612ab4565b95989497509295608001359392505050565b602081526000612d366020830184612d3d565b634e487b7160e01b600052601160045260246000fd5b60008219821115612fa957612fa9612f80565b500190565b6000600019821415612fc257612fc2612f80565b5060010190565b600181811c90821680612fdd57607f821691505b60208210811415612ffe57634e487b7160e01b600052602260045260246000fd5b50919050565b60208082526024908201527f4f7065726174696f6e20616c6c6f776564206f6e6c7920666f7220746865206f6040820152633bb732b960e11b606082015260800190565b60008282101561305a5761305a612f80565b500390565b602080825260119082015270141c9bda9958dd081b9bdd08199bdd5b99607a1b604082015260600190565b634e487b7160e01b600052603260045260246000fd5b602080825260139082015272556e617574686f72697a656420456e7469747960681b604082015260600190565b60008160001904831182151516156130e7576130e7612f80565b500290565b60008261310957634e487b7160e01b600052601260045260246000fd5b50049056feaee8e5d3bbb2f71a951b5632cee20f7ac487b9f8ab4f66a236f7694b13af7c6aa2646970667358221220f808a1ce9ac6369d0f46cdf76de0f185c59f78d819ffb0f8cfb0135558b10d8764736f6c634300080b0033",
  "linkReferences": {},
  "deployedLinkReferences": {}
}