{
  "_format": "hh-sol-artifact-1",
  "contractName": "DCharity",
  "sourceName": "src/contracts/DCharity.sol",
  "abi": [
    {
      "inputs": [
        {
          "internalType": "uint256",
          "name": "_projectTax",
          "type": "uint256"
        }
      ],
      "stateMutability": "nonpayable",
      "type": "constructor"
    },
    {
      "anonymous": false,
      "inputs": [
        {
          "indexed": false,
          "internalType": "uint256",
          "name": "id",
          "type": "uint256"
        },
        {
          "indexed": false,
          "internalType": "string",
          "name": "actionType",
          "type": "string"
        },
        {
          "indexed": true,
          "internalType": "address",
          "name": "executor",
          "type": "address"
        },
        {
          "indexed": false,
          "internalType": "uint256",
          "name": "timestamp",
          "type": "uint256"
        }
      ],
      "name": "Action",
      "type": "event"
    },
    {
      "inputs": [],
      "name": "balance",
      "outputs": [
        {
          "internalType": "uint256",
          "name": "",
          "type": "uint256"
        }
      ],
      "stateMutability": "view",
      "type": "function"
    },
    {
      "inputs": [
        {
          "internalType": "uint256",
          "name": "_taxPercentage",
          "type": "uint256"
        }
      ],
      "name": "changeTax",
      "outputs": [],
      "stateMutability": "nonpayable",
      "type": "function"
    },
    {
      "inputs": [
        {
          "internalType": "string",
          "name": "title",
          "type": "string"
        },
        {
          "internalType": "string",
          "name": "description",
          "type": "string"
        },
        {
          "internalType": "string",
          "name": "imageURL",
          "type": "string"
        },
        {
          "internalType": "uint256",
          "name": "cost",
          "type": "uint256"
        },
        {
          "internalType": "uint256",
          "name": "expiresAt",
          "type": "uint256"
        }
      ],
      "name": "createProject",
      "outputs": [
        {
          "internalType": "bool",
          "name": "",
          "type": "bool"
        }
      ],
      "stateMutability": "nonpayable",
      "type": "function"
    },
    {
      "inputs": [
        {
          "internalType": "uint256",
          "name": "id",
          "type": "uint256"
        }
      ],
      "name": "deleteProject",
      "outputs": [
        {
          "internalType": "bool",
          "name": "",
          "type": "bool"
        }
      ],
      "stateMutability": "nonpayable",
      "type": "function"
    },
    {
      "inputs": [],
      "name": "getAllSupporters",
      "outputs": [
        {
          "components": [
            {
              "internalType": "address",
              "name": "owner",
              "type": "address"
            },
            {
              "internalType": "uint256",
              "name": "contribution",
              "type": "uint256"
            },
            {
              "internalType": "uint256",
              "name": "timestamp",
              "type": "uint256"
            },
            {
              "internalType": "bool",
              "name": "refunded",
              "type": "bool"
            }
          ],
          "internalType": "struct DCharity.Supporter[]",
          "name": "",
          "type": "tuple[]"
        }
      ],
      "stateMutability": "view",
      "type": "function"
    },
    {
      "inputs": [],
      "name": "getOwnerProjects",
      "outputs": [
        {
          "components": [
            {
              "internalType": "uint256",
              "name": "id",
              "type": "uint256"
            },
            {
              "internalType": "address",
              "name": "owner",
              "type": "address"
            },
            {
              "internalType": "string",
              "name": "title",
              "type": "string"
            },
            {
              "internalType": "string",
              "name": "description",
              "type": "string"
            },
            {
              "internalType": "string",
              "name": "imageURL",
              "type": "string"
            },
            {
              "internalType": "uint256",
              "name": "cost",
              "type": "uint256"
            },
            {
              "internalType": "uint256",
              "name": "raised",
              "type": "uint256"
            },
            {
              "internalType": "uint256",
              "name": "timestamp",
              "type": "uint256"
            },
            {
              "internalType": "uint256",
              "name": "expiresAt",
              "type": "uint256"
            },
            {
              "internalType": "uint256",
              "name": "supporters",
              "type": "uint256"
            },
            {
              "internalType": "enum DCharity.Status",
              "name": "status",
              "type": "uint8"
            }
          ],
          "internalType": "struct DCharity.Project[]",
          "name": "",
          "type": "tuple[]"
        }
      ],
      "stateMutability": "view",
      "type": "function"
    },
    {
      "inputs": [],
      "name": "getOwnerProjectsCount",
      "outputs": [
        {
          "internalType": "uint256",
          "name": "",
          "type": "uint256"
        }
      ],
      "stateMutability": "view",
      "type": "function"
    },
    {
      "inputs": [
        {
          "internalType": "uint256",
          "name": "id",
          "type": "uint256"
        }
      ],
      "name": "getProject",
      "outputs": [
        {
          "components": [
            {
              "internalType": "uint256",
              "name": "id",
              "type": "uint256"
            },
            {
              "internalType": "address",
              "name": "owner",
              "type": "address"
            },
            {
              "internalType": "string",
              "name": "title",
              "type": "string"
            },
            {
              "internalType": "string",
              "name": "description",
              "type": "string"
            },
            {
              "internalType": "string",
              "name": "imageURL",
              "type": "string"
            },
            {
              "internalType": "uint256",
              "name": "cost",
              "type": "uint256"
            },
            {
              "internalType": "uint256",
              "name": "raised",
              "type": "uint256"
            },
            {
              "internalType": "uint256",
              "name": "timestamp",
              "type": "uint256"
            },
            {
              "internalType": "uint256",
              "name": "expiresAt",
              "type": "uint256"
            },
            {
              "internalType": "uint256",
              "name": "supporters",
              "type": "uint256"
            },
            {
              "internalType": "enum DCharity.Status",
              "name": "status",
              "type": "uint8"
            }
          ],
          "internalType": "struct DCharity.Project",
          "name": "",
          "type": "tuple"
        }
      ],
      "stateMutability": "view",
      "type": "function"
    },
    {
      "inputs": [],
      "name": "getProjects",
      "outputs": [
        {
          "components": [
            {
              "internalType": "uint256",
              "name": "id",
              "type": "uint256"
            },
            {
              "internalType": "address",
              "name": "owner",
              "type": "address"
            },
            {
              "internalType": "string",
              "name": "title",
              "type": "string"
            },
            {
              "internalType": "string",
              "name": "description",
              "type": "string"
            },
            {
              "internalType": "string",
              "name": "imageURL",
              "type": "string"
            },
            {
              "internalType": "uint256",
              "name": "cost",
              "type": "uint256"
            },
            {
              "internalType": "uint256",
              "name": "raised",
              "type": "uint256"
            },
            {
              "internalType": "uint256",
              "name": "timestamp",
              "type": "uint256"
            },
            {
              "internalType": "uint256",
              "name": "expiresAt",
              "type": "uint256"
            },
            {
              "internalType": "uint256",
              "name": "supporters",
              "type": "uint256"
            },
            {
              "internalType": "enum DCharity.Status",
              "name": "status",
              "type": "uint8"
            }
          ],
          "internalType": "struct DCharity.Project[]",
          "name": "",
          "type": "tuple[]"
        }
      ],
      "stateMutability": "view",
      "type": "function"
    },
    {
      "inputs": [
        {
          "internalType": "address",
          "name": "projectOwner",
          "type": "address"
        }
      ],
      "name": "getProjectsOf",
      "outputs": [
        {
          "components": [
            {
              "internalType": "uint256",
              "name": "id",
              "type": "uint256"
            },
            {
              "internalType": "address",
              "name": "owner",
              "type": "address"
            },
            {
              "internalType": "string",
              "name": "title",
              "type": "string"
            },
            {
              "internalType": "string",
              "name": "description",
              "type": "string"
            },
            {
              "internalType": "string",
              "name": "imageURL",
              "type": "string"
            },
            {
              "internalType": "uint256",
              "name": "cost",
              "type": "uint256"
            },
            {
              "internalType": "uint256",
              "name": "raised",
              "type": "uint256"
            },
            {
              "internalType": "uint256",
              "name": "timestamp",
              "type": "uint256"
            },
            {
              "internalType": "uint256",
              "name": "expiresAt",
              "type": "uint256"
            },
            {
              "internalType": "uint256",
              "name": "supporters",
              "type": "uint256"
            },
            {
              "internalType": "enum DCharity.Status",
              "name": "status",
              "type": "uint8"
            }
          ],
          "internalType": "struct DCharity.Project[]",
          "name": "",
          "type": "tuple[]"
        }
      ],
      "stateMutability": "view",
      "type": "function"
    },
    {
      "inputs": [
        {
          "internalType": "uint256",
          "name": "id",
          "type": "uint256"
        }
      ],
      "name": "getSupporters",
      "outputs": [
        {
          "components": [
            {
              "internalType": "address",
              "name": "owner",
              "type": "address"
            },
            {
              "internalType": "uint256",
              "name": "contribution",
              "type": "uint256"
            },
            {
              "internalType": "uint256",
              "name": "timestamp",
              "type": "uint256"
            },
            {
              "internalType": "bool",
              "name": "refunded",
              "type": "bool"
            }
          ],
          "internalType": "struct DCharity.Supporter[]",
          "name": "",
          "type": "tuple[]"
        }
      ],
      "stateMutability": "view",
      "type": "function"
    },
    {
      "inputs": [],
      "name": "getTotalDonationsCount",
      "outputs": [
        {
          "internalType": "uint256",
          "name": "",
          "type": "uint256"
        }
      ],
      "stateMutability": "view",
      "type": "function"
    },
    {
      "inputs": [],
      "name": "getTotalProjectCount",
      "outputs": [
        {
          "internalType": "uint256",
          "name": "",
          "type": "uint256"
        }
      ],
      "stateMutability": "view",
      "type": "function"
    },
    {
      "inputs": [],
      "name": "getTotalSupportersCount",
      "outputs": [
        {
          "internalType": "uint256",
          "name": "",
          "type": "uint256"
        }
      ],
      "stateMutability": "view",
      "type": "function"
    },
    {
      "inputs": [],
      "name": "owner",
      "outputs": [
        {
          "internalType": "address",
          "name": "",
          "type": "address"
        }
      ],
      "stateMutability": "view",
      "type": "function"
    },
    {
      "inputs": [
        {
          "internalType": "uint256",
          "name": "id",
          "type": "uint256"
        }
      ],
      "name": "payOutProject",
      "outputs": [
        {
          "internalType": "bool",
          "name": "",
          "type": "bool"
        }
      ],
      "stateMutability": "nonpayable",
      "type": "function"
    },
    {
      "inputs": [],
      "name": "projectCount",
      "outputs": [
        {
          "internalType": "uint256",
          "name": "",
          "type": "uint256"
        }
      ],
      "stateMutability": "view",
      "type": "function"
    },
    {
      "inputs": [
        {
          "internalType": "uint256",
          "name": "",
          "type": "uint256"
        }
      ],
      "name": "projectExist",
      "outputs": [
        {
          "internalType": "bool",
          "name": "",
          "type": "bool"
        }
      ],
      "stateMutability": "view",
      "type": "function"
    },
    {
      "inputs": [],
      "name": "projectTax",
      "outputs": [
        {
          "internalType": "uint256",
          "name": "",
          "type": "uint256"
        }
      ],
      "stateMutability": "view",
      "type": "function"
    },
    {
      "inputs": [
        {
          "internalType": "uint256",
          "name": "",
          "type": "uint256"
        }
      ],
      "name": "projects",
      "outputs": [
        {
          "internalType": "uint256",
          "name": "id",
          "type": "uint256"
        },
        {
          "internalType": "address",
          "name": "owner",
          "type": "address"
        },
        {
          "internalType": "string",
          "name": "title",
          "type": "string"
        },
        {
          "internalType": "string",
          "name": "description",
          "type": "string"
        },
        {
          "internalType": "string",
          "name": "imageURL",
          "type": "string"
        },
        {
          "internalType": "uint256",
          "name": "cost",
          "type": "uint256"
        },
        {
          "internalType": "uint256",
          "name": "raised",
          "type": "uint256"
        },
        {
          "internalType": "uint256",
          "name": "timestamp",
          "type": "uint256"
        },
        {
          "internalType": "uint256",
          "name": "expiresAt",
          "type": "uint256"
        },
        {
          "internalType": "uint256",
          "name": "supporters",
          "type": "uint256"
        },
        {
          "internalType": "enum DCharity.Status",
          "name": "status",
          "type": "uint8"
        }
      ],
      "stateMutability": "view",
      "type": "function"
    },
    {
      "inputs": [
        {
          "internalType": "uint256",
          "name": "id",
          "type": "uint256"
        }
      ],
      "name": "requestRefund",
      "outputs": [
        {
          "internalType": "bool",
          "name": "",
          "type": "bool"
        }
      ],
      "stateMutability": "nonpayable",
      "type": "function"
    },
    {
      "inputs": [],
      "name": "stats",
      "outputs": [
        {
          "internalType": "uint256",
          "name": "totalProjects",
          "type": "uint256"
        },
        {
          "internalType": "uint256",
          "name": "totalSupporters",
          "type": "uint256"
        },
        {
          "internalType": "uint256",
          "name": "totalDonations",
          "type": "uint256"
        }
      ],
      "stateMutability": "view",
      "type": "function"
    },
    {
      "inputs": [
        {
          "internalType": "uint256",
          "name": "id",
          "type": "uint256"
        }
      ],
      "name": "supportProject",
      "outputs": [
        {
          "internalType": "bool",
          "name": "",
          "type": "bool"
        }
      ],
      "stateMutability": "payable",
      "type": "function"
    },
    {
      "inputs": [
        {
          "internalType": "uint256",
          "name": "id",
          "type": "uint256"
        },
        {
          "internalType": "string",
          "name": "title",
          "type": "string"
        },
        {
          "internalType": "string",
          "name": "description",
          "type": "string"
        },
        {
          "internalType": "string",
          "name": "imageURL",
          "type": "string"
        },
        {
          "internalType": "uint256",
          "name": "expiresAt",
          "type": "uint256"
        }
      ],
      "name": "updateProject",
      "outputs": [
        {
          "internalType": "bool",
          "name": "",
          "type": "bool"
        }
      ],
      "stateMutability": "nonpayable",
      "type": "function"
    },
    {
      "inputs": [
        {
          "internalType": "uint256",
          "name": "amount",
          "type": "uint256"
        }
      ],
      "name": "withdrawFunds",
      "outputs": [],
      "stateMutability": "nonpayable",
      "type": "function"
    }
  ],
  "bytecode": "0x60806040523480156200001157600080fd5b5060405162002cdd38038062002cdd83398101604081905262000034916200004f565b600080546001600160a01b0319163317905560015562000069565b6000602082840312156200006257600080fd5b5051919050565b612c6480620000796000396000f3fe6080604052600436106101665760003560e01c80638593054b116100d1578063b69ef8a81161008a578063d7fc616f11610064578063d7fc616f14610434578063d80528ae14610449578063dcc6012814610483578063f0f3f2c81461049857600080fd5b8063b69ef8a8146103f3578063bb14b2e414610409578063d24cd3ec1461041e57600080fd5b80638593054b146103095780638da5cb5b146103395780639a3fa8c714610371578063a1ae456414610391578063a4b2409e146103b3578063b531dcba146103d357600080fd5b806338d583841161012357806338d583841461025d5780633e45c8af1461027257806348cefbda146102925780634cd0cb28146102a75780634f63829c146102c7578063765050b7146102f457600080fd5b8063056c29ee1461016b578063107046bd146101a0578063155dd5ee146101d75780631996c2df146101f9578063329b0f9b1461022657806336fbad2614610239575b600080fd5b34801561017757600080fd5b5061018b610186366004612685565b6104c5565b60405190151581526020015b60405180910390f35b3480156101ac57600080fd5b506101c06101bb36600461271f565b610931565b6040516101979b9a999897969594939291906127bd565b3480156101e357600080fd5b506101f76101f236600461271f565b610b40565b005b34801561020557600080fd5b50610219610214366004612851565b610c09565b6040516101979190612946565b61018b61023436600461271f565b610eba565b34801561024557600080fd5b5061024f60025481565b604051908152602001610197565b34801561026957600080fd5b5060055461024f565b34801561027e57600080fd5b506101f761028d36600461271f565b6112b7565b34801561029e57600080fd5b5060065461024f565b3480156102b357600080fd5b5061018b6102c236600461271f565b61130c565b3480156102d357600080fd5b506102e76102e236600461271f565b6114bb565b60405161019791906129a8565b34801561030057600080fd5b50610219611577565b34801561031557600080fd5b5061018b61032436600461271f565b600a6020526000908152604090205460ff1681565b34801561034557600080fd5b50600054610359906001600160a01b031681565b6040516001600160a01b039091168152602001610197565b34801561037d57600080fd5b5061018b61038c366004612a17565b611587565b34801561039d57600080fd5b503360009081526008602052604090205461024f565b3480156103bf57600080fd5b5061018b6103ce36600461271f565b61182c565b3480156103df57600080fd5b5061018b6103ee36600461271f565b611952565b3480156103ff57600080fd5b5061024f60035481565b34801561041557600080fd5b506102e7611a6e565b34801561042a57600080fd5b5061024f60015481565b34801561044057600080fd5b5060075461024f565b34801561045557600080fd5b5060045460055460065461046892919083565b60408051938452602084019290925290820152606001610197565b34801561048f57600080fd5b50610219611c35565b3480156104a457600080fd5b506104b86104b336600461271f565b611ed0565b6040516101979190612ab1565b6000808651116105155760405162461bcd60e51b81526020600482015260166024820152755469746c652063616e6e6f7420626520656d7074792160501b60448201526064015b60405180910390fd5b60008551116105665760405162461bcd60e51b815260206004820152601c60248201527f4465736372697074696f6e2063616e6e6f7420626520656d7074792100000000604482015260640161050c565b60008451116105b35760405162461bcd60e51b8152602060048201526019602482015278496d61676555524c2063616e6e6f7420626520656d7074792160381b604482015260640161050c565b600083116105fa5760405162461bcd60e51b8152602060048201526014602482015273436f73742063616e6e6f74206265207a65726f2160601b604482015260640161050c565b6106026124d6565b600254815233602080830191825260408301898152606084018990526080840188905260a084018790524260e085015261010084018690526007805460018101825560009190915284517fa66cc928b5edb82af9bd49922954155ab7b0942694bea4ce44661d9a8736c688600b90920291820190815593517fa66cc928b5edb82af9bd49922954155ab7b0942694bea4ce44661d9a8736c689820180546001600160a01b0319166001600160a01b03909216919091179055905180518594936106ef937fa66cc928b5edb82af9bd49922954155ab7b0942694bea4ce44661d9a8736c68a01920190612549565b506060820151805161070b916003840191602090910190612549565b5060808201518051610727916004840191602090910190612549565b5060a0820151600582015560c0820151600682015560e0820151600782015561010082015160088201556101208201516009820155610140820151600a8201805460ff1916600183600481111561078057610780612785565b021790555050600280546000908152600a602090815260408083208054600160ff1990911681179091553384526008835281842080548083018255908552938390208751600b909502019384558683015190840180546001600160a01b0319166001600160a01b039092169190911790558501518051869550929361080d93908501929190910190612549565b5060608201518051610829916003840191602090910190612549565b5060808201518051610845916004840191602090910190612549565b5060a0820151600582015560c0820151600682015560e0820151600782015561010082015160088201556101208201516009820155610140820151600a8201805460ff1916600183600481111561089e5761089e612785565b021790555050506001600460000160008282546108bb9190612ada565b9091555050600280543391600080516020612c0f833981519152919060006108e283612af2565b9091555060408051918252606060208301819052600f908301526e141493d29150d517d0d49150551151608a1b6080830152429082015260a00160405180910390a25060019695505050505050565b6007818154811061094157600080fd5b60009182526020909120600b90910201805460018201546002830180549294506001600160a01b03909116929161097790612b0d565b80601f01602080910402602001604051908101604052809291908181526020018280546109a390612b0d565b80156109f05780601f106109c5576101008083540402835291602001916109f0565b820191906000526020600020905b8154815290600101906020018083116109d357829003601f168201915b505050505090806003018054610a0590612b0d565b80601f0160208091040260200160405190810160405280929190818152602001828054610a3190612b0d565b8015610a7e5780601f10610a5357610100808354040283529160200191610a7e565b820191906000526020600020905b815481529060010190602001808311610a6157829003601f168201915b505050505090806004018054610a9390612b0d565b80601f0160208091040260200160405190810160405280929190818152602001828054610abf90612b0d565b8015610b0c5780601f10610ae157610100808354040283529160200191610b0c565b820191906000526020600020905b815481529060010190602001808311610aef57829003601f168201915b50505060058401546006850154600786015460088701546009880154600a9098015496979396929550909350919060ff168b565b6000546001600160a01b03163314610b905760405162461bcd60e51b81526020600482015260136024820152724f776e6572207265736572766564206f6e6c7960681b604482015260640161050c565b600354811115610bd95760405162461bcd60e51b8152602060048201526014602482015273496e73756666696369656e742062616c616e636560601b604482015260640161050c565b8060036000828254610beb9190612b48565b9091555050600054610c06906001600160a01b03168261218c565b50565b6001600160a01b0381166000908152600860209081526040808320805482518185028101850190935280835260609492939192909184015b82821015610eaf5760008481526020908190206040805161016081018252600b86029092018054835260018101546001600160a01b03169383019390935260028301805492939291840191610c9590612b0d565b80601f0160208091040260200160405190810160405280929190818152602001828054610cc190612b0d565b8015610d0e5780601f10610ce357610100808354040283529160200191610d0e565b820191906000526020600020905b815481529060010190602001808311610cf157829003601f168201915b50505050508152602001600382018054610d2790612b0d565b80601f0160208091040260200160405190810160405280929190818152602001828054610d5390612b0d565b8015610da05780601f10610d7557610100808354040283529160200191610da0565b820191906000526020600020905b815481529060010190602001808311610d8357829003601f168201915b50505050508152602001600482018054610db990612b0d565b80601f0160208091040260200160405190810160405280929190818152602001828054610de590612b0d565b8015610e325780601f10610e0757610100808354040283529160200191610e32565b820191906000526020600020905b815481529060010190602001808311610e1557829003601f168201915b505050918352505060058201546020820152600682015460408201526007820154606082015260088201546080820152600982015460a0820152600a82015460c09091019060ff166004811115610e8b57610e8b612785565b6004811115610e9c57610e9c612785565b8152505081526020019060010190610c41565b505050509050919050565b6000803411610f1a5760405162461bcd60e51b815260206004820152602660248201527f457468657220616d6f756e74206d7573742062652067726561746572207468616044820152656e207a65726f60d01b606482015260840161050c565b6000828152600a602052604090205460ff16610f485760405162461bcd60e51b815260040161050c90612b5f565b600060078381548110610f5d57610f5d612b8a565b60009182526020909120600a600b90920201015460ff166004811115610f8557610f85612785565b14610fd25760405162461bcd60e51b815260206004820152601860248201527f50726f6a656374206e6f206c6f6e676572206f70656e65640000000000000000604482015260640161050c565b600160046001016000828254610fe89190612ada565b909155505060068054349190600090611002908490612ada565b92505081905550346007838154811061101d5761101d612b8a565b90600052602060002090600b0201600601600082825461103d9190612ada565b9250508190555060016007838154811061105957611059612b8a565b90600052602060002090600b020160090160008282546110799190612ada565b9091555050600082815260096020908152604080832081516080808201845233808352348387019081524284870181815260608087018b8152885460018082018b55998d529b8b902097516004909c0290970180546001600160a01b0319166001600160a01b03909c169b909b178b559251968a01969096559451600289015592516003909701805460ff1916971515979097179096558351888152948501829052600e918501919091526d141493d29150d517d09050d2d15160921b9084015290820152600080516020612c0f8339815191529060a00160405180910390a26007828154811061116c5761116c612b8a565b90600052602060002090600b0201600501546007838154811061119157611191612b8a565b90600052602060002090600b0201600601541061123c576001600783815481106111bd576111bd612b8a565b60009182526020909120600a600b9092020101805460ff191660018360048111156111ea576111ea612785565b02179055506007828154811061120257611202612b8a565b90600052602060002090600b020160060154600360008282546112259190612ada565b909155506112349050826121f1565b506001919050565b6007828154811061124f5761124f612b8a565b90600052602060002090600b02016008015442106112345760026007838154811061127c5761127c612b8a565b60009182526020909120600a600b9092020101805460ff191660018360048111156112a9576112a9612785565b021790555061123482612368565b6000546001600160a01b031633146113075760405162461bcd60e51b81526020600482015260136024820152724f776e6572207265736572766564206f6e6c7960681b604482015260640161050c565b600155565b6000806007838154811061132257611322612b8a565b60009182526020909120600a600b90920201015460ff16600481111561134a5761134a612785565b146113975760405162461bcd60e51b815260206004820152601960248201527f50726f6a656374206e6f206c6f6e676572206f70656e65642100000000000000604482015260640161050c565b600782815481106113aa576113aa612b8a565b60009182526020909120600b90910201600101546001600160a01b031633146113e55760405162461bcd60e51b815260040161050c90612ba0565b6000828152600a602052604090205460ff166114135760405162461bcd60e51b815260040161050c90612b5f565b60036007838154811061142857611428612b8a565b60009182526020909120600a600b9092020101805460ff1916600183600481111561145557611455612785565b021790555061146382612368565b60408051838152606060208201819052600f908201526e141493d29150d517d1115311551151608a1b6080820152428183015290513391600080516020612c0f833981519152919081900360a00190a2506001919050565b6000818152600a602052604090205460609060ff166114ec5760405162461bcd60e51b815260040161050c90612b5f565b600082815260096020908152604080832080548251818502810185019093528083529193909284015b82821015610eaf576000848152602090819020604080516080810182526004860290920180546001600160a01b03168352600180820154848601526002820154928401929092526003015460ff16151560608301529083529092019101611515565b606061158233610c09565b905090565b6000858152600a602052604081205460ff166115b55760405162461bcd60e51b815260040161050c90612b5f565b600786815481106115c8576115c8612b8a565b60009182526020909120600b90910201600101546001600160a01b031633146116035760405162461bcd60e51b815260040161050c90612ba0565b600085511161164d5760405162461bcd60e51b81526020600482015260166024820152755469746c652063616e6e6f7420626520656d7074792160501b604482015260640161050c565b600084511161169e5760405162461bcd60e51b815260206004820152601c60248201527f4465736372697074696f6e2063616e6e6f7420626520656d7074792100000000604482015260640161050c565b60008351116116eb5760405162461bcd60e51b8152602060048201526019602482015278496d61676555524c2063616e6e6f7420626520656d7074792160381b604482015260640161050c565b84600787815481106116ff576116ff612b8a565b90600052602060002090600b02016002019080519060200190611723929190612549565b50836007878154811061173857611738612b8a565b90600052602060002090600b0201600301908051906020019061175c929190612549565b50826007878154811061177157611771612b8a565b90600052602060002090600b02016004019080519060200190611795929190612549565b5081600787815481106117aa576117aa612b8a565b90600052602060002090600b020160080181905550336001600160a01b0316600080516020612c0f8339815191528742604051611818929190918252606060208301819052600f908301526e141493d29150d517d5541110551151608a1b6080830152604082015260a00190565b60405180910390a250600195945050505050565b6000818152600a602052604081205460ff1661185a5760405162461bcd60e51b815260040161050c90612b5f565b60026007838154811061186f5761186f612b8a565b60009182526020909120600a600b90920201015460ff16600481111561189757611897612785565b1415806118df57506003600783815481106118b4576118b4612b8a565b60009182526020909120600a600b90920201015460ff1660048111156118dc576118dc612785565b14155b61193d5760405162461bcd60e51b815260206004820152602960248201527f50726f6a656374206e6f74206d61726b6564206173207265766572746564206f6044820152681c8819195b195d195960ba1b606482015260840161050c565b60026007838154811061127c5761127c612b8a565b6000818152600a602052604081205460ff166119805760405162461bcd60e51b815260040161050c90612b5f565b60016007838154811061199557611995612b8a565b60009182526020909120600a600b90920201015460ff1660048111156119bd576119bd612785565b14611a025760405162461bcd60e51b815260206004820152601560248201527450726f6a656374206e6f7420417070726f7665642160581b604482015260640161050c565b60078281548110611a1557611a15612b8a565b60009182526020909120600b90910201600101546001600160a01b0316331480611a4957506000546001600160a01b031633145b611a655760405162461bcd60e51b815260040161050c90612ba0565b611234826121f1565b60055460609060008167ffffffffffffffff811115611a8f57611a8f6125e2565b604051908082528060200260200182016040528015611ae157816020015b604080516080810182526000808252602080830182905292820181905260608201528252600019909201910181611aad5790505b5090506000805b600754811015611c2c5760006009600060078481548110611b0b57611b0b612b8a565b90600052602060002090600b0201600001548152602001908152602001600020805480602002602001604051908101604052809291908181526020016000905b82821015611bad576000848152602090819020604080516080810182526004860290920180546001600160a01b03168352600180820154848601526002820154928401929092526003015460ff16151560608301529083529092019101611b4b565b50505050905060005b8151811015611c1757818181518110611bd157611bd1612b8a565b6020026020010151858581518110611beb57611beb612b8a565b60200260200101819052508380611c0190612af2565b9450508080611c0f90612af2565b915050611bb6565b50508080611c2490612af2565b915050611ae8565b50909392505050565b60606007805480602002602001604051908101604052809291908181526020016000905b82821015611ec75760008481526020908190206040805161016081018252600b86029092018054835260018101546001600160a01b03169383019390935260028301805492939291840191611cad90612b0d565b80601f0160208091040260200160405190810160405280929190818152602001828054611cd990612b0d565b8015611d265780601f10611cfb57610100808354040283529160200191611d26565b820191906000526020600020905b815481529060010190602001808311611d0957829003601f168201915b50505050508152602001600382018054611d3f90612b0d565b80601f0160208091040260200160405190810160405280929190818152602001828054611d6b90612b0d565b8015611db85780601f10611d8d57610100808354040283529160200191611db8565b820191906000526020600020905b815481529060010190602001808311611d9b57829003601f168201915b50505050508152602001600482018054611dd190612b0d565b80601f0160208091040260200160405190810160405280929190818152602001828054611dfd90612b0d565b8015611e4a5780601f10611e1f57610100808354040283529160200191611e4a565b820191906000526020600020905b815481529060010190602001808311611e2d57829003601f168201915b505050918352505060058201546020820152600682015460408201526007820154606082015260088201546080820152600982015460a0820152600a82015460c09091019060ff166004811115611ea357611ea3612785565b6004811115611eb457611eb4612785565b8152505081526020019060010190611c59565b50505050905090565b611ed86124d6565b6000828152600a602052604090205460ff16611f065760405162461bcd60e51b815260040161050c90612b5f565b60078281548110611f1957611f19612b8a565b90600052602060002090600b020160405180610160016040529081600082015481526020016001820160009054906101000a90046001600160a01b03166001600160a01b03166001600160a01b03168152602001600282018054611f7c90612b0d565b80601f0160208091040260200160405190810160405280929190818152602001828054611fa890612b0d565b8015611ff55780601f10611fca57610100808354040283529160200191611ff5565b820191906000526020600020905b815481529060010190602001808311611fd857829003601f168201915b5050505050815260200160038201805461200e90612b0d565b80601f016020809104026020016040519081016040528092919081815260200182805461203a90612b0d565b80156120875780601f1061205c57610100808354040283529160200191612087565b820191906000526020600020905b81548152906001019060200180831161206a57829003601f168201915b505050505081526020016004820180546120a090612b0d565b80601f01602080910402602001604051908101604052809291908181526020018280546120cc90612b0d565b80156121195780601f106120ee57610100808354040283529160200191612119565b820191906000526020600020905b8154815290600101906020018083116120fc57829003601f168201915b505050918352505060058201546020820152600682015460408201526007820154606082015260088201546080820152600982015460a0820152600a82015460c09091019060ff16600481111561217257612172612785565b600481111561218357612183612785565b90525092915050565b6000826001600160a01b03168260405160006040518083038185875af1925050503d80600081146121d9576040519150601f19603f3d011682016040523d82523d6000602084013e6121de565b606091505b50509050806121ec57600080fd5b505050565b60006007828154811061220657612206612b8a565b90600052602060002090600b0201600601549050600060646001548361222c9190612bcd565b6122369190612bec565b905060046007848154811061224d5761224d612b8a565b60009182526020909120600a600b9092020101805460ff1916600183600481111561227a5761227a612785565b02179055506122c16007848154811061229557612295612b8a565b600091825260209091206001600b9092020101546001600160a01b03166122bc8385612b48565b61218c565b6000546122d7906001600160a01b03168261218c565b600783815481106122ea576122ea612b8a565b90600052602060002090600b0201600601546003600082825461230d9190612b48565b9091555050604080518481526060602082018190526010908201526f141493d29150d517d410525117d3d55560821b6080820152428183015290513391600080516020612c0f833981519152919081900360a00190a2505050565b60005b6000828152600960205260409020548110156124d25760008281526009602052604081208054839081106123a1576123a1612b8a565b6000918252602080832060049092029091015485835260099091526040822080546001600160a01b03909216935090849081106123e0576123e0612b8a565b9060005260206000209060040201600101549050600160096000868152602001908152602001600020848154811061241a5761241a612b8a565b906000526020600020906004020160030160006101000a81548160ff0219169083151502179055504260096000868152602001908152602001600020848154811061246757612467612b8a565b906000526020600020906004020160020181905550612486828261218c565b60016004600101600082825461249c9190612b48565b9091555050600680548291906000906124b6908490612b48565b92505081905550505080806124ca90612af2565b91505061236b565b5050565b6040518061016001604052806000815260200160006001600160a01b0316815260200160608152602001606081526020016060815260200160008152602001600081526020016000815260200160008152602001600081526020016000600481111561254457612544612785565b905290565b82805461255590612b0d565b90600052602060002090601f01602090048101928261257757600085556125bd565b82601f1061259057805160ff19168380011785556125bd565b828001600101855582156125bd579182015b828111156125bd5782518255916020019190600101906125a2565b506125c99291506125cd565b5090565b5b808211156125c957600081556001016125ce565b634e487b7160e01b600052604160045260246000fd5b600082601f83011261260957600080fd5b813567ffffffffffffffff80821115612624576126246125e2565b604051601f8301601f19908116603f0116810190828211818310171561264c5761264c6125e2565b8160405283815286602085880101111561266557600080fd5b836020870160208301376000602085830101528094505050505092915050565b600080600080600060a0868803121561269d57600080fd5b853567ffffffffffffffff808211156126b557600080fd5b6126c189838a016125f8565b965060208801359150808211156126d757600080fd5b6126e389838a016125f8565b955060408801359150808211156126f957600080fd5b50612706888289016125f8565b9598949750949560608101359550608001359392505050565b60006020828403121561273157600080fd5b5035919050565b6000815180845260005b8181101561275e57602081850181015186830182015201612742565b81811115612770576000602083870101525b50601f01601f19169290920160200192915050565b634e487b7160e01b600052602160045260246000fd5b600581106127b957634e487b7160e01b600052602160045260246000fd5b9052565b8b81526001600160a01b038b166020820152610160604082018190526000906127e88382018d612738565b905082810360608401526127fc818c612738565b90508281036080840152612810818b612738565b9150508760a08301528660c08301528560e0830152846101008301528361012083015261284161014083018461279b565b9c9b505050505050505050505050565b60006020828403121561286357600080fd5b81356001600160a01b038116811461287a57600080fd5b9392505050565b60006101608251845260208301516128a460208601826001600160a01b03169052565b5060408301518160408601526128bc82860182612738565b915050606083015184820360608601526128d68282612738565b915050608083015184820360808601526128f08282612738565b91505060a083015160a085015260c083015160c085015260e083015160e08501526101008084015181860152506101208084015181860152506101408084015161293c8287018261279b565b5090949350505050565b6000602080830181845280855180835260408601915060408160051b870101925083870160005b8281101561299b57603f19888603018452612989858351612881565b9450928501929085019060010161296d565b5092979650505050505050565b602080825282518282018190526000919060409081850190868401855b82811015612a0a57815180516001600160a01b0316855286810151878601528581015186860152606090810151151590850152608090930192908501906001016129c5565b5091979650505050505050565b600080600080600060a08688031215612a2f57600080fd5b85359450602086013567ffffffffffffffff80821115612a4e57600080fd5b612a5a89838a016125f8565b95506040880135915080821115612a7057600080fd5b612a7c89838a016125f8565b94506060880135915080821115612a9257600080fd5b50612a9f888289016125f8565b95989497509295608001359392505050565b60208152600061287a6020830184612881565b634e487b7160e01b600052601160045260246000fd5b60008219821115612aed57612aed612ac4565b500190565b6000600019821415612b0657612b06612ac4565b5060010190565b600181811c90821680612b2157607f821691505b60208210811415612b4257634e487b7160e01b600052602260045260246000fd5b50919050565b600082821015612b5a57612b5a612ac4565b500390565b602080825260119082015270141c9bda9958dd081b9bdd08199bdd5b99607a1b604082015260600190565b634e487b7160e01b600052603260045260246000fd5b602080825260139082015272556e617574686f72697a656420456e7469747960681b604082015260600190565b6000816000190483118215151615612be757612be7612ac4565b500290565b600082612c0957634e487b7160e01b600052601260045260246000fd5b50049056feaee8e5d3bbb2f71a951b5632cee20f7ac487b9f8ab4f66a236f7694b13af7c6aa2646970667358221220dd8311921ca3dec14863d11592f8a33ecb55242df02745078168fb07de68fa9d64736f6c634300080b0033",
  "linkReferences": {},
  "deployedLinkReferences": {}
}