{
  "_format": "hh-sol-artifact-1",
  "contractName": "DCharity",
  "sourceName": "src/contracts/DCharity.sol",
  "abi": [
    {
      "inputs": [
        {
          "internalType": "uint256",
          "name": "_projectTax",
          "type": "uint256"
        }
      ],
      "stateMutability": "nonpayable",
      "type": "constructor"
    },
    {
      "anonymous": false,
      "inputs": [
        {
          "indexed": false,
          "internalType": "uint256",
          "name": "id",
          "type": "uint256"
        },
        {
          "indexed": false,
          "internalType": "string",
          "name": "actionType",
          "type": "string"
        },
        {
          "indexed": true,
          "internalType": "address",
          "name": "executor",
          "type": "address"
        },
        {
          "indexed": false,
          "internalType": "uint256",
          "name": "timestamp",
          "type": "uint256"
        }
      ],
      "name": "Action",
      "type": "event"
    },
    {
      "inputs": [],
      "name": "balance",
      "outputs": [
        {
          "internalType": "uint256",
          "name": "",
          "type": "uint256"
        }
      ],
      "stateMutability": "view",
      "type": "function"
    },
    {
      "inputs": [
        {
          "internalType": "uint256",
          "name": "_taxPercentage",
          "type": "uint256"
        }
      ],
      "name": "changeTax",
      "outputs": [],
      "stateMutability": "nonpayable",
      "type": "function"
    },
    {
      "inputs": [
        {
          "internalType": "string",
          "name": "title",
          "type": "string"
        },
        {
          "internalType": "string",
          "name": "description",
          "type": "string"
        },
        {
          "internalType": "string",
          "name": "imageURL",
          "type": "string"
        },
        {
          "internalType": "uint256",
          "name": "cost",
          "type": "uint256"
        },
        {
          "internalType": "uint256",
          "name": "expiresAt",
          "type": "uint256"
        }
      ],
      "name": "createProject",
      "outputs": [
        {
          "internalType": "bool",
          "name": "",
          "type": "bool"
        }
      ],
      "stateMutability": "nonpayable",
      "type": "function"
    },
    {
      "inputs": [
        {
          "internalType": "uint256",
          "name": "id",
          "type": "uint256"
        }
      ],
      "name": "deleteProject",
      "outputs": [
        {
          "internalType": "bool",
          "name": "",
          "type": "bool"
        }
      ],
      "stateMutability": "nonpayable",
      "type": "function"
    },
    {
      "inputs": [],
      "name": "getAllSupporters",
      "outputs": [
        {
          "components": [
            {
              "internalType": "address",
              "name": "owner",
              "type": "address"
            },
            {
              "internalType": "uint256",
              "name": "contribution",
              "type": "uint256"
            },
            {
              "internalType": "uint256",
              "name": "timestamp",
              "type": "uint256"
            },
            {
              "internalType": "bool",
              "name": "refunded",
              "type": "bool"
            }
          ],
          "internalType": "struct DCharity.Supporter[]",
          "name": "",
          "type": "tuple[]"
        }
      ],
      "stateMutability": "view",
      "type": "function"
    },
    {
      "inputs": [],
      "name": "getOwnerProjects",
      "outputs": [
        {
          "components": [
            {
              "internalType": "uint256",
              "name": "id",
              "type": "uint256"
            },
            {
              "internalType": "address",
              "name": "owner",
              "type": "address"
            },
            {
              "internalType": "string",
              "name": "title",
              "type": "string"
            },
            {
              "internalType": "string",
              "name": "description",
              "type": "string"
            },
            {
              "internalType": "string",
              "name": "imageURL",
              "type": "string"
            },
            {
              "internalType": "uint256",
              "name": "cost",
              "type": "uint256"
            },
            {
              "internalType": "uint256",
              "name": "raised",
              "type": "uint256"
            },
            {
              "internalType": "uint256",
              "name": "timestamp",
              "type": "uint256"
            },
            {
              "internalType": "uint256",
              "name": "expiresAt",
              "type": "uint256"
            },
            {
              "internalType": "uint256",
              "name": "supporters",
              "type": "uint256"
            },
            {
              "internalType": "enum DCharity.Status",
              "name": "status",
              "type": "uint8"
            }
          ],
          "internalType": "struct DCharity.Project[]",
          "name": "",
          "type": "tuple[]"
        }
      ],
      "stateMutability": "view",
      "type": "function"
    },
    {
      "inputs": [],
      "name": "getOwnerProjectsCount",
      "outputs": [
        {
          "internalType": "uint256",
          "name": "",
          "type": "uint256"
        }
      ],
      "stateMutability": "view",
      "type": "function"
    },
    {
      "inputs": [
        {
          "internalType": "uint256",
          "name": "id",
          "type": "uint256"
        }
      ],
      "name": "getProject",
      "outputs": [
        {
          "components": [
            {
              "internalType": "uint256",
              "name": "id",
              "type": "uint256"
            },
            {
              "internalType": "address",
              "name": "owner",
              "type": "address"
            },
            {
              "internalType": "string",
              "name": "title",
              "type": "string"
            },
            {
              "internalType": "string",
              "name": "description",
              "type": "string"
            },
            {
              "internalType": "string",
              "name": "imageURL",
              "type": "string"
            },
            {
              "internalType": "uint256",
              "name": "cost",
              "type": "uint256"
            },
            {
              "internalType": "uint256",
              "name": "raised",
              "type": "uint256"
            },
            {
              "internalType": "uint256",
              "name": "timestamp",
              "type": "uint256"
            },
            {
              "internalType": "uint256",
              "name": "expiresAt",
              "type": "uint256"
            },
            {
              "internalType": "uint256",
              "name": "supporters",
              "type": "uint256"
            },
            {
              "internalType": "enum DCharity.Status",
              "name": "status",
              "type": "uint8"
            }
          ],
          "internalType": "struct DCharity.Project",
          "name": "",
          "type": "tuple"
        }
      ],
      "stateMutability": "view",
      "type": "function"
    },
    {
      "inputs": [
        {
          "internalType": "uint256",
          "name": "id",
          "type": "uint256"
        }
      ],
      "name": "getProjectSupporters",
      "outputs": [
        {
          "components": [
            {
              "internalType": "address",
              "name": "owner",
              "type": "address"
            },
            {
              "internalType": "uint256",
              "name": "contribution",
              "type": "uint256"
            },
            {
              "internalType": "uint256",
              "name": "timestamp",
              "type": "uint256"
            },
            {
              "internalType": "bool",
              "name": "refunded",
              "type": "bool"
            }
          ],
          "internalType": "struct DCharity.Supporter[]",
          "name": "",
          "type": "tuple[]"
        }
      ],
      "stateMutability": "view",
      "type": "function"
    },
    {
      "inputs": [],
      "name": "getProjects",
      "outputs": [
        {
          "components": [
            {
              "internalType": "uint256",
              "name": "id",
              "type": "uint256"
            },
            {
              "internalType": "address",
              "name": "owner",
              "type": "address"
            },
            {
              "internalType": "string",
              "name": "title",
              "type": "string"
            },
            {
              "internalType": "string",
              "name": "description",
              "type": "string"
            },
            {
              "internalType": "string",
              "name": "imageURL",
              "type": "string"
            },
            {
              "internalType": "uint256",
              "name": "cost",
              "type": "uint256"
            },
            {
              "internalType": "uint256",
              "name": "raised",
              "type": "uint256"
            },
            {
              "internalType": "uint256",
              "name": "timestamp",
              "type": "uint256"
            },
            {
              "internalType": "uint256",
              "name": "expiresAt",
              "type": "uint256"
            },
            {
              "internalType": "uint256",
              "name": "supporters",
              "type": "uint256"
            },
            {
              "internalType": "enum DCharity.Status",
              "name": "status",
              "type": "uint8"
            }
          ],
          "internalType": "struct DCharity.Project[]",
          "name": "",
          "type": "tuple[]"
        }
      ],
      "stateMutability": "view",
      "type": "function"
    },
    {
      "inputs": [
        {
          "internalType": "address",
          "name": "projectOwner",
          "type": "address"
        }
      ],
      "name": "getProjectsOf",
      "outputs": [
        {
          "components": [
            {
              "internalType": "uint256",
              "name": "id",
              "type": "uint256"
            },
            {
              "internalType": "address",
              "name": "owner",
              "type": "address"
            },
            {
              "internalType": "string",
              "name": "title",
              "type": "string"
            },
            {
              "internalType": "string",
              "name": "description",
              "type": "string"
            },
            {
              "internalType": "string",
              "name": "imageURL",
              "type": "string"
            },
            {
              "internalType": "uint256",
              "name": "cost",
              "type": "uint256"
            },
            {
              "internalType": "uint256",
              "name": "raised",
              "type": "uint256"
            },
            {
              "internalType": "uint256",
              "name": "timestamp",
              "type": "uint256"
            },
            {
              "internalType": "uint256",
              "name": "expiresAt",
              "type": "uint256"
            },
            {
              "internalType": "uint256",
              "name": "supporters",
              "type": "uint256"
            },
            {
              "internalType": "enum DCharity.Status",
              "name": "status",
              "type": "uint8"
            }
          ],
          "internalType": "struct DCharity.Project[]",
          "name": "",
          "type": "tuple[]"
        }
      ],
      "stateMutability": "view",
      "type": "function"
    },
    {
      "inputs": [
        {
          "internalType": "uint256",
          "name": "id",
          "type": "uint256"
        }
      ],
      "name": "getSupporters",
      "outputs": [
        {
          "components": [
            {
              "internalType": "address",
              "name": "owner",
              "type": "address"
            },
            {
              "internalType": "uint256",
              "name": "contribution",
              "type": "uint256"
            },
            {
              "internalType": "uint256",
              "name": "timestamp",
              "type": "uint256"
            },
            {
              "internalType": "bool",
              "name": "refunded",
              "type": "bool"
            }
          ],
          "internalType": "struct DCharity.Supporter[]",
          "name": "",
          "type": "tuple[]"
        }
      ],
      "stateMutability": "view",
      "type": "function"
    },
    {
      "inputs": [],
      "name": "getTotalDonationsCount",
      "outputs": [
        {
          "internalType": "uint256",
          "name": "",
          "type": "uint256"
        }
      ],
      "stateMutability": "view",
      "type": "function"
    },
    {
      "inputs": [],
      "name": "getTotalProjectCount",
      "outputs": [
        {
          "internalType": "uint256",
          "name": "",
          "type": "uint256"
        }
      ],
      "stateMutability": "view",
      "type": "function"
    },
    {
      "inputs": [],
      "name": "getTotalSupportersCount",
      "outputs": [
        {
          "internalType": "uint256",
          "name": "",
          "type": "uint256"
        }
      ],
      "stateMutability": "view",
      "type": "function"
    },
    {
      "inputs": [],
      "name": "owner",
      "outputs": [
        {
          "internalType": "address",
          "name": "",
          "type": "address"
        }
      ],
      "stateMutability": "view",
      "type": "function"
    },
    {
      "inputs": [
        {
          "internalType": "uint256",
          "name": "id",
          "type": "uint256"
        }
      ],
      "name": "payOutProject",
      "outputs": [
        {
          "internalType": "bool",
          "name": "",
          "type": "bool"
        }
      ],
      "stateMutability": "nonpayable",
      "type": "function"
    },
    {
      "inputs": [],
      "name": "projectCount",
      "outputs": [
        {
          "internalType": "uint256",
          "name": "",
          "type": "uint256"
        }
      ],
      "stateMutability": "view",
      "type": "function"
    },
    {
      "inputs": [
        {
          "internalType": "uint256",
          "name": "",
          "type": "uint256"
        }
      ],
      "name": "projectExist",
      "outputs": [
        {
          "internalType": "bool",
          "name": "",
          "type": "bool"
        }
      ],
      "stateMutability": "view",
      "type": "function"
    },
    {
      "inputs": [],
      "name": "projectTax",
      "outputs": [
        {
          "internalType": "uint256",
          "name": "",
          "type": "uint256"
        }
      ],
      "stateMutability": "view",
      "type": "function"
    },
    {
      "inputs": [
        {
          "internalType": "uint256",
          "name": "",
          "type": "uint256"
        }
      ],
      "name": "projects",
      "outputs": [
        {
          "internalType": "uint256",
          "name": "id",
          "type": "uint256"
        },
        {
          "internalType": "address",
          "name": "owner",
          "type": "address"
        },
        {
          "internalType": "string",
          "name": "title",
          "type": "string"
        },
        {
          "internalType": "string",
          "name": "description",
          "type": "string"
        },
        {
          "internalType": "string",
          "name": "imageURL",
          "type": "string"
        },
        {
          "internalType": "uint256",
          "name": "cost",
          "type": "uint256"
        },
        {
          "internalType": "uint256",
          "name": "raised",
          "type": "uint256"
        },
        {
          "internalType": "uint256",
          "name": "timestamp",
          "type": "uint256"
        },
        {
          "internalType": "uint256",
          "name": "expiresAt",
          "type": "uint256"
        },
        {
          "internalType": "uint256",
          "name": "supporters",
          "type": "uint256"
        },
        {
          "internalType": "enum DCharity.Status",
          "name": "status",
          "type": "uint8"
        }
      ],
      "stateMutability": "view",
      "type": "function"
    },
    {
      "inputs": [
        {
          "internalType": "uint256",
          "name": "id",
          "type": "uint256"
        }
      ],
      "name": "requestRefund",
      "outputs": [
        {
          "internalType": "bool",
          "name": "",
          "type": "bool"
        }
      ],
      "stateMutability": "nonpayable",
      "type": "function"
    },
    {
      "inputs": [],
      "name": "stats",
      "outputs": [
        {
          "internalType": "uint256",
          "name": "totalProjects",
          "type": "uint256"
        },
        {
          "internalType": "uint256",
          "name": "totalSupporters",
          "type": "uint256"
        },
        {
          "internalType": "uint256",
          "name": "totalDonations",
          "type": "uint256"
        }
      ],
      "stateMutability": "view",
      "type": "function"
    },
    {
      "inputs": [
        {
          "internalType": "uint256",
          "name": "id",
          "type": "uint256"
        }
      ],
      "name": "supportProject",
      "outputs": [
        {
          "internalType": "bool",
          "name": "",
          "type": "bool"
        }
      ],
      "stateMutability": "payable",
      "type": "function"
    },
    {
      "inputs": [
        {
          "internalType": "uint256",
          "name": "id",
          "type": "uint256"
        },
        {
          "internalType": "string",
          "name": "title",
          "type": "string"
        },
        {
          "internalType": "string",
          "name": "description",
          "type": "string"
        },
        {
          "internalType": "string",
          "name": "imageURL",
          "type": "string"
        },
        {
          "internalType": "uint256",
          "name": "expiresAt",
          "type": "uint256"
        }
      ],
      "name": "updateProject",
      "outputs": [
        {
          "internalType": "bool",
          "name": "",
          "type": "bool"
        }
      ],
      "stateMutability": "nonpayable",
      "type": "function"
    },
    {
      "inputs": [
        {
          "internalType": "uint256",
          "name": "amount",
          "type": "uint256"
        }
      ],
      "name": "withdrawFunds",
      "outputs": [],
      "stateMutability": "nonpayable",
      "type": "function"
    }
  ],
  "bytecode": "0x60806040523480156200001157600080fd5b5060405162002cf038038062002cf083398101604081905262000034916200004f565b600080546001600160a01b0319163317905560015562000069565b6000602082840312156200006257600080fd5b5051919050565b612c7780620000796000396000f3fe6080604052600436106101815760003560e01c80638593054b116100d1578063b69ef8a81161008a578063d7fc616f11610064578063d7fc616f1461046f578063d80528ae14610484578063dcc60128146104be578063f0f3f2c8146104d357600080fd5b8063b69ef8a81461042e578063bb14b2e414610444578063d24cd3ec1461045957600080fd5b80638593054b146103445780638da5cb5b146103745780639a3fa8c7146103ac578063a1ae4564146103cc578063a4b2409e146103ee578063b531dcba1461040e57600080fd5b806336fbad261161013e57806348cefbda1161011857806348cefbda146102da5780634cd0cb28146102ef5780634f63829c1461030f578063765050b71461032f57600080fd5b806336fbad261461028157806338d58384146102a55780633e45c8af146102ba57600080fd5b8063056c29ee14610186578063107046bd146101bb578063155dd5ee146101f25780631996c2df1461021457806329b2800814610241578063329b0f9b1461026e575b600080fd5b34801561019257600080fd5b506101a66101a1366004612698565b610500565b60405190151581526020015b60405180910390f35b3480156101c757600080fd5b506101db6101d6366004612732565b61096c565b6040516101b29b9a999897969594939291906127d0565b3480156101fe57600080fd5b5061021261020d366004612732565b610b7b565b005b34801561022057600080fd5b5061023461022f366004612864565b610c44565b6040516101b29190612959565b34801561024d57600080fd5b5061026161025c366004612732565b610ef5565b6040516101b291906129bb565b6101a661027c366004612732565b610fb1565b34801561028d57600080fd5b5061029760025481565b6040519081526020016101b2565b3480156102b157600080fd5b50600554610297565b3480156102c657600080fd5b506102126102d5366004612732565b6113ae565b3480156102e657600080fd5b50600654610297565b3480156102fb57600080fd5b506101a661030a366004612732565b611403565b34801561031b57600080fd5b5061026161032a366004612732565b611584565b34801561033b57600080fd5b50610234611611565b34801561035057600080fd5b506101a661035f366004612732565b600a6020526000908152604090205460ff1681565b34801561038057600080fd5b50600054610394906001600160a01b031681565b6040516001600160a01b0390911681526020016101b2565b3480156103b857600080fd5b506101a66103c7366004612a2a565b611621565b3480156103d857600080fd5b5033600090815260086020526040902054610297565b3480156103fa57600080fd5b506101a6610409366004612732565b61189a565b34801561041a57600080fd5b506101a6610429366004612732565b611991565b34801561043a57600080fd5b5061029760035481565b34801561045057600080fd5b50610261611a81565b34801561046557600080fd5b5061029760015481565b34801561047b57600080fd5b50600754610297565b34801561049057600080fd5b506004546005546006546104a392919083565b604080519384526020840192909252908201526060016101b2565b3480156104ca57600080fd5b50610234611c48565b3480156104df57600080fd5b506104f36104ee366004612732565b611ee3565b6040516101b29190612ac4565b6000808651116105505760405162461bcd60e51b81526020600482015260166024820152755469746c652063616e6e6f7420626520656d7074792160501b60448201526064015b60405180910390fd5b60008551116105a15760405162461bcd60e51b815260206004820152601c60248201527f4465736372697074696f6e2063616e6e6f7420626520656d70747921000000006044820152606401610547565b60008451116105ee5760405162461bcd60e51b8152602060048201526019602482015278496d61676555524c2063616e6e6f7420626520656d7074792160381b6044820152606401610547565b600083116106355760405162461bcd60e51b8152602060048201526014602482015273436f73742063616e6e6f74206265207a65726f2160601b6044820152606401610547565b61063d6124e9565b600254815233602080830191825260408301898152606084018990526080840188905260a084018790524260e085015261010084018690526007805460018101825560009190915284517fa66cc928b5edb82af9bd49922954155ab7b0942694bea4ce44661d9a8736c688600b90920291820190815593517fa66cc928b5edb82af9bd49922954155ab7b0942694bea4ce44661d9a8736c689820180546001600160a01b0319166001600160a01b039092169190911790559051805185949361072a937fa66cc928b5edb82af9bd49922954155ab7b0942694bea4ce44661d9a8736c68a0192019061255c565b506060820151805161074691600384019160209091019061255c565b506080820151805161076291600484019160209091019061255c565b5060a0820151600582015560c0820151600682015560e0820151600782015561010082015160088201556101208201516009820155610140820151600a8201805460ff191660018360048111156107bb576107bb612798565b021790555050600280546000908152600a602090815260408083208054600160ff1990911681179091553384526008835281842080548083018255908552938390208751600b909502019384558683015190840180546001600160a01b0319166001600160a01b03909216919091179055850151805186955092936108489390850192919091019061255c565b506060820151805161086491600384019160209091019061255c565b506080820151805161088091600484019160209091019061255c565b5060a0820151600582015560c0820151600682015560e0820151600782015561010082015160088201556101208201516009820155610140820151600a8201805460ff191660018360048111156108d9576108d9612798565b021790555050506001600460000160008282546108f69190612aed565b9091555050600280543391600080516020612c228339815191529190600061091d83612b05565b9091555060408051918252606060208301819052600f908301526e141493d29150d517d0d49150551151608a1b6080830152429082015260a00160405180910390a25060019695505050505050565b6007818154811061097c57600080fd5b60009182526020909120600b90910201805460018201546002830180549294506001600160a01b0390911692916109b290612b20565b80601f01602080910402602001604051908101604052809291908181526020018280546109de90612b20565b8015610a2b5780601f10610a0057610100808354040283529160200191610a2b565b820191906000526020600020905b815481529060010190602001808311610a0e57829003601f168201915b505050505090806003018054610a4090612b20565b80601f0160208091040260200160405190810160405280929190818152602001828054610a6c90612b20565b8015610ab95780601f10610a8e57610100808354040283529160200191610ab9565b820191906000526020600020905b815481529060010190602001808311610a9c57829003601f168201915b505050505090806004018054610ace90612b20565b80601f0160208091040260200160405190810160405280929190818152602001828054610afa90612b20565b8015610b475780601f10610b1c57610100808354040283529160200191610b47565b820191906000526020600020905b815481529060010190602001808311610b2a57829003601f168201915b50505060058401546006850154600786015460088701546009880154600a9098015496979396929550909350919060ff168b565b6000546001600160a01b03163314610bcb5760405162461bcd60e51b81526020600482015260136024820152724f776e6572207265736572766564206f6e6c7960681b6044820152606401610547565b600354811115610c145760405162461bcd60e51b8152602060048201526014602482015273496e73756666696369656e742062616c616e636560601b6044820152606401610547565b8060036000828254610c269190612b5b565b9091555050600054610c41906001600160a01b03168261219f565b50565b6001600160a01b0381166000908152600860209081526040808320805482518185028101850190935280835260609492939192909184015b82821015610eea5760008481526020908190206040805161016081018252600b86029092018054835260018101546001600160a01b03169383019390935260028301805492939291840191610cd090612b20565b80601f0160208091040260200160405190810160405280929190818152602001828054610cfc90612b20565b8015610d495780601f10610d1e57610100808354040283529160200191610d49565b820191906000526020600020905b815481529060010190602001808311610d2c57829003601f168201915b50505050508152602001600382018054610d6290612b20565b80601f0160208091040260200160405190810160405280929190818152602001828054610d8e90612b20565b8015610ddb5780601f10610db057610100808354040283529160200191610ddb565b820191906000526020600020905b815481529060010190602001808311610dbe57829003601f168201915b50505050508152602001600482018054610df490612b20565b80601f0160208091040260200160405190810160405280929190818152602001828054610e2090612b20565b8015610e6d5780601f10610e4257610100808354040283529160200191610e6d565b820191906000526020600020905b815481529060010190602001808311610e5057829003601f168201915b505050918352505060058201546020820152600682015460408201526007820154606082015260088201546080820152600982015460a0820152600a82015460c09091019060ff166004811115610ec657610ec6612798565b6004811115610ed757610ed7612798565b8152505081526020019060010190610c7c565b505050509050919050565b6000818152600a602052604090205460609060ff16610f265760405162461bcd60e51b815260040161054790612b72565b600082815260096020908152604080832080548251818502810185019093528083529193909284015b82821015610eea576000848152602090819020604080516080810182526004860290920180546001600160a01b03168352600180820154848601526002820154928401929092526003015460ff16151560608301529083529092019101610f4f565b60008034116110115760405162461bcd60e51b815260206004820152602660248201527f457468657220616d6f756e74206d7573742062652067726561746572207468616044820152656e207a65726f60d01b6064820152608401610547565b6000828152600a602052604090205460ff1661103f5760405162461bcd60e51b815260040161054790612b72565b60006007838154811061105457611054612b9d565b60009182526020909120600a600b90920201015460ff16600481111561107c5761107c612798565b146110c95760405162461bcd60e51b815260206004820152601860248201527f50726f6a656374206e6f206c6f6e676572206f70656e656400000000000000006044820152606401610547565b6001600460010160008282546110df9190612aed565b9091555050600680543491906000906110f9908490612aed565b92505081905550346007838154811061111457611114612b9d565b90600052602060002090600b020160060160008282546111349190612aed565b9250508190555060016007838154811061115057611150612b9d565b90600052602060002090600b020160090160008282546111709190612aed565b9091555050600082815260096020908152604080832081516080808201845233808352348387019081524284870181815260608087018b8152885460018082018b55998d529b8b902097516004909c0290970180546001600160a01b0319166001600160a01b03909c169b909b178b559251968a01969096559451600289015592516003909701805460ff1916971515979097179096558351888152948501829052600e918501919091526d141493d29150d517d09050d2d15160921b9084015290820152600080516020612c228339815191529060a00160405180910390a26007828154811061126357611263612b9d565b90600052602060002090600b0201600501546007838154811061128857611288612b9d565b90600052602060002090600b02016006015410611333576001600783815481106112b4576112b4612b9d565b60009182526020909120600a600b9092020101805460ff191660018360048111156112e1576112e1612798565b0217905550600782815481106112f9576112f9612b9d565b90600052602060002090600b0201600601546003600082825461131c9190612aed565b9091555061132b905082612204565b506001919050565b6007828154811061134657611346612b9d565b90600052602060002090600b020160080154421061132b5760026007838154811061137357611373612b9d565b60009182526020909120600a600b9092020101805460ff191660018360048111156113a0576113a0612798565b021790555061132b8261237b565b6000546001600160a01b031633146113fe5760405162461bcd60e51b81526020600482015260136024820152724f776e6572207265736572766564206f6e6c7960681b6044820152606401610547565b600155565b6000806007838154811061141957611419612b9d565b60009182526020909120600a600b90920201015460ff16600481111561144157611441612798565b1461148e5760405162461bcd60e51b815260206004820152601960248201527f50726f6a656374206e6f206c6f6e676572206f70656e656421000000000000006044820152606401610547565b600782815481106114a1576114a1612b9d565b60009182526020909120600b90910201600101546001600160a01b031633146114dc5760405162461bcd60e51b815260040161054790612bb3565b6003600783815481106114f1576114f1612b9d565b60009182526020909120600a600b9092020101805460ff1916600183600481111561151e5761151e612798565b021790555061152c8261237b565b60408051838152606060208201819052600f908201526e141493d29150d517d1115311551151608a1b6080820152428183015290513391600080516020612c22833981519152919081900360a00190a2506001919050565b6000818152600960209081526040808320805482518185028101850190935280835260609492939192909184018215610eea576000848152602090819020604080516080810182526004860290920180546001600160a01b03168352600180820154848601526002820154928401929092526003015460ff16151560608301529083529092019101610f4f565b606061161c33610c44565b905090565b60006007868154811061163657611636612b9d565b60009182526020909120600b90910201600101546001600160a01b031633146116715760405162461bcd60e51b815260040161054790612bb3565b60008551116116bb5760405162461bcd60e51b81526020600482015260166024820152755469746c652063616e6e6f7420626520656d7074792160501b6044820152606401610547565b600084511161170c5760405162461bcd60e51b815260206004820152601c60248201527f4465736372697074696f6e2063616e6e6f7420626520656d70747921000000006044820152606401610547565b60008351116117595760405162461bcd60e51b8152602060048201526019602482015278496d61676555524c2063616e6e6f7420626520656d7074792160381b6044820152606401610547565b846007878154811061176d5761176d612b9d565b90600052602060002090600b0201600201908051906020019061179192919061255c565b5083600787815481106117a6576117a6612b9d565b90600052602060002090600b020160030190805190602001906117ca92919061255c565b5082600787815481106117df576117df612b9d565b90600052602060002090600b0201600401908051906020019061180392919061255c565b50816007878154811061181857611818612b9d565b90600052602060002090600b020160080181905550336001600160a01b0316600080516020612c228339815191528742604051611886929190918252606060208301819052600f908301526e141493d29150d517d5541110551151608a1b6080830152604082015260a00190565b60405180910390a250600195945050505050565b60006002600783815481106118b1576118b1612b9d565b60009182526020909120600a600b90920201015460ff1660048111156118d9576118d9612798565b14158061192157506003600783815481106118f6576118f6612b9d565b60009182526020909120600a600b90920201015460ff16600481111561191e5761191e612798565b14155b61197c5760405162461bcd60e51b815260206004820152602660248201527f50726f6a656374206e6f74206d61726b656420617320726576657274206f722060448201526564656c65746560d01b6064820152608401610547565b60026007838154811061137357611373612b9d565b60006001600783815481106119a8576119a8612b9d565b60009182526020909120600a600b90920201015460ff1660048111156119d0576119d0612798565b14611a155760405162461bcd60e51b815260206004820152601560248201527450726f6a656374206e6f7420417070726f7665642160581b6044820152606401610547565b60078281548110611a2857611a28612b9d565b60009182526020909120600b90910201600101546001600160a01b0316331480611a5c57506000546001600160a01b031633145b611a785760405162461bcd60e51b815260040161054790612bb3565b61132b82612204565b60055460609060008167ffffffffffffffff811115611aa257611aa26125f5565b604051908082528060200260200182016040528015611af457816020015b604080516080810182526000808252602080830182905292820181905260608201528252600019909201910181611ac05790505b5090506000805b600754811015611c3f5760006009600060078481548110611b1e57611b1e612b9d565b90600052602060002090600b0201600001548152602001908152602001600020805480602002602001604051908101604052809291908181526020016000905b82821015611bc0576000848152602090819020604080516080810182526004860290920180546001600160a01b03168352600180820154848601526002820154928401929092526003015460ff16151560608301529083529092019101611b5e565b50505050905060005b8151811015611c2a57818181518110611be457611be4612b9d565b6020026020010151858581518110611bfe57611bfe612b9d565b60200260200101819052508380611c1490612b05565b9450508080611c2290612b05565b915050611bc9565b50508080611c3790612b05565b915050611afb565b50909392505050565b60606007805480602002602001604051908101604052809291908181526020016000905b82821015611eda5760008481526020908190206040805161016081018252600b86029092018054835260018101546001600160a01b03169383019390935260028301805492939291840191611cc090612b20565b80601f0160208091040260200160405190810160405280929190818152602001828054611cec90612b20565b8015611d395780601f10611d0e57610100808354040283529160200191611d39565b820191906000526020600020905b815481529060010190602001808311611d1c57829003601f168201915b50505050508152602001600382018054611d5290612b20565b80601f0160208091040260200160405190810160405280929190818152602001828054611d7e90612b20565b8015611dcb5780601f10611da057610100808354040283529160200191611dcb565b820191906000526020600020905b815481529060010190602001808311611dae57829003601f168201915b50505050508152602001600482018054611de490612b20565b80601f0160208091040260200160405190810160405280929190818152602001828054611e1090612b20565b8015611e5d5780601f10611e3257610100808354040283529160200191611e5d565b820191906000526020600020905b815481529060010190602001808311611e4057829003601f168201915b505050918352505060058201546020820152600682015460408201526007820154606082015260088201546080820152600982015460a0820152600a82015460c09091019060ff166004811115611eb657611eb6612798565b6004811115611ec757611ec7612798565b8152505081526020019060010190611c6c565b50505050905090565b611eeb6124e9565b6000828152600a602052604090205460ff16611f195760405162461bcd60e51b815260040161054790612b72565b60078281548110611f2c57611f2c612b9d565b90600052602060002090600b020160405180610160016040529081600082015481526020016001820160009054906101000a90046001600160a01b03166001600160a01b03166001600160a01b03168152602001600282018054611f8f90612b20565b80601f0160208091040260200160405190810160405280929190818152602001828054611fbb90612b20565b80156120085780601f10611fdd57610100808354040283529160200191612008565b820191906000526020600020905b815481529060010190602001808311611feb57829003601f168201915b5050505050815260200160038201805461202190612b20565b80601f016020809104026020016040519081016040528092919081815260200182805461204d90612b20565b801561209a5780601f1061206f5761010080835404028352916020019161209a565b820191906000526020600020905b81548152906001019060200180831161207d57829003601f168201915b505050505081526020016004820180546120b390612b20565b80601f01602080910402602001604051908101604052809291908181526020018280546120df90612b20565b801561212c5780601f106121015761010080835404028352916020019161212c565b820191906000526020600020905b81548152906001019060200180831161210f57829003601f168201915b505050918352505060058201546020820152600682015460408201526007820154606082015260088201546080820152600982015460a0820152600a82015460c09091019060ff16600481111561218557612185612798565b600481111561219657612196612798565b90525092915050565b6000826001600160a01b03168260405160006040518083038185875af1925050503d80600081146121ec576040519150601f19603f3d011682016040523d82523d6000602084013e6121f1565b606091505b50509050806121ff57600080fd5b505050565b60006007828154811061221957612219612b9d565b90600052602060002090600b0201600601549050600060646001548361223f9190612be0565b6122499190612bff565b905060046007848154811061226057612260612b9d565b60009182526020909120600a600b9092020101805460ff1916600183600481111561228d5761228d612798565b02179055506122d4600784815481106122a8576122a8612b9d565b600091825260209091206001600b9092020101546001600160a01b03166122cf8385612b5b565b61219f565b6000546122ea906001600160a01b03168261219f565b600783815481106122fd576122fd612b9d565b90600052602060002090600b020160060154600360008282546123209190612b5b565b9091555050604080518481526060602082018190526010908201526f141493d29150d517d410525117d3d55560821b6080820152428183015290513391600080516020612c22833981519152919081900360a00190a2505050565b60005b6000828152600960205260409020548110156124e55760008281526009602052604081208054839081106123b4576123b4612b9d565b6000918252602080832060049092029091015485835260099091526040822080546001600160a01b03909216935090849081106123f3576123f3612b9d565b9060005260206000209060040201600101549050600160096000868152602001908152602001600020848154811061242d5761242d612b9d565b906000526020600020906004020160030160006101000a81548160ff0219169083151502179055504260096000868152602001908152602001600020848154811061247a5761247a612b9d565b906000526020600020906004020160020181905550612499828261219f565b6001600460010160008282546124af9190612b5b565b9091555050600680548291906000906124c9908490612b5b565b92505081905550505080806124dd90612b05565b91505061237e565b5050565b6040518061016001604052806000815260200160006001600160a01b0316815260200160608152602001606081526020016060815260200160008152602001600081526020016000815260200160008152602001600081526020016000600481111561255757612557612798565b905290565b82805461256890612b20565b90600052602060002090601f01602090048101928261258a57600085556125d0565b82601f106125a357805160ff19168380011785556125d0565b828001600101855582156125d0579182015b828111156125d05782518255916020019190600101906125b5565b506125dc9291506125e0565b5090565b5b808211156125dc57600081556001016125e1565b634e487b7160e01b600052604160045260246000fd5b600082601f83011261261c57600080fd5b813567ffffffffffffffff80821115612637576126376125f5565b604051601f8301601f19908116603f0116810190828211818310171561265f5761265f6125f5565b8160405283815286602085880101111561267857600080fd5b836020870160208301376000602085830101528094505050505092915050565b600080600080600060a086880312156126b057600080fd5b853567ffffffffffffffff808211156126c857600080fd5b6126d489838a0161260b565b965060208801359150808211156126ea57600080fd5b6126f689838a0161260b565b9550604088013591508082111561270c57600080fd5b506127198882890161260b565b9598949750949560608101359550608001359392505050565b60006020828403121561274457600080fd5b5035919050565b6000815180845260005b8181101561277157602081850181015186830182015201612755565b81811115612783576000602083870101525b50601f01601f19169290920160200192915050565b634e487b7160e01b600052602160045260246000fd5b600581106127cc57634e487b7160e01b600052602160045260246000fd5b9052565b8b81526001600160a01b038b166020820152610160604082018190526000906127fb8382018d61274b565b9050828103606084015261280f818c61274b565b90508281036080840152612823818b61274b565b9150508760a08301528660c08301528560e083015284610100830152836101208301526128546101408301846127ae565b9c9b505050505050505050505050565b60006020828403121561287657600080fd5b81356001600160a01b038116811461288d57600080fd5b9392505050565b60006101608251845260208301516128b760208601826001600160a01b03169052565b5060408301518160408601526128cf8286018261274b565b915050606083015184820360608601526128e9828261274b565b91505060808301518482036080860152612903828261274b565b91505060a083015160a085015260c083015160c085015260e083015160e08501526101008084015181860152506101208084015181860152506101408084015161294f828701826127ae565b5090949350505050565b6000602080830181845280855180835260408601915060408160051b870101925083870160005b828110156129ae57603f1988860301845261299c858351612894565b94509285019290850190600101612980565b5092979650505050505050565b602080825282518282018190526000919060409081850190868401855b82811015612a1d57815180516001600160a01b0316855286810151878601528581015186860152606090810151151590850152608090930192908501906001016129d8565b5091979650505050505050565b600080600080600060a08688031215612a4257600080fd5b85359450602086013567ffffffffffffffff80821115612a6157600080fd5b612a6d89838a0161260b565b95506040880135915080821115612a8357600080fd5b612a8f89838a0161260b565b94506060880135915080821115612aa557600080fd5b50612ab28882890161260b565b95989497509295608001359392505050565b60208152600061288d6020830184612894565b634e487b7160e01b600052601160045260246000fd5b60008219821115612b0057612b00612ad7565b500190565b6000600019821415612b1957612b19612ad7565b5060010190565b600181811c90821680612b3457607f821691505b60208210811415612b5557634e487b7160e01b600052602260045260246000fd5b50919050565b600082821015612b6d57612b6d612ad7565b500390565b602080825260119082015270141c9bda9958dd081b9bdd08199bdd5b99607a1b604082015260600190565b634e487b7160e01b600052603260045260246000fd5b602080825260139082015272556e617574686f72697a656420456e7469747960681b604082015260600190565b6000816000190483118215151615612bfa57612bfa612ad7565b500290565b600082612c1c57634e487b7160e01b600052601260045260246000fd5b50049056feaee8e5d3bbb2f71a951b5632cee20f7ac487b9f8ab4f66a236f7694b13af7c6aa2646970667358221220ac8a35180afb75b2d3e354b94b673beb39443b8e4891f12ae2aeb1a04ba3c41964736f6c634300080b0033",
  "linkReferences": {},
  "deployedLinkReferences": {}
}