{
  "_format": "hh-sol-artifact-1",
  "contractName": "SupportProjects",
  "sourceName": "src/contracts/SupportProjects.sol",
  "abi": [
    {
      "anonymous": false,
      "inputs": [
        {
          "indexed": false,
          "internalType": "uint256",
          "name": "id",
          "type": "uint256"
        },
        {
          "indexed": false,
          "internalType": "string",
          "name": "actionType",
          "type": "string"
        },
        {
          "indexed": true,
          "internalType": "address",
          "name": "executor",
          "type": "address"
        },
        {
          "indexed": false,
          "internalType": "uint256",
          "name": "timestamp",
          "type": "uint256"
        }
      ],
      "name": "Action",
      "type": "event"
    },
    {
      "inputs": [],
      "name": "balance",
      "outputs": [
        {
          "internalType": "uint256",
          "name": "",
          "type": "uint256"
        }
      ],
      "stateMutability": "view",
      "type": "function"
    },
    {
      "inputs": [],
      "name": "getAllSupporters",
      "outputs": [
        {
          "components": [
            {
              "internalType": "address",
              "name": "owner",
              "type": "address"
            },
            {
              "internalType": "uint256",
              "name": "contribution",
              "type": "uint256"
            },
            {
              "internalType": "uint256",
              "name": "timestamp",
              "type": "uint256"
            },
            {
              "internalType": "bool",
              "name": "refunded",
              "type": "bool"
            }
          ],
          "internalType": "struct DataTypes.Supporter[]",
          "name": "",
          "type": "tuple[]"
        }
      ],
      "stateMutability": "view",
      "type": "function"
    },
    {
      "inputs": [
        {
          "internalType": "uint256",
          "name": "id",
          "type": "uint256"
        }
      ],
      "name": "getSupporters",
      "outputs": [
        {
          "components": [
            {
              "internalType": "address",
              "name": "owner",
              "type": "address"
            },
            {
              "internalType": "uint256",
              "name": "contribution",
              "type": "uint256"
            },
            {
              "internalType": "uint256",
              "name": "timestamp",
              "type": "uint256"
            },
            {
              "internalType": "bool",
              "name": "refunded",
              "type": "bool"
            }
          ],
          "internalType": "struct DataTypes.Supporter[]",
          "name": "",
          "type": "tuple[]"
        }
      ],
      "stateMutability": "view",
      "type": "function"
    },
    {
      "inputs": [],
      "name": "getTotalDonationsCount",
      "outputs": [
        {
          "internalType": "uint256",
          "name": "",
          "type": "uint256"
        }
      ],
      "stateMutability": "view",
      "type": "function"
    },
    {
      "inputs": [],
      "name": "getTotalSupportersCount",
      "outputs": [
        {
          "internalType": "uint256",
          "name": "",
          "type": "uint256"
        }
      ],
      "stateMutability": "view",
      "type": "function"
    },
    {
      "inputs": [],
      "name": "owner",
      "outputs": [
        {
          "internalType": "address",
          "name": "",
          "type": "address"
        }
      ],
      "stateMutability": "view",
      "type": "function"
    },
    {
      "inputs": [
        {
          "internalType": "uint256",
          "name": "id",
          "type": "uint256"
        }
      ],
      "name": "payOutProject",
      "outputs": [
        {
          "internalType": "bool",
          "name": "",
          "type": "bool"
        }
      ],
      "stateMutability": "nonpayable",
      "type": "function"
    },
    {
      "inputs": [],
      "name": "projectCount",
      "outputs": [
        {
          "internalType": "uint256",
          "name": "",
          "type": "uint256"
        }
      ],
      "stateMutability": "view",
      "type": "function"
    },
    {
      "inputs": [
        {
          "internalType": "uint256",
          "name": "",
          "type": "uint256"
        }
      ],
      "name": "projectExist",
      "outputs": [
        {
          "internalType": "bool",
          "name": "",
          "type": "bool"
        }
      ],
      "stateMutability": "view",
      "type": "function"
    },
    {
      "inputs": [],
      "name": "projectTax",
      "outputs": [
        {
          "internalType": "uint256",
          "name": "",
          "type": "uint256"
        }
      ],
      "stateMutability": "view",
      "type": "function"
    },
    {
      "inputs": [
        {
          "internalType": "uint256",
          "name": "",
          "type": "uint256"
        }
      ],
      "name": "projects",
      "outputs": [
        {
          "internalType": "uint256",
          "name": "id",
          "type": "uint256"
        },
        {
          "internalType": "address",
          "name": "owner",
          "type": "address"
        },
        {
          "internalType": "string",
          "name": "title",
          "type": "string"
        },
        {
          "internalType": "string",
          "name": "description",
          "type": "string"
        },
        {
          "internalType": "string",
          "name": "imageURL",
          "type": "string"
        },
        {
          "internalType": "uint256",
          "name": "cost",
          "type": "uint256"
        },
        {
          "internalType": "uint256",
          "name": "raised",
          "type": "uint256"
        },
        {
          "internalType": "uint256",
          "name": "timestamp",
          "type": "uint256"
        },
        {
          "internalType": "uint256",
          "name": "expiresAt",
          "type": "uint256"
        },
        {
          "internalType": "uint256",
          "name": "supporters",
          "type": "uint256"
        },
        {
          "internalType": "enum DataTypes.Status",
          "name": "status",
          "type": "uint8"
        }
      ],
      "stateMutability": "view",
      "type": "function"
    },
    {
      "inputs": [
        {
          "internalType": "uint256",
          "name": "id",
          "type": "uint256"
        }
      ],
      "name": "requestRefund",
      "outputs": [
        {
          "internalType": "bool",
          "name": "",
          "type": "bool"
        }
      ],
      "stateMutability": "nonpayable",
      "type": "function"
    },
    {
      "inputs": [],
      "name": "stats",
      "outputs": [
        {
          "internalType": "uint256",
          "name": "totalProjects",
          "type": "uint256"
        },
        {
          "internalType": "uint256",
          "name": "totalSupporters",
          "type": "uint256"
        },
        {
          "internalType": "uint256",
          "name": "totalDonations",
          "type": "uint256"
        }
      ],
      "stateMutability": "view",
      "type": "function"
    },
    {
      "inputs": [
        {
          "internalType": "uint256",
          "name": "id",
          "type": "uint256"
        }
      ],
      "name": "supportProject",
      "outputs": [
        {
          "internalType": "bool",
          "name": "",
          "type": "bool"
        }
      ],
      "stateMutability": "payable",
      "type": "function"
    }
  ],
  "bytecode": "0x608060405234801561001057600080fd5b5061190d806100206000396000f3fe6080604052600436106100dd5760003560e01c80638da5cb5b1161007f578063b69ef8a811610059578063b69ef8a814610268578063bb14b2e41461027e578063d24cd3ec14610293578063d80528ae146102a957600080fd5b80638da5cb5b146101f0578063a4b2409e14610228578063b531dcba1461024857600080fd5b806338d58384116100bb57806338d583841461016957806348cefbda1461017e5780634f63829c146101935780638593054b146101c057600080fd5b8063107046bd146100e2578063329b0f9b1461012257806336fbad2614610145575b600080fd5b3480156100ee57600080fd5b506101026100fd36600461160e565b6102e3565b6040516101199b9a9998979695949392919061168a565b60405180910390f35b61013561013036600461160e565b6104f2565b6040519015158152602001610119565b34801561015157600080fd5b5061015b60025481565b604051908152602001610119565b34801561017557600080fd5b5060055461015b565b34801561018a57600080fd5b5060065461015b565b34801561019f57600080fd5b506101b36101ae36600461160e565b610dbc565b6040516101199190611735565b3480156101cc57600080fd5b506101356101db36600461160e565b600a6020526000908152604090205460ff1681565b3480156101fc57600080fd5b50600054610210906001600160a01b031681565b6040516001600160a01b039091168152602001610119565b34801561023457600080fd5b5061013561024336600461160e565b610e83565b34801561025457600080fd5b5061013561026336600461160e565b610fa9565b34801561027457600080fd5b5061015b60035481565b34801561028a57600080fd5b506101b36110eb565b34801561029f57600080fd5b5061015b60015481565b3480156102b557600080fd5b506004546005546006546102c892919083565b60408051938452602084019290925290820152606001610119565b600781815481106102f357600080fd5b60009182526020909120600b90910201805460018201546002830180549294506001600160a01b039091169291610329906117a4565b80601f0160208091040260200160405190810160405280929190818152602001828054610355906117a4565b80156103a25780601f10610377576101008083540402835291602001916103a2565b820191906000526020600020905b81548152906001019060200180831161038557829003601f168201915b5050505050908060030180546103b7906117a4565b80601f01602080910402602001604051908101604052809291908181526020018280546103e3906117a4565b80156104305780601f1061040557610100808354040283529160200191610430565b820191906000526020600020905b81548152906001019060200180831161041357829003601f168201915b505050505090806004018054610445906117a4565b80601f0160208091040260200160405190810160405280929190818152602001828054610471906117a4565b80156104be5780601f10610493576101008083540402835291602001916104be565b820191906000526020600020905b8154815290600101906020018083116104a157829003601f168201915b50505060058401546006850154600786015460088701546009880154600a9098015496979396929550909350919060ff168b565b60008034116105575760405162461bcd60e51b815260206004820152602660248201527f457468657220616d6f756e74206d7573742062652067726561746572207468616044820152656e207a65726f60d01b60648201526084015b60405180910390fd5b6000828152600a602052604090205460ff166105855760405162461bcd60e51b815260040161054e906117df565b60006007838154811061059a5761059a61180a565b60009182526020909120600a600b90920201015460ff1660048111156105c2576105c2611674565b1461060f5760405162461bcd60e51b815260206004820152601860248201527f50726f6a656374206e6f206c6f6e676572206f70656e65640000000000000000604482015260640161054e565b6001600460010160008282546106259190611836565b90915550506006805434919060009061063f908490611836565b92505081905550346007838154811061065a5761065a61180a565b90600052602060002090600b0201600601600082825461067a9190611836565b925050819055506001600783815481106106965761069661180a565b90600052602060002090600b020160090160008282546106b69190611836565b9091555050600082815260096020908152604080832081516080808201845233808352348387019081524284870181815260608087018b8152885460018082018b55998d529b8b902097516004909c0290970180546001600160a01b0319166001600160a01b03909c169b909b178b559251968a01969096559451600289015592516003909701805460ff1916971515979097179096558351888152948501829052600e918501919091526d141493d29150d517d09050d2d15160921b90840152908201527faee8e5d3bbb2f71a951b5632cee20f7ac487b9f8ab4f66a236f7694b13af7c6a9060a00160405180910390a2610a3b600783815481106107be576107be61180a565b90600052602060002090600b020160405180610160016040529081600082015481526020016001820160009054906101000a90046001600160a01b03166001600160a01b03166001600160a01b03168152602001600282018054610821906117a4565b80601f016020809104026020016040519081016040528092919081815260200182805461084d906117a4565b801561089a5780601f1061086f5761010080835404028352916020019161089a565b820191906000526020600020905b81548152906001019060200180831161087d57829003601f168201915b505050505081526020016003820180546108b3906117a4565b80601f01602080910402602001604051908101604052809291908181526020018280546108df906117a4565b801561092c5780601f106109015761010080835404028352916020019161092c565b820191906000526020600020905b81548152906001019060200180831161090f57829003601f168201915b50505050508152602001600482018054610945906117a4565b80601f0160208091040260200160405190810160405280929190818152602001828054610971906117a4565b80156109be5780601f10610993576101008083540402835291602001916109be565b820191906000526020600020905b8154815290600101906020018083116109a157829003601f168201915b505050918352505060058201546020820152600682015460408201526007820154606082015260088201546080820152600982015460a0820152600a82015460c09091019060ff166004811115610a1757610a17611674565b6004811115610a2857610a28611674565b90525060a081015160c090910151101590565b15610ad157600160078381548110610a5557610a5561180a565b60009182526020909120600a600b9092020101805460ff19166001836004811115610a8257610a82611674565b021790555060078281548110610a9a57610a9a61180a565b90600052602060002090600b02016006015460036000828254610abd9190611836565b90915550610acc9050826112b2565b610db4565b610d5f60078381548110610ae757610ae761180a565b90600052602060002090600b020160405180610160016040529081600082015481526020016001820160009054906101000a90046001600160a01b03166001600160a01b03166001600160a01b03168152602001600282018054610b4a906117a4565b80601f0160208091040260200160405190810160405280929190818152602001828054610b76906117a4565b8015610bc35780601f10610b9857610100808354040283529160200191610bc3565b820191906000526020600020905b815481529060010190602001808311610ba657829003601f168201915b50505050508152602001600382018054610bdc906117a4565b80601f0160208091040260200160405190810160405280929190818152602001828054610c08906117a4565b8015610c555780601f10610c2a57610100808354040283529160200191610c55565b820191906000526020600020905b815481529060010190602001808311610c3857829003601f168201915b50505050508152602001600482018054610c6e906117a4565b80601f0160208091040260200160405190810160405280929190818152602001828054610c9a906117a4565b8015610ce75780601f10610cbc57610100808354040283529160200191610ce7565b820191906000526020600020905b815481529060010190602001808311610cca57829003601f168201915b505050918352505060058201546020820152600682015460408201526007820154606082015260088201546080820152600982015460a0820152600a82015460c09091019060ff166004811115610d4057610d40611674565b6004811115610d5157610d51611674565b905250610100015142101590565b15610db457600260078381548110610d7957610d7961180a565b60009182526020909120600a600b9092020101805460ff19166001836004811115610da657610da6611674565b0217905550610db48261143b565b506001919050565b6000818152600a602052604090205460609060ff16610ded5760405162461bcd60e51b815260040161054e906117df565b600082815260096020908152604080832080548251818502810185019093528083529193909284015b82821015610e78576000848152602090819020604080516080810182526004860290920180546001600160a01b03168352600180820154848601526002820154928401929092526003015460ff16151560608301529083529092019101610e16565b505050509050919050565b6000818152600a602052604081205460ff16610eb15760405162461bcd60e51b815260040161054e906117df565b600260078381548110610ec657610ec661180a565b60009182526020909120600a600b90920201015460ff166004811115610eee57610eee611674565b141580610f365750600360078381548110610f0b57610f0b61180a565b60009182526020909120600a600b90920201015460ff166004811115610f3357610f33611674565b14155b610f945760405162461bcd60e51b815260206004820152602960248201527f50726f6a656374206e6f74206d61726b6564206173207265766572746564206f6044820152681c8819195b195d195960ba1b606482015260840161054e565b600260078381548110610d7957610d7961180a565b6000818152600a602052604081205460ff16610fd75760405162461bcd60e51b815260040161054e906117df565b600160078381548110610fec57610fec61180a565b60009182526020909120600a600b90920201015460ff16600481111561101457611014611674565b146110595760405162461bcd60e51b815260206004820152601560248201527450726f6a656374206e6f7420417070726f7665642160581b604482015260640161054e565b6007828154811061106c5761106c61180a565b60009182526020909120600b90910201600101546001600160a01b03163314806110a057506000546001600160a01b031633145b6110e25760405162461bcd60e51b8152602060048201526013602482015272556e617574686f72697a656420456e7469747960681b604482015260640161054e565b610db4826112b2565b60055460609060008167ffffffffffffffff81111561110c5761110c61184e565b60405190808252806020026020018201604052801561115e57816020015b60408051608081018252600080825260208083018290529282018190526060820152825260001990920191018161112a5790505b5090506000805b6007548110156112a957600060096000600784815481106111885761118861180a565b90600052602060002090600b0201600001548152602001908152602001600020805480602002602001604051908101604052809291908181526020016000905b8282101561122a576000848152602090819020604080516080810182526004860290920180546001600160a01b03168352600180820154848601526002820154928401929092526003015460ff161515606083015290835290920191016111c8565b50505050905060005b81518110156112945781818151811061124e5761124e61180a565b60200260200101518585815181106112685761126861180a565b6020026020010181905250838061127e90611864565b945050808061128c90611864565b915050611233565b505080806112a190611864565b915050611165565b50909392505050565b6000600782815481106112c7576112c761180a565b90600052602060002090600b020160060154905060006064600154836112ed919061187f565b6112f7919061189e565b905060046007848154811061130e5761130e61180a565b60009182526020909120600a600b9092020101805460ff1916600183600481111561133b5761133b611674565b0217905550611382600784815481106113565761135661180a565b600091825260209091206001600b9092020101546001600160a01b031661137d83856118c0565b6115a9565b600054611398906001600160a01b0316826115a9565b600783815481106113ab576113ab61180a565b90600052602060002090600b020160060154600360008282546113ce91906118c0565b9091555050604080518481526060602082018190526010908201526f141493d29150d517d410525117d3d55560821b60808201524281830152905133917faee8e5d3bbb2f71a951b5632cee20f7ac487b9f8ab4f66a236f7694b13af7c6a919081900360a00190a2505050565b60005b6000828152600960205260409020548110156115a55760008281526009602052604081208054839081106114745761147461180a565b6000918252602080832060049092029091015485835260099091526040822080546001600160a01b03909216935090849081106114b3576114b361180a565b906000526020600020906004020160010154905060016009600086815260200190815260200160002084815481106114ed576114ed61180a565b906000526020600020906004020160030160006101000a81548160ff0219169083151502179055504260096000868152602001908152602001600020848154811061153a5761153a61180a565b90600052602060002090600402016002018190555061155982826115a9565b60016004600101600082825461156f91906118c0565b9091555050600680548291906000906115899084906118c0565b925050819055505050808061159d90611864565b91505061143e565b5050565b6000826001600160a01b03168260405160006040518083038185875af1925050503d80600081146115f6576040519150601f19603f3d011682016040523d82523d6000602084013e6115fb565b606091505b505090508061160957600080fd5b505050565b60006020828403121561162057600080fd5b5035919050565b6000815180845260005b8181101561164d57602081850181015186830182015201611631565b8181111561165f576000602083870101525b50601f01601f19169290920160200192915050565b634e487b7160e01b600052602160045260246000fd5b8b81526001600160a01b038b166020820152610160604082018190526000906116b58382018d611627565b905082810360608401526116c9818c611627565b905082810360808401526116dd818b611627565b9150508760a08301528660c08301528560e083015284610100830152836101208301526005831061171e57634e487b7160e01b600052602160045260246000fd5b826101408301529c9b505050505050505050505050565b602080825282518282018190526000919060409081850190868401855b8281101561179757815180516001600160a01b031685528681015187860152858101518686015260609081015115159085015260809093019290850190600101611752565b5091979650505050505050565b600181811c908216806117b857607f821691505b602082108114156117d957634e487b7160e01b600052602260045260246000fd5b50919050565b602080825260119082015270141c9bda9958dd081b9bdd08199bdd5b99607a1b604082015260600190565b634e487b7160e01b600052603260045260246000fd5b634e487b7160e01b600052601160045260246000fd5b6000821982111561184957611849611820565b500190565b634e487b7160e01b600052604160045260246000fd5b600060001982141561187857611878611820565b5060010190565b600081600019048311821515161561189957611899611820565b500290565b6000826118bb57634e487b7160e01b600052601260045260246000fd5b500490565b6000828210156118d2576118d2611820565b50039056fea264697066735822122022f6c616deea56176fc1313ed22736ca8096d32f141898596ce81940c03d73d264736f6c634300080b0033",
  "linkReferences": {},
  "deployedLinkReferences": {}
}