{
  "_format": "hh-sol-artifact-1",
  "contractName": "SupportProjects",
  "sourceName": "src/contracts/SupportProjects.sol",
  "abi": [
    {
      "anonymous": false,
      "inputs": [
        {
          "indexed": false,
          "internalType": "uint256",
          "name": "id",
          "type": "uint256"
        },
        {
          "indexed": false,
          "internalType": "string",
          "name": "actionType",
          "type": "string"
        },
        {
          "indexed": true,
          "internalType": "address",
          "name": "executor",
          "type": "address"
        },
        {
          "indexed": false,
          "internalType": "uint256",
          "name": "timestamp",
          "type": "uint256"
        }
      ],
      "name": "Action",
      "type": "event"
    },
    {
      "inputs": [],
      "name": "balance",
      "outputs": [
        {
          "internalType": "uint256",
          "name": "",
          "type": "uint256"
        }
      ],
      "stateMutability": "view",
      "type": "function"
    },
    {
      "inputs": [],
      "name": "getAllSupporters",
      "outputs": [
        {
          "components": [
            {
              "internalType": "address",
              "name": "owner",
              "type": "address"
            },
            {
              "internalType": "uint256",
              "name": "contribution",
              "type": "uint256"
            },
            {
              "internalType": "uint256",
              "name": "timestamp",
              "type": "uint256"
            },
            {
              "internalType": "bool",
              "name": "refunded",
              "type": "bool"
            }
          ],
          "internalType": "struct DataTypes.Supporter[]",
          "name": "",
          "type": "tuple[]"
        }
      ],
      "stateMutability": "view",
      "type": "function"
    },
    {
      "inputs": [
        {
          "internalType": "uint256",
          "name": "id",
          "type": "uint256"
        }
      ],
      "name": "getSupporters",
      "outputs": [
        {
          "components": [
            {
              "internalType": "address",
              "name": "owner",
              "type": "address"
            },
            {
              "internalType": "uint256",
              "name": "contribution",
              "type": "uint256"
            },
            {
              "internalType": "uint256",
              "name": "timestamp",
              "type": "uint256"
            },
            {
              "internalType": "bool",
              "name": "refunded",
              "type": "bool"
            }
          ],
          "internalType": "struct DataTypes.Supporter[]",
          "name": "",
          "type": "tuple[]"
        }
      ],
      "stateMutability": "view",
      "type": "function"
    },
    {
      "inputs": [],
      "name": "getTotalDonationsCount",
      "outputs": [
        {
          "internalType": "uint256",
          "name": "",
          "type": "uint256"
        }
      ],
      "stateMutability": "view",
      "type": "function"
    },
    {
      "inputs": [],
      "name": "getTotalSupportersCount",
      "outputs": [
        {
          "internalType": "uint256",
          "name": "",
          "type": "uint256"
        }
      ],
      "stateMutability": "view",
      "type": "function"
    },
    {
      "inputs": [],
      "name": "owner",
      "outputs": [
        {
          "internalType": "address",
          "name": "",
          "type": "address"
        }
      ],
      "stateMutability": "view",
      "type": "function"
    },
    {
      "inputs": [
        {
          "internalType": "uint256",
          "name": "id",
          "type": "uint256"
        }
      ],
      "name": "payOutProject",
      "outputs": [
        {
          "internalType": "bool",
          "name": "",
          "type": "bool"
        }
      ],
      "stateMutability": "nonpayable",
      "type": "function"
    },
    {
      "inputs": [],
      "name": "projectCount",
      "outputs": [
        {
          "internalType": "uint256",
          "name": "",
          "type": "uint256"
        }
      ],
      "stateMutability": "view",
      "type": "function"
    },
    {
      "inputs": [
        {
          "internalType": "uint256",
          "name": "",
          "type": "uint256"
        }
      ],
      "name": "projectExist",
      "outputs": [
        {
          "internalType": "bool",
          "name": "",
          "type": "bool"
        }
      ],
      "stateMutability": "view",
      "type": "function"
    },
    {
      "inputs": [],
      "name": "projectTax",
      "outputs": [
        {
          "internalType": "uint256",
          "name": "",
          "type": "uint256"
        }
      ],
      "stateMutability": "view",
      "type": "function"
    },
    {
      "inputs": [
        {
          "internalType": "uint256",
          "name": "",
          "type": "uint256"
        }
      ],
      "name": "projects",
      "outputs": [
        {
          "internalType": "uint256",
          "name": "id",
          "type": "uint256"
        },
        {
          "internalType": "address",
          "name": "owner",
          "type": "address"
        },
        {
          "internalType": "string",
          "name": "title",
          "type": "string"
        },
        {
          "internalType": "string",
          "name": "description",
          "type": "string"
        },
        {
          "internalType": "string",
          "name": "imageURL",
          "type": "string"
        },
        {
          "internalType": "uint256",
          "name": "cost",
          "type": "uint256"
        },
        {
          "internalType": "uint256",
          "name": "raised",
          "type": "uint256"
        },
        {
          "internalType": "uint256",
          "name": "timestamp",
          "type": "uint256"
        },
        {
          "internalType": "uint256",
          "name": "expiresAt",
          "type": "uint256"
        },
        {
          "internalType": "uint256",
          "name": "supporters",
          "type": "uint256"
        },
        {
          "internalType": "enum DataTypes.Status",
          "name": "status",
          "type": "uint8"
        }
      ],
      "stateMutability": "view",
      "type": "function"
    },
    {
      "inputs": [
        {
          "internalType": "uint256",
          "name": "id",
          "type": "uint256"
        }
      ],
      "name": "requestRefund",
      "outputs": [
        {
          "internalType": "bool",
          "name": "",
          "type": "bool"
        }
      ],
      "stateMutability": "nonpayable",
      "type": "function"
    },
    {
      "inputs": [],
      "name": "stats",
      "outputs": [
        {
          "internalType": "uint256",
          "name": "totalProjects",
          "type": "uint256"
        },
        {
          "internalType": "uint256",
          "name": "totalSupporters",
          "type": "uint256"
        },
        {
          "internalType": "uint256",
          "name": "totalDonations",
          "type": "uint256"
        }
      ],
      "stateMutability": "view",
      "type": "function"
    },
    {
      "inputs": [
        {
          "internalType": "uint256",
          "name": "id",
          "type": "uint256"
        }
      ],
      "name": "supportProject",
      "outputs": [
        {
          "internalType": "bool",
          "name": "",
          "type": "bool"
        }
      ],
      "stateMutability": "payable",
      "type": "function"
    },
    {
      "inputs": [],
      "name": "withdrawFunds",
      "outputs": [],
      "stateMutability": "nonpayable",
      "type": "function"
    },
    {
      "inputs": [
        {
          "internalType": "address",
          "name": "",
          "type": "address"
        }
      ],
      "name": "withdrawals",
      "outputs": [
        {
          "internalType": "uint256",
          "name": "",
          "type": "uint256"
        }
      ],
      "stateMutability": "view",
      "type": "function"
    }
  ],
  "bytecode": "0x608060405234801561001057600080fd5b506001600c55611b50806100256000396000f3fe6080604052600436106100f35760003560e01c80638593054b1161008a578063b69ef8a811610059578063b69ef8a8146102c2578063bb14b2e4146102d8578063d24cd3ec146102ed578063d80528ae1461030357600080fd5b80638593054b1461021a5780638da5cb5b1461024a578063a4b2409e14610282578063b531dcba146102a257600080fd5b806338d58384116100c657806338d583841461019657806348cefbda146101ab5780634f63829c146101c05780637a9262a2146101ed57600080fd5b8063107046bd146100f857806324600fc314610138578063329b0f9b1461014f57806336fbad2614610172575b600080fd5b34801561010457600080fd5b50610118610113366004611836565b61033d565b60405161012f9b9a999897969594939291906118ab565b60405180910390f35b34801561014457600080fd5b5061014d61054c565b005b61016261015d366004611836565b61064d565b604051901515815260200161012f565b34801561017e57600080fd5b5061018860025481565b60405190815260200161012f565b3480156101a257600080fd5b50600554610188565b3480156101b757600080fd5b50600654610188565b3480156101cc57600080fd5b506101e06101db366004611836565b610f12565b60405161012f9190611956565b3480156101f957600080fd5b506101886102083660046119c5565b60086020526000908152604090205481565b34801561022657600080fd5b50610162610235366004611836565b600b6020526000908152604090205460ff1681565b34801561025657600080fd5b5060005461026a906001600160a01b031681565b6040516001600160a01b03909116815260200161012f565b34801561028e57600080fd5b5061016261029d366004611836565b610fd9565b3480156102ae57600080fd5b506101626102bd366004611836565b6110ff565b3480156102ce57600080fd5b5061018860035481565b3480156102e457600080fd5b506101e0611241565b3480156102f957600080fd5b5061018860015481565b34801561030f57600080fd5b5060045460055460065461032292919083565b6040805193845260208401929092529082015260600161012f565b6007818154811061034d57600080fd5b60009182526020909120600b90910201805460018201546002830180549294506001600160a01b039091169291610383906119f5565b80601f01602080910402602001604051908101604052809291908181526020018280546103af906119f5565b80156103fc5780601f106103d1576101008083540402835291602001916103fc565b820191906000526020600020905b8154815290600101906020018083116103df57829003601f168201915b505050505090806003018054610411906119f5565b80601f016020809104026020016040519081016040528092919081815260200182805461043d906119f5565b801561048a5780601f1061045f5761010080835404028352916020019161048a565b820191906000526020600020905b81548152906001019060200180831161046d57829003601f168201915b50505050509080600401805461049f906119f5565b80601f01602080910402602001604051908101604052809291908181526020018280546104cb906119f5565b80156105185780601f106104ed57610100808354040283529160200191610518565b820191906000526020600020905b8154815290600101906020018083116104fb57829003601f168201915b50505060058401546006850154600786015460088701546009880154600a9098015496979396929550909350919060ff168b565b33600090815260086020526040902054806105ae5760405162461bcd60e51b815260206004820152601e60248201527f4e6f2066756e647320617661696c61626c6520746f207769746864726177000060448201526064015b60405180910390fd5b336000818152600860205260408082208290555190919083908381818185875af1925050503d80600081146105ff576040519150601f19603f3d011682016040523d82523d6000602084013e610604565b606091505b50509050806106495760405162461bcd60e51b815260206004820152601160248201527015da5d1a191c985dd85b0819985a5b1959607a1b60448201526064016105a5565b5050565b60008034116106ad5760405162461bcd60e51b815260206004820152602660248201527f457468657220616d6f756e74206d7573742062652067726561746572207468616044820152656e207a65726f60d01b60648201526084016105a5565b6000828152600b602052604090205460ff166106db5760405162461bcd60e51b81526004016105a590611a2f565b6000600783815481106106f0576106f0611a5a565b60009182526020909120600a600b90920201015460ff16600481111561071857610718611895565b146107655760405162461bcd60e51b815260206004820152601860248201527f50726f6a656374206e6f206c6f6e676572206f70656e6564000000000000000060448201526064016105a5565b60016004600101600082825461077b9190611a86565b909155505060068054349190600090610795908490611a86565b9250508190555034600783815481106107b0576107b0611a5a565b90600052602060002090600b020160060160008282546107d09190611a86565b925050819055506001600783815481106107ec576107ec611a5a565b90600052602060002090600b0201600901600082825461080c9190611a86565b90915550506000828152600a6020908152604080832081516080808201845233808352348387019081524284870181815260608087018b8152885460018082018b55998d529b8b902097516004909c0290970180546001600160a01b0319166001600160a01b03909c169b909b178b559251968a01969096559451600289015592516003909701805460ff1916971515979097179096558351888152948501829052600e918501919091526d141493d29150d517d09050d2d15160921b90840152908201527faee8e5d3bbb2f71a951b5632cee20f7ac487b9f8ab4f66a236f7694b13af7c6a9060a00160405180910390a2610b916007838154811061091457610914611a5a565b90600052602060002090600b020160405180610160016040529081600082015481526020016001820160009054906101000a90046001600160a01b03166001600160a01b03166001600160a01b03168152602001600282018054610977906119f5565b80601f01602080910402602001604051908101604052809291908181526020018280546109a3906119f5565b80156109f05780601f106109c5576101008083540402835291602001916109f0565b820191906000526020600020905b8154815290600101906020018083116109d357829003601f168201915b50505050508152602001600382018054610a09906119f5565b80601f0160208091040260200160405190810160405280929190818152602001828054610a35906119f5565b8015610a825780601f10610a5757610100808354040283529160200191610a82565b820191906000526020600020905b815481529060010190602001808311610a6557829003601f168201915b50505050508152602001600482018054610a9b906119f5565b80601f0160208091040260200160405190810160405280929190818152602001828054610ac7906119f5565b8015610b145780601f10610ae957610100808354040283529160200191610b14565b820191906000526020600020905b815481529060010190602001808311610af757829003601f168201915b505050918352505060058201546020820152600682015460408201526007820154606082015260088201546080820152600982015460a0820152600a82015460c09091019060ff166004811115610b6d57610b6d611895565b6004811115610b7e57610b7e611895565b90525060a081015160c090910151101590565b15610c2757600160078381548110610bab57610bab611a5a565b60009182526020909120600a600b9092020101805460ff19166001836004811115610bd857610bd8611895565b021790555060078281548110610bf057610bf0611a5a565b90600052602060002090600b02016006015460036000828254610c139190611a86565b90915550610c22905082611408565b610f0a565b610eb560078381548110610c3d57610c3d611a5a565b90600052602060002090600b020160405180610160016040529081600082015481526020016001820160009054906101000a90046001600160a01b03166001600160a01b03166001600160a01b03168152602001600282018054610ca0906119f5565b80601f0160208091040260200160405190810160405280929190818152602001828054610ccc906119f5565b8015610d195780601f10610cee57610100808354040283529160200191610d19565b820191906000526020600020905b815481529060010190602001808311610cfc57829003601f168201915b50505050508152602001600382018054610d32906119f5565b80601f0160208091040260200160405190810160405280929190818152602001828054610d5e906119f5565b8015610dab5780601f10610d8057610100808354040283529160200191610dab565b820191906000526020600020905b815481529060010190602001808311610d8e57829003601f168201915b50505050508152602001600482018054610dc4906119f5565b80601f0160208091040260200160405190810160405280929190818152602001828054610df0906119f5565b8015610e3d5780601f10610e1257610100808354040283529160200191610e3d565b820191906000526020600020905b815481529060010190602001808311610e2057829003601f168201915b505050918352505060058201546020820152600682015460408201526007820154606082015260088201546080820152600982015460a0820152600a82015460c09091019060ff166004811115610e9657610e96611895565b6004811115610ea757610ea7611895565b905250610100015142101590565b15610f0a57600260078381548110610ecf57610ecf611a5a565b60009182526020909120600a600b9092020101805460ff19166001836004811115610efc57610efc611895565b0217905550610f0a82611591565b506001919050565b6000818152600b602052604090205460609060ff16610f435760405162461bcd60e51b81526004016105a590611a2f565b6000828152600a6020908152604080832080548251818502810185019093528083529193909284015b82821015610fce576000848152602090819020604080516080810182526004860290920180546001600160a01b03168352600180820154848601526002820154928401929092526003015460ff16151560608301529083529092019101610f6c565b505050509050919050565b6000818152600b602052604081205460ff166110075760405162461bcd60e51b81526004016105a590611a2f565b60026007838154811061101c5761101c611a5a565b60009182526020909120600a600b90920201015460ff16600481111561104457611044611895565b14158061108c575060036007838154811061106157611061611a5a565b60009182526020909120600a600b90920201015460ff16600481111561108957611089611895565b14155b6110ea5760405162461bcd60e51b815260206004820152602960248201527f50726f6a656374206e6f74206d61726b6564206173207265766572746564206f6044820152681c8819195b195d195960ba1b60648201526084016105a5565b600260078381548110610ecf57610ecf611a5a565b6000818152600b602052604081205460ff1661112d5760405162461bcd60e51b81526004016105a590611a2f565b60016007838154811061114257611142611a5a565b60009182526020909120600a600b90920201015460ff16600481111561116a5761116a611895565b146111af5760405162461bcd60e51b815260206004820152601560248201527450726f6a656374206e6f7420417070726f7665642160581b60448201526064016105a5565b600782815481106111c2576111c2611a5a565b60009182526020909120600b90910201600101546001600160a01b03163314806111f657506000546001600160a01b031633145b6112385760405162461bcd60e51b8152602060048201526013602482015272556e617574686f72697a656420456e7469747960681b60448201526064016105a5565b610f0a82611408565b60055460609060008167ffffffffffffffff81111561126257611262611a9f565b6040519080825280602002602001820160405280156112b457816020015b6040805160808101825260008082526020808301829052928201819052606082015282526000199092019101816112805790505b5090506000805b6007548110156113ff576000600a6000600784815481106112de576112de611a5a565b90600052602060002090600b0201600001548152602001908152602001600020805480602002602001604051908101604052809291908181526020016000905b82821015611380576000848152602090819020604080516080810182526004860290920180546001600160a01b03168352600180820154848601526002820154928401929092526003015460ff1615156060830152908352909201910161131e565b50505050905060005b81518110156113ea578181815181106113a4576113a4611a5a565b60200260200101518585815181106113be576113be611a5a565b602002602001018190525083806113d490611ab5565b94505080806113e290611ab5565b915050611389565b505080806113f790611ab5565b9150506112bb565b50909392505050565b60006007828154811061141d5761141d611a5a565b90600052602060002090600b020160060154905060006064600154836114439190611ace565b61144d9190611ae5565b905060046007848154811061146457611464611a5a565b60009182526020909120600a600b9092020101805460ff1916600183600481111561149157611491611895565b02179055506114d8600784815481106114ac576114ac611a5a565b600091825260209091206001600b9092020101546001600160a01b03166114d38385611b07565b611778565b6000546114ee906001600160a01b031682611778565b6007838154811061150157611501611a5a565b90600052602060002090600b020160060154600360008282546115249190611b07565b9091555050604080518481526060602082018190526010908201526f141493d29150d517d410525117d3d55560821b60808201524281830152905133917faee8e5d3bbb2f71a951b5632cee20f7ac487b9f8ab4f66a236f7694b13af7c6a919081900360a00190a2505050565b6115996117dd565b60005b6000828152600a602052604090205481101561176a576000828152600a602052604090208054829081106115d2576115d2611a5a565b600091825260209091206003600490920201015460ff16611758576000828152600a6020526040812080548390811061160d5761160d611a5a565b60009182526020808320600490920290910154858352600a9091526040822080546001600160a01b039092169350908490811061164c5761164c611a5a565b90600052602060002090600402016001015490508060086000846001600160a01b03166001600160a01b0316815260200190815260200160002060008282546116959190611a86565b90915550506000848152600a60205260409020805460019190859081106116be576116be611a5a565b906000526020600020906004020160030160006101000a81548160ff02191690831515021790555042600a6000868152602001908152602001600020848154811061170b5761170b611a5a565b9060005260206000209060040201600201819055506001600460010160008282546117369190611b07565b909155505060068054829190600090611750908490611b07565b909155505050505b8061176281611ab5565b91505061159c565b506117756001600c55565b50565b6000826001600160a01b03168260405160006040518083038185875af1925050503d80600081146117c5576040519150601f19603f3d011682016040523d82523d6000602084013e6117ca565b606091505b50509050806117d857600080fd5b505050565b6002600c540361182f5760405162461bcd60e51b815260206004820152601f60248201527f5265656e7472616e637947756172643a207265656e7472616e742063616c6c0060448201526064016105a5565b6002600c55565b60006020828403121561184857600080fd5b5035919050565b6000815180845260005b8181101561187557602081850181015186830182015201611859565b506000602082860101526020601f19601f83011685010191505092915050565b634e487b7160e01b600052602160045260246000fd5b8b81526001600160a01b038b166020820152610160604082018190526000906118d68382018d61184f565b905082810360608401526118ea818c61184f565b905082810360808401526118fe818b61184f565b9150508760a08301528660c08301528560e083015284610100830152836101208301526005831061193f57634e487b7160e01b600052602160045260246000fd5b826101408301529c9b505050505050505050505050565b602080825282518282018190526000919060409081850190868401855b828110156119b857815180516001600160a01b031685528681015187860152858101518686015260609081015115159085015260809093019290850190600101611973565b5091979650505050505050565b6000602082840312156119d757600080fd5b81356001600160a01b03811681146119ee57600080fd5b9392505050565b600181811c90821680611a0957607f821691505b602082108103611a2957634e487b7160e01b600052602260045260246000fd5b50919050565b602080825260119082015270141c9bda9958dd081b9bdd08199bdd5b99607a1b604082015260600190565b634e487b7160e01b600052603260045260246000fd5b634e487b7160e01b600052601160045260246000fd5b80820180821115611a9957611a99611a70565b92915050565b634e487b7160e01b600052604160045260246000fd5b600060018201611ac757611ac7611a70565b5060010190565b8082028115828204841417611a9957611a99611a70565b600082611b0257634e487b7160e01b600052601260045260246000fd5b500490565b81810381811115611a9957611a99611a7056fea2646970667358221220e10e69ef3fd93e42b8a988b499e7b6cf08c1c00be6f1640a4a35eccc8dd6e38f64736f6c63430008130033",
  "linkReferences": {},
  "deployedLinkReferences": {}
}